{
    "contractName": "UnilevelSystem",
    "abi": [
        {
            "inputs": [],
            "stateMutability": "nonpayable",
            "type": "constructor"
        },
        {
            "anonymous": false,
            "inputs": [
                {
                    "indexed": true,
                    "internalType": "address",
                    "name": "admin",
                    "type": "address"
                }
            ],
            "name": "AdminRemoved",
            "type": "event"
        },
        {
            "anonymous": false,
            "inputs": [
                {
                    "indexed": true,
                    "internalType": "address",
                    "name": "admin",
                    "type": "address"
                }
            ],
            "name": "NewAdmin",
            "type": "event"
        },
        {
            "anonymous": false,
            "inputs": [
                {
                    "indexed": true,
                    "internalType": "address",
                    "name": "previousOwner",
                    "type": "address"
                },
                {
                    "indexed": true,
                    "internalType": "address",
                    "name": "newOwner",
                    "type": "address"
                }
            ],
            "name": "OwnershipTransferred",
            "type": "event"
        },
        {
            "stateMutability": "payable",
            "type": "fallback"
        },
        {
            "inputs": [
                {
                    "internalType": "address",
                    "name": "_tokenTRC20",
                    "type": "address"
                }
            ],
            "name": "ChangeTokenPrincipal",
            "outputs": [
                {
                    "internalType": "bool",
                    "name": "",
                    "type": "bool"
                }
            ],
            "stateMutability": "nonpayable",
            "type": "function"
        },
        {
            "inputs": [],
            "name": "MIN_RETIRO",
            "outputs": [
                {
                    "internalType": "uint256",
                    "name": "",
                    "type": "uint256"
                }
            ],
            "stateMutability": "view",
            "type": "function"
        },
        {
            "inputs": [],
            "name": "PRECIO_BLOCK",
            "outputs": [
                {
                    "internalType": "uint256",
                    "name": "",
                    "type": "uint256"
                }
            ],
            "stateMutability": "view",
            "type": "function"
        },
        {
            "inputs": [],
            "name": "activerFee",
            "outputs": [
                {
                    "internalType": "uint256",
                    "name": "",
                    "type": "uint256"
                }
            ],
            "stateMutability": "view",
            "type": "function"
        },
        {
            "inputs": [
                {
                    "internalType": "bool[]",
                    "name": "old",
                    "type": "bool[]"
                }
            ],
            "name": "actualizarArrayBool",
            "outputs": [
                {
                    "internalType": "bool[]",
                    "name": "",
                    "type": "bool[]"
                }
            ],
            "stateMutability": "pure",
            "type": "function"
        },
        {
            "inputs": [
                {
                    "internalType": "uint256[]",
                    "name": "old",
                    "type": "uint256[]"
                }
            ],
            "name": "actualizarArrayUint256",
            "outputs": [
                {
                    "internalType": "uint256[]",
                    "name": "",
                    "type": "uint256[]"
                }
            ],
            "stateMutability": "pure",
            "type": "function"
        },
        {
            "inputs": [
                {
                    "internalType": "address[]",
                    "name": "oldNetwork",
                    "type": "address[]"
                }
            ],
            "name": "actualizarNetwork",
            "outputs": [
                {
                    "internalType": "address[]",
                    "name": "",
                    "type": "address[]"
                }
            ],
            "stateMutability": "pure",
            "type": "function"
        },
        {
            "inputs": [
                {
                    "internalType": "address",
                    "name": "",
                    "type": "address"
                }
            ],
            "name": "addressToId",
            "outputs": [
                {
                    "internalType": "uint256",
                    "name": "",
                    "type": "uint256"
                }
            ],
            "stateMutability": "view",
            "type": "function"
        },
        {
            "inputs": [
                {
                    "internalType": "address",
                    "name": "",
                    "type": "address"
                }
            ],
            "name": "admin",
            "outputs": [
                {
                    "internalType": "bool",
                    "name": "",
                    "type": "bool"
                }
            ],
            "stateMutability": "view",
            "type": "function"
        },
        {
            "inputs": [
                {
                    "internalType": "address[]",
                    "name": "network",
                    "type": "address[]"
                }
            ],
            "name": "allnetwork",
            "outputs": [
                {
                    "internalType": "address[]",
                    "name": "",
                    "type": "address[]"
                }
            ],
            "stateMutability": "view",
            "type": "function"
        },
        {
            "inputs": [
                {
                    "internalType": "address",
                    "name": "_user",
                    "type": "address"
                },
                {
                    "internalType": "uint256",
                    "name": "_bloks",
                    "type": "uint256"
                },
                {
                    "internalType": "bool",
                    "name": "_infinity",
                    "type": "bool"
                }
            ],
            "name": "asignarBloke",
            "outputs": [
                {
                    "internalType": "bool",
                    "name": "",
                    "type": "bool"
                }
            ],
            "stateMutability": "nonpayable",
            "type": "function"
        },
        {
            "inputs": [
                {
                    "internalType": "address",
                    "name": "_user",
                    "type": "address"
                },
                {
                    "internalType": "address",
                    "name": "_sponsor",
                    "type": "address"
                }
            ],
            "name": "asignarMembership",
            "outputs": [
                {
                    "internalType": "bool",
                    "name": "",
                    "type": "bool"
                }
            ],
            "stateMutability": "nonpayable",
            "type": "function"
        },
        {
            "inputs": [
                {
                    "internalType": "uint256",
                    "name": "",
                    "type": "uint256"
                }
            ],
            "name": "baserange",
            "outputs": [
                {
                    "internalType": "bool",
                    "name": "",
                    "type": "bool"
                }
            ],
            "stateMutability": "view",
            "type": "function"
        },
        {
            "inputs": [
                {
                    "internalType": "uint256",
                    "name": "_bloks",
                    "type": "uint256"
                }
            ],
            "name": "buyBlocks",
            "outputs": [],
            "stateMutability": "nonpayable",
            "type": "function"
        },
        {
            "inputs": [
                {
                    "internalType": "address",
                    "name": "yo",
                    "type": "address"
                },
                {
                    "internalType": "uint256",
                    "name": "_largo",
                    "type": "uint256"
                }
            ],
            "name": "column",
            "outputs": [
                {
                    "internalType": "address[]",
                    "name": "",
                    "type": "address[]"
                }
            ],
            "stateMutability": "view",
            "type": "function"
        },
        {
            "inputs": [
                {
                    "internalType": "address",
                    "name": "yo",
                    "type": "address"
                }
            ],
            "name": "columnHijos",
            "outputs": [
                {
                    "internalType": "address[]",
                    "name": "",
                    "type": "address[]"
                }
            ],
            "stateMutability": "view",
            "type": "function"
        },
        {
            "inputs": [
                {
                    "internalType": "bool",
                    "name": "_true_false",
                    "type": "bool"
                }
            ],
            "name": "controlWitdrawl",
            "outputs": [
                {
                    "internalType": "bool",
                    "name": "",
                    "type": "bool"
                }
            ],
            "stateMutability": "nonpayable",
            "type": "function"
        },
        {
            "inputs": [
                {
                    "internalType": "address",
                    "name": "_user",
                    "type": "address"
                },
                {
                    "internalType": "bool",
                    "name": "_infinity",
                    "type": "bool"
                }
            ],
            "name": "depositos",
            "outputs": [
                {
                    "internalType": "uint256[]",
                    "name": "",
                    "type": "uint256[]"
                },
                {
                    "internalType": "uint256[]",
                    "name": "",
                    "type": "uint256[]"
                },
                {
                    "internalType": "bool[]",
                    "name": "",
                    "type": "bool[]"
                },
                {
                    "internalType": "uint256",
                    "name": "",
                    "type": "uint256"
                }
            ],
            "stateMutability": "view",
            "type": "function"
        },
        {
            "inputs": [],
            "name": "descuento",
            "outputs": [
                {
                    "internalType": "uint256",
                    "name": "",
                    "type": "uint256"
                }
            ],
            "stateMutability": "view",
            "type": "function"
        },
        {
            "inputs": [],
            "name": "dias",
            "outputs": [
                {
                    "internalType": "uint256",
                    "name": "",
                    "type": "uint256"
                }
            ],
            "stateMutability": "view",
            "type": "function"
        },
        {
            "inputs": [],
            "name": "duracionMembership",
            "outputs": [
                {
                    "internalType": "uint256",
                    "name": "",
                    "type": "uint256"
                }
            ],
            "stateMutability": "view",
            "type": "function"
        },
        {
            "inputs": [
                {
                    "internalType": "uint256",
                    "name": "",
                    "type": "uint256"
                }
            ],
            "name": "gananciasRango",
            "outputs": [
                {
                    "internalType": "uint256",
                    "name": "",
                    "type": "uint256"
                }
            ],
            "stateMutability": "view",
            "type": "function"
        },
        {
            "inputs": [
                {
                    "internalType": "address",
                    "name": "",
                    "type": "address"
                },
                {
                    "internalType": "uint256",
                    "name": "",
                    "type": "uint256"
                }
            ],
            "name": "hijo",
            "outputs": [
                {
                    "internalType": "address",
                    "name": "",
                    "type": "address"
                }
            ],
            "stateMutability": "view",
            "type": "function"
        },
        {
            "inputs": [
                {
                    "internalType": "uint256",
                    "name": "",
                    "type": "uint256"
                }
            ],
            "name": "idToAddress",
            "outputs": [
                {
                    "internalType": "address",
                    "name": "",
                    "type": "address"
                }
            ],
            "stateMutability": "view",
            "type": "function"
        },
        {
            "inputs": [
                {
                    "internalType": "uint256",
                    "name": "",
                    "type": "uint256"
                }
            ],
            "name": "infinity",
            "outputs": [
                {
                    "internalType": "uint256",
                    "name": "",
                    "type": "uint256"
                }
            ],
            "stateMutability": "view",
            "type": "function"
        },
        {
            "inputs": [],
            "name": "inversiones",
            "outputs": [
                {
                    "internalType": "uint256",
                    "name": "",
                    "type": "uint256"
                }
            ],
            "stateMutability": "view",
            "type": "function"
        },
        {
            "inputs": [
                {
                    "internalType": "address",
                    "name": "",
                    "type": "address"
                }
            ],
            "name": "investors",
            "outputs": [
                {
                    "internalType": "bool",
                    "name": "registered",
                    "type": "bool"
                },
                {
                    "internalType": "uint256",
                    "name": "membership",
                    "type": "uint256"
                },
                {
                    "internalType": "uint256",
                    "name": "balanceRef",
                    "type": "uint256"
                },
                {
                    "internalType": "uint256",
                    "name": "totalRef",
                    "type": "uint256"
                },
                {
                    "internalType": "uint256",
                    "name": "invested",
                    "type": "uint256"
                },
                {
                    "internalType": "uint256",
                    "name": "paidAt",
                    "type": "uint256"
                },
                {
                    "internalType": "uint256",
                    "name": "paidAt2",
                    "type": "uint256"
                },
                {
                    "internalType": "uint256",
                    "name": "withdrawn",
                    "type": "uint256"
                },
                {
                    "internalType": "uint256",
                    "name": "directos",
                    "type": "uint256"
                },
                {
                    "internalType": "string",
                    "name": "data",
                    "type": "string"
                },
                {
                    "internalType": "uint256",
                    "name": "blokesDirectos",
                    "type": "uint256"
                }
            ],
            "stateMutability": "view",
            "type": "function"
        },
        {
            "inputs": [],
            "name": "lastUserId",
            "outputs": [
                {
                    "internalType": "uint256",
                    "name": "",
                    "type": "uint256"
                }
            ],
            "stateMutability": "view",
            "type": "function"
        },
        {
            "inputs": [
                {
                    "internalType": "address payable",
                    "name": "_newadmin",
                    "type": "address"
                }
            ],
            "name": "makeNewAdmin",
            "outputs": [],
            "stateMutability": "nonpayable",
            "type": "function"
        },
        {
            "inputs": [
                {
                    "internalType": "address payable",
                    "name": "_oldadmin",
                    "type": "address"
                }
            ],
            "name": "makeRemoveAdmin",
            "outputs": [],
            "stateMutability": "nonpayable",
            "type": "function"
        },
        {
            "inputs": [],
            "name": "newRecompensa",
            "outputs": [],
            "stateMutability": "nonpayable",
            "type": "function"
        },
        {
            "inputs": [],
            "name": "onOffWitdrawl",
            "outputs": [
                {
                    "internalType": "bool",
                    "name": "",
                    "type": "bool"
                }
            ],
            "stateMutability": "view",
            "type": "function"
        },
        {
            "inputs": [],
            "name": "owner",
            "outputs": [
                {
                    "internalType": "address payable",
                    "name": "",
                    "type": "address"
                }
            ],
            "stateMutability": "view",
            "type": "function"
        },
        {
            "inputs": [
                {
                    "internalType": "address",
                    "name": "",
                    "type": "address"
                }
            ],
            "name": "padre",
            "outputs": [
                {
                    "internalType": "address",
                    "name": "",
                    "type": "address"
                }
            ],
            "stateMutability": "view",
            "type": "function"
        },
        {
            "inputs": [],
            "name": "personas",
            "outputs": [
                {
                    "internalType": "uint256",
                    "name": "",
                    "type": "uint256"
                }
            ],
            "stateMutability": "view",
            "type": "function"
        },
        {
            "inputs": [],
            "name": "porcent",
            "outputs": [
                {
                    "internalType": "uint256",
                    "name": "",
                    "type": "uint256"
                }
            ],
            "stateMutability": "view",
            "type": "function"
        },
        {
            "inputs": [
                {
                    "internalType": "uint256",
                    "name": "",
                    "type": "uint256"
                }
            ],
            "name": "porcientos",
            "outputs": [
                {
                    "internalType": "uint256",
                    "name": "",
                    "type": "uint256"
                }
            ],
            "stateMutability": "view",
            "type": "function"
        },
        {
            "inputs": [],
            "name": "precioRegistro",
            "outputs": [
                {
                    "internalType": "uint256",
                    "name": "",
                    "type": "uint256"
                }
            ],
            "stateMutability": "view",
            "type": "function"
        },
        {
            "inputs": [
                {
                    "internalType": "uint256",
                    "name": "",
                    "type": "uint256"
                }
            ],
            "name": "primervez",
            "outputs": [
                {
                    "internalType": "uint256",
                    "name": "",
                    "type": "uint256"
                }
            ],
            "stateMutability": "view",
            "type": "function"
        },
        {
            "inputs": [
                {
                    "internalType": "uint256",
                    "name": "",
                    "type": "uint256"
                }
            ],
            "name": "puntosRango",
            "outputs": [
                {
                    "internalType": "uint256",
                    "name": "",
                    "type": "uint256"
                }
            ],
            "stateMutability": "view",
            "type": "function"
        },
        {
            "inputs": [
                {
                    "internalType": "address",
                    "name": "",
                    "type": "address"
                },
                {
                    "internalType": "uint256",
                    "name": "",
                    "type": "uint256"
                }
            ],
            "name": "rangoReclamado",
            "outputs": [
                {
                    "internalType": "bool",
                    "name": "",
                    "type": "bool"
                }
            ],
            "stateMutability": "view",
            "type": "function"
        },
        {
            "inputs": [],
            "name": "redimBNB",
            "outputs": [
                {
                    "internalType": "uint256",
                    "name": "",
                    "type": "uint256"
                }
            ],
            "stateMutability": "nonpayable",
            "type": "function"
        },
        {
            "inputs": [
                {
                    "internalType": "uint256",
                    "name": "_value",
                    "type": "uint256"
                }
            ],
            "name": "redimTokenPrincipal02",
            "outputs": [
                {
                    "internalType": "uint256",
                    "name": "",
                    "type": "uint256"
                }
            ],
            "stateMutability": "nonpayable",
            "type": "function"
        },
        {
            "inputs": [
                {
                    "internalType": "address",
                    "name": "_sponsor",
                    "type": "address"
                },
                {
                    "internalType": "string",
                    "name": "_datos",
                    "type": "string"
                }
            ],
            "name": "registro",
            "outputs": [],
            "stateMutability": "nonpayable",
            "type": "function"
        },
        {
            "inputs": [
                {
                    "internalType": "uint256",
                    "name": "_descuento",
                    "type": "uint256"
                }
            ],
            "name": "setDescuento",
            "outputs": [
                {
                    "internalType": "bool",
                    "name": "",
                    "type": "bool"
                }
            ],
            "stateMutability": "nonpayable",
            "type": "function"
        },
        {
            "inputs": [
                {
                    "internalType": "uint256",
                    "name": "_numerodeinverionessinganancia",
                    "type": "uint256"
                }
            ],
            "name": "setInversiones",
            "outputs": [
                {
                    "internalType": "uint256",
                    "name": "",
                    "type": "uint256"
                }
            ],
            "stateMutability": "nonpayable",
            "type": "function"
        },
        {
            "inputs": [
                {
                    "internalType": "uint256",
                    "name": "_min",
                    "type": "uint256"
                }
            ],
            "name": "setMIN_RETIRO",
            "outputs": [
                {
                    "internalType": "uint256",
                    "name": "",
                    "type": "uint256"
                }
            ],
            "stateMutability": "nonpayable",
            "type": "function"
        },
        {
            "inputs": [
                {
                    "internalType": "uint256",
                    "name": "_nivel",
                    "type": "uint256"
                },
                {
                    "internalType": "uint256",
                    "name": "_value",
                    "type": "uint256"
                }
            ],
            "name": "setPorcientos",
            "outputs": [
                {
                    "internalType": "uint256[]",
                    "name": "",
                    "type": "uint256[]"
                }
            ],
            "stateMutability": "nonpayable",
            "type": "function"
        },
        {
            "inputs": [
                {
                    "internalType": "uint256",
                    "name": "_nivel",
                    "type": "uint256"
                },
                {
                    "internalType": "uint256",
                    "name": "_value",
                    "type": "uint256"
                }
            ],
            "name": "setPorcientosSalida",
            "outputs": [
                {
                    "internalType": "uint256[]",
                    "name": "",
                    "type": "uint256[]"
                }
            ],
            "stateMutability": "nonpayable",
            "type": "function"
        },
        {
            "inputs": [
                {
                    "internalType": "uint256",
                    "name": "_precio",
                    "type": "uint256"
                }
            ],
            "name": "setPrecioRegistro",
            "outputs": [
                {
                    "internalType": "bool",
                    "name": "",
                    "type": "bool"
                }
            ],
            "stateMutability": "nonpayable",
            "type": "function"
        },
        {
            "inputs": [
                {
                    "internalType": "uint256",
                    "name": "_value",
                    "type": "uint256"
                }
            ],
            "name": "setPriceBlock",
            "outputs": [
                {
                    "internalType": "bool",
                    "name": "",
                    "type": "bool"
                }
            ],
            "stateMutability": "nonpayable",
            "type": "function"
        },
        {
            "inputs": [
                {
                    "internalType": "uint256",
                    "name": "_nivel",
                    "type": "uint256"
                },
                {
                    "internalType": "uint256",
                    "name": "_value",
                    "type": "uint256"
                }
            ],
            "name": "setPrimeravezPorcientos",
            "outputs": [
                {
                    "internalType": "uint256[]",
                    "name": "",
                    "type": "uint256[]"
                }
            ],
            "stateMutability": "nonpayable",
            "type": "function"
        },
        {
            "inputs": [
                {
                    "internalType": "bool[]",
                    "name": "_baserange",
                    "type": "bool[]"
                },
                {
                    "internalType": "uint256[]",
                    "name": "_gananciasRango",
                    "type": "uint256[]"
                },
                {
                    "internalType": "uint256[]",
                    "name": "_puntosRango",
                    "type": "uint256[]"
                }
            ],
            "name": "setRangos",
            "outputs": [
                {
                    "internalType": "bool",
                    "name": "",
                    "type": "bool"
                }
            ],
            "stateMutability": "nonpayable",
            "type": "function"
        },
        {
            "inputs": [
                {
                    "internalType": "uint256",
                    "name": "_porcentaje",
                    "type": "uint256"
                }
            ],
            "name": "setRetorno",
            "outputs": [
                {
                    "internalType": "uint256",
                    "name": "",
                    "type": "uint256"
                }
            ],
            "stateMutability": "nonpayable",
            "type": "function"
        },
        {
            "inputs": [
                {
                    "internalType": "uint256",
                    "name": "_dias",
                    "type": "uint256"
                }
            ],
            "name": "setTiempo",
            "outputs": [
                {
                    "internalType": "uint256",
                    "name": "",
                    "type": "uint256"
                }
            ],
            "stateMutability": "nonpayable",
            "type": "function"
        },
        {
            "inputs": [
                {
                    "internalType": "uint256",
                    "name": "_unidades",
                    "type": "uint256"
                }
            ],
            "name": "setTiempoUnidades",
            "outputs": [
                {
                    "internalType": "uint256",
                    "name": "",
                    "type": "uint256"
                }
            ],
            "stateMutability": "nonpayable",
            "type": "function"
        },
        {
            "inputs": [
                {
                    "internalType": "address[]",
                    "name": "_wallet",
                    "type": "address[]"
                },
                {
                    "internalType": "uint256[]",
                    "name": "_fee",
                    "type": "uint256[]"
                },
                {
                    "internalType": "uint256",
                    "name": "_activerFee",
                    "type": "uint256"
                }
            ],
            "name": "setWalletFee",
            "outputs": [
                {
                    "internalType": "bool",
                    "name": "",
                    "type": "bool"
                }
            ],
            "stateMutability": "nonpayable",
            "type": "function"
        },
        {
            "inputs": [
                {
                    "internalType": "address[]",
                    "name": "_wallets",
                    "type": "address[]"
                },
                {
                    "internalType": "uint256[]",
                    "name": "_valores",
                    "type": "uint256[]"
                }
            ],
            "name": "setWalletstransfers",
            "outputs": [
                {
                    "internalType": "bool",
                    "name": "",
                    "type": "bool"
                }
            ],
            "stateMutability": "nonpayable",
            "type": "function"
        },
        {
            "inputs": [],
            "name": "setstate",
            "outputs": [
                {
                    "internalType": "uint256",
                    "name": "Investors",
                    "type": "uint256"
                },
                {
                    "internalType": "uint256",
                    "name": "Invested",
                    "type": "uint256"
                },
                {
                    "internalType": "uint256",
                    "name": "RefRewards",
                    "type": "uint256"
                }
            ],
            "stateMutability": "view",
            "type": "function"
        },
        {
            "inputs": [],
            "name": "tiempo",
            "outputs": [
                {
                    "internalType": "uint256",
                    "name": "",
                    "type": "uint256"
                }
            ],
            "stateMutability": "view",
            "type": "function"
        },
        {
            "inputs": [],
            "name": "tokenPricipal",
            "outputs": [
                {
                    "internalType": "address",
                    "name": "",
                    "type": "address"
                }
            ],
            "stateMutability": "view",
            "type": "function"
        },
        {
            "inputs": [],
            "name": "totalInvested",
            "outputs": [
                {
                    "internalType": "uint256",
                    "name": "",
                    "type": "uint256"
                }
            ],
            "stateMutability": "view",
            "type": "function"
        },
        {
            "inputs": [],
            "name": "totalInvestors",
            "outputs": [
                {
                    "internalType": "uint256",
                    "name": "",
                    "type": "uint256"
                }
            ],
            "stateMutability": "view",
            "type": "function"
        },
        {
            "inputs": [],
            "name": "totalRefRewards",
            "outputs": [
                {
                    "internalType": "uint256",
                    "name": "",
                    "type": "uint256"
                }
            ],
            "stateMutability": "view",
            "type": "function"
        },
        {
            "inputs": [],
            "name": "totalRefWitdrawl",
            "outputs": [
                {
                    "internalType": "uint256",
                    "name": "",
                    "type": "uint256"
                }
            ],
            "stateMutability": "view",
            "type": "function"
        },
        {
            "inputs": [
                {
                    "internalType": "address payable",
                    "name": "newOwner",
                    "type": "address"
                }
            ],
            "name": "transferOwnership",
            "outputs": [],
            "stateMutability": "nonpayable",
            "type": "function"
        },
        {
            "inputs": [],
            "name": "unidades",
            "outputs": [
                {
                    "internalType": "uint256",
                    "name": "",
                    "type": "uint256"
                }
            ],
            "stateMutability": "view",
            "type": "function"
        },
        {
            "inputs": [
                {
                    "internalType": "string",
                    "name": "_datos",
                    "type": "string"
                }
            ],
            "name": "updateData",
            "outputs": [],
            "stateMutability": "nonpayable",
            "type": "function"
        },
        {
            "inputs": [
                {
                    "internalType": "uint256",
                    "name": "",
                    "type": "uint256"
                }
            ],
            "name": "valor",
            "outputs": [
                {
                    "internalType": "uint256",
                    "name": "",
                    "type": "uint256"
                }
            ],
            "stateMutability": "view",
            "type": "function"
        },
        {
            "inputs": [
                {
                    "internalType": "uint256",
                    "name": "",
                    "type": "uint256"
                }
            ],
            "name": "valorFee",
            "outputs": [
                {
                    "internalType": "uint256",
                    "name": "",
                    "type": "uint256"
                }
            ],
            "stateMutability": "view",
            "type": "function"
        },
        {
            "inputs": [
                {
                    "internalType": "uint256",
                    "name": "",
                    "type": "uint256"
                }
            ],
            "name": "wallet",
            "outputs": [
                {
                    "internalType": "address",
                    "name": "",
                    "type": "address"
                }
            ],
            "stateMutability": "view",
            "type": "function"
        },
        {
            "inputs": [
                {
                    "internalType": "uint256",
                    "name": "",
                    "type": "uint256"
                }
            ],
            "name": "walletFee",
            "outputs": [
                {
                    "internalType": "address",
                    "name": "",
                    "type": "address"
                }
            ],
            "stateMutability": "view",
            "type": "function"
        },
        {
            "inputs": [],
            "name": "withdraw",
            "outputs": [],
            "stateMutability": "nonpayable",
            "type": "function"
        },
        {
            "inputs": [],
            "name": "withdraw2",
            "outputs": [],
            "stateMutability": "nonpayable",
            "type": "function"
        },
        {
            "inputs": [],
            "name": "withdrawTeam",
            "outputs": [],
            "stateMutability": "nonpayable",
            "type": "function"
        },
        {
            "inputs": [
                {
                    "internalType": "address",
                    "name": "any_user",
                    "type": "address"
                },
                {
                    "internalType": "bool",
                    "name": "_infinity",
                    "type": "bool"
                }
            ],
            "name": "withdrawable",
            "outputs": [
                {
                    "internalType": "uint256",
                    "name": "",
                    "type": "uint256"
                }
            ],
            "stateMutability": "view",
            "type": "function"
        },
        {
            "inputs": [
                {
                    "internalType": "address",
                    "name": "any_user",
                    "type": "address"
                }
            ],
            "name": "withdrawableRange",
            "outputs": [
                {
                    "internalType": "uint256",
                    "name": "amount",
                    "type": "uint256"
                }
            ],
            "stateMutability": "view",
            "type": "function"
        },
        {
            "stateMutability": "payable",
            "type": "receive"
        }
    ],
    "bytecode": "600280547355d398326f99059ff775485246999027b31979556001600160a01b031991821681179092556003805482168317905567d02ab486cedc00006004556802b5e3af16b18800006005908155600680549092169092179055600160075561012060405260326080908152601e60a052601460c052600a60e081905261010052620000909160089190620004ce565b506040805160a08101825260328152601e6020820152601491810191909152600a606082018190526080820152620000cd906009906005620004ce565b506040805160a08101825260058082526003602083015260029282019290925260016060820181905260808201526200010a91600a9190620004ce565b506040805161012081018252600080825260208201819052918101829052606081018290526080810182905260a0810182905260c0810182905260e081018290526101008101919091526200016490600b90600962000523565b5060408051610120810182526828a857425466f800008152685150ae84a8cdf00000602082015268cb49b44ba602d80000918101919091526901969368974c05b00000606082015269032d26d12e980b6000006080820152690a968163f0a57b40000060a0820152691fc3842bd1f071c0000060c08201526934f086f3b33b6840000060e08201526954b40b1f852bda0000006101008201526200020d90600c906009620005ca565b5060408051610120810182526103e881526107d06020820152611388918101919091526127106060820152614e206080820152620186a060a0820152620493e060c08201526207a12060e0820152620f42406101008201526200027590600d90600962000613565b50600e805460ff1916600190811790915561016d600f556103846010556201518060115560f06012556064601355600260148190556015829055601f9190915560408051808201909152734490566647735e8cbce0ce96efc8fb91c164859b815273d0f2fcdf7d399205e9709c6d0fbee434335e42dd602080830191909152620003029290919062000658565b506040805180820190915260058152605f602082015262000328906021906002620004ce565b506801a055690d9db800006022556002602355604080516060810182527317a7e5b2d9b5d191f7307e990e630c9dc18e1396815273afe9d039ec7d4409b1b8c2f1556f20843079b7286020820152738dd59f5670e9809c8a800a49d1ff1cea471c53da91810191909152620003a290602490600362000658565b50604080516060810182526046815260086020820152600591810191909152620003d1906025906003620004ce565b50348015620003df57600080fd5b50600080546001600160a01b0319163390811782558152600160208181526040808420805460ff19908116851790915584546001600160a01b0316855260199092529092208054909216178155601154600f546200043e91906200072e565b6200045290670de0b6b3a76400006200072e565b6200045e904262000750565b6001820155336000908152601e60205260409020600b805462000483929190620006b0565b50507fb9c6de81004e18dedadca3e5eabaab449ca91dff6f58efc9461da635fe77f84980546001600160a01b031916339081179091556000908152601d60205260408120556200076b565b82805482825590600052602060002090810192821562000511579160200282015b8281111562000511578251829060ff16905591602001919060010190620004ef565b506200051f92915062000701565b5090565b82805482825590600052602060002090601f01602090048101928215620005115791602002820160005b838211156200058c57835183826101000a81548160ff02191690831515021790555092602001926001016020816000010492830192600103026200054d565b8015620005bb5782816101000a81549060ff02191690556001016020816000010492830192600103026200058c565b50506200051f92915062000701565b82805482825590600052602060002090810192821562000511579160200282015b828111156200051157825182906001600160501b0316905591602001919060010190620005eb565b82805482825590600052602060002090810192821562000511579160200282015b8281111562000511578251829062ffffff1690559160200191906001019062000634565b82805482825590600052602060002090810192821562000511579160200282015b828111156200051157825182546001600160a01b0319166001600160a01b0390911617825560209092019160019091019062000679565b82805482825590600052602060002090601f016020900481019282156200051157600052602060002091601f016020900482015b8281111562000511578254825591600101919060010190620006e4565b5b808211156200051f576000815560010162000702565b634e487b7160e01b600052601160045260246000fd5b60008160001904831182151516156200074b576200074b62000718565b500290565b6000821982111562000766576200076662000718565b500190565b614423806200077b6000396000f3fe6080604052600436106104265760003560e01c80637367b08011610227578063b13904261161012d578063cb0e0d7d116100b0578063ea98847b11610077578063ea98847b14610d40578063edf5eb1d14610d55578063f2fde38b14610d75578063f90b3f5a14610d95578063fd14d59814610db557005b8063cb0e0d7d14610ca3578063cc759ba214610cd0578063cfda9ee614610ce6578063db3be1a214610d06578063e7348e8c14610d2657005b8063bb51f32d116100f4578063bb51f32d14610c2c578063bd9bee1914610c41578063bfe0e02014610c57578063c17dbdf914610c6d578063c40d5dbc14610c8d57005b8063b139042614610b76578063b17b6e4414610b96578063b35f0a8f14610bb6578063b3d9fa0914610bec578063b85ea33514610c0c57005b80638da5cb5b116101b5578063a365528b1161017c578063a365528b14610ada578063a77d211914610b0a578063a8beb71714610b20578063aaa749c514610b40578063ab6db19914610b6057005b80638da5cb5b14610a445780638f9ef8c114610a6457806398c07d0a14610a845780639b8ff50314610aa4578063a278133514610aba57005b80637fcc1e36116101f95780637fcc1e361461098657806381032892146109b3578063815374ca146109d357806385338e20146109f357806389b2521c14610a2457005b80637367b0801461091a5780637b0412ed1461093a5780637db9e9c6146109505780637faee0471461096657005b80634b9b82031161032c5780636589fa8a116102ba5780636c529279116102815780636c5292791461086d5780636f7bc9be1461088357806370a0966b146108ba5780637251b9ac146108da578063725fc270146108fa57005b80636589fa8a146107d857806367f74aab146107f857806368446ead1461081857806369ed1e0a1461083857806369f4a84b1461085857005b80635216aeec116102fe5780635216aeec1461073257806354822522146107485780635d216c6014610768578063625509161461078857806363a846f8146107a857005b80634b9b8203146106c75780634de1be62146106dd57806350188c08146106fd57806350da983f1461071257005b806329b8caff116103b4578063339640b51161037b578063339640b514610646578063348d4487146106665780633ccfd60b1461067c57806343bf0bd4146106915780634728f718146106b157005b806329b8caff1461058257806329e1a243146105985780632a2d0c47146105b85780632acc8210146106065780632e8a03cf1461062657005b80631e403c35116103f85780631e403c35146104df57806321309f211461050c57806324de19f21461052c5780632748d29b1461054257806328cca7191461056257005b80631053abb11461042f5780631140e85b1461046457806315e8392b146104925780631ce7f99b146104bf57005b3661042d57005b005b34801561043b57600080fd5b5061044f61044a366004613b22565b610dca565b60405190151581526020015b60405180910390f35b34801561047057600080fd5b5061048461047f366004613b5b565b610f96565b60405190815260200161045b565b34801561049e57600080fd5b506104b26104ad366004613b74565b6110ae565b60405161045b9190613ba0565b3480156104cb57600080fd5b506104b26104da366004613cca565b611143565b3480156104eb57600080fd5b506104ff6104fa366004613cfe565b611201565b60405161045b9190613d5b565b34801561051857600080fd5b50610484610527366004613b5b565b61129f565b34801561053857600080fd5b5061048460055481565b34801561054e57600080fd5b5061048461055d366004613b5b565b6112c0565b34801561056e57600080fd5b5061048461057d366004613b5b565b6112ea565b34801561058e57600080fd5b5061048460155481565b3480156105a457600080fd5b506104846105b3366004613b5b565b6112fa565b3480156105c457600080fd5b506105ee6105d3366004613b5b565b601c602052600090815260409020546001600160a01b031681565b6040516001600160a01b03909116815260200161045b565b34801561061257600080fd5b5061044f610621366004613b74565b61130a565b34801561063257600080fd5b5061044f610641366004613b5b565b61134d565b34801561065257600080fd5b506105ee610661366004613b74565b611377565b34801561067257600080fd5b50610484601f5481565b34801561068857600080fd5b5061042d6113af565b34801561069d57600080fd5b5061044f6106ac366004613e3b565b611543565b3480156106bd57600080fd5b5061048460125481565b3480156106d357600080fd5b5061048460115481565b3480156106e957600080fd5b506104846106f8366004613b5b565b6115c9565b34801561070957600080fd5b506104846115f3565b34801561071e57600080fd5b5061044f61072d366004613ec2565b611611565b34801561073e57600080fd5b5061048460165481565b34801561075457600080fd5b506104ff610763366004613cfe565b611665565b34801561077457600080fd5b506104ff610783366004613cfe565b611701565b34801561079457600080fd5b506104846107a3366004613b5b565b61179d565b3480156107b457600080fd5b5061044f6107c3366004613ec2565b60016020526000908152604090205460ff1681565b3480156107e457600080fd5b506104846107f3366004613b5b565b6117ad565b34801561080457600080fd5b5061044f610813366004613edf565b6117d2565b34801561082457600080fd5b5061042d610833366004613f90565b611926565b34801561084457600080fd5b5061042d610853366004613ec2565b611952565b34801561086457600080fd5b5061042d6119dc565b34801561087957600080fd5b5061048460045481565b34801561088f57600080fd5b506108a361089e366004613ec2565b611d2c565b60405161045b9b9a99989796959493929190613fc4565b3480156108c657600080fd5b5061042d6108d5366004613ec2565b611e13565b3480156108e657600080fd5b506105ee6108f5366004613b5b565b611e9b565b34801561090657600080fd5b50610484610915366004613b5b565b611ec5565b34801561092657600080fd5b506104ff61093536600461406e565b611ed5565b34801561094657600080fd5b5061048460135481565b34801561095c57600080fd5b5061048460225481565b34801561097257600080fd5b506104b2610981366004613cca565b611f7f565b34801561099257600080fd5b506109a66109a13660046140a2565b61209c565b60405161045b9190614108565b3480156109bf57600080fd5b506104846109ce366004613b5b565b61214b565b3480156109df57600080fd5b506104b26109ee366004613ec2565b61215b565b3480156109ff57600080fd5b506015546016546017546040805193845260208401929092529082015260600161045b565b348015610a3057600080fd5b50610484610a3f36600461411b565b612212565b348015610a5057600080fd5b506000546105ee906001600160a01b031681565b348015610a7057600080fd5b5061042d610a7f366004614149565b612233565b348015610a9057600080fd5b50610484610a9f366004613ec2565b612675565b348015610ab057600080fd5b5061048460185481565b348015610ac657600080fd5b506105ee610ad5366004613b5b565b6128e0565b348015610ae657600080fd5b50610afa610af536600461411b565b6128f0565b60405161045b9493929190614198565b348015610b1657600080fd5b5061048460075481565b348015610b2c57600080fd5b5061044f610b3b3660046141e3565b612afb565b348015610b4c57600080fd5b5061044f610b5b366004613b5b565b612b4d565b348015610b6c57600080fd5b5061048460105481565b348015610b8257600080fd5b506006546105ee906001600160a01b031681565b348015610ba257600080fd5b5061044f610bb136600461423c565b612b77565b348015610bc257600080fd5b506105ee610bd1366004613ec2565b601a602052600090815260409020546001600160a01b031681565b348015610bf857600080fd5b5061044f610c07366004613b5b565b612ba5565b348015610c1857600080fd5b50610484610c27366004613b5b565b612bcf565b348015610c3857600080fd5b5061042d612bf9565b348015610c4d57600080fd5b5061048460235481565b348015610c6357600080fd5b5061048460175481565b348015610c7957600080fd5b5061042d610c88366004613b5b565b612db2565b348015610c9957600080fd5b50610484600f5481565b348015610caf57600080fd5b50610484610cbe366004613ec2565b601d6020526000908152604090205481565b348015610cdc57600080fd5b5061048460145481565b348015610cf257600080fd5b5061044f610d01366004613b5b565b613358565b348015610d1257600080fd5b5061044f610d21366004614259565b61338c565b348015610d3257600080fd5b50600e5461044f9060ff1681565b348015610d4c57600080fd5b5061042d6133e0565b348015610d6157600080fd5b50610484610d70366004613b5b565b613565565b348015610d8157600080fd5b5061042d610d90366004613ec2565b613575565b348015610da157600080fd5b50610484610db0366004613b5b565b613603565b348015610dc157600080fd5b50610484613628565b3360009081526001602052604081205460ff16610de657600080fd5b6001600160a01b038216610df957600080fd5b6001600160a01b0383166000908152601960205260409020805460ff16610f6557805460ff19166001178155601154600f54610e3591906142db565b610e3f90426142fa565b60018201556001600160a01b038481166000908152601a6020908152604080832080546001600160a01b0319169488169485179055928252601990529081206008810180549192610e8f83614312565b90915550506001600160a01b038481166000908152601b60209081526040822080546001810182559083529082200180546001600160a01b031916928816929092179091556015805491610ee283614312565b90915550506001600160a01b0385166000908152601e60205260409020600b8054610f0e9291906138f4565b50601f80546000908152601c6020908152604080832080546001600160a01b0319166001600160a01b038b169081179091558454908452601d90925282208190559190610f5a83614312565b919050555050610f8a565b601154600f54610f7591906142db565b8160010154610f8491906142fa565b60018201555b60019150505b92915050565b600080546001600160a01b0316336001600160a01b031614610fb757600080fd5b6003546040516370a0823160e01b815230600482015283916001600160a01b0316906370a0823190602401602060405180830381865afa158015610fff573d6000803e3d6000fd5b505050506040513d601f19601f82011682018060405250810190611023919061432d565b101561102e57600080fd5b60035460005460405163a9059cbb60e01b81526001600160a01b0391821660048201526024810185905291169063a9059cbb906044016020604051808303816000875af1158015611083573d6000803e3d6000fd5b505050506040513d601f19601f820116820180604052508101906110a79190614346565b5090919050565b60608060005b8381101561113b576110c582611143565b6001600160a01b038087166000908152601a6020526040902054825192945016908390839081106110f8576110f8614363565b6001600160a01b039283166020918202929092018101919091529581166000908152601a909652604090952054909416938061113381614312565b9150506110b4565b509392505050565b606060008251600161115591906142fa565b6001600160401b0381111561116c5761116c613bed565b604051908082528060200260200182016040528015611195578160200160208202803683370190505b50905060005b83518110156111fa578381815181106111b6576111b6614363565b60200260200101518282815181106111d0576111d0614363565b6001600160a01b0390921660209283029190910190910152806111f281614312565b91505061119b565b5092915050565b6000546060906001600160a01b0316336001600160a01b03161461122457600080fd5b816009848154811061123857611238614363565b9060005260206000200181905550600980548060200260200160405190810160405280929190818152602001828054801561129257602002820191906000526020600020905b81548152602001906001019080831161127e575b5050505050905092915050565b600d81815481106112af57600080fd5b600091825260209091200154905081565b600080546001600160a01b0316336001600160a01b0316146112e157600080fd5b50601181905590565b600981815481106112af57600080fd5b602181815481106112af57600080fd5b601e602052816000526040600020818154811061132657600080fd5b9060005260206000209060209182820401919006915091509054906101000a900460ff1681565b600080546001600160a01b0316336001600160a01b03161461136e57600080fd5b50600555600190565b601b602052816000526040600020818154811061139357600080fd5b6000918252602090912001546001600160a01b03169150829050565b600e5460ff166113be57600080fd5b336000818152601960205260408120916113d9906000612212565b6003546040516370a0823160e01b815230600482015291925082916001600160a01b03909116906370a0823190602401602060405180830381865afa158015611426573d6000803e3d6000fd5b505050506040513d601f19601f8201168201806040525081019061144a919061432d565b101561145557600080fd5b60045481101561146457600080fd5b6003546001600160a01b031663a9059cbb3361149660646114906013548761368a90919063ffffffff16565b906136c3565b6040516001600160e01b031960e085901b1681526001600160a01b03909216600483015260248201526044016020604051808303816000875af11580156114e1573d6000803e3d6000fd5b505050506040513d601f19601f820116820180604052508101906115059190614346565b508082600701600082825461151a91906142fa565b90915550504260058301556018805482919060009061153a9084906142fa565b90915550505050565b600080546001600160a01b0316336001600160a01b03161461156457600080fd5b835161157790600b906020870190613952565b50825161158b90600c9060208601906139f2565b50815161159f90600d9060208501906139f2565b50336000908152601e60205260409020600b80546115be9291906138f4565b506001949350505050565b600080546001600160a01b0316336001600160a01b0316146115ea57600080fd5b50600481905590565b600061160c60115460105461368a90919063ffffffff16565b905090565b600080546001600160a01b0316336001600160a01b03161461163257600080fd5b50600380546001600160a01b0383166001600160a01b031991821681179092556006805490911690911790556001919050565b6000546060906001600160a01b0316336001600160a01b03161461168857600080fd5b816008848154811061169c5761169c614363565b90600052602060002001819055506008805480602002602001604051908101604052809291908181526020018280548015611292576020028201919060005260206000209081548152602001906001019080831161127e575050505050905092915050565b6000546060906001600160a01b0316336001600160a01b03161461172457600080fd5b81600a848154811061173857611738614363565b9060005260206000200181905550600a805480602002602001604051908101604052809291908181526020018280548015611292576020028201919060005260206000209081548152602001906001019080831161127e575050505050905092915050565b602581815481106112af57600080fd5b3360009081526001602052604081205460ff166117c957600080fd5b50601281905590565b3360009081526001602052604081205460ff166117ee57600080fd5b600083116118435760405162461bcd60e51b815260206004820152601e60248201527f63616e7469646164206d696e696d6120646520626c6f6b65732065732031000060448201526064015b60405180910390fd5b6001600160a01b0384166000908152601960205260409020805460ff1661186957600080fd5b60008460055461187991906142db565b905081600a0160405180608001604052804281526020016118aa60646114906012548761368a90919063ffffffff16565b81526020016118c960646114906012548761368a90919063ffffffff16565b81529515156020968701528154600180820184556000938452928790208251600490920201908155958101518683015560408101516002870155606001516003909501805460ff1916951515959095179094555091949350505050565b3360009081526019602090815260409091208251909161194d916009840191850190613a2d565b505050565b3360009081526001602052604090205460ff1661196e57600080fd5b6001600160a01b03811661198157600080fd5b6040516001600160a01b038216907f71614071b88dee5e0b2ae578a9dd7b2ebbe9ae832ba419dc0242cd065a290b6c90600090a26001600160a01b03166000908152600160208190526040909120805460ff19169091179055565b600e5460ff166119eb57600080fd5b60006119f633612675565b905060008111611a0557600080fd5b336000908152601960209081526040808320815161018081018352815460ff16151581526001820154938101939093526002810154918301919091526003810154606083015260048101546080830152600581015460a0830152600681015460c0830152600781015460e0830152600881015461010083015260098101805461012084019190611a9490614379565b80601f0160208091040260200160405190810160405280929190818152602001828054611ac090614379565b8015611b0d5780601f10611ae257610100808354040283529160200191611b0d565b820191906000526020600020905b815481529060010190602001808311611af057829003601f168201915b50505050508152602001600a8201805480602002602001604051908101604052809291908181526020016000905b82821015611b94576000848152602090819020604080516080810182526004860290920180548352600180820154848601526002820154928401929092526003015460ff16151560608301529083529092019101611b3b565b505050508152602001600b82015481525050905060005b600c5481101561194d57600d8181548110611bc857611bc8614363565b906000526020600020015482610160015110158015611c255750336000908152601e60205260409020805482908110611c0357611c03614363565b90600052602060002090602091828204019190069054906101000a900460ff16155b15611d1a576003546001600160a01b031663a9059cbb33600c8481548110611c4f57611c4f614363565b6000918252602090912001546040516001600160e01b031960e085901b1681526001600160a01b03909216600483015260248201526044016020604051808303816000875af1158015611ca6573d6000803e3d6000fd5b505050506040513d601f19601f82011682018060405250810190611cca9190614346565b50336000908152601e6020526040902080546001919083908110611cf057611cf0614363565b90600052602060002090602091828204019190066101000a81548160ff0219169083151502179055505b80611d2481614312565b915050611bab565b601960205260009081526040902080546001820154600283015460038401546004850154600586015460068701546007880154600889015460098a01805460ff909a169a9899979896979596949593949293919291611d8a90614379565b80601f0160208091040260200160405190810160405280929190818152602001828054611db690614379565b8015611e035780601f10611dd857610100808354040283529160200191611e03565b820191906000526020600020905b815481529060010190602001808311611de657829003601f168201915b50505050509080600b015490508b565b6000546001600160a01b0316336001600160a01b031614611e3357600080fd5b6001600160a01b038116611e4657600080fd5b6040516001600160a01b038216907fa3b62bc36326052d97ea62d63c3d60308ed4c3ea8ac079dd8499f1e9c4f80c0f90600090a26001600160a01b03166000908152600160205260409020805460ff19169055565b60208181548110611eab57600080fd5b6000918252602090912001546001600160a01b0316905081565b600881815481106112af57600080fd5b6060600082516001611ee791906142fa565b6001600160401b03811115611efe57611efe613bed565b604051908082528060200260200182016040528015611f27578160200160208202803683370190505b50905060005b83518110156111fa57838181518110611f4857611f48614363565b6020026020010151828281518110611f6257611f62614363565b602090810291909101015280611f7781614312565b915050611f2d565b60606000805b83518110156120945760196000858381518110611fa457611fa4614363565b60200260200101516001600160a01b03166001600160a01b0316815260200190815260200160002091506000805b855181101561202557858181518110611fed57611fed614363565b60200260200101516001600160a01b0316826001600160a01b0316141561201357600091505b8061201d81614312565b915050611fd2565b506001600160a01b038116156120815761203e85611143565b945080856001875161205091906143b4565b8151811061206057612060614363565b60200260200101906001600160a01b031690816001600160a01b0316815250505b508061208c81614312565b915050611f85565b509192915050565b60606000825160016120ae91906142fa565b6001600160401b038111156120c5576120c5613bed565b6040519080825280602002602001820160405280156120ee578160200160208202803683370190505b50905060005b83518110156111fa5783818151811061210f5761210f614363565b602002602001015182828151811061212957612129614363565b911515602092830291909101909101528061214381614312565b9150506120f4565b600c81815481106112af57600080fd5b60608060005b6001600160a01b0384166000908152601b60205260409020548110156111fa5761218a82611143565b6001600160a01b0385166000908152601b60205260409020805491935090829081106121b8576121b8614363565b9060005260206000200160009054906101000a90046001600160a01b03168282815181106121e8576121e8614363565b6001600160a01b03909216602092830291909101909101528061220a81614312565b915050612161565b60006060806060600061222587876128f0565b9a9950505050505050505050565b3360009081526019602052604090206001600160a01b0383166122a65760405162461bcd60e51b815260206004820152602560248201527f64656265732074656e657220726566657269646f207061726120726567697374604482015264726172746560d81b606482015260840161183a565b602254156123cf576022546003546001600160a01b031663dd62ed3e336040516001600160e01b031960e084901b1681526001600160a01b039091166004820152306024820152604401602060405180830381865afa15801561230d573d6000803e3d6000fd5b505050506040513d601f19601f82011682018060405250810190612331919061432d565b101561233c57600080fd5b6003546001600160a01b03166323b872dd336022546040516001600160e01b031960e085901b1681526001600160a01b03909216600483015230602483015260448201526064016020604051808303816000875af11580156123a2573d6000803e3d6000fd5b505050506040513d601f19601f820116820180604052508101906123c69190614346565b6123cf57600080fd5b6002602354106124e95760005b6020548110156124e757600354602080546001600160a01b039092169163a9059cbb91908490811061241057612410614363565b9060005260206000200160009054906101000a90046001600160a01b031661246560646114906021878154811061244957612449614363565b906000526020600020015460225461368a90919063ffffffff16565b6040516001600160e01b031960e085901b1681526001600160a01b03909216600483015260248201526044016020604051808303816000875af11580156124b0573d6000803e3d6000fd5b505050506040513d601f19601f820116820180604052508101906124d49190614346565b50806124df81614312565b9150506123dc565b505b805460ff1661263557805460ff19166001178155601154600f5461250d91906142db565b61251790426142fa565b6001820155336000908152601a6020908152604080832080546001600160a01b0319166001600160a01b038816908117909155835260199091528120600881018054919261256483614312565b90915550506001600160a01b0384166000908152601b60209081526040822080546001810182559083529082200180546001600160a01b0319163317905560158054916125b083614312565b9190505550600b601e60006125c23390565b6001600160a01b03168152602081019190915260400160002081546125e792906138f4565b50601f80546000908152601c6020908152604080832080546001600160a01b031916339081179091558454908452601d9092528220819055919061262a83614312565b91905055505061265a565b601154600f5461264591906142db565b816001015461265491906142fa565b60018201555b815161266f9060098301906020850190613a2d565b50505050565b6001600160a01b0381166000908152601960209081526040808320815161018081018352815460ff16151581526001820154938101939093526002810154918301919091526003810154606083015260048101546080830152600581015460a0830152600681015460c0830152600781015460e083015260088101546101008301526009810180548493929161012084019161271090614379565b80601f016020809104026020016040519081016040528092919081815260200182805461273c90614379565b80156127895780601f1061275e57610100808354040283529160200191612789565b820191906000526020600020905b81548152906001019060200180831161276c57829003601f168201915b50505050508152602001600a8201805480602002602001604051908101604052809291908181526020016000905b82821015612810576000848152602090819020604080516080810182526004860290920180548352600180820154848601526002820154928401929092526003015460ff161515606083015290835290920191016127b7565b505050508152602001600b82015481525050905060005b600c548110156128d957600d818154811061284457612844614363565b9060005260206000200154826101600151101580156128a15750336000908152601e6020526040902080548290811061287f5761287f614363565b90600052602060002090602091828204019190069054906101000a900460ff16155b156128c757600c81815481106128b9576128b9614363565b906000526020600020015492505b806128d181614312565b915050612827565b5050919050565b60248181548110611eab57600080fd5b6001600160a01b038216600090815260196020526040812060609182918291908183808083808080805b600a8a0154811015612ae35789600a01818154811061293b5761293b614363565b6000918252602090912060036004909202019081015490995060ff1615158f15151415612ad15761296b88611ed5565b975061297687611ed5565b96506129818661209c565b95508860000154876001895161299791906143b4565b815181106129a7576129a7614363565b6020026020010181815250506129bb6115f3565b89546129c791906142fa565b93508342116129d657426129d8565b835b60038a015490925060ff1615612a0857885460068b0154116129fb578854612a01565b89600601545b9250612a24565b885460058b015411612a1b578854612a21565b89600501545b92505b8215801590612a3257508183105b15612aa057612a3f6115f3565b612a4984846143b4565b8a60020154612a5891906142db565b612a6291906143cb565b612a6c90866142fa565b945060018660018851612a7f91906143b4565b81518110612a8f57612a8f614363565b911515602092830291909101909101525b88600201548860018a51612ab491906143b4565b81518110612ac457612ac4614363565b6020026020010181815250505b80612adb81614312565b91505061291a565b50959e949d50929b5090995091975050505050505050565b600080546001600160a01b0316336001600160a01b031614612b1c57600080fd5b8251612b2f906024906020860190613aa0565b508151612b439060259060208501906139f2565b5060019392505050565b600080546001600160a01b0316336001600160a01b031614612b6e57600080fd5b50602255600190565b3360009081526001602052604081205460ff16612b9357600080fd5b50600e805460ff191682151517905590565b600080546001600160a01b0316336001600160a01b031614612bc657600080fd5b50601355600190565b600080546001600160a01b0316336001600160a01b031614612bf057600080fd5b50600781905590565b600e5460ff16612c0857600080fd5b6000601981336001600160a01b03908116825260208201929092526040908101600020600281015460035492516370a0823160e01b815230600482015291945092839216906370a0823190602401602060405180830381865afa158015612c73573d6000803e3d6000fd5b505050506040513d601f19601f82011682018060405250810190612c97919061432d565b1015612cfc5760405162461bcd60e51b815260206004820152602e60248201527f6e6f206861792073616c646f20656e20656c20636f6e747261746f207061726160448201526d20686163657220656c207061676f60901b606482015260840161183a565b600454811015612d0b57600080fd5b6003546001600160a01b031663a9059cbb33612d3760646114906013548761368a90919063ffffffff16565b6040516001600160e01b031960e085901b1681526001600160a01b03909216600483015260248201526044016020604051808303816000875af1158015612d82573d6000803e3d6000fd5b505050506040513d601f19601f82011682018060405250810190612da69190614346565b50506000600290910155565b60008111612e025760405162461bcd60e51b815260206004820152601e60248201527f63616e7469646164206d696e696d6120646520626c6f6b657320657320310000604482015260640161183a565b336000908152601960205260409020805460ff16612e575760405162461bcd60e51b81526020600482015260126024820152716e6f2065737461207265676973747261646f60701b604482015260640161183a565b80600101544210612ea05760405162461bcd60e51b815260206004820152601360248201527206e6f207469656e65206d656d6265727368697606c1b604482015260640161183a565b600082600554612eb091906142db565b60035490915081906001600160a01b031663dd62ed3e336040516001600160e01b031960e084901b1681526001600160a01b039091166004820152306024820152604401602060405180830381865afa158015612f11573d6000803e3d6000fd5b505050506040513d601f19601f82011682018060405250810190612f35919061432d565b1015612f835760405162461bcd60e51b815260206004820152601b60248201527f73616c646f206170726f7661646f20696e737566696369656e74650000000000604482015260640161183a565b6003546001600160a01b03166323b872dd336040516001600160e01b031960e084901b1681526001600160a01b039091166004820152306024820152604481018490526064016020604051808303816000875af1158015612fe8573d6000803e3d6000fd5b505050506040513d601f19601f8201168201806040525081019061300c9190614346565b61304f5760405162461bcd60e51b81526020600482015260146024820152737472616e666572656e6369612066616c6c69646160601b604482015260640161183a565b336000908152601a60205260409020546001600160a01b03161561317557600754600a83015410156130db576130d6338260088054806020026020016040519081016040528092919081815260200182805480156130cc57602002820191906000526020600020905b8154815260200190600101908083116130b8575b50505050506136e5565b613134565b613134338260098054806020026020016040519081016040528092919081815260200182805480156130cc57602002820191906000526020600020908154815260200190600101908083116130b85750505050506136e5565b336000908152601a60209081526040808320546001600160a01b0316835260199091528120600b810180549192869261316e9084906142fa565b9091555050505b81600a0160405180608001604052804281526020016131a460646114906012548761368a90919063ffffffff16565b81526020016131c360646114906012548761368a90919063ffffffff16565b815260006020918201819052835460018082018655948252828220845160049283029091019081559284015194830194909455604083015160028301556060909201516003909101805460ff1916911515919091179055908301805485929061322d9084906142fa565b92505081905550806016600082825461324691906142fa565b90915550600090505b60245481101561266f57600354602480546001600160a01b039092169163a9059cbb91908490811061328357613283614363565b9060005260206000200160009054906101000a90046001600160a01b03166132d66064611490602587815481106132bc576132bc614363565b90600052602060002001548861368a90919063ffffffff16565b6040516001600160e01b031960e085901b1681526001600160a01b03909216600483015260248201526044016020604051808303816000875af1158015613321573d6000803e3d6000fd5b505050506040513d601f19601f820116820180604052508101906133459190614346565b508061335081614312565b91505061324f565b600b818154811061336857600080fd5b9060005260206000209060209182820401919006915054906101000a900460ff1681565b600080546001600160a01b0316336001600160a01b0316146133ad57600080fd5b83516133bf9060209081870190613aa0565b5082516133d39060219060208601906139f2565b5050602355506001919050565b600e5460ff166133ef57600080fd5b3360008181526019602052604081209161340a906001612212565b6003546040516370a0823160e01b815230600482015291925082916001600160a01b03909116906370a0823190602401602060405180830381865afa158015613457573d6000803e3d6000fd5b505050506040513d601f19601f8201168201806040525081019061347b919061432d565b101561348657600080fd5b60045481101561349557600080fd5b6003546001600160a01b031663a9059cbb336134c160646114906013548761368a90919063ffffffff16565b6040516001600160e01b031960e085901b1681526001600160a01b03909216600483015260248201526044016020604051808303816000875af115801561350c573d6000803e3d6000fd5b505050506040513d601f19601f820116820180604052508101906135309190614346565b508082600701600082825461354591906142fa565b90915550504260068301556018805482919060009061153a9084906142fa565b600a81815481106112af57600080fd5b6000546001600160a01b0316336001600160a01b03161461359557600080fd5b6001600160a01b0381166135a857600080fd5b600080546040516001600160a01b03808516939216917f8be0079c531659141344cd1fd0a4f28419497f9722a3daafe3b4186f6b6457e091a3600080546001600160a01b0319166001600160a01b0392909216919091179055565b3360009081526001602052604081205460ff1661361f57600080fd5b50601081905590565b600080546001600160a01b0316336001600160a01b03161461364957600080fd5b600080546040516001600160a01b03909116914780156108fc02929091818181858888f19350505050158015613683573d6000803e3d6000fd5b5047905090565b60008261369957506000610f90565b60006136a583856142db565b9050826136b285836143cb565b146136bc57600080fd5b9392505050565b60008082116136d157600080fd5b60006136dd83856143cb565b949350505050565b60606136f28483516110ae565b905060008060005b84518110156138eb5784818151811061371557613715614363565b60200260200101516000146138d4576019600085838151811061373a5761373a614363565b6020908102919091018101516001600160a01b03168252810191909152604001600020805490925060ff168015613775575042826001015410155b156138d95760006001600160a01b031684828151811061379757613797614363565b60200260200101516001600160a01b0316146138d4576137df6103e86114908784815181106137c8576137c8614363565b60200260200101518961368a90919063ffffffff16565b9250828260020160008282546137f591906142fa565b925050819055508282600301600082825461381091906142fa565b9250508190555081600a01604051806080016040528042815260200161384660646114906012548961368a90919063ffffffff16565b815260200161386560646114906012548961368a90919063ffffffff16565b81526001602091820181905283548082018555600094855282852084516004909202019081559183015190820155604082015160028201556060909101516003909101805460ff1916911515919091179055601780548592906138c99084906142fa565b909155506138d99050565b6138eb565b806138e381614312565b9150506136fa565b50505050505050565b82805482825590600052602060002090601f0160209004810192821561394257600052602060002091601f016020900482015b82811115613942578254825591600101919060010190613927565b5061394e929150613af5565b5090565b82805482825590600052602060002090601f016020900481019282156139425791602002820160005b838211156139b857835183826101000a81548160ff021916908315150217905550926020019260010160208160000104928301926001030261397b565b80156139e55782816101000a81549060ff02191690556001016020816000010492830192600103026139b8565b505061394e929150613af5565b828054828255906000526020600020908101928215613942579160200282015b82811115613942578251825591602001919060010190613a12565b828054613a3990614379565b90600052602060002090601f016020900481019282613a5b5760008555613942565b82601f10613a7457805160ff1916838001178555613942565b828001600101855582156139425791820182811115613942578251825591602001919060010190613a12565b828054828255906000526020600020908101928215613942579160200282015b8281111561394257825182546001600160a01b0319166001600160a01b03909116178255602090920191600190910190613ac0565b5b8082111561394e5760008155600101613af6565b6001600160a01b0381168114613b1f57600080fd5b50565b60008060408385031215613b3557600080fd5b8235613b4081613b0a565b91506020830135613b5081613b0a565b809150509250929050565b600060208284031215613b6d57600080fd5b5035919050565b60008060408385031215613b8757600080fd5b8235613b9281613b0a565b946020939093013593505050565b6020808252825182820181905260009190848201906040850190845b81811015613be15783516001600160a01b031683529284019291840191600101613bbc565b50909695505050505050565b634e487b7160e01b600052604160045260246000fd5b604051601f8201601f191681016001600160401b0381118282101715613c2b57613c2b613bed565b604052919050565b60006001600160401b03821115613c4c57613c4c613bed565b5060051b60200190565b600082601f830112613c6757600080fd5b81356020613c7c613c7783613c33565b613c03565b82815260059290921b84018101918181019086841115613c9b57600080fd5b8286015b84811015613cbf578035613cb281613b0a565b8352918301918301613c9f565b509695505050505050565b600060208284031215613cdc57600080fd5b81356001600160401b03811115613cf257600080fd5b6136dd84828501613c56565b60008060408385031215613d1157600080fd5b50508035926020909101359150565b600081518084526020808501945080840160005b83811015613d5057815187529582019590820190600101613d34565b509495945050505050565b6020815260006136bc6020830184613d20565b8015158114613b1f57600080fd5b600082601f830112613d8d57600080fd5b81356020613d9d613c7783613c33565b82815260059290921b84018101918181019086841115613dbc57600080fd5b8286015b84811015613cbf578035613dd381613d6e565b8352918301918301613dc0565b600082601f830112613df157600080fd5b81356020613e01613c7783613c33565b82815260059290921b84018101918181019086841115613e2057600080fd5b8286015b84811015613cbf5780358352918301918301613e24565b600080600060608486031215613e5057600080fd5b83356001600160401b0380821115613e6757600080fd5b613e7387838801613d7c565b94506020860135915080821115613e8957600080fd5b613e9587838801613de0565b93506040860135915080821115613eab57600080fd5b50613eb886828701613de0565b9150509250925092565b600060208284031215613ed457600080fd5b81356136bc81613b0a565b600080600060608486031215613ef457600080fd5b8335613eff81613b0a565b9250602084013591506040840135613f1681613d6e565b809150509250925092565b600082601f830112613f3257600080fd5b81356001600160401b03811115613f4b57613f4b613bed565b613f5e601f8201601f1916602001613c03565b818152846020838601011115613f7357600080fd5b816020850160208301376000918101602001919091529392505050565b600060208284031215613fa257600080fd5b81356001600160401b03811115613fb857600080fd5b6136dd84828501613f21565b60006101608d1515835260208d818501528c60408501528b60608501528a60808501528960a08501528860c08501528760e0850152866101008501528161012085015285518083860152600092505b8083101561403257868301820151858401610180015291810191614013565b8083111561404557600061018082870101525b610140850195909552505050601f91909101601f191601610180019a9950505050505050505050565b60006020828403121561408057600080fd5b81356001600160401b0381111561409657600080fd5b6136dd84828501613de0565b6000602082840312156140b457600080fd5b81356001600160401b038111156140ca57600080fd5b6136dd84828501613d7c565b600081518084526020808501945080840160005b83811015613d505781511515875295820195908201906001016140ea565b6020815260006136bc60208301846140d6565b6000806040838503121561412e57600080fd5b823561413981613b0a565b91506020830135613b5081613d6e565b6000806040838503121561415c57600080fd5b823561416781613b0a565b915060208301356001600160401b0381111561418257600080fd5b61418e85828601613f21565b9150509250929050565b6080815260006141ab6080830187613d20565b82810360208401526141bd8187613d20565b905082810360408401526141d181866140d6565b91505082606083015295945050505050565b600080604083850312156141f657600080fd5b82356001600160401b038082111561420d57600080fd5b61421986838701613c56565b9350602085013591508082111561422f57600080fd5b5061418e85828601613de0565b60006020828403121561424e57600080fd5b81356136bc81613d6e565b60008060006060848603121561426e57600080fd5b83356001600160401b038082111561428557600080fd5b61429187838801613c56565b945060208601359150808211156142a757600080fd5b506142b486828701613de0565b925050604084013590509250925092565b634e487b7160e01b600052601160045260246000fd5b60008160001904831182151516156142f5576142f56142c5565b500290565b6000821982111561430d5761430d6142c5565b500190565b6000600019821415614326576143266142c5565b5060010190565b60006020828403121561433f57600080fd5b5051919050565b60006020828403121561435857600080fd5b81516136bc81613d6e565b634e487b7160e01b600052603260045260246000fd5b600181811c9082168061438d57607f821691505b602082108114156143ae57634e487b7160e01b600052602260045260246000fd5b50919050565b6000828210156143c6576143c66142c5565b500390565b6000826143e857634e487b7160e01b600052601260045260246000fd5b50049056fea2646970667358221220e486a39b8b555d47d3fa6d50e86fc53844b5fd000c60ae872a3d52b74bdcd52464736f6c634300080a0033",
    "sourcePath": "c:/Users/STC/Documents/GitHub/0-INFINITY-BLOCKS-TEST-UNILEVEL/contracts/UnilevelSystem.sol",
    "compiler": {
        "name": "solc",
        "version": "0.8.10+commit.fc410830"
    },
    "functionHashes": {
        "ChangeTokenPrincipal(address)": "50da983f",
        "MIN_RETIRO()": "6c529279",
        "PRECIO_BLOCK()": "24de19f2",
        "activerFee()": "bd9bee19",
        "actualizarArrayBool(bool[])": "7fcc1e36",
        "actualizarArrayUint256(uint256[])": "7367b080",
        "actualizarNetwork(address[])": "1ce7f99b",
        "addressToId(address)": "cb0e0d7d",
        "admin(address)": "63a846f8",
        "allnetwork(address[])": "7faee047",
        "asignarBloke(address,uint256,bool)": "67f74aab",
        "asignarMembership(address,address)": "1053abb1",
        "baserange(uint256)": "cfda9ee6",
        "buyBlocks(uint256)": "c17dbdf9",
        "column(address,uint256)": "15e8392b",
        "columnHijos(address)": "815374ca",
        "controlWitdrawl(bool)": "b17b6e44",
        "depositos(address,bool)": "a365528b",
        "descuento()": "7b0412ed",
        "dias()": "ab6db199",
        "duracionMembership()": "c40d5dbc",
        "gananciasRango(uint256)": "81032892",
        "hijo(address,uint256)": "339640b5",
        "idToAddress(uint256)": "2a2d0c47",
        "infinity(uint256)": "edf5eb1d",
        "inversiones()": "a77d2119",
        "investors(address)": "6f7bc9be",
        "lastUserId()": "348d4487",
        "makeNewAdmin(address)": "69ed1e0a",
        "makeRemoveAdmin(address)": "70a0966b",
        "newRecompensa()": "69f4a84b",
        "onOffWitdrawl()": "e7348e8c",
        "owner()": "8da5cb5b",
        "padre(address)": "b35f0a8f",
        "personas()": "cc759ba2",
        "porcent()": "4728f718",
        "porcientos(uint256)": "28cca719",
        "precioRegistro()": "7db9e9c6",
        "primervez(uint256)": "725fc270",
        "puntosRango(uint256)": "21309f21",
        "rangoReclamado(address,uint256)": "2acc8210",
        "redimBNB()": "fd14d598",
        "redimTokenPrincipal02(uint256)": "1140e85b",
        "registro(address,string)": "8f9ef8c1",
        "setDescuento(uint256)": "b3d9fa09",
        "setInversiones(uint256)": "b85ea335",
        "setMIN_RETIRO(uint256)": "4de1be62",
        "setPorcientos(uint256,uint256)": "1e403c35",
        "setPorcientosSalida(uint256,uint256)": "5d216c60",
        "setPrecioRegistro(uint256)": "aaa749c5",
        "setPriceBlock(uint256)": "2e8a03cf",
        "setPrimeravezPorcientos(uint256,uint256)": "54822522",
        "setRangos(bool[],uint256[],uint256[])": "43bf0bd4",
        "setRetorno(uint256)": "6589fa8a",
        "setTiempo(uint256)": "f90b3f5a",
        "setTiempoUnidades(uint256)": "2748d29b",
        "setWalletFee(address[],uint256[],uint256)": "db3be1a2",
        "setWalletstransfers(address[],uint256[])": "a8beb717",
        "setstate()": "85338e20",
        "tiempo()": "50188c08",
        "tokenPricipal()": "b1390426",
        "totalInvested()": "5216aeec",
        "totalInvestors()": "29b8caff",
        "totalRefRewards()": "bfe0e020",
        "totalRefWitdrawl()": "9b8ff503",
        "transferOwnership(address)": "f2fde38b",
        "unidades()": "4b9b8203",
        "updateData(string)": "68446ead",
        "valor(uint256)": "62550916",
        "valorFee(uint256)": "29e1a243",
        "wallet(uint256)": "a2781335",
        "walletFee(uint256)": "7251b9ac",
        "withdraw()": "3ccfd60b",
        "withdraw2()": "ea98847b",
        "withdrawTeam()": "bb51f32d",
        "withdrawable(address,bool)": "89b2521c",
        "withdrawableRange(address)": "98c07d0a"
    },
    "gasEstimates": {
        "creation": {
            "codeDepositCost": "3488600",
            "executionCost": "infinite",
            "totalCost": "infinite"
        },
        "external": {
            "": "231",
            "ChangeTokenPrincipal(address)": "51150",
            "MIN_RETIRO()": "2362",
            "PRECIO_BLOCK()": "2408",
            "activerFee()": "2384",
            "actualizarArrayBool(bool[])": "infinite",
            "actualizarArrayUint256(uint256[])": "infinite",
            "actualizarNetwork(address[])": "infinite",
            "addressToId(address)": "2580",
            "admin(address)": "2670",
            "allnetwork(address[])": "infinite",
            "asignarBloke(address,uint256,bool)": "infinite",
            "asignarMembership(address,address)": "infinite",
            "baserange(uint256)": "6336",
            "buyBlocks(uint256)": "infinite",
            "column(address,uint256)": "infinite",
            "columnHijos(address)": "infinite",
            "controlWitdrawl(bool)": "26852",
            "depositos(address,bool)": "infinite",
            "descuento()": "2386",
            "dias()": "2450",
            "duracionMembership()": "2450",
            "gananciasRango(uint256)": "4665",
            "hijo(address,uint256)": "4846",
            "idToAddress(uint256)": "2590",
            "infinity(uint256)": "4663",
            "inversiones()": "2384",
            "investors(address)": "infinite",
            "lastUserId()": "2385",
            "makeNewAdmin(address)": "28143",
            "makeRemoveAdmin(address)": "28069",
            "newRecompensa()": "infinite",
            "onOffWitdrawl()": "2454",
            "owner()": "2405",
            "padre(address)": "2664",
            "personas()": "2384",
            "porcent()": "2451",
            "porcientos(uint256)": "4732",
            "precioRegistro()": "2408",
            "primervez(uint256)": "4730",
            "puntosRango(uint256)": "4666",
            "rangoReclamado(address,uint256)": "6527",
            "redimBNB()": "infinite",
            "redimTokenPrincipal02(uint256)": "infinite",
            "registro(address,string)": "infinite",
            "setDescuento(uint256)": "24679",
            "setInversiones(uint256)": "24709",
            "setMIN_RETIRO(uint256)": "24644",
            "setPorcientos(uint256,uint256)": "infinite",
            "setPorcientosSalida(uint256,uint256)": "infinite",
            "setPrecioRegistro(uint256)": "24678",
            "setPriceBlock(uint256)": "24702",
            "setPrimeravezPorcientos(uint256,uint256)": "infinite",
            "setRangos(bool[],uint256[],uint256[])": "infinite",
            "setRetorno(uint256)": "24651",
            "setTiempo(uint256)": "24715",
            "setTiempoUnidades(uint256)": "24688",
            "setWalletFee(address[],uint256[],uint256)": "infinite",
            "setWalletstransfers(address[],uint256[])": "infinite",
            "setstate()": "6662",
            "tiempo()": "infinite",
            "tokenPricipal()": "2405",
            "totalInvested()": "2363",
            "totalInvestors()": "2364",
            "totalRefRewards()": "2406",
            "totalRefWitdrawl()": "2429",
            "transferOwnership(address)": "30522",
            "unidades()": "2364",
            "updateData(string)": "infinite",
            "valor(uint256)": "4709",
            "valorFee(uint256)": "4666",
            "wallet(uint256)": "4770",
            "walletFee(uint256)": "4747",
            "withdraw()": "infinite",
            "withdraw2()": "infinite",
            "withdrawTeam()": "infinite",
            "withdrawable(address,bool)": "infinite",
            "withdrawableRange(address)": "infinite"
        },
        "internal": {
            "rewardReferers(address,uint256,uint256[] memory)": "infinite"
        }
    }
}