{
    "contractName": "UnilevelSystem",
    "abi": [
        {
            "inputs": [],
            "stateMutability": "nonpayable",
            "type": "constructor"
        },
        {
            "anonymous": false,
            "inputs": [
                {
                    "indexed": true,
                    "internalType": "address",
                    "name": "admin",
                    "type": "address"
                }
            ],
            "name": "AdminRemoved",
            "type": "event"
        },
        {
            "anonymous": false,
            "inputs": [
                {
                    "indexed": true,
                    "internalType": "address",
                    "name": "admin",
                    "type": "address"
                }
            ],
            "name": "NewAdmin",
            "type": "event"
        },
        {
            "anonymous": false,
            "inputs": [
                {
                    "indexed": true,
                    "internalType": "address",
                    "name": "previousOwner",
                    "type": "address"
                },
                {
                    "indexed": true,
                    "internalType": "address",
                    "name": "newOwner",
                    "type": "address"
                }
            ],
            "name": "OwnershipTransferred",
            "type": "event"
        },
        {
            "stateMutability": "payable",
            "type": "fallback"
        },
        {
            "inputs": [
                {
                    "internalType": "address",
                    "name": "_tokenTRC20",
                    "type": "address"
                }
            ],
            "name": "ChangeTokenPrincipal",
            "outputs": [
                {
                    "internalType": "bool",
                    "name": "",
                    "type": "bool"
                }
            ],
            "stateMutability": "nonpayable",
            "type": "function"
        },
        {
            "inputs": [],
            "name": "MIN_RETIRO",
            "outputs": [
                {
                    "internalType": "uint256",
                    "name": "",
                    "type": "uint256"
                }
            ],
            "stateMutability": "view",
            "type": "function"
        },
        {
            "inputs": [],
            "name": "MIN_RETIRO_interno",
            "outputs": [
                {
                    "internalType": "uint256",
                    "name": "",
                    "type": "uint256"
                }
            ],
            "stateMutability": "view",
            "type": "function"
        },
        {
            "inputs": [],
            "name": "PRECIO_BLOCK",
            "outputs": [
                {
                    "internalType": "uint256",
                    "name": "",
                    "type": "uint256"
                }
            ],
            "stateMutability": "view",
            "type": "function"
        },
        {
            "inputs": [],
            "name": "activerFee",
            "outputs": [
                {
                    "internalType": "uint256",
                    "name": "",
                    "type": "uint256"
                }
            ],
            "stateMutability": "view",
            "type": "function"
        },
        {
            "inputs": [
                {
                    "internalType": "bool[]",
                    "name": "old",
                    "type": "bool[]"
                }
            ],
            "name": "actualizarArrayBool",
            "outputs": [
                {
                    "internalType": "bool[]",
                    "name": "",
                    "type": "bool[]"
                }
            ],
            "stateMutability": "pure",
            "type": "function"
        },
        {
            "inputs": [
                {
                    "internalType": "uint256[]",
                    "name": "old",
                    "type": "uint256[]"
                }
            ],
            "name": "actualizarArrayUint256",
            "outputs": [
                {
                    "internalType": "uint256[]",
                    "name": "",
                    "type": "uint256[]"
                }
            ],
            "stateMutability": "pure",
            "type": "function"
        },
        {
            "inputs": [
                {
                    "internalType": "address[]",
                    "name": "oldNetwork",
                    "type": "address[]"
                }
            ],
            "name": "actualizarNetwork",
            "outputs": [
                {
                    "internalType": "address[]",
                    "name": "",
                    "type": "address[]"
                }
            ],
            "stateMutability": "pure",
            "type": "function"
        },
        {
            "inputs": [
                {
                    "internalType": "address",
                    "name": "",
                    "type": "address"
                }
            ],
            "name": "addressToId",
            "outputs": [
                {
                    "internalType": "uint256",
                    "name": "",
                    "type": "uint256"
                }
            ],
            "stateMutability": "view",
            "type": "function"
        },
        {
            "inputs": [
                {
                    "internalType": "address",
                    "name": "",
                    "type": "address"
                }
            ],
            "name": "admin",
            "outputs": [
                {
                    "internalType": "bool",
                    "name": "",
                    "type": "bool"
                }
            ],
            "stateMutability": "view",
            "type": "function"
        },
        {
            "inputs": [
                {
                    "internalType": "address[]",
                    "name": "network",
                    "type": "address[]"
                }
            ],
            "name": "allnetwork",
            "outputs": [
                {
                    "internalType": "address[]",
                    "name": "",
                    "type": "address[]"
                }
            ],
            "stateMutability": "view",
            "type": "function"
        },
        {
            "inputs": [
                {
                    "internalType": "address",
                    "name": "_user",
                    "type": "address"
                },
                {
                    "internalType": "uint256",
                    "name": "_bloks",
                    "type": "uint256"
                },
                {
                    "internalType": "bool",
                    "name": "_infinity",
                    "type": "bool"
                }
            ],
            "name": "asignarBloke",
            "outputs": [
                {
                    "internalType": "bool",
                    "name": "",
                    "type": "bool"
                }
            ],
            "stateMutability": "nonpayable",
            "type": "function"
        },
        {
            "inputs": [
                {
                    "internalType": "address",
                    "name": "_user",
                    "type": "address"
                }
            ],
            "name": "asignarMembership",
            "outputs": [
                {
                    "internalType": "bool",
                    "name": "",
                    "type": "bool"
                }
            ],
            "stateMutability": "nonpayable",
            "type": "function"
        },
        {
            "inputs": [
                {
                    "internalType": "uint256",
                    "name": "_bloks",
                    "type": "uint256"
                }
            ],
            "name": "buyBlocks",
            "outputs": [],
            "stateMutability": "nonpayable",
            "type": "function"
        },
        {
            "inputs": [
                {
                    "internalType": "address",
                    "name": "yo",
                    "type": "address"
                },
                {
                    "internalType": "uint256",
                    "name": "_largo",
                    "type": "uint256"
                }
            ],
            "name": "column",
            "outputs": [
                {
                    "internalType": "address[]",
                    "name": "",
                    "type": "address[]"
                }
            ],
            "stateMutability": "view",
            "type": "function"
        },
        {
            "inputs": [
                {
                    "internalType": "address",
                    "name": "yo",
                    "type": "address"
                }
            ],
            "name": "columnHijos",
            "outputs": [
                {
                    "internalType": "address[]",
                    "name": "",
                    "type": "address[]"
                }
            ],
            "stateMutability": "view",
            "type": "function"
        },
        {
            "inputs": [
                {
                    "internalType": "bool",
                    "name": "_true_false",
                    "type": "bool"
                }
            ],
            "name": "controlWitdrawl",
            "outputs": [
                {
                    "internalType": "bool",
                    "name": "",
                    "type": "bool"
                }
            ],
            "stateMutability": "nonpayable",
            "type": "function"
        },
        {
            "inputs": [
                {
                    "internalType": "address",
                    "name": "_user",
                    "type": "address"
                },
                {
                    "internalType": "bool",
                    "name": "_infinity",
                    "type": "bool"
                }
            ],
            "name": "depositos",
            "outputs": [
                {
                    "internalType": "uint256[]",
                    "name": "",
                    "type": "uint256[]"
                },
                {
                    "internalType": "uint256[]",
                    "name": "",
                    "type": "uint256[]"
                },
                {
                    "internalType": "bool[]",
                    "name": "",
                    "type": "bool[]"
                },
                {
                    "internalType": "uint256",
                    "name": "",
                    "type": "uint256"
                }
            ],
            "stateMutability": "view",
            "type": "function"
        },
        {
            "inputs": [],
            "name": "descuento",
            "outputs": [
                {
                    "internalType": "uint256",
                    "name": "",
                    "type": "uint256"
                }
            ],
            "stateMutability": "view",
            "type": "function"
        },
        {
            "inputs": [],
            "name": "dias",
            "outputs": [
                {
                    "internalType": "uint256",
                    "name": "",
                    "type": "uint256"
                }
            ],
            "stateMutability": "view",
            "type": "function"
        },
        {
            "inputs": [],
            "name": "duracionMembership",
            "outputs": [
                {
                    "internalType": "uint256",
                    "name": "",
                    "type": "uint256"
                }
            ],
            "stateMutability": "view",
            "type": "function"
        },
        {
            "inputs": [
                {
                    "internalType": "uint256",
                    "name": "",
                    "type": "uint256"
                }
            ],
            "name": "gananciasRango",
            "outputs": [
                {
                    "internalType": "uint256",
                    "name": "",
                    "type": "uint256"
                }
            ],
            "stateMutability": "view",
            "type": "function"
        },
        {
            "inputs": [
                {
                    "internalType": "address",
                    "name": "",
                    "type": "address"
                },
                {
                    "internalType": "uint256",
                    "name": "",
                    "type": "uint256"
                }
            ],
            "name": "hijo",
            "outputs": [
                {
                    "internalType": "address",
                    "name": "",
                    "type": "address"
                }
            ],
            "stateMutability": "view",
            "type": "function"
        },
        {
            "inputs": [
                {
                    "internalType": "uint256",
                    "name": "",
                    "type": "uint256"
                }
            ],
            "name": "idToAddress",
            "outputs": [
                {
                    "internalType": "address",
                    "name": "",
                    "type": "address"
                }
            ],
            "stateMutability": "view",
            "type": "function"
        },
        {
            "inputs": [
                {
                    "internalType": "uint256",
                    "name": "",
                    "type": "uint256"
                }
            ],
            "name": "infinity",
            "outputs": [
                {
                    "internalType": "uint256",
                    "name": "",
                    "type": "uint256"
                }
            ],
            "stateMutability": "view",
            "type": "function"
        },
        {
            "inputs": [],
            "name": "inversiones",
            "outputs": [
                {
                    "internalType": "uint256",
                    "name": "",
                    "type": "uint256"
                }
            ],
            "stateMutability": "view",
            "type": "function"
        },
        {
            "inputs": [
                {
                    "internalType": "address",
                    "name": "",
                    "type": "address"
                }
            ],
            "name": "investors",
            "outputs": [
                {
                    "internalType": "bool",
                    "name": "registered",
                    "type": "bool"
                },
                {
                    "internalType": "uint256",
                    "name": "membership",
                    "type": "uint256"
                },
                {
                    "internalType": "uint256",
                    "name": "balanceRef",
                    "type": "uint256"
                },
                {
                    "internalType": "uint256",
                    "name": "totalRef",
                    "type": "uint256"
                },
                {
                    "internalType": "uint256",
                    "name": "invested",
                    "type": "uint256"
                },
                {
                    "internalType": "uint256",
                    "name": "paidAt",
                    "type": "uint256"
                },
                {
                    "internalType": "uint256",
                    "name": "paidAt2",
                    "type": "uint256"
                },
                {
                    "internalType": "uint256",
                    "name": "withdrawn",
                    "type": "uint256"
                },
                {
                    "internalType": "uint256",
                    "name": "directos",
                    "type": "uint256"
                },
                {
                    "internalType": "string",
                    "name": "data",
                    "type": "string"
                },
                {
                    "internalType": "uint256",
                    "name": "blokesDirectos",
                    "type": "uint256"
                }
            ],
            "stateMutability": "view",
            "type": "function"
        },
        {
            "inputs": [],
            "name": "lastUserId",
            "outputs": [
                {
                    "internalType": "uint256",
                    "name": "",
                    "type": "uint256"
                }
            ],
            "stateMutability": "view",
            "type": "function"
        },
        {
            "inputs": [
                {
                    "internalType": "address payable",
                    "name": "_newadmin",
                    "type": "address"
                }
            ],
            "name": "makeNewAdmin",
            "outputs": [],
            "stateMutability": "nonpayable",
            "type": "function"
        },
        {
            "inputs": [
                {
                    "internalType": "address payable",
                    "name": "_oldadmin",
                    "type": "address"
                }
            ],
            "name": "makeRemoveAdmin",
            "outputs": [],
            "stateMutability": "nonpayable",
            "type": "function"
        },
        {
            "inputs": [],
            "name": "newRecompensa",
            "outputs": [],
            "stateMutability": "nonpayable",
            "type": "function"
        },
        {
            "inputs": [],
            "name": "onOffWitdrawl",
            "outputs": [
                {
                    "internalType": "bool",
                    "name": "",
                    "type": "bool"
                }
            ],
            "stateMutability": "view",
            "type": "function"
        },
        {
            "inputs": [],
            "name": "owner",
            "outputs": [
                {
                    "internalType": "address payable",
                    "name": "",
                    "type": "address"
                }
            ],
            "stateMutability": "view",
            "type": "function"
        },
        {
            "inputs": [
                {
                    "internalType": "address",
                    "name": "",
                    "type": "address"
                }
            ],
            "name": "padre",
            "outputs": [
                {
                    "internalType": "address",
                    "name": "",
                    "type": "address"
                }
            ],
            "stateMutability": "view",
            "type": "function"
        },
        {
            "inputs": [],
            "name": "personas",
            "outputs": [
                {
                    "internalType": "uint256",
                    "name": "",
                    "type": "uint256"
                }
            ],
            "stateMutability": "view",
            "type": "function"
        },
        {
            "inputs": [],
            "name": "porcent",
            "outputs": [
                {
                    "internalType": "uint256",
                    "name": "",
                    "type": "uint256"
                }
            ],
            "stateMutability": "view",
            "type": "function"
        },
        {
            "inputs": [
                {
                    "internalType": "uint256",
                    "name": "",
                    "type": "uint256"
                }
            ],
            "name": "porcientos",
            "outputs": [
                {
                    "internalType": "uint256",
                    "name": "",
                    "type": "uint256"
                }
            ],
            "stateMutability": "view",
            "type": "function"
        },
        {
            "inputs": [],
            "name": "precioRegistro",
            "outputs": [
                {
                    "internalType": "uint256",
                    "name": "",
                    "type": "uint256"
                }
            ],
            "stateMutability": "view",
            "type": "function"
        },
        {
            "inputs": [
                {
                    "internalType": "uint256",
                    "name": "",
                    "type": "uint256"
                }
            ],
            "name": "primervez",
            "outputs": [
                {
                    "internalType": "uint256",
                    "name": "",
                    "type": "uint256"
                }
            ],
            "stateMutability": "view",
            "type": "function"
        },
        {
            "inputs": [
                {
                    "internalType": "uint256",
                    "name": "",
                    "type": "uint256"
                }
            ],
            "name": "puntosRango",
            "outputs": [
                {
                    "internalType": "uint256",
                    "name": "",
                    "type": "uint256"
                }
            ],
            "stateMutability": "view",
            "type": "function"
        },
        {
            "inputs": [
                {
                    "internalType": "address",
                    "name": "",
                    "type": "address"
                },
                {
                    "internalType": "uint256",
                    "name": "",
                    "type": "uint256"
                }
            ],
            "name": "rangoReclamado",
            "outputs": [
                {
                    "internalType": "bool",
                    "name": "",
                    "type": "bool"
                }
            ],
            "stateMutability": "view",
            "type": "function"
        },
        {
            "inputs": [],
            "name": "redimBNB",
            "outputs": [
                {
                    "internalType": "uint256",
                    "name": "",
                    "type": "uint256"
                }
            ],
            "stateMutability": "nonpayable",
            "type": "function"
        },
        {
            "inputs": [
                {
                    "internalType": "uint256",
                    "name": "_value",
                    "type": "uint256"
                }
            ],
            "name": "redimTokenPrincipal02",
            "outputs": [
                {
                    "internalType": "uint256",
                    "name": "",
                    "type": "uint256"
                }
            ],
            "stateMutability": "nonpayable",
            "type": "function"
        },
        {
            "inputs": [
                {
                    "internalType": "address",
                    "name": "_sponsor",
                    "type": "address"
                },
                {
                    "internalType": "string",
                    "name": "_datos",
                    "type": "string"
                }
            ],
            "name": "registro",
            "outputs": [],
            "stateMutability": "nonpayable",
            "type": "function"
        },
        {
            "inputs": [
                {
                    "internalType": "uint256",
                    "name": "_descuento",
                    "type": "uint256"
                }
            ],
            "name": "setDescuento",
            "outputs": [
                {
                    "internalType": "bool",
                    "name": "",
                    "type": "bool"
                }
            ],
            "stateMutability": "nonpayable",
            "type": "function"
        },
        {
            "inputs": [
                {
                    "internalType": "uint256",
                    "name": "_numerodeinverionessinganancia",
                    "type": "uint256"
                }
            ],
            "name": "setInversiones",
            "outputs": [
                {
                    "internalType": "uint256",
                    "name": "",
                    "type": "uint256"
                }
            ],
            "stateMutability": "nonpayable",
            "type": "function"
        },
        {
            "inputs": [
                {
                    "internalType": "uint256",
                    "name": "_min",
                    "type": "uint256"
                }
            ],
            "name": "setMIN_RETIRO",
            "outputs": [
                {
                    "internalType": "uint256",
                    "name": "",
                    "type": "uint256"
                }
            ],
            "stateMutability": "nonpayable",
            "type": "function"
        },
        {
            "inputs": [
                {
                    "internalType": "uint256",
                    "name": "_nivel",
                    "type": "uint256"
                },
                {
                    "internalType": "uint256",
                    "name": "_value",
                    "type": "uint256"
                }
            ],
            "name": "setPorcientos",
            "outputs": [
                {
                    "internalType": "uint256[]",
                    "name": "",
                    "type": "uint256[]"
                }
            ],
            "stateMutability": "nonpayable",
            "type": "function"
        },
        {
            "inputs": [
                {
                    "internalType": "uint256",
                    "name": "_nivel",
                    "type": "uint256"
                },
                {
                    "internalType": "uint256",
                    "name": "_value",
                    "type": "uint256"
                }
            ],
            "name": "setPorcientosSalida",
            "outputs": [
                {
                    "internalType": "uint256[]",
                    "name": "",
                    "type": "uint256[]"
                }
            ],
            "stateMutability": "nonpayable",
            "type": "function"
        },
        {
            "inputs": [
                {
                    "internalType": "uint256",
                    "name": "_precio",
                    "type": "uint256"
                }
            ],
            "name": "setPrecioRegistro",
            "outputs": [
                {
                    "internalType": "bool",
                    "name": "",
                    "type": "bool"
                }
            ],
            "stateMutability": "nonpayable",
            "type": "function"
        },
        {
            "inputs": [
                {
                    "internalType": "uint256",
                    "name": "_value",
                    "type": "uint256"
                }
            ],
            "name": "setPriceBlock",
            "outputs": [
                {
                    "internalType": "bool",
                    "name": "",
                    "type": "bool"
                }
            ],
            "stateMutability": "nonpayable",
            "type": "function"
        },
        {
            "inputs": [
                {
                    "internalType": "uint256",
                    "name": "_nivel",
                    "type": "uint256"
                },
                {
                    "internalType": "uint256",
                    "name": "_value",
                    "type": "uint256"
                }
            ],
            "name": "setPrimeravezPorcientos",
            "outputs": [
                {
                    "internalType": "uint256[]",
                    "name": "",
                    "type": "uint256[]"
                }
            ],
            "stateMutability": "nonpayable",
            "type": "function"
        },
        {
            "inputs": [
                {
                    "internalType": "uint256",
                    "name": "_porcentaje",
                    "type": "uint256"
                }
            ],
            "name": "setRetorno",
            "outputs": [
                {
                    "internalType": "uint256",
                    "name": "",
                    "type": "uint256"
                }
            ],
            "stateMutability": "nonpayable",
            "type": "function"
        },
        {
            "inputs": [
                {
                    "internalType": "uint256",
                    "name": "_dias",
                    "type": "uint256"
                }
            ],
            "name": "setTiempo",
            "outputs": [
                {
                    "internalType": "uint256",
                    "name": "",
                    "type": "uint256"
                }
            ],
            "stateMutability": "nonpayable",
            "type": "function"
        },
        {
            "inputs": [
                {
                    "internalType": "uint256",
                    "name": "_unidades",
                    "type": "uint256"
                }
            ],
            "name": "setTiempoUnidades",
            "outputs": [
                {
                    "internalType": "uint256",
                    "name": "",
                    "type": "uint256"
                }
            ],
            "stateMutability": "nonpayable",
            "type": "function"
        },
        {
            "inputs": [
                {
                    "internalType": "address[]",
                    "name": "_wallet",
                    "type": "address[]"
                },
                {
                    "internalType": "uint256[]",
                    "name": "_fee",
                    "type": "uint256[]"
                },
                {
                    "internalType": "uint256",
                    "name": "_activerFee",
                    "type": "uint256"
                }
            ],
            "name": "setWalletFee",
            "outputs": [
                {
                    "internalType": "bool",
                    "name": "",
                    "type": "bool"
                }
            ],
            "stateMutability": "nonpayable",
            "type": "function"
        },
        {
            "inputs": [
                {
                    "internalType": "address[]",
                    "name": "_wallets",
                    "type": "address[]"
                },
                {
                    "internalType": "uint256[]",
                    "name": "_valores",
                    "type": "uint256[]"
                }
            ],
            "name": "setWalletstransfers",
            "outputs": [
                {
                    "internalType": "bool",
                    "name": "",
                    "type": "bool"
                }
            ],
            "stateMutability": "nonpayable",
            "type": "function"
        },
        {
            "inputs": [],
            "name": "setstate",
            "outputs": [
                {
                    "internalType": "uint256",
                    "name": "Investors",
                    "type": "uint256"
                },
                {
                    "internalType": "uint256",
                    "name": "Invested",
                    "type": "uint256"
                },
                {
                    "internalType": "uint256",
                    "name": "RefRewards",
                    "type": "uint256"
                }
            ],
            "stateMutability": "view",
            "type": "function"
        },
        {
            "inputs": [],
            "name": "tiempo",
            "outputs": [
                {
                    "internalType": "uint256",
                    "name": "",
                    "type": "uint256"
                }
            ],
            "stateMutability": "view",
            "type": "function"
        },
        {
            "inputs": [],
            "name": "tokenPricipal",
            "outputs": [
                {
                    "internalType": "address",
                    "name": "",
                    "type": "address"
                }
            ],
            "stateMutability": "view",
            "type": "function"
        },
        {
            "inputs": [],
            "name": "totalInvested",
            "outputs": [
                {
                    "internalType": "uint256",
                    "name": "",
                    "type": "uint256"
                }
            ],
            "stateMutability": "view",
            "type": "function"
        },
        {
            "inputs": [],
            "name": "totalInvestors",
            "outputs": [
                {
                    "internalType": "uint256",
                    "name": "",
                    "type": "uint256"
                }
            ],
            "stateMutability": "view",
            "type": "function"
        },
        {
            "inputs": [],
            "name": "totalRefRewards",
            "outputs": [
                {
                    "internalType": "uint256",
                    "name": "",
                    "type": "uint256"
                }
            ],
            "stateMutability": "view",
            "type": "function"
        },
        {
            "inputs": [],
            "name": "totalRefWitdrawl",
            "outputs": [
                {
                    "internalType": "uint256",
                    "name": "",
                    "type": "uint256"
                }
            ],
            "stateMutability": "view",
            "type": "function"
        },
        {
            "inputs": [
                {
                    "internalType": "address payable",
                    "name": "newOwner",
                    "type": "address"
                }
            ],
            "name": "transferOwnership",
            "outputs": [],
            "stateMutability": "nonpayable",
            "type": "function"
        },
        {
            "inputs": [],
            "name": "unidades",
            "outputs": [
                {
                    "internalType": "uint256",
                    "name": "",
                    "type": "uint256"
                }
            ],
            "stateMutability": "view",
            "type": "function"
        },
        {
            "inputs": [
                {
                    "internalType": "string",
                    "name": "_datos",
                    "type": "string"
                }
            ],
            "name": "updateData",
            "outputs": [],
            "stateMutability": "nonpayable",
            "type": "function"
        },
        {
            "inputs": [
                {
                    "internalType": "uint256",
                    "name": "",
                    "type": "uint256"
                }
            ],
            "name": "valor",
            "outputs": [
                {
                    "internalType": "uint256",
                    "name": "",
                    "type": "uint256"
                }
            ],
            "stateMutability": "view",
            "type": "function"
        },
        {
            "inputs": [
                {
                    "internalType": "uint256",
                    "name": "",
                    "type": "uint256"
                }
            ],
            "name": "valorFee",
            "outputs": [
                {
                    "internalType": "uint256",
                    "name": "",
                    "type": "uint256"
                }
            ],
            "stateMutability": "view",
            "type": "function"
        },
        {
            "inputs": [
                {
                    "internalType": "uint256",
                    "name": "",
                    "type": "uint256"
                }
            ],
            "name": "wallet",
            "outputs": [
                {
                    "internalType": "address",
                    "name": "",
                    "type": "address"
                }
            ],
            "stateMutability": "view",
            "type": "function"
        },
        {
            "inputs": [
                {
                    "internalType": "uint256",
                    "name": "",
                    "type": "uint256"
                }
            ],
            "name": "walletFee",
            "outputs": [
                {
                    "internalType": "address",
                    "name": "",
                    "type": "address"
                }
            ],
            "stateMutability": "view",
            "type": "function"
        },
        {
            "inputs": [],
            "name": "withdraw",
            "outputs": [],
            "stateMutability": "nonpayable",
            "type": "function"
        },
        {
            "inputs": [],
            "name": "withdraw2",
            "outputs": [],
            "stateMutability": "nonpayable",
            "type": "function"
        },
        {
            "inputs": [],
            "name": "withdrawTeam",
            "outputs": [],
            "stateMutability": "nonpayable",
            "type": "function"
        },
        {
            "inputs": [
                {
                    "internalType": "address",
                    "name": "any_user",
                    "type": "address"
                },
                {
                    "internalType": "bool",
                    "name": "_infinity",
                    "type": "bool"
                }
            ],
            "name": "withdrawable",
            "outputs": [
                {
                    "internalType": "uint256",
                    "name": "",
                    "type": "uint256"
                }
            ],
            "stateMutability": "view",
            "type": "function"
        },
        {
            "inputs": [
                {
                    "internalType": "address",
                    "name": "any_user",
                    "type": "address"
                }
            ],
            "name": "withdrawableRange",
            "outputs": [
                {
                    "internalType": "uint256",
                    "name": "amount",
                    "type": "uint256"
                }
            ],
            "stateMutability": "view",
            "type": "function"
        },
        {
            "stateMutability": "payable",
            "type": "receive"
        }
    ],
    "bytecode": "600280547355d398326f99059ff775485246999027b31979556001600160a01b031991821681179092556003805482168317905567d02ab486cedc00006004556802b5e3af16b1880000600655600780549091169091179055600160085561012060405260326080908152601e60a052601460c052600a60e0819052610100526200008f906009906005620004a8565b506040805160a08101825260328152601e6020820152601491810191909152600a6060820181905260808201819052620000cb916005620004a8565b506040805160a08101825260058082526003602083015260029282019290925260016060820181905260808201526200010891600b9190620004a8565b506040805160a0810182526828a857425466f800008152685150ae84a8cdf00000602082015268cb49b44ba602d80000918101919091526901969368974c05b00000606082015269032d26d12e980b60000060808201526200016f90600c906005620004fd565b506040805160a081018252685150ae84a8cdf00000815269010f0cf064dd59200000602082015269043c33c193756480000091810191909152690a968163f0a57b4000006060820152691969368974c05b0000006080820152620001d890600d906005620004fd565b50600e805460ff1916600190811790915561016d600f556103846010556201518060115560f0601255605f60135560026014556015819055601f819055604080516020808201909252730556a260b9ef10756bc2df281168697f353d1e8e8152620002439262000546565b5060408051602081019091526064815262000263906021906001620004a8565b50600060225560016023556040805160e081018252734490566647735e8cbce0ce96efc8fb91c164859b815273e201933ca7b5af514a1b0119bbc1072a066c06df602082015273e2283cb00b9c32727941728bede372005c6ca3119181019190915273763eb0a2a2925c45927dbf6432f191fc66fbcfa8606082015273deff65e4bcf19a52b0db33e57b7ce262fd5db53f6080820152738a6ac002b64bbba26e746d97d4050e71240b30b060a0820152730bddc342f66f46968a15bd1c16dbefa5b63a158860c08201526200033d90602490600762000546565b506040805160e08101825260068152600560208201526002918101829052606081018290526080810182905260a0810191909152602f60c082015262000388906025906007620004a8565b503480156200039657600080fd5b50600080546001600160a01b0319163390811782558152600160208181526040808420805460ff19908116851790915584546001600160a01b0316855260199092529092208054909216178155601154600f54620003f591906200066d565b6200040990670de0b6b3a76400006200066d565b6200041590426200068f565b60018201556040805160a081018252600080825260208083018290528284018290526060830182905260808301829052338252601e9052919091206200045d9160056200059e565b50507fb9c6de81004e18dedadca3e5eabaab449ca91dff6f58efc9461da635fe77f84980546001600160a01b031916339081179091556000908152601d6020526040812055620006aa565b828054828255906000526020600020908101928215620004eb579160200282015b82811115620004eb578251829060ff16905591602001919060010190620004c9565b50620004f992915062000640565b5090565b828054828255906000526020600020908101928215620004eb579160200282015b82811115620004eb57825182906001600160501b03169055916020019190600101906200051e565b828054828255906000526020600020908101928215620004eb579160200282015b82811115620004eb57825182546001600160a01b0319166001600160a01b0390911617825560209092019160019091019062000567565b82805482825590600052602060002090601f01602090048101928215620004eb5791602002820160005b838211156200060757835183826101000a81548160ff0219169083151502179055509260200192600101602081600001049283019260010302620005c8565b8015620006365782816101000a81549060ff021916905560010160208160000104928301926001030262000607565b5050620004f99291505b5b80821115620004f9576000815560010162000641565b634e487b7160e01b600052601160045260246000fd5b60008160001904831182151516156200068a576200068a62000657565b500290565b60008219821115620006a557620006a562000657565b500190565b61448680620006ba6000396000f3fe60806040526004361061041b5760003560e01c80637b0412ed1161021c578063b17b6e4411610122578063cb0e0d7d116100b0578063edf5eb1d11610077578063edf5eb1d14610d00578063f2fde38b14610d20578063f90b3f5a14610d40578063fd14d59814610d60578063fd68651914610d7557005b8063cb0e0d7d14610c6e578063cc759ba214610c9b578063db3be1a214610cb1578063e7348e8c14610cd1578063ea98847b14610ceb57005b8063bb51f32d116100f4578063bb51f32d14610bf7578063bd9bee1914610c0c578063bfe0e02014610c22578063c17dbdf914610c38578063c40d5dbc14610c5857005b8063b17b6e4414610b61578063b35f0a8f14610b81578063b3d9fa0914610bb7578063b85ea33514610bd757005b80638f9ef8c1116101aa578063a77d211911610171578063a77d211914610ad5578063a8beb71714610aeb578063aaa749c514610b0b578063ab6db19914610b2b578063b139042614610b4157005b80638f9ef8c114610a2f57806398c07d0a14610a4f5780639b8ff50314610a6f578063a278133514610a85578063a365528b14610aa557005b806381032892116101ee578063810328921461097e578063815374ca1461099e57806385338e20146109be57806389b2521c146109ef5780638da5cb5b14610a0f57005b80637b0412ed146109055780637db9e9c61461091b5780637faee047146109315780637fcc1e361461095157005b80634de1be621161032157806367f74aab116102af5780636f7bc9be116102765780636f7bc9be1461084e57806370a0966b146108855780637251b9ac146108a5578063725fc270146108c55780637367b080146108e557005b806367f74aab146107c357806368446ead146107e357806369ed1e0a1461080357806369f4a84b146108235780636c5292791461083857005b806354822522116102f357806354822522146107135780635d216c6014610733578063625509161461075357806363a846f8146107735780636589fa8a146107a357005b80634de1be62146106a857806350188c08146106c857806350da983f146106dd5780635216aeec146106fd57005b806329e1a243116103a9578063348d448711610370578063348d44871461063b5780633ccfd60b146106515780634728f718146106665780634b9b82031461067c5780634bdcd4291461069257005b806329e1a2431461055d5780632a2d0c471461057d5780632acc8210146105cb5780632e8a03cf146105fb578063339640b51461061b57005b806321309f21116103ed57806321309f21146104d157806324de19f2146104f15780632748d29b1461050757806328cca7191461052757806329b8caff1461054757005b80631140e85b1461042457806315e8392b146104575780631ce7f99b146104845780631e403c35146104a457005b3661042257005b005b34801561043057600080fd5b5061044461043f366004613c08565b610d95565b6040519081526020015b60405180910390f35b34801561046357600080fd5b50610477610472366004613c39565b610ead565b60405161044e9190613c65565b34801561049057600080fd5b5061047761049f366004613d8f565b610f44565b3480156104b057600080fd5b506104c46104bf366004613dc3565b611002565b60405161044e9190613e20565b3480156104dd57600080fd5b506104446104ec366004613c08565b6110a0565b3480156104fd57600080fd5b5061044460065481565b34801561051357600080fd5b50610444610522366004613c08565b6110c1565b34801561053357600080fd5b50610444610542366004613c08565b6110eb565b34801561055357600080fd5b5061044460155481565b34801561056957600080fd5b50610444610578366004613c08565b6110fb565b34801561058957600080fd5b506105b3610598366004613c08565b601c602052600090815260409020546001600160a01b031681565b6040516001600160a01b03909116815260200161044e565b3480156105d757600080fd5b506105eb6105e6366004613c39565b61110b565b604051901515815260200161044e565b34801561060757600080fd5b506105eb610616366004613c08565b61114e565b34801561062757600080fd5b506105b3610636366004613c39565b611178565b34801561064757600080fd5b50610444601f5481565b34801561065d57600080fd5b506104226111b0565b34801561067257600080fd5b5061044460125481565b34801561068857600080fd5b5061044460115481565b34801561069e57600080fd5b5061044460055481565b3480156106b457600080fd5b506104446106c3366004613c08565b6114d0565b3480156106d457600080fd5b506104446114fa565b3480156106e957600080fd5b506105eb6106f8366004613e33565b611518565b34801561070957600080fd5b5061044460165481565b34801561071f57600080fd5b506104c461072e366004613dc3565b61156c565b34801561073f57600080fd5b506104c461074e366004613dc3565b611608565b34801561075f57600080fd5b5061044461076e366004613c08565b6116a4565b34801561077f57600080fd5b506105eb61078e366004613e33565b60016020526000908152604090205460ff1681565b3480156107af57600080fd5b506104446107be366004613c08565b6116b4565b3480156107cf57600080fd5b506105eb6107de366004613e5e565b6116d9565b3480156107ef57600080fd5b506104226107fe366004613f0f565b61182d565b34801561080f57600080fd5b5061042261081e366004613e33565b611859565b34801561082f57600080fd5b506104226118e7565b34801561084457600080fd5b5061044460045481565b34801561085a57600080fd5b5061086e610869366004613e33565b611a76565b60405161044e9b9a99989796959493929190613f43565b34801561089157600080fd5b506104226108a0366004613e33565b611b5d565b3480156108b157600080fd5b506105b36108c0366004613c08565b611be5565b3480156108d157600080fd5b506104446108e0366004613c08565b611c0f565b3480156108f157600080fd5b506104c4610900366004614048565b611c1f565b34801561091157600080fd5b5061044460135481565b34801561092757600080fd5b5061044460225481565b34801561093d57600080fd5b5061047761094c366004613d8f565b611cc9565b34801561095d57600080fd5b5061097161096c36600461407c565b611de6565b60405161044e9190614147565b34801561098a57600080fd5b50610444610999366004613c08565b611e95565b3480156109aa57600080fd5b506104776109b9366004613e33565b611ea5565b3480156109ca57600080fd5b506015546016546017546040805193845260208401929092529082015260600161044e565b3480156109fb57600080fd5b50610444610a0a36600461415a565b611f5c565b348015610a1b57600080fd5b506000546105b3906001600160a01b031681565b348015610a3b57600080fd5b50610422610a4a366004614193565b611f7d565b348015610a5b57600080fd5b50610444610a6a366004613e33565b6123bf565b348015610a7b57600080fd5b5061044460185481565b348015610a9157600080fd5b506105b3610aa0366004613c08565b612588565b348015610ab157600080fd5b50610ac5610ac036600461415a565b612598565b60405161044e94939291906141e2565b348015610ae157600080fd5b5061044460085481565b348015610af757600080fd5b506105eb610b0636600461422d565b61287e565b348015610b1757600080fd5b506105eb610b26366004613c08565b6128d0565b348015610b3757600080fd5b5061044460105481565b348015610b4d57600080fd5b506007546105b3906001600160a01b031681565b348015610b6d57600080fd5b506105eb610b7c366004614286565b6128fa565b348015610b8d57600080fd5b506105b3610b9c366004613e33565b601a602052600090815260409020546001600160a01b031681565b348015610bc357600080fd5b506105eb610bd2366004613c08565b61292d565b348015610be357600080fd5b50610444610bf2366004613c08565b612957565b348015610c0357600080fd5b50610422612981565b348015610c1857600080fd5b5061044460235481565b348015610c2e57600080fd5b5061044460175481565b348015610c4457600080fd5b50610422610c53366004613c08565b612cac565b348015610c6457600080fd5b50610444600f5481565b348015610c7a57600080fd5b50610444610c89366004613e33565b601d6020526000908152604090205481565b348015610ca757600080fd5b5061044460145481565b348015610cbd57600080fd5b506105eb610ccc3660046142a3565b6131e8565b348015610cdd57600080fd5b50600e546105eb9060ff1681565b348015610cf757600080fd5b5061042261323c565b348015610d0c57600080fd5b50610444610d1b366004613c08565b613533565b348015610d2c57600080fd5b50610422610d3b366004613e33565b613543565b348015610d4c57600080fd5b50610444610d5b366004613c08565b6135d1565b348015610d6c57600080fd5b506104446135f6565b348015610d8157600080fd5b506105eb610d90366004613e33565b613658565b600080546001600160a01b0316336001600160a01b031614610db657600080fd5b6003546040516370a0823160e01b815230600482015283916001600160a01b0316906370a0823190602401602060405180830381865afa158015610dfe573d6000803e3d6000fd5b505050506040513d601f19601f82011682018060405250810190610e22919061430f565b1015610e2d57600080fd5b60035460005460405163a9059cbb60e01b81526001600160a01b039283169263a9059cbb92610e63929116908690600401614328565b6020604051808303816000875af1158015610e82573d6000803e3d6000fd5b505050506040513d601f19601f82011682018060405250810190610ea69190614341565b5090919050565b60608060005b83811015610f3a57610ec482610f44565b6001600160a01b038087166000908152601a602052604090205482519294501690839083908110610ef757610ef761435e565b6001600160a01b039283166020918202929092018101919091529581166000908152601a9096526040909520549094169380610f328161438a565b915050610eb3565b5090505b92915050565b6060600082516001610f5691906143a5565b6001600160401b03811115610f6d57610f6d613cb2565b604051908082528060200260200182016040528015610f96578160200160208202803683370190505b50905060005b8351811015610ffb57838181518110610fb757610fb761435e565b6020026020010151828281518110610fd157610fd161435e565b6001600160a01b039092166020928302919091019091015280610ff38161438a565b915050610f9c565b5092915050565b6000546060906001600160a01b0316336001600160a01b03161461102557600080fd5b81600a84815481106110395761103961435e565b9060005260206000200181905550600a80548060200260200160405190810160405280929190818152602001828054801561109357602002820191906000526020600020905b81548152602001906001019080831161107f575b5050505050905092915050565b600d81815481106110b057600080fd5b600091825260209091200154905081565b600080546001600160a01b0316336001600160a01b0316146110e257600080fd5b50601181905590565b600a81815481106110b057600080fd5b602181815481106110b057600080fd5b601e602052816000526040600020818154811061112757600080fd5b9060005260206000209060209182820401919006915091509054906101000a900460ff1681565b600080546001600160a01b0316336001600160a01b03161461116f57600080fd5b50600655600190565b601b602052816000526040600020818154811061119457600080fd5b6000918252602090912001546001600160a01b03169150829050565b600e5460ff166111bf57600080fd5b336000818152601960205260408120916111da906000611f5c565b6003546040516370a0823160e01b815230600482015291925082916001600160a01b03909116906370a0823190602401602060405180830381865afa158015611227573d6000803e3d6000fd5b505050506040513d601f19601f8201168201806040525081019061124b919061430f565b101561125657600080fd5b60045481101561126557600080fd5b6001602354106114055760005b60205481101561137257600354602080546001600160a01b039092169163a9059cbb9190849081106112a6576112a661435e565b9060005260206000200160009054906101000a90046001600160a01b03166112ff60646112f9602187815481106112df576112df61435e565b9060005260206000200154886137db90919063ffffffff16565b9061380d565b6040518363ffffffff1660e01b815260040161131c929190614328565b6020604051808303816000875af115801561133b573d6000803e3d6000fd5b505050506040513d601f19601f8201168201806040525081019061135f9190614341565b508061136a8161438a565b915050611272565b506003546001600160a01b031663a9059cbb3361139f60646112f9601354876137db90919063ffffffff16565b6040518363ffffffff1660e01b81526004016113bc929190614328565b6020604051808303816000875af11580156113db573d6000803e3d6000fd5b505050506040513d601f19601f820116820180604052508101906113ff9190614341565b50611493565b6003546001600160a01b031663a9059cbb3361143160646112f9601354876137db90919063ffffffff16565b6040518363ffffffff1660e01b815260040161144e929190614328565b6020604051808303816000875af115801561146d573d6000803e3d6000fd5b505050506040513d601f19601f820116820180604052508101906114919190614341565b505b808260070160008282546114a791906143a5565b9091555050426005830155601880548291906000906114c79084906143a5565b90915550505050565b600080546001600160a01b0316336001600160a01b0316146114f157600080fd5b50600481905590565b60006115136011546010546137db90919063ffffffff16565b905090565b600080546001600160a01b0316336001600160a01b03161461153957600080fd5b50600380546001600160a01b0383166001600160a01b031991821681179092556007805490911690911790556001919050565b6000546060906001600160a01b0316336001600160a01b03161461158f57600080fd5b81600984815481106115a3576115a361435e565b90600052602060002001819055506009805480602002602001604051908101604052809291908181526020018280548015611093576020028201919060005260206000209081548152602001906001019080831161107f575050505050905092915050565b6000546060906001600160a01b0316336001600160a01b03161461162b57600080fd5b81600b848154811061163f5761163f61435e565b9060005260206000200181905550600b805480602002602001604051908101604052809291908181526020018280548015611093576020028201919060005260206000209081548152602001906001019080831161107f575050505050905092915050565b602581815481106110b057600080fd5b3360009081526001602052604081205460ff166116d057600080fd5b50601281905590565b3360009081526001602052604081205460ff166116f557600080fd5b6000831161174a5760405162461bcd60e51b815260206004820152601e60248201527f63616e7469646164206d696e696d6120646520626c6f6b65732065732031000060448201526064015b60405180910390fd5b6001600160a01b0384166000908152601960205260409020805460ff1661177057600080fd5b60008460065461178091906143bd565b905081600a0160405180608001604052804281526020016117b160646112f9601254876137db90919063ffffffff16565b81526020016117d060646112f9601254876137db90919063ffffffff16565b81529515156020968701528154600180820184556000938452928790208251600490920201908155958101518683015560408101516002870155606001516003909501805460ff1916951515959095179094555091949350505050565b33600090815260196020908152604090912082519091611854916009840191850190613a40565b505050565b6000546001600160a01b0316336001600160a01b03161461187957600080fd5b6001600160a01b03811661188c57600080fd5b6040516001600160a01b038216907f71614071b88dee5e0b2ae578a9dd7b2ebbe9ae832ba419dc0242cd065a290b6c90600090a26001600160a01b03166000908152600160208190526040909120805460ff19169091179055565b600e5460ff166118f657600080fd5b6000611901336123bf565b905060005b600c54811015611a7257600d81815481106119235761192361435e565b9060005260206000200154821015801561197b5750336000908152601e602052604090208054829081106119595761195961435e565b90600052602060002090602091828204019190069054906101000a900460ff16155b15611a60576003546001600160a01b031663a9059cbb33600c84815481106119a5576119a561435e565b90600052602060002001546040518363ffffffff1660e01b81526004016119cd929190614328565b6020604051808303816000875af11580156119ec573d6000803e3d6000fd5b505050506040513d601f19601f82011682018060405250810190611a109190614341565b50336000908152601e6020526040902080546001919083908110611a3657611a3661435e565b90600052602060002090602091828204019190066101000a81548160ff0219169083151502179055505b80611a6a8161438a565b915050611906565b5050565b601960205260009081526040902080546001820154600283015460038401546004850154600586015460068701546007880154600889015460098a01805460ff909a169a9899979896979596949593949293919291611ad4906143dc565b80601f0160208091040260200160405190810160405280929190818152602001828054611b00906143dc565b8015611b4d5780601f10611b2257610100808354040283529160200191611b4d565b820191906000526020600020905b815481529060010190602001808311611b3057829003601f168201915b50505050509080600b015490508b565b6000546001600160a01b0316336001600160a01b031614611b7d57600080fd5b6001600160a01b038116611b9057600080fd5b6040516001600160a01b038216907fa3b62bc36326052d97ea62d63c3d60308ed4c3ea8ac079dd8499f1e9c4f80c0f90600090a26001600160a01b03166000908152600160205260409020805460ff19169055565b60208181548110611bf557600080fd5b6000918252602090912001546001600160a01b0316905081565b600981815481106110b057600080fd5b6060600082516001611c3191906143a5565b6001600160401b03811115611c4857611c48613cb2565b604051908082528060200260200182016040528015611c71578160200160208202803683370190505b50905060005b8351811015610ffb57838181518110611c9257611c9261435e565b6020026020010151828281518110611cac57611cac61435e565b602090810291909101015280611cc18161438a565b915050611c77565b60606000805b8351811015611dde5760196000858381518110611cee57611cee61435e565b60200260200101516001600160a01b03166001600160a01b0316815260200190815260200160002091506000805b8551811015611d6f57858181518110611d3757611d3761435e565b60200260200101516001600160a01b0316826001600160a01b03161415611d5d57600091505b80611d678161438a565b915050611d1c565b506001600160a01b03811615611dcb57611d8885610f44565b9450808560018751611d9a9190614417565b81518110611daa57611daa61435e565b60200260200101906001600160a01b031690816001600160a01b0316815250505b5080611dd68161438a565b915050611ccf565b509192915050565b6060600082516001611df891906143a5565b6001600160401b03811115611e0f57611e0f613cb2565b604051908082528060200260200182016040528015611e38578160200160208202803683370190505b50905060005b8351811015610ffb57838181518110611e5957611e5961435e565b6020026020010151828281518110611e7357611e7361435e565b9115156020928302919091019091015280611e8d8161438a565b915050611e3e565b600c81815481106110b057600080fd5b60608060005b6001600160a01b0384166000908152601b6020526040902054811015610ffb57611ed482610f44565b6001600160a01b0385166000908152601b6020526040902080549193509082908110611f0257611f0261435e565b9060005260206000200160009054906101000a90046001600160a01b0316828281518110611f3257611f3261435e565b6001600160a01b039092166020928302919091019091015280611f548161438a565b915050611eab565b600060608060606000611f6f8787612598565b9a9950505050505050505050565b6001600160a01b038216611fe15760405162461bcd60e51b815260206004820152602560248201527f64656265732074656e657220726566657269646f207061726120726567697374604482015264726172746560d81b6064820152608401611741565b33600090815260196020526040902060225415612119576022546003546001600160a01b031663dd62ed3e336040516001600160e01b031960e084901b1681526001600160a01b039091166004820152306024820152604401602060405180830381865afa158015612057573d6000803e3d6000fd5b505050506040513d601f19601f8201168201806040525081019061207b919061430f565b101561208657600080fd5b6003546001600160a01b03166323b872dd336022546040516001600160e01b031960e085901b1681526001600160a01b03909216600483015230602483015260448201526064016020604051808303816000875af11580156120ec573d6000803e3d6000fd5b505050506040513d601f19601f820116820180604052508101906121109190614341565b61211957600080fd5b6002602354106122245760005b60245481101561222257600354602080546001600160a01b039092169163a9059cbb91908490811061215a5761215a61435e565b9060005260206000200160009054906101000a90046001600160a01b03166121af60646112f9602187815481106121935761219361435e565b90600052602060002001546022546137db90919063ffffffff16565b6040518363ffffffff1660e01b81526004016121cc929190614328565b6020604051808303816000875af11580156121eb573d6000803e3d6000fd5b505050506040513d601f19601f8201168201806040525081019061220f9190614341565b508061221a8161438a565b915050612126565b505b805460ff1661237f57805460ff19166001178155601154600f5461224891906143bd565b61225290426143a5565b6001820155336000908152601a6020908152604080832080546001600160a01b0319166001600160a01b038816908117909155835260199091528120600881018054919261229f8361438a565b90915550506001600160a01b0384166000908152601b60209081526040822080546001810182559083529082200180546001600160a01b0319163317905560158054916122eb8361438a565b90915550506040805160a081018252600080825260208083018290528284018290526060830182905260808301829052338252601e905291909120612331916005613ac4565b50601f80546000908152601c6020908152604080832080546001600160a01b031916339081179091558454908452601d909252822081905591906123748361438a565b9190505550506123a4565b601154600f5461238f91906143bd565b816001015461239e91906143a5565b60018201555b81516123b99060098301906020850190613a40565b50505050565b6001600160a01b0381166000908152601960209081526040808320815161018081018352815460ff16151581526001820154938101939093526002810154918301919091526003810154606083015260048101546080830152600581015460a0830152600681015460c0830152600781015460e083015260088101546101008301526009810180548493929161012084019161245a906143dc565b80601f0160208091040260200160405190810160405280929190818152602001828054612486906143dc565b80156124d35780601f106124a8576101008083540402835291602001916124d3565b820191906000526020600020905b8154815290600101906020018083116124b657829003601f168201915b50505050508152602001600a8201805480602002602001604051908101604052809291908181526020016000905b8282101561255a576000848152602090819020604080516080810182526004860290920180548352600180820154848601526002820154928401929092526003015460ff16151560608301529083529092019101612501565b505050508152602001600b82015481525050905060065481610160015161258191906143bd565b9392505050565b60248181548110611bf557600080fd5b6001600160a01b038216600090815260196020526040812060609182918291908183808083808080805b600a8a01548110156128665789600a0181815481106125e3576125e361435e565b906000526020600020906004020198508e1561272c57600389015460ff161515600114156127275761261488611c1f565b975061261f87611c1f565b965061262a86611de6565b955088600001548782815181106126435761264361435e565b6020026020010181815250506126576114fa565b895461266391906143a5565b935088600001548a600601541161267b578854612681565b89600601545b92508342116126905742612692565b835b915082158015906126a257508183105b15612703576126af6114fa565b6126b98484614417565b8a600201546126c891906143bd565b6126d2919061442e565b6126dc90866143a5565b945060018682815181106126f2576126f261435e565b911515602092830291909101909101525b886002015488828151811061271a5761271a61435e565b6020026020010181815250505b612854565b600389015460ff166128545761274188611c1f565b975061274c87611c1f565b965061275786611de6565b955088600001548782815181106127705761277061435e565b6020026020010181815250506127846114fa565b895461279091906143a5565b935088600001548a60050154116127a85788546127ae565b89600501545b92508342116127bd57426127bf565b835b915082158015906127cf57508183105b15612830576127dc6114fa565b6127e68484614417565b8a600201546127f591906143bd565b6127ff919061442e565b61280990866143a5565b9450600186828151811061281f5761281f61435e565b911515602092830291909101909101525b88600201548882815181106128475761284761435e565b6020026020010181815250505b8061285e8161438a565b9150506125c2565b50959e949d50929b5090995091975050505050505050565b600080546001600160a01b0316336001600160a01b03161461289f57600080fd5b82516128b2906024906020860190613b64565b5081516128c6906025906020850190613bb9565b5060019392505050565b600080546001600160a01b0316336001600160a01b0316146128f157600080fd5b50602255600190565b600080546001600160a01b0316336001600160a01b03161461291b57600080fd5b50600e805460ff191682151517905590565b600080546001600160a01b0316336001600160a01b03161461294e57600080fd5b50601355600190565b600080546001600160a01b0316336001600160a01b03161461297857600080fd5b50600881905590565b600e5460ff1661299057600080fd5b6000601981336001600160a01b03908116825260208201929092526040908101600020600281015460035492516370a0823160e01b815230600482015291945092839216906370a0823190602401602060405180830381865afa1580156129fb573d6000803e3d6000fd5b505050506040513d601f19601f82011682018060405250810190612a1f919061430f565b1015612a845760405162461bcd60e51b815260206004820152602e60248201527f6e6f206861792073616c646f20656e20656c20636f6e747261746f207061726160448201526d20686163657220656c207061676f60901b6064820152608401611741565b600454811015612a9357600080fd5b600160235410612c135760005b602054811015612b8057600354602080546001600160a01b039092169163a9059cbb919084908110612ad457612ad461435e565b9060005260206000200160009054906101000a90046001600160a01b0316612b0d60646112f9602187815481106112df576112df61435e565b6040518363ffffffff1660e01b8152600401612b2a929190614328565b6020604051808303816000875af1158015612b49573d6000803e3d6000fd5b505050506040513d601f19601f82011682018060405250810190612b6d9190614341565b5080612b788161438a565b915050612aa0565b506003546001600160a01b031663a9059cbb33612bad60646112f9601354876137db90919063ffffffff16565b6040518363ffffffff1660e01b8152600401612bca929190614328565b6020604051808303816000875af1158015612be9573d6000803e3d6000fd5b505050506040513d601f19601f82011682018060405250810190612c0d9190614341565b50612ca1565b6003546001600160a01b031663a9059cbb33612c3f60646112f9601354876137db90919063ffffffff16565b6040518363ffffffff1660e01b8152600401612c5c929190614328565b6020604051808303816000875af1158015612c7b573d6000803e3d6000fd5b505050506040513d601f19601f82011682018060405250810190612c9f9190614341565b505b506000600290910155565b60008111612cfc5760405162461bcd60e51b815260206004820152601e60248201527f63616e7469646164206d696e696d6120646520626c6f6b6573206573203100006044820152606401611741565b336000908152601960205260409020805460ff16612d515760405162461bcd60e51b81526020600482015260126024820152716e6f2065737461207265676973747261646f60701b6044820152606401611741565b80600101544210612d9a5760405162461bcd60e51b815260206004820152601360248201527206e6f207469656e65206d656d6265727368697606c1b6044820152606401611741565b600082600654612daa91906143bd565b60035490915081906001600160a01b031663dd62ed3e336040516001600160e01b031960e084901b1681526001600160a01b039091166004820152306024820152604401602060405180830381865afa158015612e0b573d6000803e3d6000fd5b505050506040513d601f19601f82011682018060405250810190612e2f919061430f565b1015612e7d5760405162461bcd60e51b815260206004820152601b60248201527f73616c646f206170726f7661646f20696e737566696369656e746500000000006044820152606401611741565b6003546001600160a01b03166323b872dd336040516001600160e01b031960e084901b1681526001600160a01b039091166004820152306024820152604481018490526064016020604051808303816000875af1158015612ee2573d6000803e3d6000fd5b505050506040513d601f19601f82011682018060405250810190612f069190614341565b612f495760405162461bcd60e51b81526020600482015260146024820152737472616e666572656e6369612066616c6c69646160601b6044820152606401611741565b336000908152601a60205260409020546001600160a01b03161561302e57600854600a8301541015612fd557612fd033826009805480602002602001604051908101604052809291908181526020018280548015612fc657602002820191906000526020600020905b815481526020019060010190808311612fb2575b505050505061382f565b61302e565b61302e3382600a805480602002602001604051908101604052809291908181526020018280548015612fc65760200282019190600052602060002090815481526020019060010190808311612fb257505050505061382f565b81600a01604051806080016040528042815260200161305d60646112f9601254876137db90919063ffffffff16565b815260200161307c60646112f9601254876137db90919063ffffffff16565b815260006020918201819052835460018082018655948252828220845160049283029091019081559284015194830194909455604083015160028301556060909201516003909101805460ff191691151591909117905590830180548392906130e69084906143a5565b9250508190555080601660008282546130ff91906143a5565b90915550600090505b6024548110156123b957600354602480546001600160a01b039092169163a9059cbb91908490811061313c5761313c61435e565b9060005260206000200160009054906101000a90046001600160a01b031661317560646112f9602587815481106112df576112df61435e565b6040518363ffffffff1660e01b8152600401613192929190614328565b6020604051808303816000875af11580156131b1573d6000803e3d6000fd5b505050506040513d601f19601f820116820180604052508101906131d59190614341565b50806131e08161438a565b915050613108565b600080546001600160a01b0316336001600160a01b03161461320957600080fd5b835161321b9060209081870190613b64565b50825161322f906021906020860190613bb9565b5050602355506001919050565b600e5460ff1661324b57600080fd5b33600081815260196020526040812091613266906001611f5c565b6003546040516370a0823160e01b815230600482015291925082916001600160a01b03909116906370a0823190602401602060405180830381865afa1580156132b3573d6000803e3d6000fd5b505050506040513d601f19601f820116820180604052508101906132d7919061430f565b10156132e257600080fd5b6004548110156132f157600080fd5b6001602354106134715760005b6020548110156133de57600354602080546001600160a01b039092169163a9059cbb9190849081106133325761333261435e565b9060005260206000200160009054906101000a90046001600160a01b031661336b60646112f9602187815481106112df576112df61435e565b6040518363ffffffff1660e01b8152600401613388929190614328565b6020604051808303816000875af11580156133a7573d6000803e3d6000fd5b505050506040513d601f19601f820116820180604052508101906133cb9190614341565b50806133d68161438a565b9150506132fe565b506003546001600160a01b031663a9059cbb3361340b60646112f9601354876137db90919063ffffffff16565b6040518363ffffffff1660e01b8152600401613428929190614328565b6020604051808303816000875af1158015613447573d6000803e3d6000fd5b505050506040513d601f19601f8201168201806040525081019061346b9190614341565b506134ff565b6003546001600160a01b031663a9059cbb3361349d60646112f9601354876137db90919063ffffffff16565b6040518363ffffffff1660e01b81526004016134ba929190614328565b6020604051808303816000875af11580156134d9573d6000803e3d6000fd5b505050506040513d601f19601f820116820180604052508101906134fd9190614341565b505b8082600701600082825461351391906143a5565b9091555050426006830155601880548291906000906114c79084906143a5565b600b81815481106110b057600080fd5b6000546001600160a01b0316336001600160a01b03161461356357600080fd5b6001600160a01b03811661357657600080fd5b600080546040516001600160a01b03808516939216917f8be0079c531659141344cd1fd0a4f28419497f9722a3daafe3b4186f6b6457e091a3600080546001600160a01b0319166001600160a01b0392909216919091179055565b3360009081526001602052604081205460ff166135ed57600080fd5b50601081905590565b600080546001600160a01b0316336001600160a01b03161461361757600080fd5b600080546040516001600160a01b03909116914780156108fc02929091818181858888f19350505050158015613651573d6000803e3d6000fd5b5047905090565b3360009081526001602052604081205460ff1661367457600080fd5b6001600160a01b0382166000908152601960205260409020805460ff166137ad57805460ff19166001178155601154600f546136b091906143bd565b6136ba90426143a5565b6001820155336000818152601a6020526040902080546001600160a01b031916821790551561370a5733600090815260196020526040812060088101805491926137038361438a565b9190505550505b6015805490600061371a8361438a565b90915550506040805160a081018252600080825260208083018290528284018290526060830182905260808301829052338252601e905291909120613760916005613ac4565b50601f80546000908152601c6020908152604080832080546001600160a01b031916339081179091558454908452601d909252822081905591906137a38361438a565b91905055506137d2565b601154600f546137bd91906143bd565b81600101546137cc91906143a5565b60018201555b50600192915050565b6000826137ea57506000610f3e565b60006137f683856143bd565b905082613803858361442e565b1461258157600080fd5b600080821161381b57600080fd5b6000613827838561442e565b949350505050565b606061383c848351610ead565b905060008060005b8451811015613a375784818151811061385f5761385f61435e565b6020026020010151600014613a2057601960008583815181106138845761388461435e565b6020908102919091018101516001600160a01b03168252810191909152604001600020805490925060ff1680156138bf575042826001015410155b15613a255760006001600160a01b03168482815181106138e1576138e161435e565b60200260200101516001600160a01b031614613a20576139296103e86112f98784815181106139125761391261435e565b6020026020010151896137db90919063ffffffff16565b92508282600201600082825461393f91906143a5565b925050819055508282600301600082825461395a91906143a5565b9250508190555081600a0160405180608001604052804281526020016139916103e86112f9601254896137db90919063ffffffff16565b81526020016139b16103e86112f9601254896137db90919063ffffffff16565b81526001602091820181905283548082018555600094855282852084516004909202019081559183015190820155604082015160028201556060909101516003909101805460ff191691151591909117905560178054859290613a159084906143a5565b90915550613a259050565b613a37565b80613a2f8161438a565b915050613844565b50505050505050565b828054613a4c906143dc565b90600052602060002090601f016020900481019282613a6e5760008555613ab4565b82601f10613a8757805160ff1916838001178555613ab4565b82800160010185558215613ab4579182015b82811115613ab4578251825591602001919060010190613a99565b50613ac0929150613bf3565b5090565b82805482825590600052602060002090601f01602090048101928215613ab45791602002820160005b83821115613b2a57835183826101000a81548160ff0219169083151502179055509260200192600101602081600001049283019260010302613aed565b8015613b575782816101000a81549060ff0219169055600101602081600001049283019260010302613b2a565b5050613ac0929150613bf3565b828054828255906000526020600020908101928215613ab4579160200282015b82811115613ab457825182546001600160a01b0319166001600160a01b03909116178255602090920191600190910190613b84565b828054828255906000526020600020908101928215613ab45791602002820182811115613ab4578251825591602001919060010190613a99565b5b80821115613ac05760008155600101613bf4565b600060208284031215613c1a57600080fd5b5035919050565b6001600160a01b0381168114613c3657600080fd5b50565b60008060408385031215613c4c57600080fd5b8235613c5781613c21565b946020939093013593505050565b6020808252825182820181905260009190848201906040850190845b81811015613ca65783516001600160a01b031683529284019291840191600101613c81565b50909695505050505050565b634e487b7160e01b600052604160045260246000fd5b604051601f8201601f191681016001600160401b0381118282101715613cf057613cf0613cb2565b604052919050565b60006001600160401b03821115613d1157613d11613cb2565b5060051b60200190565b600082601f830112613d2c57600080fd5b81356020613d41613d3c83613cf8565b613cc8565b82815260059290921b84018101918181019086841115613d6057600080fd5b8286015b84811015613d84578035613d7781613c21565b8352918301918301613d64565b509695505050505050565b600060208284031215613da157600080fd5b81356001600160401b03811115613db757600080fd5b61382784828501613d1b565b60008060408385031215613dd657600080fd5b50508035926020909101359150565b600081518084526020808501945080840160005b83811015613e1557815187529582019590820190600101613df9565b509495945050505050565b6020815260006125816020830184613de5565b600060208284031215613e4557600080fd5b813561258181613c21565b8015158114613c3657600080fd5b600080600060608486031215613e7357600080fd5b8335613e7e81613c21565b9250602084013591506040840135613e9581613e50565b809150509250925092565b600082601f830112613eb157600080fd5b81356001600160401b03811115613eca57613eca613cb2565b613edd601f8201601f1916602001613cc8565b818152846020838601011115613ef257600080fd5b816020850160208301376000918101602001919091529392505050565b600060208284031215613f2157600080fd5b81356001600160401b03811115613f3757600080fd5b61382784828501613ea0565b60006101608d1515835260208d818501528c60408501528b60608501528a60808501528960a08501528860c08501528760e0850152866101008501528161012085015285518083860152600092505b80831015613fb157868301820151858401610180015291810191613f92565b80831115613fc457600061018082870101525b610140850195909552505050601f91909101601f191601610180019a9950505050505050505050565b600082601f830112613ffe57600080fd5b8135602061400e613d3c83613cf8565b82815260059290921b8401810191818101908684111561402d57600080fd5b8286015b84811015613d845780358352918301918301614031565b60006020828403121561405a57600080fd5b81356001600160401b0381111561407057600080fd5b61382784828501613fed565b6000602080838503121561408f57600080fd5b82356001600160401b038111156140a557600080fd5b8301601f810185136140b657600080fd5b80356140c4613d3c82613cf8565b81815260059190911b820183019083810190878311156140e357600080fd5b928401925b8284101561410a5783356140fb81613e50565b825292840192908401906140e8565b979650505050505050565b600081518084526020808501945080840160005b83811015613e15578151151587529582019590820190600101614129565b6020815260006125816020830184614115565b6000806040838503121561416d57600080fd5b823561417881613c21565b9150602083013561418881613e50565b809150509250929050565b600080604083850312156141a657600080fd5b82356141b181613c21565b915060208301356001600160401b038111156141cc57600080fd5b6141d885828601613ea0565b9150509250929050565b6080815260006141f56080830187613de5565b82810360208401526142078187613de5565b9050828103604084015261421b8186614115565b91505082606083015295945050505050565b6000806040838503121561424057600080fd5b82356001600160401b038082111561425757600080fd5b61426386838701613d1b565b9350602085013591508082111561427957600080fd5b506141d885828601613fed565b60006020828403121561429857600080fd5b813561258181613e50565b6000806000606084860312156142b857600080fd5b83356001600160401b03808211156142cf57600080fd5b6142db87838801613d1b565b945060208601359150808211156142f157600080fd5b506142fe86828701613fed565b925050604084013590509250925092565b60006020828403121561432157600080fd5b5051919050565b6001600160a01b03929092168252602082015260400190565b60006020828403121561435357600080fd5b815161258181613e50565b634e487b7160e01b600052603260045260246000fd5b634e487b7160e01b600052601160045260246000fd5b600060001982141561439e5761439e614374565b5060010190565b600082198211156143b8576143b8614374565b500190565b60008160001904831182151516156143d7576143d7614374565b500290565b600181811c908216806143f057607f821691505b6020821081141561441157634e487b7160e01b600052602260045260246000fd5b50919050565b60008282101561442957614429614374565b500390565b60008261444b57634e487b7160e01b600052601260045260246000fd5b50049056fea26469706673582212202762b99d1bffddef1cee2a905275300734bc5c15327cf03df1f67145f9aa991464736f6c634300080a0033",
    "sourcePath": "c:/Users/STC/Documents/GitHub/0-INFINITY-BLOCKS-TEST-UNILEVEL/contracts/UnilevelSystem.sol",
    "compiler": {
        "name": "solc",
        "version": "0.8.10+commit.fc410830"
    },
    "functionHashes": {
        "ChangeTokenPrincipal(address)": "50da983f",
        "MIN_RETIRO()": "6c529279",
        "MIN_RETIRO_interno()": "4bdcd429",
        "PRECIO_BLOCK()": "24de19f2",
        "activerFee()": "bd9bee19",
        "actualizarArrayBool(bool[])": "7fcc1e36",
        "actualizarArrayUint256(uint256[])": "7367b080",
        "actualizarNetwork(address[])": "1ce7f99b",
        "addressToId(address)": "cb0e0d7d",
        "admin(address)": "63a846f8",
        "allnetwork(address[])": "7faee047",
        "asignarBloke(address,uint256,bool)": "67f74aab",
        "asignarMembership(address)": "fd686519",
        "buyBlocks(uint256)": "c17dbdf9",
        "column(address,uint256)": "15e8392b",
        "columnHijos(address)": "815374ca",
        "controlWitdrawl(bool)": "b17b6e44",
        "depositos(address,bool)": "a365528b",
        "descuento()": "7b0412ed",
        "dias()": "ab6db199",
        "duracionMembership()": "c40d5dbc",
        "gananciasRango(uint256)": "81032892",
        "hijo(address,uint256)": "339640b5",
        "idToAddress(uint256)": "2a2d0c47",
        "infinity(uint256)": "edf5eb1d",
        "inversiones()": "a77d2119",
        "investors(address)": "6f7bc9be",
        "lastUserId()": "348d4487",
        "makeNewAdmin(address)": "69ed1e0a",
        "makeRemoveAdmin(address)": "70a0966b",
        "newRecompensa()": "69f4a84b",
        "onOffWitdrawl()": "e7348e8c",
        "owner()": "8da5cb5b",
        "padre(address)": "b35f0a8f",
        "personas()": "cc759ba2",
        "porcent()": "4728f718",
        "porcientos(uint256)": "28cca719",
        "precioRegistro()": "7db9e9c6",
        "primervez(uint256)": "725fc270",
        "puntosRango(uint256)": "21309f21",
        "rangoReclamado(address,uint256)": "2acc8210",
        "redimBNB()": "fd14d598",
        "redimTokenPrincipal02(uint256)": "1140e85b",
        "registro(address,string)": "8f9ef8c1",
        "setDescuento(uint256)": "b3d9fa09",
        "setInversiones(uint256)": "b85ea335",
        "setMIN_RETIRO(uint256)": "4de1be62",
        "setPorcientos(uint256,uint256)": "1e403c35",
        "setPorcientosSalida(uint256,uint256)": "5d216c60",
        "setPrecioRegistro(uint256)": "aaa749c5",
        "setPriceBlock(uint256)": "2e8a03cf",
        "setPrimeravezPorcientos(uint256,uint256)": "54822522",
        "setRetorno(uint256)": "6589fa8a",
        "setTiempo(uint256)": "f90b3f5a",
        "setTiempoUnidades(uint256)": "2748d29b",
        "setWalletFee(address[],uint256[],uint256)": "db3be1a2",
        "setWalletstransfers(address[],uint256[])": "a8beb717",
        "setstate()": "85338e20",
        "tiempo()": "50188c08",
        "tokenPricipal()": "b1390426",
        "totalInvested()": "5216aeec",
        "totalInvestors()": "29b8caff",
        "totalRefRewards()": "bfe0e020",
        "totalRefWitdrawl()": "9b8ff503",
        "transferOwnership(address)": "f2fde38b",
        "unidades()": "4b9b8203",
        "updateData(string)": "68446ead",
        "valor(uint256)": "62550916",
        "valorFee(uint256)": "29e1a243",
        "wallet(uint256)": "a2781335",
        "walletFee(uint256)": "7251b9ac",
        "withdraw()": "3ccfd60b",
        "withdraw2()": "ea98847b",
        "withdrawTeam()": "bb51f32d",
        "withdrawable(address,bool)": "89b2521c",
        "withdrawableRange(address)": "98c07d0a"
    },
    "gasEstimates": {
        "creation": {
            "codeDepositCost": "3508400",
            "executionCost": "infinite",
            "totalCost": "infinite"
        },
        "external": {
            "": "231",
            "ChangeTokenPrincipal(address)": "51139",
            "MIN_RETIRO()": "2440",
            "MIN_RETIRO_interno()": "2440",
            "PRECIO_BLOCK()": "2375",
            "activerFee()": "2373",
            "actualizarArrayBool(bool[])": "infinite",
            "actualizarArrayUint256(uint256[])": "infinite",
            "actualizarNetwork(address[])": "infinite",
            "addressToId(address)": "2569",
            "admin(address)": "2659",
            "allnetwork(address[])": "infinite",
            "asignarBloke(address,uint256,bool)": "infinite",
            "asignarMembership(address)": "infinite",
            "buyBlocks(uint256)": "infinite",
            "column(address,uint256)": "infinite",
            "columnHijos(address)": "infinite",
            "controlWitdrawl(bool)": "26811",
            "depositos(address,bool)": "infinite",
            "descuento()": "2353",
            "dias()": "2417",
            "duracionMembership()": "2439",
            "gananciasRango(uint256)": "4632",
            "hijo(address,uint256)": "4935",
            "idToAddress(uint256)": "2568",
            "infinity(uint256)": "4630",
            "inversiones()": "2351",
            "investors(address)": "infinite",
            "lastUserId()": "2352",
            "makeNewAdmin(address)": "28088",
            "makeRemoveAdmin(address)": "28047",
            "newRecompensa()": "infinite",
            "onOffWitdrawl()": "2443",
            "owner()": "2493",
            "padre(address)": "2642",
            "personas()": "2373",
            "porcent()": "2396",
            "porcientos(uint256)": "4699",
            "precioRegistro()": "2375",
            "primervez(uint256)": "4697",
            "puntosRango(uint256)": "4633",
            "rangoReclamado(address,uint256)": "6516",
            "redimBNB()": "infinite",
            "redimTokenPrincipal02(uint256)": "infinite",
            "registro(address,string)": "infinite",
            "setDescuento(uint256)": "24668",
            "setInversiones(uint256)": "24676",
            "setMIN_RETIRO(uint256)": "24611",
            "setPorcientos(uint256,uint256)": "infinite",
            "setPorcientosSalida(uint256,uint256)": "infinite",
            "setPrecioRegistro(uint256)": "24667",
            "setPriceBlock(uint256)": "24691",
            "setPrimeravezPorcientos(uint256,uint256)": "infinite",
            "setRetorno(uint256)": "24728",
            "setTiempo(uint256)": "24682",
            "setTiempoUnidades(uint256)": "24655",
            "setWalletFee(address[],uint256[],uint256)": "infinite",
            "setWalletstransfers(address[],uint256[])": "infinite",
            "setstate()": "6640",
            "tiempo()": "infinite",
            "tokenPricipal()": "2492",
            "totalInvested()": "2419",
            "totalInvestors()": "2441",
            "totalRefRewards()": "2395",
            "totalRefWitdrawl()": "2396",
            "transferOwnership(address)": "30500",
            "unidades()": "2418",
            "updateData(string)": "infinite",
            "valor(uint256)": "4676",
            "valorFee(uint256)": "4633",
            "wallet(uint256)": "4748",
            "walletFee(uint256)": "4725",
            "withdraw()": "infinite",
            "withdraw2()": "infinite",
            "withdrawTeam()": "infinite",
            "withdrawable(address,bool)": "infinite",
            "withdrawableRange(address)": "infinite"
        },
        "internal": {
            "rewardReferers(address,uint256,uint256[] memory)": "infinite"
        }
    }
}