{
    "contractName": "UnilevelSystem",
    "abi": [
        {
            "inputs": [],
            "stateMutability": "nonpayable",
            "type": "constructor"
        },
        {
            "anonymous": false,
            "inputs": [
                {
                    "indexed": true,
                    "internalType": "address",
                    "name": "admin",
                    "type": "address"
                }
            ],
            "name": "AdminRemoved",
            "type": "event"
        },
        {
            "anonymous": false,
            "inputs": [
                {
                    "indexed": true,
                    "internalType": "address",
                    "name": "admin",
                    "type": "address"
                }
            ],
            "name": "NewAdmin",
            "type": "event"
        },
        {
            "anonymous": false,
            "inputs": [
                {
                    "indexed": true,
                    "internalType": "address",
                    "name": "previousOwner",
                    "type": "address"
                },
                {
                    "indexed": true,
                    "internalType": "address",
                    "name": "newOwner",
                    "type": "address"
                }
            ],
            "name": "OwnershipTransferred",
            "type": "event"
        },
        {
            "stateMutability": "payable",
            "type": "fallback"
        },
        {
            "inputs": [
                {
                    "internalType": "address",
                    "name": "_tokenTRC20",
                    "type": "address"
                }
            ],
            "name": "ChangeTokenPrincipal",
            "outputs": [
                {
                    "internalType": "bool",
                    "name": "",
                    "type": "bool"
                }
            ],
            "stateMutability": "nonpayable",
            "type": "function"
        },
        {
            "inputs": [],
            "name": "MIN_RETIRO",
            "outputs": [
                {
                    "internalType": "uint256",
                    "name": "",
                    "type": "uint256"
                }
            ],
            "stateMutability": "view",
            "type": "function"
        },
        {
            "inputs": [],
            "name": "PRECIO_BLOCK",
            "outputs": [
                {
                    "internalType": "uint256",
                    "name": "",
                    "type": "uint256"
                }
            ],
            "stateMutability": "view",
            "type": "function"
        },
        {
            "inputs": [],
            "name": "activerFee",
            "outputs": [
                {
                    "internalType": "uint256",
                    "name": "",
                    "type": "uint256"
                }
            ],
            "stateMutability": "view",
            "type": "function"
        },
        {
            "inputs": [
                {
                    "internalType": "bool[]",
                    "name": "old",
                    "type": "bool[]"
                }
            ],
            "name": "actualizarArrayBool",
            "outputs": [
                {
                    "internalType": "bool[]",
                    "name": "",
                    "type": "bool[]"
                }
            ],
            "stateMutability": "pure",
            "type": "function"
        },
        {
            "inputs": [
                {
                    "internalType": "uint256[]",
                    "name": "old",
                    "type": "uint256[]"
                }
            ],
            "name": "actualizarArrayUint256",
            "outputs": [
                {
                    "internalType": "uint256[]",
                    "name": "",
                    "type": "uint256[]"
                }
            ],
            "stateMutability": "pure",
            "type": "function"
        },
        {
            "inputs": [
                {
                    "internalType": "address[]",
                    "name": "oldNetwork",
                    "type": "address[]"
                }
            ],
            "name": "actualizarNetwork",
            "outputs": [
                {
                    "internalType": "address[]",
                    "name": "",
                    "type": "address[]"
                }
            ],
            "stateMutability": "pure",
            "type": "function"
        },
        {
            "inputs": [
                {
                    "internalType": "address",
                    "name": "",
                    "type": "address"
                }
            ],
            "name": "addressToId",
            "outputs": [
                {
                    "internalType": "uint256",
                    "name": "",
                    "type": "uint256"
                }
            ],
            "stateMutability": "view",
            "type": "function"
        },
        {
            "inputs": [
                {
                    "internalType": "address",
                    "name": "",
                    "type": "address"
                }
            ],
            "name": "admin",
            "outputs": [
                {
                    "internalType": "bool",
                    "name": "",
                    "type": "bool"
                }
            ],
            "stateMutability": "view",
            "type": "function"
        },
        {
            "inputs": [
                {
                    "internalType": "address[]",
                    "name": "network",
                    "type": "address[]"
                }
            ],
            "name": "allnetwork",
            "outputs": [
                {
                    "internalType": "address[]",
                    "name": "",
                    "type": "address[]"
                }
            ],
            "stateMutability": "view",
            "type": "function"
        },
        {
            "inputs": [
                {
                    "internalType": "address",
                    "name": "_user",
                    "type": "address"
                },
                {
                    "internalType": "uint256",
                    "name": "_bloks",
                    "type": "uint256"
                },
                {
                    "internalType": "bool",
                    "name": "_infinity",
                    "type": "bool"
                }
            ],
            "name": "asignarBloke",
            "outputs": [
                {
                    "internalType": "bool",
                    "name": "",
                    "type": "bool"
                }
            ],
            "stateMutability": "nonpayable",
            "type": "function"
        },
        {
            "inputs": [
                {
                    "internalType": "address",
                    "name": "_user",
                    "type": "address"
                },
                {
                    "internalType": "address",
                    "name": "_sponsor",
                    "type": "address"
                }
            ],
            "name": "asignarMembership",
            "outputs": [
                {
                    "internalType": "bool",
                    "name": "",
                    "type": "bool"
                }
            ],
            "stateMutability": "nonpayable",
            "type": "function"
        },
        {
            "inputs": [
                {
                    "internalType": "uint256",
                    "name": "",
                    "type": "uint256"
                }
            ],
            "name": "baserange",
            "outputs": [
                {
                    "internalType": "bool",
                    "name": "",
                    "type": "bool"
                }
            ],
            "stateMutability": "view",
            "type": "function"
        },
        {
            "inputs": [
                {
                    "internalType": "uint256",
                    "name": "_bloks",
                    "type": "uint256"
                }
            ],
            "name": "buyBlocks",
            "outputs": [],
            "stateMutability": "nonpayable",
            "type": "function"
        },
        {
            "inputs": [
                {
                    "internalType": "address",
                    "name": "yo",
                    "type": "address"
                },
                {
                    "internalType": "uint256",
                    "name": "_largo",
                    "type": "uint256"
                }
            ],
            "name": "column",
            "outputs": [
                {
                    "internalType": "address[]",
                    "name": "",
                    "type": "address[]"
                }
            ],
            "stateMutability": "view",
            "type": "function"
        },
        {
            "inputs": [
                {
                    "internalType": "address",
                    "name": "yo",
                    "type": "address"
                }
            ],
            "name": "columnHijos",
            "outputs": [
                {
                    "internalType": "address[]",
                    "name": "",
                    "type": "address[]"
                }
            ],
            "stateMutability": "view",
            "type": "function"
        },
        {
            "inputs": [
                {
                    "internalType": "bool",
                    "name": "_true_false",
                    "type": "bool"
                }
            ],
            "name": "controlWitdrawl",
            "outputs": [
                {
                    "internalType": "bool",
                    "name": "",
                    "type": "bool"
                }
            ],
            "stateMutability": "nonpayable",
            "type": "function"
        },
        {
            "inputs": [
                {
                    "internalType": "address",
                    "name": "_user",
                    "type": "address"
                },
                {
                    "internalType": "bool",
                    "name": "_infinity",
                    "type": "bool"
                }
            ],
            "name": "depositos",
            "outputs": [
                {
                    "internalType": "uint256[]",
                    "name": "",
                    "type": "uint256[]"
                },
                {
                    "internalType": "uint256[]",
                    "name": "",
                    "type": "uint256[]"
                },
                {
                    "internalType": "bool[]",
                    "name": "",
                    "type": "bool[]"
                },
                {
                    "internalType": "uint256",
                    "name": "",
                    "type": "uint256"
                }
            ],
            "stateMutability": "view",
            "type": "function"
        },
        {
            "inputs": [],
            "name": "descuento",
            "outputs": [
                {
                    "internalType": "uint256",
                    "name": "",
                    "type": "uint256"
                }
            ],
            "stateMutability": "view",
            "type": "function"
        },
        {
            "inputs": [],
            "name": "dias",
            "outputs": [
                {
                    "internalType": "uint256",
                    "name": "",
                    "type": "uint256"
                }
            ],
            "stateMutability": "view",
            "type": "function"
        },
        {
            "inputs": [],
            "name": "duracionMembership",
            "outputs": [
                {
                    "internalType": "uint256",
                    "name": "",
                    "type": "uint256"
                }
            ],
            "stateMutability": "view",
            "type": "function"
        },
        {
            "inputs": [
                {
                    "internalType": "uint256",
                    "name": "",
                    "type": "uint256"
                }
            ],
            "name": "gananciasRango",
            "outputs": [
                {
                    "internalType": "uint256",
                    "name": "",
                    "type": "uint256"
                }
            ],
            "stateMutability": "view",
            "type": "function"
        },
        {
            "inputs": [
                {
                    "internalType": "address",
                    "name": "",
                    "type": "address"
                },
                {
                    "internalType": "uint256",
                    "name": "",
                    "type": "uint256"
                }
            ],
            "name": "hijo",
            "outputs": [
                {
                    "internalType": "address",
                    "name": "",
                    "type": "address"
                }
            ],
            "stateMutability": "view",
            "type": "function"
        },
        {
            "inputs": [
                {
                    "internalType": "uint256",
                    "name": "",
                    "type": "uint256"
                }
            ],
            "name": "idToAddress",
            "outputs": [
                {
                    "internalType": "address",
                    "name": "",
                    "type": "address"
                }
            ],
            "stateMutability": "view",
            "type": "function"
        },
        {
            "inputs": [
                {
                    "internalType": "uint256",
                    "name": "",
                    "type": "uint256"
                }
            ],
            "name": "infinity",
            "outputs": [
                {
                    "internalType": "uint256",
                    "name": "",
                    "type": "uint256"
                }
            ],
            "stateMutability": "view",
            "type": "function"
        },
        {
            "inputs": [],
            "name": "inversiones",
            "outputs": [
                {
                    "internalType": "uint256",
                    "name": "",
                    "type": "uint256"
                }
            ],
            "stateMutability": "view",
            "type": "function"
        },
        {
            "inputs": [
                {
                    "internalType": "address",
                    "name": "",
                    "type": "address"
                }
            ],
            "name": "investors",
            "outputs": [
                {
                    "internalType": "bool",
                    "name": "registered",
                    "type": "bool"
                },
                {
                    "internalType": "uint256",
                    "name": "membership",
                    "type": "uint256"
                },
                {
                    "internalType": "uint256",
                    "name": "balanceRef",
                    "type": "uint256"
                },
                {
                    "internalType": "uint256",
                    "name": "totalRef",
                    "type": "uint256"
                },
                {
                    "internalType": "uint256",
                    "name": "totalInfinit",
                    "type": "uint256"
                },
                {
                    "internalType": "uint256",
                    "name": "invested",
                    "type": "uint256"
                },
                {
                    "internalType": "uint256",
                    "name": "paidAt",
                    "type": "uint256"
                },
                {
                    "internalType": "uint256",
                    "name": "paidAt2",
                    "type": "uint256"
                },
                {
                    "internalType": "uint256",
                    "name": "withdrawn",
                    "type": "uint256"
                },
                {
                    "internalType": "uint256",
                    "name": "directos",
                    "type": "uint256"
                },
                {
                    "internalType": "string",
                    "name": "data",
                    "type": "string"
                },
                {
                    "internalType": "uint256",
                    "name": "blokesDirectos",
                    "type": "uint256"
                }
            ],
            "stateMutability": "view",
            "type": "function"
        },
        {
            "inputs": [],
            "name": "lastUserId",
            "outputs": [
                {
                    "internalType": "uint256",
                    "name": "",
                    "type": "uint256"
                }
            ],
            "stateMutability": "view",
            "type": "function"
        },
        {
            "inputs": [
                {
                    "internalType": "address payable",
                    "name": "_newadmin",
                    "type": "address"
                }
            ],
            "name": "makeNewAdmin",
            "outputs": [],
            "stateMutability": "nonpayable",
            "type": "function"
        },
        {
            "inputs": [
                {
                    "internalType": "address payable",
                    "name": "_oldadmin",
                    "type": "address"
                }
            ],
            "name": "makeRemoveAdmin",
            "outputs": [],
            "stateMutability": "nonpayable",
            "type": "function"
        },
        {
            "inputs": [],
            "name": "newRecompensa",
            "outputs": [],
            "stateMutability": "nonpayable",
            "type": "function"
        },
        {
            "inputs": [],
            "name": "onOffWitdrawl",
            "outputs": [
                {
                    "internalType": "bool",
                    "name": "",
                    "type": "bool"
                }
            ],
            "stateMutability": "view",
            "type": "function"
        },
        {
            "inputs": [],
            "name": "owner",
            "outputs": [
                {
                    "internalType": "address payable",
                    "name": "",
                    "type": "address"
                }
            ],
            "stateMutability": "view",
            "type": "function"
        },
        {
            "inputs": [
                {
                    "internalType": "address",
                    "name": "",
                    "type": "address"
                }
            ],
            "name": "padre",
            "outputs": [
                {
                    "internalType": "address",
                    "name": "",
                    "type": "address"
                }
            ],
            "stateMutability": "view",
            "type": "function"
        },
        {
            "inputs": [],
            "name": "personas",
            "outputs": [
                {
                    "internalType": "uint256",
                    "name": "",
                    "type": "uint256"
                }
            ],
            "stateMutability": "view",
            "type": "function"
        },
        {
            "inputs": [],
            "name": "porcent",
            "outputs": [
                {
                    "internalType": "uint256",
                    "name": "",
                    "type": "uint256"
                }
            ],
            "stateMutability": "view",
            "type": "function"
        },
        {
            "inputs": [
                {
                    "internalType": "uint256",
                    "name": "",
                    "type": "uint256"
                }
            ],
            "name": "porcientos",
            "outputs": [
                {
                    "internalType": "uint256",
                    "name": "",
                    "type": "uint256"
                }
            ],
            "stateMutability": "view",
            "type": "function"
        },
        {
            "inputs": [],
            "name": "precioRegistro",
            "outputs": [
                {
                    "internalType": "uint256",
                    "name": "",
                    "type": "uint256"
                }
            ],
            "stateMutability": "view",
            "type": "function"
        },
        {
            "inputs": [
                {
                    "internalType": "uint256",
                    "name": "",
                    "type": "uint256"
                }
            ],
            "name": "primervez",
            "outputs": [
                {
                    "internalType": "uint256",
                    "name": "",
                    "type": "uint256"
                }
            ],
            "stateMutability": "view",
            "type": "function"
        },
        {
            "inputs": [
                {
                    "internalType": "uint256",
                    "name": "",
                    "type": "uint256"
                }
            ],
            "name": "puntosRango",
            "outputs": [
                {
                    "internalType": "uint256",
                    "name": "",
                    "type": "uint256"
                }
            ],
            "stateMutability": "view",
            "type": "function"
        },
        {
            "inputs": [
                {
                    "internalType": "address",
                    "name": "",
                    "type": "address"
                },
                {
                    "internalType": "uint256",
                    "name": "",
                    "type": "uint256"
                }
            ],
            "name": "rangoReclamado",
            "outputs": [
                {
                    "internalType": "bool",
                    "name": "",
                    "type": "bool"
                }
            ],
            "stateMutability": "view",
            "type": "function"
        },
        {
            "inputs": [],
            "name": "redimBNB",
            "outputs": [
                {
                    "internalType": "uint256",
                    "name": "",
                    "type": "uint256"
                }
            ],
            "stateMutability": "nonpayable",
            "type": "function"
        },
        {
            "inputs": [
                {
                    "internalType": "uint256",
                    "name": "_value",
                    "type": "uint256"
                }
            ],
            "name": "redimTokenPrincipal02",
            "outputs": [
                {
                    "internalType": "uint256",
                    "name": "",
                    "type": "uint256"
                }
            ],
            "stateMutability": "nonpayable",
            "type": "function"
        },
        {
            "inputs": [
                {
                    "internalType": "address",
                    "name": "_sponsor",
                    "type": "address"
                },
                {
                    "internalType": "string",
                    "name": "_datos",
                    "type": "string"
                }
            ],
            "name": "registro",
            "outputs": [],
            "stateMutability": "nonpayable",
            "type": "function"
        },
        {
            "inputs": [
                {
                    "internalType": "uint256",
                    "name": "_descuento",
                    "type": "uint256"
                }
            ],
            "name": "setDescuento",
            "outputs": [
                {
                    "internalType": "bool",
                    "name": "",
                    "type": "bool"
                }
            ],
            "stateMutability": "nonpayable",
            "type": "function"
        },
        {
            "inputs": [
                {
                    "internalType": "uint256",
                    "name": "_numerodeinverionessinganancia",
                    "type": "uint256"
                }
            ],
            "name": "setInversiones",
            "outputs": [
                {
                    "internalType": "uint256",
                    "name": "",
                    "type": "uint256"
                }
            ],
            "stateMutability": "nonpayable",
            "type": "function"
        },
        {
            "inputs": [
                {
                    "internalType": "uint256",
                    "name": "_min",
                    "type": "uint256"
                }
            ],
            "name": "setMIN_RETIRO",
            "outputs": [
                {
                    "internalType": "uint256",
                    "name": "",
                    "type": "uint256"
                }
            ],
            "stateMutability": "nonpayable",
            "type": "function"
        },
        {
            "inputs": [
                {
                    "internalType": "uint256",
                    "name": "_nivel",
                    "type": "uint256"
                },
                {
                    "internalType": "uint256",
                    "name": "_value",
                    "type": "uint256"
                }
            ],
            "name": "setPorcientos",
            "outputs": [
                {
                    "internalType": "uint256[]",
                    "name": "",
                    "type": "uint256[]"
                }
            ],
            "stateMutability": "nonpayable",
            "type": "function"
        },
        {
            "inputs": [
                {
                    "internalType": "uint256",
                    "name": "_nivel",
                    "type": "uint256"
                },
                {
                    "internalType": "uint256",
                    "name": "_value",
                    "type": "uint256"
                }
            ],
            "name": "setPorcientosSalida",
            "outputs": [
                {
                    "internalType": "uint256[]",
                    "name": "",
                    "type": "uint256[]"
                }
            ],
            "stateMutability": "nonpayable",
            "type": "function"
        },
        {
            "inputs": [
                {
                    "internalType": "uint256",
                    "name": "_precio",
                    "type": "uint256"
                }
            ],
            "name": "setPrecioRegistro",
            "outputs": [
                {
                    "internalType": "bool",
                    "name": "",
                    "type": "bool"
                }
            ],
            "stateMutability": "nonpayable",
            "type": "function"
        },
        {
            "inputs": [
                {
                    "internalType": "uint256",
                    "name": "_value",
                    "type": "uint256"
                }
            ],
            "name": "setPriceBlock",
            "outputs": [
                {
                    "internalType": "bool",
                    "name": "",
                    "type": "bool"
                }
            ],
            "stateMutability": "nonpayable",
            "type": "function"
        },
        {
            "inputs": [
                {
                    "internalType": "uint256",
                    "name": "_nivel",
                    "type": "uint256"
                },
                {
                    "internalType": "uint256",
                    "name": "_value",
                    "type": "uint256"
                }
            ],
            "name": "setPrimeravezPorcientos",
            "outputs": [
                {
                    "internalType": "uint256[]",
                    "name": "",
                    "type": "uint256[]"
                }
            ],
            "stateMutability": "nonpayable",
            "type": "function"
        },
        {
            "inputs": [
                {
                    "internalType": "bool[]",
                    "name": "_baserange",
                    "type": "bool[]"
                },
                {
                    "internalType": "uint256[]",
                    "name": "_gananciasRango",
                    "type": "uint256[]"
                },
                {
                    "internalType": "uint256[]",
                    "name": "_puntosRango",
                    "type": "uint256[]"
                }
            ],
            "name": "setRangos",
            "outputs": [
                {
                    "internalType": "bool",
                    "name": "",
                    "type": "bool"
                }
            ],
            "stateMutability": "nonpayable",
            "type": "function"
        },
        {
            "inputs": [
                {
                    "internalType": "uint256",
                    "name": "_porcentaje",
                    "type": "uint256"
                }
            ],
            "name": "setRetorno",
            "outputs": [
                {
                    "internalType": "uint256",
                    "name": "",
                    "type": "uint256"
                }
            ],
            "stateMutability": "nonpayable",
            "type": "function"
        },
        {
            "inputs": [
                {
                    "internalType": "uint256",
                    "name": "_dias",
                    "type": "uint256"
                }
            ],
            "name": "setTiempo",
            "outputs": [
                {
                    "internalType": "uint256",
                    "name": "",
                    "type": "uint256"
                }
            ],
            "stateMutability": "nonpayable",
            "type": "function"
        },
        {
            "inputs": [
                {
                    "internalType": "uint256",
                    "name": "_unidades",
                    "type": "uint256"
                }
            ],
            "name": "setTiempoUnidades",
            "outputs": [
                {
                    "internalType": "uint256",
                    "name": "",
                    "type": "uint256"
                }
            ],
            "stateMutability": "nonpayable",
            "type": "function"
        },
        {
            "inputs": [
                {
                    "internalType": "address[]",
                    "name": "_wallet",
                    "type": "address[]"
                },
                {
                    "internalType": "uint256[]",
                    "name": "_fee",
                    "type": "uint256[]"
                },
                {
                    "internalType": "uint256",
                    "name": "_activerFee",
                    "type": "uint256"
                }
            ],
            "name": "setWalletFee",
            "outputs": [
                {
                    "internalType": "bool",
                    "name": "",
                    "type": "bool"
                }
            ],
            "stateMutability": "nonpayable",
            "type": "function"
        },
        {
            "inputs": [
                {
                    "internalType": "address[]",
                    "name": "_wallets",
                    "type": "address[]"
                },
                {
                    "internalType": "uint256[]",
                    "name": "_valores",
                    "type": "uint256[]"
                }
            ],
            "name": "setWalletstransfers",
            "outputs": [
                {
                    "internalType": "bool",
                    "name": "",
                    "type": "bool"
                }
            ],
            "stateMutability": "nonpayable",
            "type": "function"
        },
        {
            "inputs": [],
            "name": "setstate",
            "outputs": [
                {
                    "internalType": "uint256",
                    "name": "Investors",
                    "type": "uint256"
                },
                {
                    "internalType": "uint256",
                    "name": "Invested",
                    "type": "uint256"
                },
                {
                    "internalType": "uint256",
                    "name": "RefRewards",
                    "type": "uint256"
                }
            ],
            "stateMutability": "view",
            "type": "function"
        },
        {
            "inputs": [],
            "name": "tiempo",
            "outputs": [
                {
                    "internalType": "uint256",
                    "name": "",
                    "type": "uint256"
                }
            ],
            "stateMutability": "view",
            "type": "function"
        },
        {
            "inputs": [],
            "name": "tokenPricipal",
            "outputs": [
                {
                    "internalType": "address",
                    "name": "",
                    "type": "address"
                }
            ],
            "stateMutability": "view",
            "type": "function"
        },
        {
            "inputs": [],
            "name": "totalInvested",
            "outputs": [
                {
                    "internalType": "uint256",
                    "name": "",
                    "type": "uint256"
                }
            ],
            "stateMutability": "view",
            "type": "function"
        },
        {
            "inputs": [],
            "name": "totalInvestors",
            "outputs": [
                {
                    "internalType": "uint256",
                    "name": "",
                    "type": "uint256"
                }
            ],
            "stateMutability": "view",
            "type": "function"
        },
        {
            "inputs": [],
            "name": "totalRefRewards",
            "outputs": [
                {
                    "internalType": "uint256",
                    "name": "",
                    "type": "uint256"
                }
            ],
            "stateMutability": "view",
            "type": "function"
        },
        {
            "inputs": [],
            "name": "totalRefWitdrawl",
            "outputs": [
                {
                    "internalType": "uint256",
                    "name": "",
                    "type": "uint256"
                }
            ],
            "stateMutability": "view",
            "type": "function"
        },
        {
            "inputs": [
                {
                    "internalType": "address payable",
                    "name": "newOwner",
                    "type": "address"
                }
            ],
            "name": "transferOwnership",
            "outputs": [],
            "stateMutability": "nonpayable",
            "type": "function"
        },
        {
            "inputs": [],
            "name": "unidades",
            "outputs": [
                {
                    "internalType": "uint256",
                    "name": "",
                    "type": "uint256"
                }
            ],
            "stateMutability": "view",
            "type": "function"
        },
        {
            "inputs": [
                {
                    "internalType": "string",
                    "name": "_datos",
                    "type": "string"
                }
            ],
            "name": "updateData",
            "outputs": [],
            "stateMutability": "nonpayable",
            "type": "function"
        },
        {
            "inputs": [
                {
                    "internalType": "uint256",
                    "name": "",
                    "type": "uint256"
                }
            ],
            "name": "valor",
            "outputs": [
                {
                    "internalType": "uint256",
                    "name": "",
                    "type": "uint256"
                }
            ],
            "stateMutability": "view",
            "type": "function"
        },
        {
            "inputs": [
                {
                    "internalType": "uint256",
                    "name": "",
                    "type": "uint256"
                }
            ],
            "name": "valorFee",
            "outputs": [
                {
                    "internalType": "uint256",
                    "name": "",
                    "type": "uint256"
                }
            ],
            "stateMutability": "view",
            "type": "function"
        },
        {
            "inputs": [
                {
                    "internalType": "uint256",
                    "name": "",
                    "type": "uint256"
                }
            ],
            "name": "wallet",
            "outputs": [
                {
                    "internalType": "address",
                    "name": "",
                    "type": "address"
                }
            ],
            "stateMutability": "view",
            "type": "function"
        },
        {
            "inputs": [
                {
                    "internalType": "uint256",
                    "name": "",
                    "type": "uint256"
                }
            ],
            "name": "walletFee",
            "outputs": [
                {
                    "internalType": "address",
                    "name": "",
                    "type": "address"
                }
            ],
            "stateMutability": "view",
            "type": "function"
        },
        {
            "inputs": [],
            "name": "withdraw",
            "outputs": [],
            "stateMutability": "nonpayable",
            "type": "function"
        },
        {
            "inputs": [],
            "name": "withdraw2",
            "outputs": [],
            "stateMutability": "nonpayable",
            "type": "function"
        },
        {
            "inputs": [],
            "name": "withdrawTeam",
            "outputs": [],
            "stateMutability": "nonpayable",
            "type": "function"
        },
        {
            "inputs": [
                {
                    "internalType": "address",
                    "name": "any_user",
                    "type": "address"
                },
                {
                    "internalType": "bool",
                    "name": "_infinity",
                    "type": "bool"
                }
            ],
            "name": "withdrawable",
            "outputs": [
                {
                    "internalType": "uint256",
                    "name": "",
                    "type": "uint256"
                }
            ],
            "stateMutability": "view",
            "type": "function"
        },
        {
            "inputs": [
                {
                    "internalType": "address",
                    "name": "any_user",
                    "type": "address"
                }
            ],
            "name": "withdrawableRange",
            "outputs": [
                {
                    "internalType": "uint256",
                    "name": "amount",
                    "type": "uint256"
                }
            ],
            "stateMutability": "view",
            "type": "function"
        },
        {
            "stateMutability": "payable",
            "type": "receive"
        }
    ],
    "bytecode": "600280547355d398326f99059ff775485246999027b31979556001600160a01b031991821681179092556003805482168317905567d02ab486cedc00006004556802b5e3af16b18800006005908155600680549092169092179055600160075561012060405260326080908152601e60a052601460c052600a60e081905261010052620000909160089190620004ce565b506040805160a08101825260328152601e6020820152601491810191909152600a606082018190526080820152620000cd906009906005620004ce565b506040805160a08101825260058082526003602083015260029282019290925260016060820181905260808201526200010a91600a9190620004ce565b506040805161012081018252600080825260208201819052918101829052606081018290526080810182905260a0810182905260c0810182905260e081018290526101008101919091526200016490600b90600962000523565b5060408051610120810182526828a857425466f800008152685150ae84a8cdf00000602082015268cb49b44ba602d80000918101919091526901969368974c05b00000606082015269032d26d12e980b6000006080820152690a968163f0a57b40000060a0820152691fc3842bd1f071c0000060c08201526934f086f3b33b6840000060e08201526954b40b1f852bda0000006101008201526200020d90600c906009620005ca565b5060408051610120810182526103e881526107d06020820152611388918101919091526127106060820152614e206080820152620186a060a0820152620493e060c08201526207a12060e0820152620f42406101008201526200027590600d90600962000613565b50600e805460ff1916600190811790915561016d600f556103846010556201518060115560f06012556064601355600260148190556015829055601f9190915560408051808201909152734490566647735e8cbce0ce96efc8fb91c164859b815273d0f2fcdf7d399205e9709c6d0fbee434335e42dd602080830191909152620003029290919062000658565b506040805180820190915260058152605f602082015262000328906021906002620004ce565b506801a055690d9db800006022556002602355604080516060810182527317a7e5b2d9b5d191f7307e990e630c9dc18e1396815273afe9d039ec7d4409b1b8c2f1556f20843079b7286020820152738dd59f5670e9809c8a800a49d1ff1cea471c53da91810191909152620003a290602490600362000658565b50604080516060810182526046815260086020820152600591810191909152620003d1906025906003620004ce565b50348015620003df57600080fd5b50600080546001600160a01b0319163390811782558152600160208181526040808420805460ff19908116851790915584546001600160a01b0316855260199092529092208054909216178155601154600f546200043e91906200072e565b6200045290670de0b6b3a76400006200072e565b6200045e904262000750565b6001820155336000908152601e60205260409020600b805462000483929190620006b0565b50507fb9c6de81004e18dedadca3e5eabaab449ca91dff6f58efc9461da635fe77f84980546001600160a01b031916339081179091556000908152601d60205260408120556200076b565b82805482825590600052602060002090810192821562000511579160200282015b8281111562000511578251829060ff16905591602001919060010190620004ef565b506200051f92915062000701565b5090565b82805482825590600052602060002090601f01602090048101928215620005115791602002820160005b838211156200058c57835183826101000a81548160ff02191690831515021790555092602001926001016020816000010492830192600103026200054d565b8015620005bb5782816101000a81549060ff02191690556001016020816000010492830192600103026200058c565b50506200051f92915062000701565b82805482825590600052602060002090810192821562000511579160200282015b828111156200051157825182906001600160501b0316905591602001919060010190620005eb565b82805482825590600052602060002090810192821562000511579160200282015b8281111562000511578251829062ffffff1690559160200191906001019062000634565b82805482825590600052602060002090810192821562000511579160200282015b828111156200051157825182546001600160a01b0319166001600160a01b0390911617825560209092019160019091019062000679565b82805482825590600052602060002090601f016020900481019282156200051157600052602060002091601f016020900482015b8281111562000511578254825591600101919060010190620006e4565b5b808211156200051f576000815560010162000702565b634e487b7160e01b600052601160045260246000fd5b60008160001904831182151516156200074b576200074b62000718565b500290565b6000821982111562000766576200076662000718565b500190565b614478806200077b6000396000f3fe6080604052600436106104265760003560e01c80637367b08011610227578063b13904261161012d578063cb0e0d7d116100b0578063ea98847b11610077578063ea98847b14610d41578063edf5eb1d14610d56578063f2fde38b14610d76578063f90b3f5a14610d96578063fd14d59814610db657005b8063cb0e0d7d14610ca4578063cc759ba214610cd1578063cfda9ee614610ce7578063db3be1a214610d07578063e7348e8c14610d2757005b8063bb51f32d116100f4578063bb51f32d14610c2d578063bd9bee1914610c42578063bfe0e02014610c58578063c17dbdf914610c6e578063c40d5dbc14610c8e57005b8063b139042614610b77578063b17b6e4414610b97578063b35f0a8f14610bb7578063b3d9fa0914610bed578063b85ea33514610c0d57005b80638da5cb5b116101b5578063a365528b1161017c578063a365528b14610adb578063a77d211914610b0b578063a8beb71714610b21578063aaa749c514610b41578063ab6db19914610b6157005b80638da5cb5b14610a455780638f9ef8c114610a6557806398c07d0a14610a855780639b8ff50314610aa5578063a278133514610abb57005b80637fcc1e36116101f95780637fcc1e361461098757806381032892146109b4578063815374ca146109d457806385338e20146109f457806389b2521c14610a2557005b80637367b0801461091b5780637b0412ed1461093b5780637db9e9c6146109515780637faee0471461096757005b80634b9b82031161032c5780636589fa8a116102ba5780636c529279116102815780636c5292791461086d5780636f7bc9be1461088357806370a0966b146108bb5780637251b9ac146108db578063725fc270146108fb57005b80636589fa8a146107d857806367f74aab146107f857806368446ead1461081857806369ed1e0a1461083857806369f4a84b1461085857005b80635216aeec116102fe5780635216aeec1461073257806354822522146107485780635d216c6014610768578063625509161461078857806363a846f8146107a857005b80634b9b8203146106c75780634de1be62146106dd57806350188c08146106fd57806350da983f1461071257005b806329b8caff116103b4578063339640b51161037b578063339640b514610646578063348d4487146106665780633ccfd60b1461067c57806343bf0bd4146106915780634728f718146106b157005b806329b8caff1461058257806329e1a243146105985780632a2d0c47146105b85780632acc8210146106065780632e8a03cf1461062657005b80631e403c35116103f85780631e403c35146104df57806321309f211461050c57806324de19f21461052c5780632748d29b1461054257806328cca7191461056257005b80631053abb11461042f5780631140e85b1461046457806315e8392b146104925780631ce7f99b146104bf57005b3661042d57005b005b34801561043b57600080fd5b5061044f61044a366004613b6f565b610dcb565b60405190151581526020015b60405180910390f35b34801561047057600080fd5b5061048461047f366004613ba8565b610f97565b60405190815260200161045b565b34801561049e57600080fd5b506104b26104ad366004613bc1565b6110af565b60405161045b9190613bed565b3480156104cb57600080fd5b506104b26104da366004613d17565b611144565b3480156104eb57600080fd5b506104ff6104fa366004613d4b565b611202565b60405161045b9190613da8565b34801561051857600080fd5b50610484610527366004613ba8565b6112a0565b34801561053857600080fd5b5061048460055481565b34801561054e57600080fd5b5061048461055d366004613ba8565b6112c1565b34801561056e57600080fd5b5061048461057d366004613ba8565b6112eb565b34801561058e57600080fd5b5061048460155481565b3480156105a457600080fd5b506104846105b3366004613ba8565b6112fb565b3480156105c457600080fd5b506105ee6105d3366004613ba8565b601c602052600090815260409020546001600160a01b031681565b6040516001600160a01b03909116815260200161045b565b34801561061257600080fd5b5061044f610621366004613bc1565b61130b565b34801561063257600080fd5b5061044f610641366004613ba8565b61134e565b34801561065257600080fd5b506105ee610661366004613bc1565b611378565b34801561067257600080fd5b50610484601f5481565b34801561068857600080fd5b5061042d6113b0565b34801561069d57600080fd5b5061044f6106ac366004613e88565b611544565b3480156106bd57600080fd5b5061048460125481565b3480156106d357600080fd5b5061048460115481565b3480156106e957600080fd5b506104846106f8366004613ba8565b6115ca565b34801561070957600080fd5b506104846115f4565b34801561071e57600080fd5b5061044f61072d366004613f0f565b611612565b34801561073e57600080fd5b5061048460165481565b34801561075457600080fd5b506104ff610763366004613d4b565b611666565b34801561077457600080fd5b506104ff610783366004613d4b565b611702565b34801561079457600080fd5b506104846107a3366004613ba8565b61179e565b3480156107b457600080fd5b5061044f6107c3366004613f0f565b60016020526000908152604090205460ff1681565b3480156107e457600080fd5b506104846107f3366004613ba8565b6117ae565b34801561080457600080fd5b5061044f610813366004613f2c565b6117d3565b34801561082457600080fd5b5061042d610833366004613fdd565b611927565b34801561084457600080fd5b5061042d610853366004613f0f565b611953565b34801561086457600080fd5b5061042d6119dd565b34801561087957600080fd5b5061048460045481565b34801561088f57600080fd5b506108a361089e366004613f0f565b611d38565b60405161045b9c9b9a99989796959493929190614011565b3480156108c757600080fd5b5061042d6108d6366004613f0f565b611e25565b3480156108e757600080fd5b506105ee6108f6366004613ba8565b611ead565b34801561090757600080fd5b50610484610916366004613ba8565b611ed7565b34801561092757600080fd5b506104ff6109363660046140c3565b611ee7565b34801561094757600080fd5b5061048460135481565b34801561095d57600080fd5b5061048460225481565b34801561097357600080fd5b506104b2610982366004613d17565b611f91565b34801561099357600080fd5b506109a76109a23660046140f7565b6120ae565b60405161045b919061415d565b3480156109c057600080fd5b506104846109cf366004613ba8565b61215d565b3480156109e057600080fd5b506104b26109ef366004613f0f565b61216d565b348015610a0057600080fd5b506015546016546017546040805193845260208401929092529082015260600161045b565b348015610a3157600080fd5b50610484610a40366004614170565b612224565b348015610a5157600080fd5b506000546105ee906001600160a01b031681565b348015610a7157600080fd5b5061042d610a8036600461419e565b612245565b348015610a9157600080fd5b50610484610aa0366004613f0f565b612687565b348015610ab157600080fd5b5061048460185481565b348015610ac757600080fd5b506105ee610ad6366004613ba8565b6128fd565b348015610ae757600080fd5b50610afb610af6366004614170565b61290d565b60405161045b94939291906141ed565b348015610b1757600080fd5b5061048460075481565b348015610b2d57600080fd5b5061044f610b3c366004614238565b612b18565b348015610b4d57600080fd5b5061044f610b5c366004613ba8565b612b6a565b348015610b6d57600080fd5b5061048460105481565b348015610b8357600080fd5b506006546105ee906001600160a01b031681565b348015610ba357600080fd5b5061044f610bb2366004614291565b612b94565b348015610bc357600080fd5b506105ee610bd2366004613f0f565b601a602052600090815260409020546001600160a01b031681565b348015610bf957600080fd5b5061044f610c08366004613ba8565b612bc2565b348015610c1957600080fd5b50610484610c28366004613ba8565b612bec565b348015610c3957600080fd5b5061042d612c16565b348015610c4e57600080fd5b5061048460235481565b348015610c6457600080fd5b5061048460175481565b348015610c7a57600080fd5b5061042d610c89366004613ba8565b612dcf565b348015610c9a57600080fd5b50610484600f5481565b348015610cb057600080fd5b50610484610cbf366004613f0f565b601d6020526000908152604090205481565b348015610cdd57600080fd5b5061048460145481565b348015610cf357600080fd5b5061044f610d02366004613ba8565b613374565b348015610d1357600080fd5b5061044f610d223660046142ae565b6133a8565b348015610d3357600080fd5b50600e5461044f9060ff1681565b348015610d4d57600080fd5b5061042d6133fc565b348015610d6257600080fd5b50610484610d71366004613ba8565b613581565b348015610d8257600080fd5b5061042d610d91366004613f0f565b613591565b348015610da257600080fd5b50610484610db1366004613ba8565b61361f565b348015610dc257600080fd5b50610484613644565b3360009081526001602052604081205460ff16610de757600080fd5b6001600160a01b038216610dfa57600080fd5b6001600160a01b0383166000908152601960205260409020805460ff16610f6657805460ff19166001178155601154600f54610e369190614330565b610e40904261434f565b60018201556001600160a01b038481166000908152601a6020908152604080832080546001600160a01b0319169488169485179055928252601990529081206009810180549192610e9083614367565b90915550506001600160a01b038481166000908152601b60209081526040822080546001810182559083529082200180546001600160a01b031916928816929092179091556015805491610ee383614367565b90915550506001600160a01b0385166000908152601e60205260409020600b8054610f0f929190613941565b50601f80546000908152601c6020908152604080832080546001600160a01b0319166001600160a01b038b169081179091558454908452601d90925282208190559190610f5b83614367565b919050555050610f8b565b601154600f54610f769190614330565b8160010154610f85919061434f565b60018201555b60019150505b92915050565b600080546001600160a01b0316336001600160a01b031614610fb857600080fd5b6003546040516370a0823160e01b815230600482015283916001600160a01b0316906370a0823190602401602060405180830381865afa158015611000573d6000803e3d6000fd5b505050506040513d601f19601f820116820180604052508101906110249190614382565b101561102f57600080fd5b60035460005460405163a9059cbb60e01b81526001600160a01b0391821660048201526024810185905291169063a9059cbb906044016020604051808303816000875af1158015611084573d6000803e3d6000fd5b505050506040513d601f19601f820116820180604052508101906110a8919061439b565b5090919050565b60608060005b8381101561113c576110c682611144565b6001600160a01b038087166000908152601a6020526040902054825192945016908390839081106110f9576110f96143b8565b6001600160a01b039283166020918202929092018101919091529581166000908152601a909652604090952054909416938061113481614367565b9150506110b5565b509392505050565b6060600082516001611156919061434f565b6001600160401b0381111561116d5761116d613c3a565b604051908082528060200260200182016040528015611196578160200160208202803683370190505b50905060005b83518110156111fb578381815181106111b7576111b76143b8565b60200260200101518282815181106111d1576111d16143b8565b6001600160a01b0390921660209283029190910190910152806111f381614367565b91505061119c565b5092915050565b6000546060906001600160a01b0316336001600160a01b03161461122557600080fd5b8160098481548110611239576112396143b8565b9060005260206000200181905550600980548060200260200160405190810160405280929190818152602001828054801561129357602002820191906000526020600020905b81548152602001906001019080831161127f575b5050505050905092915050565b600d81815481106112b057600080fd5b600091825260209091200154905081565b600080546001600160a01b0316336001600160a01b0316146112e257600080fd5b50601181905590565b600981815481106112b057600080fd5b602181815481106112b057600080fd5b601e602052816000526040600020818154811061132757600080fd5b9060005260206000209060209182820401919006915091509054906101000a900460ff1681565b600080546001600160a01b0316336001600160a01b03161461136f57600080fd5b50600555600190565b601b602052816000526040600020818154811061139457600080fd5b6000918252602090912001546001600160a01b03169150829050565b600e5460ff166113bf57600080fd5b336000818152601960205260408120916113da906000612224565b6003546040516370a0823160e01b815230600482015291925082916001600160a01b03909116906370a0823190602401602060405180830381865afa158015611427573d6000803e3d6000fd5b505050506040513d601f19601f8201168201806040525081019061144b9190614382565b101561145657600080fd5b60045481101561146557600080fd5b6003546001600160a01b031663a9059cbb336114976064611491601354876136a690919063ffffffff16565b906136df565b6040516001600160e01b031960e085901b1681526001600160a01b03909216600483015260248201526044016020604051808303816000875af11580156114e2573d6000803e3d6000fd5b505050506040513d601f19601f82011682018060405250810190611506919061439b565b508082600801600082825461151b919061434f565b90915550504260068301556018805482919060009061153b90849061434f565b90915550505050565b600080546001600160a01b0316336001600160a01b03161461156557600080fd5b835161157890600b90602087019061399f565b50825161158c90600c906020860190613a3f565b5081516115a090600d906020850190613a3f565b50336000908152601e60205260409020600b80546115bf929190613941565b506001949350505050565b600080546001600160a01b0316336001600160a01b0316146115eb57600080fd5b50600481905590565b600061160d6011546010546136a690919063ffffffff16565b905090565b600080546001600160a01b0316336001600160a01b03161461163357600080fd5b50600380546001600160a01b0383166001600160a01b031991821681179092556006805490911690911790556001919050565b6000546060906001600160a01b0316336001600160a01b03161461168957600080fd5b816008848154811061169d5761169d6143b8565b90600052602060002001819055506008805480602002602001604051908101604052809291908181526020018280548015611293576020028201919060005260206000209081548152602001906001019080831161127f575050505050905092915050565b6000546060906001600160a01b0316336001600160a01b03161461172557600080fd5b81600a8481548110611739576117396143b8565b9060005260206000200181905550600a805480602002602001604051908101604052809291908181526020018280548015611293576020028201919060005260206000209081548152602001906001019080831161127f575050505050905092915050565b602581815481106112b057600080fd5b3360009081526001602052604081205460ff166117ca57600080fd5b50601281905590565b3360009081526001602052604081205460ff166117ef57600080fd5b600083116118445760405162461bcd60e51b815260206004820152601e60248201527f63616e7469646164206d696e696d6120646520626c6f6b65732065732031000060448201526064015b60405180910390fd5b6001600160a01b0384166000908152601960205260409020805460ff1661186a57600080fd5b60008460055461187a9190614330565b905081600b0160405180608001604052804281526020016118ab6064611491601254876136a690919063ffffffff16565b81526020016118ca6064611491601254876136a690919063ffffffff16565b81529515156020968701528154600180820184556000938452928790208251600490920201908155958101518683015560408101516002870155606001516003909501805460ff1916951515959095179094555091949350505050565b3360009081526019602090815260409091208251909161194e91600a840191850190613a7a565b505050565b3360009081526001602052604090205460ff1661196f57600080fd5b6001600160a01b03811661198257600080fd5b6040516001600160a01b038216907f71614071b88dee5e0b2ae578a9dd7b2ebbe9ae832ba419dc0242cd065a290b6c90600090a26001600160a01b03166000908152600160208190526040909120805460ff19169091179055565b600e5460ff166119ec57600080fd5b60006119f733612687565b905060008111611a0657600080fd5b33600090815260196020908152604080832081516101a081018352815460ff16151581526001820154938101939093526002810154918301919091526003810154606083015260048101546080830152600581015460a0830152600681015460c0830152600781015460e083015260088101546101008301526009810154610120830152600a8101805461014084019190611aa0906143ce565b80601f0160208091040260200160405190810160405280929190818152602001828054611acc906143ce565b8015611b195780601f10611aee57610100808354040283529160200191611b19565b820191906000526020600020905b815481529060010190602001808311611afc57829003601f168201915b50505050508152602001600b8201805480602002602001604051908101604052809291908181526020016000905b82821015611ba0576000848152602090819020604080516080810182526004860290920180548352600180820154848601526002820154928401929092526003015460ff16151560608301529083529092019101611b47565b505050508152602001600c82015481525050905060005b600c5481101561194e57600d8181548110611bd457611bd46143b8565b906000526020600020015482610180015110158015611c315750336000908152601e60205260409020805482908110611c0f57611c0f6143b8565b90600052602060002090602091828204019190069054906101000a900460ff16155b15611d26576003546001600160a01b031663a9059cbb33600c8481548110611c5b57611c5b6143b8565b6000918252602090912001546040516001600160e01b031960e085901b1681526001600160a01b03909216600483015260248201526044016020604051808303816000875af1158015611cb2573d6000803e3d6000fd5b505050506040513d601f19601f82011682018060405250810190611cd6919061439b565b50336000908152601e6020526040902080546001919083908110611cfc57611cfc6143b8565b90600052602060002090602091828204019190066101000a81548160ff0219169083151502179055505b80611d3081614367565b915050611bb7565b601960205260009081526040902080546001820154600283015460038401546004850154600586015460068701546007880154600889015460098a0154600a8b01805460ff909b169b999a98999798969795969495939492939192611d9c906143ce565b80601f0160208091040260200160405190810160405280929190818152602001828054611dc8906143ce565b8015611e155780601f10611dea57610100808354040283529160200191611e15565b820191906000526020600020905b815481529060010190602001808311611df857829003601f168201915b50505050509080600c015490508c565b6000546001600160a01b0316336001600160a01b031614611e4557600080fd5b6001600160a01b038116611e5857600080fd5b6040516001600160a01b038216907fa3b62bc36326052d97ea62d63c3d60308ed4c3ea8ac079dd8499f1e9c4f80c0f90600090a26001600160a01b03166000908152600160205260409020805460ff19169055565b60208181548110611ebd57600080fd5b6000918252602090912001546001600160a01b0316905081565b600881815481106112b057600080fd5b6060600082516001611ef9919061434f565b6001600160401b03811115611f1057611f10613c3a565b604051908082528060200260200182016040528015611f39578160200160208202803683370190505b50905060005b83518110156111fb57838181518110611f5a57611f5a6143b8565b6020026020010151828281518110611f7457611f746143b8565b602090810291909101015280611f8981614367565b915050611f3f565b60606000805b83518110156120a65760196000858381518110611fb657611fb66143b8565b60200260200101516001600160a01b03166001600160a01b0316815260200190815260200160002091506000805b855181101561203757858181518110611fff57611fff6143b8565b60200260200101516001600160a01b0316826001600160a01b0316141561202557600091505b8061202f81614367565b915050611fe4565b506001600160a01b038116156120935761205085611144565b94508085600187516120629190614409565b81518110612072576120726143b8565b60200260200101906001600160a01b031690816001600160a01b0316815250505b508061209e81614367565b915050611f97565b509192915050565b60606000825160016120c0919061434f565b6001600160401b038111156120d7576120d7613c3a565b604051908082528060200260200182016040528015612100578160200160208202803683370190505b50905060005b83518110156111fb57838181518110612121576121216143b8565b602002602001015182828151811061213b5761213b6143b8565b911515602092830291909101909101528061215581614367565b915050612106565b600c81815481106112b057600080fd5b60608060005b6001600160a01b0384166000908152601b60205260409020548110156111fb5761219c82611144565b6001600160a01b0385166000908152601b60205260409020805491935090829081106121ca576121ca6143b8565b9060005260206000200160009054906101000a90046001600160a01b03168282815181106121fa576121fa6143b8565b6001600160a01b03909216602092830291909101909101528061221c81614367565b915050612173565b600060608060606000612237878761290d565b9a9950505050505050505050565b3360009081526019602052604090206001600160a01b0383166122b85760405162461bcd60e51b815260206004820152602560248201527f64656265732074656e657220726566657269646f207061726120726567697374604482015264726172746560d81b606482015260840161183b565b602254156123e1576022546003546001600160a01b031663dd62ed3e336040516001600160e01b031960e084901b1681526001600160a01b039091166004820152306024820152604401602060405180830381865afa15801561231f573d6000803e3d6000fd5b505050506040513d601f19601f820116820180604052508101906123439190614382565b101561234e57600080fd5b6003546001600160a01b03166323b872dd336022546040516001600160e01b031960e085901b1681526001600160a01b03909216600483015230602483015260448201526064016020604051808303816000875af11580156123b4573d6000803e3d6000fd5b505050506040513d601f19601f820116820180604052508101906123d8919061439b565b6123e157600080fd5b6002602354106124fb5760005b6020548110156124f957600354602080546001600160a01b039092169163a9059cbb919084908110612422576124226143b8565b9060005260206000200160009054906101000a90046001600160a01b031661247760646114916021878154811061245b5761245b6143b8565b90600052602060002001546022546136a690919063ffffffff16565b6040516001600160e01b031960e085901b1681526001600160a01b03909216600483015260248201526044016020604051808303816000875af11580156124c2573d6000803e3d6000fd5b505050506040513d601f19601f820116820180604052508101906124e6919061439b565b50806124f181614367565b9150506123ee565b505b805460ff1661264757805460ff19166001178155601154600f5461251f9190614330565b612529904261434f565b6001820155336000908152601a6020908152604080832080546001600160a01b0319166001600160a01b038816908117909155835260199091528120600981018054919261257683614367565b90915550506001600160a01b0384166000908152601b60209081526040822080546001810182559083529082200180546001600160a01b0319163317905560158054916125c283614367565b9190505550600b601e60006125d43390565b6001600160a01b03168152602081019190915260400160002081546125f99290613941565b50601f80546000908152601c6020908152604080832080546001600160a01b031916339081179091558454908452601d9092528220819055919061263c83614367565b91905055505061266c565b601154600f546126579190614330565b8160010154612666919061434f565b60018201555b815161268190600a8301906020850190613a7a565b50505050565b6001600160a01b038116600090815260196020908152604080832081516101a081018352815460ff16151581526001820154938101939093526002810154918301919091526003810154606083015260048101546080830152600581015460a0830152600681015460c0830152600781015460e083015260088101546101008301526009810154610120830152600a810180548493929161014084019161272d906143ce565b80601f0160208091040260200160405190810160405280929190818152602001828054612759906143ce565b80156127a65780601f1061277b576101008083540402835291602001916127a6565b820191906000526020600020905b81548152906001019060200180831161278957829003601f168201915b50505050508152602001600b8201805480602002602001604051908101604052809291908181526020016000905b8282101561282d576000848152602090819020604080516080810182526004860290920180548352600180820154848601526002820154928401929092526003015460ff161515606083015290835290920191016127d4565b505050508152602001600c82015481525050905060005b600c548110156128f657600d8181548110612861576128616143b8565b9060005260206000200154826101800151101580156128be5750336000908152601e6020526040902080548290811061289c5761289c6143b8565b90600052602060002090602091828204019190069054906101000a900460ff16155b156128e457600c81815481106128d6576128d66143b8565b906000526020600020015492505b806128ee81614367565b915050612844565b5050919050565b60248181548110611ebd57600080fd5b6001600160a01b038216600090815260196020526040812060609182918291908183808083808080805b600b8a0154811015612b005789600b018181548110612958576129586143b8565b6000918252602090912060036004909202019081015490995060ff1615158f15151415612aee5761298888611ee7565b975061299387611ee7565b965061299e866120ae565b9550886000015487600189516129b49190614409565b815181106129c4576129c46143b8565b6020026020010181815250506129d86115f4565b89546129e4919061434f565b93508342116129f357426129f5565b835b60038a015490925060ff1615612a2557885460078b015411612a18578854612a1e565b89600701545b9250612a41565b885460068b015411612a38578854612a3e565b89600601545b92505b8215801590612a4f57508183105b15612abd57612a5c6115f4565b612a668484614409565b8a60020154612a759190614330565b612a7f9190614420565b612a89908661434f565b945060018660018851612a9c9190614409565b81518110612aac57612aac6143b8565b911515602092830291909101909101525b88600201548860018a51612ad19190614409565b81518110612ae157612ae16143b8565b6020026020010181815250505b80612af881614367565b915050612937565b50959e949d50929b5090995091975050505050505050565b600080546001600160a01b0316336001600160a01b031614612b3957600080fd5b8251612b4c906024906020860190613aed565b508151612b60906025906020850190613a3f565b5060019392505050565b600080546001600160a01b0316336001600160a01b031614612b8b57600080fd5b50602255600190565b3360009081526001602052604081205460ff16612bb057600080fd5b50600e805460ff191682151517905590565b600080546001600160a01b0316336001600160a01b031614612be357600080fd5b50601355600190565b600080546001600160a01b0316336001600160a01b031614612c0d57600080fd5b50600781905590565b600e5460ff16612c2557600080fd5b6000601981336001600160a01b03908116825260208201929092526040908101600020600281015460035492516370a0823160e01b815230600482015291945092839216906370a0823190602401602060405180830381865afa158015612c90573d6000803e3d6000fd5b505050506040513d601f19601f82011682018060405250810190612cb49190614382565b1015612d195760405162461bcd60e51b815260206004820152602e60248201527f6e6f206861792073616c646f20656e20656c20636f6e747261746f207061726160448201526d20686163657220656c207061676f60901b606482015260840161183b565b600454811015612d2857600080fd5b6003546001600160a01b031663a9059cbb33612d546064611491601354876136a690919063ffffffff16565b6040516001600160e01b031960e085901b1681526001600160a01b03909216600483015260248201526044016020604051808303816000875af1158015612d9f573d6000803e3d6000fd5b505050506040513d601f19601f82011682018060405250810190612dc3919061439b565b50506000600290910155565b60008111612e1f5760405162461bcd60e51b815260206004820152601e60248201527f63616e7469646164206d696e696d6120646520626c6f6b657320657320310000604482015260640161183b565b336000908152601960205260409020805460ff16612e745760405162461bcd60e51b81526020600482015260126024820152716e6f2065737461207265676973747261646f60701b604482015260640161183b565b80600101544210612ebd5760405162461bcd60e51b815260206004820152601360248201527206e6f207469656e65206d656d6265727368697606c1b604482015260640161183b565b600082600554612ecd9190614330565b60035490915081906001600160a01b031663dd62ed3e336040516001600160e01b031960e084901b1681526001600160a01b039091166004820152306024820152604401602060405180830381865afa158015612f2e573d6000803e3d6000fd5b505050506040513d601f19601f82011682018060405250810190612f529190614382565b1015612fa05760405162461bcd60e51b815260206004820152601b60248201527f73616c646f206170726f7661646f20696e737566696369656e74650000000000604482015260640161183b565b6003546001600160a01b03166323b872dd336040516001600160e01b031960e084901b1681526001600160a01b039091166004820152306024820152604481018490526064016020604051808303816000875af1158015613005573d6000803e3d6000fd5b505050506040513d601f19601f82011682018060405250810190613029919061439b565b61306c5760405162461bcd60e51b81526020600482015260146024820152737472616e666572656e6369612066616c6c69646160601b604482015260640161183b565b336000908152601a60205260409020546001600160a01b03161561319257600754600b83015410156130f8576130f3338260088054806020026020016040519081016040528092919081815260200182805480156130e957602002820191906000526020600020905b8154815260200190600101908083116130d5575b5050505050613701565b613151565b613151338260098054806020026020016040519081016040528092919081815260200182805480156130e957602002820191906000526020600020908154815260200190600101908083116130d5575050505050613701565b336000908152601a60209081526040808320546001600160a01b0316835260199091528120600c810180549192869261318b90849061434f565b9091555050505b81600b0160405180608001604052804281526020016131c16064611491601254876136a690919063ffffffff16565b81526020016131e06064611491601254876136a690919063ffffffff16565b81526000602091820181905283546001808201865594825282822084516004909202019081559183015193820193909355604082015160028201556060909101516003909101805460ff191691151591909117905560058301805485929061324990849061434f565b925050819055508060166000828254613262919061434f565b90915550600090505b60245481101561268157600354602480546001600160a01b039092169163a9059cbb91908490811061329f5761329f6143b8565b9060005260206000200160009054906101000a90046001600160a01b03166132f26064611491602587815481106132d8576132d86143b8565b9060005260206000200154886136a690919063ffffffff16565b6040516001600160e01b031960e085901b1681526001600160a01b03909216600483015260248201526044016020604051808303816000875af115801561333d573d6000803e3d6000fd5b505050506040513d601f19601f82011682018060405250810190613361919061439b565b508061336c81614367565b91505061326b565b600b818154811061338457600080fd5b9060005260206000209060209182820401919006915054906101000a900460ff1681565b600080546001600160a01b0316336001600160a01b0316146133c957600080fd5b83516133db9060209081870190613aed565b5082516133ef906021906020860190613a3f565b5050602355506001919050565b600e5460ff1661340b57600080fd5b33600081815260196020526040812091613426906001612224565b6003546040516370a0823160e01b815230600482015291925082916001600160a01b03909116906370a0823190602401602060405180830381865afa158015613473573d6000803e3d6000fd5b505050506040513d601f19601f820116820180604052508101906134979190614382565b10156134a257600080fd5b6004548110156134b157600080fd5b6003546001600160a01b031663a9059cbb336134dd6064611491601354876136a690919063ffffffff16565b6040516001600160e01b031960e085901b1681526001600160a01b03909216600483015260248201526044016020604051808303816000875af1158015613528573d6000803e3d6000fd5b505050506040513d601f19601f8201168201806040525081019061354c919061439b565b5080826008016000828254613561919061434f565b90915550504260078301556018805482919060009061153b90849061434f565b600a81815481106112b057600080fd5b6000546001600160a01b0316336001600160a01b0316146135b157600080fd5b6001600160a01b0381166135c457600080fd5b600080546040516001600160a01b03808516939216917f8be0079c531659141344cd1fd0a4f28419497f9722a3daafe3b4186f6b6457e091a3600080546001600160a01b0319166001600160a01b0392909216919091179055565b3360009081526001602052604081205460ff1661363b57600080fd5b50601081905590565b600080546001600160a01b0316336001600160a01b03161461366557600080fd5b600080546040516001600160a01b03909116914780156108fc02929091818181858888f1935050505015801561369f573d6000803e3d6000fd5b5047905090565b6000826136b557506000610f91565b60006136c18385614330565b9050826136ce8583614420565b146136d857600080fd5b9392505050565b60008082116136ed57600080fd5b60006136f98385614420565b949350505050565b606061370e8483516110af565b905060008060005b845181101561393857848181518110613731576137316143b8565b60200260200101516000146139215760196000858381518110613756576137566143b8565b6020908102919091018101516001600160a01b03168252810191909152604001600020805490925060ff168015613791575042826001015410155b156139265760006001600160a01b03168482815181106137b3576137b36143b8565b60200260200101516001600160a01b031614613921576137fb6103e86114918784815181106137e4576137e46143b8565b6020026020010151896136a690919063ffffffff16565b925082826002016000828254613811919061434f565b925050819055508282600301600082825461382c919061434f565b9250508190555081600b0160405180608001604052804281526020016138636103e8611491601254896136a690919063ffffffff16565b81526020016138836103e8611491601254896136a690919063ffffffff16565b815260016020918201819052835480820185556000948552938290208351600490950201938455908201519083015560408101516002830155606001516003909101805460ff19169115159190911790556012546138ea906103e8906114919086906136a6565b8260040160008282546138fd919061434f565b925050819055508260176000828254613916919061434f565b909155506139269050565b613938565b8061393081614367565b915050613716565b50505050505050565b82805482825590600052602060002090601f0160209004810192821561398f57600052602060002091601f016020900482015b8281111561398f578254825591600101919060010190613974565b5061399b929150613b42565b5090565b82805482825590600052602060002090601f0160209004810192821561398f5791602002820160005b83821115613a0557835183826101000a81548160ff02191690831515021790555092602001926001016020816000010492830192600103026139c8565b8015613a325782816101000a81549060ff0219169055600101602081600001049283019260010302613a05565b505061399b929150613b42565b82805482825590600052602060002090810192821561398f579160200282015b8281111561398f578251825591602001919060010190613a5f565b828054613a86906143ce565b90600052602060002090601f016020900481019282613aa8576000855561398f565b82601f10613ac157805160ff191683800117855561398f565b8280016001018555821561398f579182018281111561398f578251825591602001919060010190613a5f565b82805482825590600052602060002090810192821561398f579160200282015b8281111561398f57825182546001600160a01b0319166001600160a01b03909116178255602090920191600190910190613b0d565b5b8082111561399b5760008155600101613b43565b6001600160a01b0381168114613b6c57600080fd5b50565b60008060408385031215613b8257600080fd5b8235613b8d81613b57565b91506020830135613b9d81613b57565b809150509250929050565b600060208284031215613bba57600080fd5b5035919050565b60008060408385031215613bd457600080fd5b8235613bdf81613b57565b946020939093013593505050565b6020808252825182820181905260009190848201906040850190845b81811015613c2e5783516001600160a01b031683529284019291840191600101613c09565b50909695505050505050565b634e487b7160e01b600052604160045260246000fd5b604051601f8201601f191681016001600160401b0381118282101715613c7857613c78613c3a565b604052919050565b60006001600160401b03821115613c9957613c99613c3a565b5060051b60200190565b600082601f830112613cb457600080fd5b81356020613cc9613cc483613c80565b613c50565b82815260059290921b84018101918181019086841115613ce857600080fd5b8286015b84811015613d0c578035613cff81613b57565b8352918301918301613cec565b509695505050505050565b600060208284031215613d2957600080fd5b81356001600160401b03811115613d3f57600080fd5b6136f984828501613ca3565b60008060408385031215613d5e57600080fd5b50508035926020909101359150565b600081518084526020808501945080840160005b83811015613d9d57815187529582019590820190600101613d81565b509495945050505050565b6020815260006136d86020830184613d6d565b8015158114613b6c57600080fd5b600082601f830112613dda57600080fd5b81356020613dea613cc483613c80565b82815260059290921b84018101918181019086841115613e0957600080fd5b8286015b84811015613d0c578035613e2081613dbb565b8352918301918301613e0d565b600082601f830112613e3e57600080fd5b81356020613e4e613cc483613c80565b82815260059290921b84018101918181019086841115613e6d57600080fd5b8286015b84811015613d0c5780358352918301918301613e71565b600080600060608486031215613e9d57600080fd5b83356001600160401b0380821115613eb457600080fd5b613ec087838801613dc9565b94506020860135915080821115613ed657600080fd5b613ee287838801613e2d565b93506040860135915080821115613ef857600080fd5b50613f0586828701613e2d565b9150509250925092565b600060208284031215613f2157600080fd5b81356136d881613b57565b600080600060608486031215613f4157600080fd5b8335613f4c81613b57565b9250602084013591506040840135613f6381613dbb565b809150509250925092565b600082601f830112613f7f57600080fd5b81356001600160401b03811115613f9857613f98613c3a565b613fab601f8201601f1916602001613c50565b818152846020838601011115613fc057600080fd5b816020850160208301376000918101602001919091529392505050565b600060208284031215613fef57600080fd5b81356001600160401b0381111561400557600080fd5b6136f984828501613f6e565b60006101808e1515835260208e818501528d60408501528c60608501528b60808501528a60a08501528960c08501528860e085015287610100850152866101208501528161014085015285518083860152600092505b80831015614086578683018201518584016101a0015291810191614067565b808311156140995760006101a082870101525b610160850195909552505050601f91909101601f1916016101a0019b9a5050505050505050505050565b6000602082840312156140d557600080fd5b81356001600160401b038111156140eb57600080fd5b6136f984828501613e2d565b60006020828403121561410957600080fd5b81356001600160401b0381111561411f57600080fd5b6136f984828501613dc9565b600081518084526020808501945080840160005b83811015613d9d57815115158752958201959082019060010161413f565b6020815260006136d8602083018461412b565b6000806040838503121561418357600080fd5b823561418e81613b57565b91506020830135613b9d81613dbb565b600080604083850312156141b157600080fd5b82356141bc81613b57565b915060208301356001600160401b038111156141d757600080fd5b6141e385828601613f6e565b9150509250929050565b6080815260006142006080830187613d6d565b82810360208401526142128187613d6d565b90508281036040840152614226818661412b565b91505082606083015295945050505050565b6000806040838503121561424b57600080fd5b82356001600160401b038082111561426257600080fd5b61426e86838701613ca3565b9350602085013591508082111561428457600080fd5b506141e385828601613e2d565b6000602082840312156142a357600080fd5b81356136d881613dbb565b6000806000606084860312156142c357600080fd5b83356001600160401b03808211156142da57600080fd5b6142e687838801613ca3565b945060208601359150808211156142fc57600080fd5b5061430986828701613e2d565b925050604084013590509250925092565b634e487b7160e01b600052601160045260246000fd5b600081600019048311821515161561434a5761434a61431a565b500290565b600082198211156143625761436261431a565b500190565b600060001982141561437b5761437b61431a565b5060010190565b60006020828403121561439457600080fd5b5051919050565b6000602082840312156143ad57600080fd5b81516136d881613dbb565b634e487b7160e01b600052603260045260246000fd5b600181811c908216806143e257607f821691505b6020821081141561440357634e487b7160e01b600052602260045260246000fd5b50919050565b60008282101561441b5761441b61431a565b500390565b60008261443d57634e487b7160e01b600052601260045260246000fd5b50049056fea2646970667358221220c3720f0f96fa4d580deebca9701265a43f03839fe32ab5913a94aaecd0ba851a64736f6c634300080a0033",
    "sourcePath": "c:/Users/STC/Documents/GitHub/0-INFINITY-BLOCKS-TEST-UNILEVEL/contracts/UnilevelSystem.sol",
    "compiler": {
        "name": "solc",
        "version": "0.8.10+commit.fc410830"
    },
    "functionHashes": {
        "ChangeTokenPrincipal(address)": "50da983f",
        "MIN_RETIRO()": "6c529279",
        "PRECIO_BLOCK()": "24de19f2",
        "activerFee()": "bd9bee19",
        "actualizarArrayBool(bool[])": "7fcc1e36",
        "actualizarArrayUint256(uint256[])": "7367b080",
        "actualizarNetwork(address[])": "1ce7f99b",
        "addressToId(address)": "cb0e0d7d",
        "admin(address)": "63a846f8",
        "allnetwork(address[])": "7faee047",
        "asignarBloke(address,uint256,bool)": "67f74aab",
        "asignarMembership(address,address)": "1053abb1",
        "baserange(uint256)": "cfda9ee6",
        "buyBlocks(uint256)": "c17dbdf9",
        "column(address,uint256)": "15e8392b",
        "columnHijos(address)": "815374ca",
        "controlWitdrawl(bool)": "b17b6e44",
        "depositos(address,bool)": "a365528b",
        "descuento()": "7b0412ed",
        "dias()": "ab6db199",
        "duracionMembership()": "c40d5dbc",
        "gananciasRango(uint256)": "81032892",
        "hijo(address,uint256)": "339640b5",
        "idToAddress(uint256)": "2a2d0c47",
        "infinity(uint256)": "edf5eb1d",
        "inversiones()": "a77d2119",
        "investors(address)": "6f7bc9be",
        "lastUserId()": "348d4487",
        "makeNewAdmin(address)": "69ed1e0a",
        "makeRemoveAdmin(address)": "70a0966b",
        "newRecompensa()": "69f4a84b",
        "onOffWitdrawl()": "e7348e8c",
        "owner()": "8da5cb5b",
        "padre(address)": "b35f0a8f",
        "personas()": "cc759ba2",
        "porcent()": "4728f718",
        "porcientos(uint256)": "28cca719",
        "precioRegistro()": "7db9e9c6",
        "primervez(uint256)": "725fc270",
        "puntosRango(uint256)": "21309f21",
        "rangoReclamado(address,uint256)": "2acc8210",
        "redimBNB()": "fd14d598",
        "redimTokenPrincipal02(uint256)": "1140e85b",
        "registro(address,string)": "8f9ef8c1",
        "setDescuento(uint256)": "b3d9fa09",
        "setInversiones(uint256)": "b85ea335",
        "setMIN_RETIRO(uint256)": "4de1be62",
        "setPorcientos(uint256,uint256)": "1e403c35",
        "setPorcientosSalida(uint256,uint256)": "5d216c60",
        "setPrecioRegistro(uint256)": "aaa749c5",
        "setPriceBlock(uint256)": "2e8a03cf",
        "setPrimeravezPorcientos(uint256,uint256)": "54822522",
        "setRangos(bool[],uint256[],uint256[])": "43bf0bd4",
        "setRetorno(uint256)": "6589fa8a",
        "setTiempo(uint256)": "f90b3f5a",
        "setTiempoUnidades(uint256)": "2748d29b",
        "setWalletFee(address[],uint256[],uint256)": "db3be1a2",
        "setWalletstransfers(address[],uint256[])": "a8beb717",
        "setstate()": "85338e20",
        "tiempo()": "50188c08",
        "tokenPricipal()": "b1390426",
        "totalInvested()": "5216aeec",
        "totalInvestors()": "29b8caff",
        "totalRefRewards()": "bfe0e020",
        "totalRefWitdrawl()": "9b8ff503",
        "transferOwnership(address)": "f2fde38b",
        "unidades()": "4b9b8203",
        "updateData(string)": "68446ead",
        "valor(uint256)": "62550916",
        "valorFee(uint256)": "29e1a243",
        "wallet(uint256)": "a2781335",
        "walletFee(uint256)": "7251b9ac",
        "withdraw()": "3ccfd60b",
        "withdraw2()": "ea98847b",
        "withdrawTeam()": "bb51f32d",
        "withdrawable(address,bool)": "89b2521c",
        "withdrawableRange(address)": "98c07d0a"
    },
    "gasEstimates": {
        "creation": {
            "codeDepositCost": "3505600",
            "executionCost": "infinite",
            "totalCost": "infinite"
        },
        "external": {
            "": "231",
            "ChangeTokenPrincipal(address)": "51150",
            "MIN_RETIRO()": "2362",
            "PRECIO_BLOCK()": "2408",
            "activerFee()": "2384",
            "actualizarArrayBool(bool[])": "infinite",
            "actualizarArrayUint256(uint256[])": "infinite",
            "actualizarNetwork(address[])": "infinite",
            "addressToId(address)": "2580",
            "admin(address)": "2670",
            "allnetwork(address[])": "infinite",
            "asignarBloke(address,uint256,bool)": "infinite",
            "asignarMembership(address,address)": "infinite",
            "baserange(uint256)": "6336",
            "buyBlocks(uint256)": "infinite",
            "column(address,uint256)": "infinite",
            "columnHijos(address)": "infinite",
            "controlWitdrawl(bool)": "26852",
            "depositos(address,bool)": "infinite",
            "descuento()": "2386",
            "dias()": "2450",
            "duracionMembership()": "2450",
            "gananciasRango(uint256)": "4665",
            "hijo(address,uint256)": "4846",
            "idToAddress(uint256)": "2590",
            "infinity(uint256)": "4663",
            "inversiones()": "2384",
            "investors(address)": "infinite",
            "lastUserId()": "2385",
            "makeNewAdmin(address)": "28143",
            "makeRemoveAdmin(address)": "28069",
            "newRecompensa()": "infinite",
            "onOffWitdrawl()": "2454",
            "owner()": "2405",
            "padre(address)": "2664",
            "personas()": "2384",
            "porcent()": "2451",
            "porcientos(uint256)": "4732",
            "precioRegistro()": "2408",
            "primervez(uint256)": "4730",
            "puntosRango(uint256)": "4666",
            "rangoReclamado(address,uint256)": "6527",
            "redimBNB()": "infinite",
            "redimTokenPrincipal02(uint256)": "infinite",
            "registro(address,string)": "infinite",
            "setDescuento(uint256)": "24679",
            "setInversiones(uint256)": "24709",
            "setMIN_RETIRO(uint256)": "24644",
            "setPorcientos(uint256,uint256)": "infinite",
            "setPorcientosSalida(uint256,uint256)": "infinite",
            "setPrecioRegistro(uint256)": "24678",
            "setPriceBlock(uint256)": "24702",
            "setPrimeravezPorcientos(uint256,uint256)": "infinite",
            "setRangos(bool[],uint256[],uint256[])": "infinite",
            "setRetorno(uint256)": "24651",
            "setTiempo(uint256)": "24715",
            "setTiempoUnidades(uint256)": "24688",
            "setWalletFee(address[],uint256[],uint256)": "infinite",
            "setWalletstransfers(address[],uint256[])": "infinite",
            "setstate()": "6662",
            "tiempo()": "infinite",
            "tokenPricipal()": "2405",
            "totalInvested()": "2363",
            "totalInvestors()": "2364",
            "totalRefRewards()": "2406",
            "totalRefWitdrawl()": "2429",
            "transferOwnership(address)": "30522",
            "unidades()": "2364",
            "updateData(string)": "infinite",
            "valor(uint256)": "4709",
            "valorFee(uint256)": "4666",
            "wallet(uint256)": "4770",
            "walletFee(uint256)": "4747",
            "withdraw()": "infinite",
            "withdraw2()": "infinite",
            "withdrawTeam()": "infinite",
            "withdrawable(address,bool)": "infinite",
            "withdrawableRange(address)": "infinite"
        },
        "internal": {
            "rewardReferers(address,uint256,uint256[] memory)": "infinite"
        }
    }
}