{
    "contractName": "UnilevelSystem",
    "abi": [
        {
            "inputs": [],
            "stateMutability": "nonpayable",
            "type": "constructor"
        },
        {
            "anonymous": false,
            "inputs": [
                {
                    "indexed": true,
                    "internalType": "address",
                    "name": "admin",
                    "type": "address"
                }
            ],
            "name": "AdminRemoved",
            "type": "event"
        },
        {
            "anonymous": false,
            "inputs": [
                {
                    "indexed": true,
                    "internalType": "address",
                    "name": "admin",
                    "type": "address"
                }
            ],
            "name": "NewAdmin",
            "type": "event"
        },
        {
            "anonymous": false,
            "inputs": [
                {
                    "indexed": true,
                    "internalType": "address",
                    "name": "previousOwner",
                    "type": "address"
                },
                {
                    "indexed": true,
                    "internalType": "address",
                    "name": "newOwner",
                    "type": "address"
                }
            ],
            "name": "OwnershipTransferred",
            "type": "event"
        },
        {
            "stateMutability": "payable",
            "type": "fallback"
        },
        {
            "inputs": [
                {
                    "internalType": "address",
                    "name": "_tokenTRC20",
                    "type": "address"
                }
            ],
            "name": "ChangeTokenPrincipal",
            "outputs": [
                {
                    "internalType": "bool",
                    "name": "",
                    "type": "bool"
                }
            ],
            "stateMutability": "nonpayable",
            "type": "function"
        },
        {
            "inputs": [],
            "name": "MIN_RETIRO",
            "outputs": [
                {
                    "internalType": "uint256",
                    "name": "",
                    "type": "uint256"
                }
            ],
            "stateMutability": "view",
            "type": "function"
        },
        {
            "inputs": [],
            "name": "MIN_RETIRO_interno",
            "outputs": [
                {
                    "internalType": "uint256",
                    "name": "",
                    "type": "uint256"
                }
            ],
            "stateMutability": "view",
            "type": "function"
        },
        {
            "inputs": [],
            "name": "PRECIO_BLOCK",
            "outputs": [
                {
                    "internalType": "uint256",
                    "name": "",
                    "type": "uint256"
                }
            ],
            "stateMutability": "view",
            "type": "function"
        },
        {
            "inputs": [],
            "name": "activerFee",
            "outputs": [
                {
                    "internalType": "uint256",
                    "name": "",
                    "type": "uint256"
                }
            ],
            "stateMutability": "view",
            "type": "function"
        },
        {
            "inputs": [
                {
                    "internalType": "bool[]",
                    "name": "old",
                    "type": "bool[]"
                }
            ],
            "name": "actualizarArrayBool",
            "outputs": [
                {
                    "internalType": "bool[]",
                    "name": "",
                    "type": "bool[]"
                }
            ],
            "stateMutability": "pure",
            "type": "function"
        },
        {
            "inputs": [
                {
                    "internalType": "uint256[]",
                    "name": "old",
                    "type": "uint256[]"
                }
            ],
            "name": "actualizarArrayUint256",
            "outputs": [
                {
                    "internalType": "uint256[]",
                    "name": "",
                    "type": "uint256[]"
                }
            ],
            "stateMutability": "pure",
            "type": "function"
        },
        {
            "inputs": [
                {
                    "internalType": "address[]",
                    "name": "oldNetwork",
                    "type": "address[]"
                }
            ],
            "name": "actualizarNetwork",
            "outputs": [
                {
                    "internalType": "address[]",
                    "name": "",
                    "type": "address[]"
                }
            ],
            "stateMutability": "pure",
            "type": "function"
        },
        {
            "inputs": [
                {
                    "internalType": "address",
                    "name": "",
                    "type": "address"
                }
            ],
            "name": "addressToId",
            "outputs": [
                {
                    "internalType": "uint256",
                    "name": "",
                    "type": "uint256"
                }
            ],
            "stateMutability": "view",
            "type": "function"
        },
        {
            "inputs": [
                {
                    "internalType": "address",
                    "name": "",
                    "type": "address"
                }
            ],
            "name": "admin",
            "outputs": [
                {
                    "internalType": "bool",
                    "name": "",
                    "type": "bool"
                }
            ],
            "stateMutability": "view",
            "type": "function"
        },
        {
            "inputs": [
                {
                    "internalType": "address[]",
                    "name": "network",
                    "type": "address[]"
                }
            ],
            "name": "allnetwork",
            "outputs": [
                {
                    "internalType": "address[]",
                    "name": "",
                    "type": "address[]"
                }
            ],
            "stateMutability": "view",
            "type": "function"
        },
        {
            "inputs": [
                {
                    "internalType": "address",
                    "name": "_user",
                    "type": "address"
                },
                {
                    "internalType": "uint256",
                    "name": "_bloks",
                    "type": "uint256"
                },
                {
                    "internalType": "bool",
                    "name": "_infinity",
                    "type": "bool"
                }
            ],
            "name": "asignarBloke",
            "outputs": [
                {
                    "internalType": "bool",
                    "name": "",
                    "type": "bool"
                }
            ],
            "stateMutability": "nonpayable",
            "type": "function"
        },
        {
            "inputs": [
                {
                    "internalType": "uint256",
                    "name": "_bloks",
                    "type": "uint256"
                }
            ],
            "name": "buyBlocks",
            "outputs": [],
            "stateMutability": "nonpayable",
            "type": "function"
        },
        {
            "inputs": [
                {
                    "internalType": "address",
                    "name": "yo",
                    "type": "address"
                },
                {
                    "internalType": "uint256",
                    "name": "_largo",
                    "type": "uint256"
                }
            ],
            "name": "column",
            "outputs": [
                {
                    "internalType": "address[]",
                    "name": "",
                    "type": "address[]"
                }
            ],
            "stateMutability": "view",
            "type": "function"
        },
        {
            "inputs": [
                {
                    "internalType": "bool",
                    "name": "_true_false",
                    "type": "bool"
                }
            ],
            "name": "controlWitdrawl",
            "outputs": [
                {
                    "internalType": "bool",
                    "name": "",
                    "type": "bool"
                }
            ],
            "stateMutability": "nonpayable",
            "type": "function"
        },
        {
            "inputs": [
                {
                    "internalType": "address",
                    "name": "_user",
                    "type": "address"
                },
                {
                    "internalType": "bool",
                    "name": "_infinity",
                    "type": "bool"
                }
            ],
            "name": "depositos",
            "outputs": [
                {
                    "internalType": "uint256[]",
                    "name": "",
                    "type": "uint256[]"
                },
                {
                    "internalType": "uint256[]",
                    "name": "",
                    "type": "uint256[]"
                },
                {
                    "internalType": "bool[]",
                    "name": "",
                    "type": "bool[]"
                },
                {
                    "internalType": "uint256",
                    "name": "",
                    "type": "uint256"
                }
            ],
            "stateMutability": "view",
            "type": "function"
        },
        {
            "inputs": [],
            "name": "descuento",
            "outputs": [
                {
                    "internalType": "uint256",
                    "name": "",
                    "type": "uint256"
                }
            ],
            "stateMutability": "view",
            "type": "function"
        },
        {
            "inputs": [],
            "name": "dias",
            "outputs": [
                {
                    "internalType": "uint256",
                    "name": "",
                    "type": "uint256"
                }
            ],
            "stateMutability": "view",
            "type": "function"
        },
        {
            "inputs": [],
            "name": "duracionMembership",
            "outputs": [
                {
                    "internalType": "uint256",
                    "name": "",
                    "type": "uint256"
                }
            ],
            "stateMutability": "view",
            "type": "function"
        },
        {
            "inputs": [
                {
                    "internalType": "uint256",
                    "name": "",
                    "type": "uint256"
                }
            ],
            "name": "gananciasRango",
            "outputs": [
                {
                    "internalType": "uint256",
                    "name": "",
                    "type": "uint256"
                }
            ],
            "stateMutability": "view",
            "type": "function"
        },
        {
            "inputs": [
                {
                    "internalType": "uint256",
                    "name": "",
                    "type": "uint256"
                }
            ],
            "name": "idToAddress",
            "outputs": [
                {
                    "internalType": "address",
                    "name": "",
                    "type": "address"
                }
            ],
            "stateMutability": "view",
            "type": "function"
        },
        {
            "inputs": [
                {
                    "internalType": "uint256",
                    "name": "",
                    "type": "uint256"
                }
            ],
            "name": "infinity",
            "outputs": [
                {
                    "internalType": "uint256",
                    "name": "",
                    "type": "uint256"
                }
            ],
            "stateMutability": "view",
            "type": "function"
        },
        {
            "inputs": [],
            "name": "inversiones",
            "outputs": [
                {
                    "internalType": "uint256",
                    "name": "",
                    "type": "uint256"
                }
            ],
            "stateMutability": "view",
            "type": "function"
        },
        {
            "inputs": [
                {
                    "internalType": "address",
                    "name": "",
                    "type": "address"
                }
            ],
            "name": "investors",
            "outputs": [
                {
                    "internalType": "bool",
                    "name": "registered",
                    "type": "bool"
                },
                {
                    "internalType": "uint256",
                    "name": "membership",
                    "type": "uint256"
                },
                {
                    "internalType": "uint256",
                    "name": "balanceRef",
                    "type": "uint256"
                },
                {
                    "internalType": "uint256",
                    "name": "totalRef",
                    "type": "uint256"
                },
                {
                    "internalType": "uint256",
                    "name": "invested",
                    "type": "uint256"
                },
                {
                    "internalType": "uint256",
                    "name": "paidAt",
                    "type": "uint256"
                },
                {
                    "internalType": "uint256",
                    "name": "paidAt2",
                    "type": "uint256"
                },
                {
                    "internalType": "uint256",
                    "name": "withdrawn",
                    "type": "uint256"
                },
                {
                    "internalType": "uint256",
                    "name": "directos",
                    "type": "uint256"
                },
                {
                    "internalType": "string",
                    "name": "data",
                    "type": "string"
                },
                {
                    "internalType": "uint256",
                    "name": "blokesDirectos",
                    "type": "uint256"
                }
            ],
            "stateMutability": "view",
            "type": "function"
        },
        {
            "inputs": [],
            "name": "lastUserId",
            "outputs": [
                {
                    "internalType": "uint256",
                    "name": "",
                    "type": "uint256"
                }
            ],
            "stateMutability": "view",
            "type": "function"
        },
        {
            "inputs": [
                {
                    "internalType": "address payable",
                    "name": "_newadmin",
                    "type": "address"
                }
            ],
            "name": "makeNewAdmin",
            "outputs": [],
            "stateMutability": "nonpayable",
            "type": "function"
        },
        {
            "inputs": [
                {
                    "internalType": "address payable",
                    "name": "_oldadmin",
                    "type": "address"
                }
            ],
            "name": "makeRemoveAdmin",
            "outputs": [],
            "stateMutability": "nonpayable",
            "type": "function"
        },
        {
            "inputs": [],
            "name": "newRecompensa",
            "outputs": [],
            "stateMutability": "nonpayable",
            "type": "function"
        },
        {
            "inputs": [],
            "name": "onOffWitdrawl",
            "outputs": [
                {
                    "internalType": "bool",
                    "name": "",
                    "type": "bool"
                }
            ],
            "stateMutability": "view",
            "type": "function"
        },
        {
            "inputs": [],
            "name": "owner",
            "outputs": [
                {
                    "internalType": "address payable",
                    "name": "",
                    "type": "address"
                }
            ],
            "stateMutability": "view",
            "type": "function"
        },
        {
            "inputs": [
                {
                    "internalType": "address",
                    "name": "",
                    "type": "address"
                }
            ],
            "name": "padre",
            "outputs": [
                {
                    "internalType": "address",
                    "name": "",
                    "type": "address"
                }
            ],
            "stateMutability": "view",
            "type": "function"
        },
        {
            "inputs": [],
            "name": "personas",
            "outputs": [
                {
                    "internalType": "uint256",
                    "name": "",
                    "type": "uint256"
                }
            ],
            "stateMutability": "view",
            "type": "function"
        },
        {
            "inputs": [],
            "name": "porcent",
            "outputs": [
                {
                    "internalType": "uint256",
                    "name": "",
                    "type": "uint256"
                }
            ],
            "stateMutability": "view",
            "type": "function"
        },
        {
            "inputs": [
                {
                    "internalType": "uint256",
                    "name": "",
                    "type": "uint256"
                }
            ],
            "name": "porcientos",
            "outputs": [
                {
                    "internalType": "uint256",
                    "name": "",
                    "type": "uint256"
                }
            ],
            "stateMutability": "view",
            "type": "function"
        },
        {
            "inputs": [],
            "name": "precioRegistro",
            "outputs": [
                {
                    "internalType": "uint256",
                    "name": "",
                    "type": "uint256"
                }
            ],
            "stateMutability": "view",
            "type": "function"
        },
        {
            "inputs": [
                {
                    "internalType": "uint256",
                    "name": "",
                    "type": "uint256"
                }
            ],
            "name": "primervez",
            "outputs": [
                {
                    "internalType": "uint256",
                    "name": "",
                    "type": "uint256"
                }
            ],
            "stateMutability": "view",
            "type": "function"
        },
        {
            "inputs": [
                {
                    "internalType": "uint256",
                    "name": "",
                    "type": "uint256"
                }
            ],
            "name": "puntosRango",
            "outputs": [
                {
                    "internalType": "uint256",
                    "name": "",
                    "type": "uint256"
                }
            ],
            "stateMutability": "view",
            "type": "function"
        },
        {
            "inputs": [
                {
                    "internalType": "address",
                    "name": "",
                    "type": "address"
                },
                {
                    "internalType": "uint256",
                    "name": "",
                    "type": "uint256"
                }
            ],
            "name": "rangoReclamado",
            "outputs": [
                {
                    "internalType": "bool",
                    "name": "",
                    "type": "bool"
                }
            ],
            "stateMutability": "view",
            "type": "function"
        },
        {
            "inputs": [],
            "name": "redimBNB",
            "outputs": [
                {
                    "internalType": "uint256",
                    "name": "",
                    "type": "uint256"
                }
            ],
            "stateMutability": "nonpayable",
            "type": "function"
        },
        {
            "inputs": [
                {
                    "internalType": "uint256",
                    "name": "_value",
                    "type": "uint256"
                }
            ],
            "name": "redimTokenPrincipal02",
            "outputs": [
                {
                    "internalType": "uint256",
                    "name": "",
                    "type": "uint256"
                }
            ],
            "stateMutability": "nonpayable",
            "type": "function"
        },
        {
            "inputs": [
                {
                    "internalType": "address",
                    "name": "_sponsor",
                    "type": "address"
                },
                {
                    "internalType": "string",
                    "name": "_datos",
                    "type": "string"
                }
            ],
            "name": "registro",
            "outputs": [],
            "stateMutability": "nonpayable",
            "type": "function"
        },
        {
            "inputs": [
                {
                    "internalType": "uint256",
                    "name": "_descuento",
                    "type": "uint256"
                }
            ],
            "name": "setDescuento",
            "outputs": [
                {
                    "internalType": "bool",
                    "name": "",
                    "type": "bool"
                }
            ],
            "stateMutability": "nonpayable",
            "type": "function"
        },
        {
            "inputs": [
                {
                    "internalType": "uint256",
                    "name": "_numerodeinverionessinganancia",
                    "type": "uint256"
                }
            ],
            "name": "setInversiones",
            "outputs": [
                {
                    "internalType": "uint256",
                    "name": "",
                    "type": "uint256"
                }
            ],
            "stateMutability": "nonpayable",
            "type": "function"
        },
        {
            "inputs": [
                {
                    "internalType": "uint256",
                    "name": "_min",
                    "type": "uint256"
                }
            ],
            "name": "setMIN_RETIRO",
            "outputs": [
                {
                    "internalType": "uint256",
                    "name": "",
                    "type": "uint256"
                }
            ],
            "stateMutability": "nonpayable",
            "type": "function"
        },
        {
            "inputs": [
                {
                    "internalType": "uint256",
                    "name": "_nivel",
                    "type": "uint256"
                },
                {
                    "internalType": "uint256",
                    "name": "_value",
                    "type": "uint256"
                }
            ],
            "name": "setPorcientos",
            "outputs": [
                {
                    "internalType": "uint256[]",
                    "name": "",
                    "type": "uint256[]"
                }
            ],
            "stateMutability": "nonpayable",
            "type": "function"
        },
        {
            "inputs": [
                {
                    "internalType": "uint256",
                    "name": "_nivel",
                    "type": "uint256"
                },
                {
                    "internalType": "uint256",
                    "name": "_value",
                    "type": "uint256"
                }
            ],
            "name": "setPorcientosSalida",
            "outputs": [
                {
                    "internalType": "uint256[]",
                    "name": "",
                    "type": "uint256[]"
                }
            ],
            "stateMutability": "nonpayable",
            "type": "function"
        },
        {
            "inputs": [
                {
                    "internalType": "uint256",
                    "name": "_precio",
                    "type": "uint256"
                }
            ],
            "name": "setPrecioRegistro",
            "outputs": [
                {
                    "internalType": "bool",
                    "name": "",
                    "type": "bool"
                }
            ],
            "stateMutability": "nonpayable",
            "type": "function"
        },
        {
            "inputs": [
                {
                    "internalType": "uint256",
                    "name": "_value",
                    "type": "uint256"
                }
            ],
            "name": "setPriceBlock",
            "outputs": [
                {
                    "internalType": "bool",
                    "name": "",
                    "type": "bool"
                }
            ],
            "stateMutability": "nonpayable",
            "type": "function"
        },
        {
            "inputs": [
                {
                    "internalType": "uint256",
                    "name": "_nivel",
                    "type": "uint256"
                },
                {
                    "internalType": "uint256",
                    "name": "_value",
                    "type": "uint256"
                }
            ],
            "name": "setPrimeravezPorcientos",
            "outputs": [
                {
                    "internalType": "uint256[]",
                    "name": "",
                    "type": "uint256[]"
                }
            ],
            "stateMutability": "nonpayable",
            "type": "function"
        },
        {
            "inputs": [
                {
                    "internalType": "uint256",
                    "name": "_porcentaje",
                    "type": "uint256"
                }
            ],
            "name": "setRetorno",
            "outputs": [
                {
                    "internalType": "uint256",
                    "name": "",
                    "type": "uint256"
                }
            ],
            "stateMutability": "nonpayable",
            "type": "function"
        },
        {
            "inputs": [
                {
                    "internalType": "uint256",
                    "name": "_dias",
                    "type": "uint256"
                }
            ],
            "name": "setTiempo",
            "outputs": [
                {
                    "internalType": "uint256",
                    "name": "",
                    "type": "uint256"
                }
            ],
            "stateMutability": "nonpayable",
            "type": "function"
        },
        {
            "inputs": [
                {
                    "internalType": "uint256",
                    "name": "_unidades",
                    "type": "uint256"
                }
            ],
            "name": "setTiempoUnidades",
            "outputs": [
                {
                    "internalType": "uint256",
                    "name": "",
                    "type": "uint256"
                }
            ],
            "stateMutability": "nonpayable",
            "type": "function"
        },
        {
            "inputs": [
                {
                    "internalType": "address[]",
                    "name": "_wallet",
                    "type": "address[]"
                },
                {
                    "internalType": "uint256[]",
                    "name": "_fee",
                    "type": "uint256[]"
                },
                {
                    "internalType": "uint256",
                    "name": "_activerFee",
                    "type": "uint256"
                }
            ],
            "name": "setWalletFee",
            "outputs": [
                {
                    "internalType": "bool",
                    "name": "",
                    "type": "bool"
                }
            ],
            "stateMutability": "nonpayable",
            "type": "function"
        },
        {
            "inputs": [
                {
                    "internalType": "address[]",
                    "name": "_wallets",
                    "type": "address[]"
                },
                {
                    "internalType": "uint256[]",
                    "name": "_valores",
                    "type": "uint256[]"
                }
            ],
            "name": "setWalletstransfers",
            "outputs": [
                {
                    "internalType": "bool",
                    "name": "",
                    "type": "bool"
                }
            ],
            "stateMutability": "nonpayable",
            "type": "function"
        },
        {
            "inputs": [],
            "name": "setstate",
            "outputs": [
                {
                    "internalType": "uint256",
                    "name": "Investors",
                    "type": "uint256"
                },
                {
                    "internalType": "uint256",
                    "name": "Invested",
                    "type": "uint256"
                },
                {
                    "internalType": "uint256",
                    "name": "RefRewards",
                    "type": "uint256"
                }
            ],
            "stateMutability": "view",
            "type": "function"
        },
        {
            "inputs": [],
            "name": "tiempo",
            "outputs": [
                {
                    "internalType": "uint256",
                    "name": "",
                    "type": "uint256"
                }
            ],
            "stateMutability": "view",
            "type": "function"
        },
        {
            "inputs": [],
            "name": "tokenPricipal",
            "outputs": [
                {
                    "internalType": "address",
                    "name": "",
                    "type": "address"
                }
            ],
            "stateMutability": "view",
            "type": "function"
        },
        {
            "inputs": [],
            "name": "totalInvested",
            "outputs": [
                {
                    "internalType": "uint256",
                    "name": "",
                    "type": "uint256"
                }
            ],
            "stateMutability": "view",
            "type": "function"
        },
        {
            "inputs": [],
            "name": "totalInvestors",
            "outputs": [
                {
                    "internalType": "uint256",
                    "name": "",
                    "type": "uint256"
                }
            ],
            "stateMutability": "view",
            "type": "function"
        },
        {
            "inputs": [],
            "name": "totalRefRewards",
            "outputs": [
                {
                    "internalType": "uint256",
                    "name": "",
                    "type": "uint256"
                }
            ],
            "stateMutability": "view",
            "type": "function"
        },
        {
            "inputs": [],
            "name": "totalRefWitdrawl",
            "outputs": [
                {
                    "internalType": "uint256",
                    "name": "",
                    "type": "uint256"
                }
            ],
            "stateMutability": "view",
            "type": "function"
        },
        {
            "inputs": [
                {
                    "internalType": "address payable",
                    "name": "newOwner",
                    "type": "address"
                }
            ],
            "name": "transferOwnership",
            "outputs": [],
            "stateMutability": "nonpayable",
            "type": "function"
        },
        {
            "inputs": [],
            "name": "unidades",
            "outputs": [
                {
                    "internalType": "uint256",
                    "name": "",
                    "type": "uint256"
                }
            ],
            "stateMutability": "view",
            "type": "function"
        },
        {
            "inputs": [
                {
                    "internalType": "string",
                    "name": "_datos",
                    "type": "string"
                }
            ],
            "name": "updateData",
            "outputs": [],
            "stateMutability": "nonpayable",
            "type": "function"
        },
        {
            "inputs": [
                {
                    "internalType": "uint256",
                    "name": "",
                    "type": "uint256"
                }
            ],
            "name": "valor",
            "outputs": [
                {
                    "internalType": "uint256",
                    "name": "",
                    "type": "uint256"
                }
            ],
            "stateMutability": "view",
            "type": "function"
        },
        {
            "inputs": [
                {
                    "internalType": "uint256",
                    "name": "",
                    "type": "uint256"
                }
            ],
            "name": "valorFee",
            "outputs": [
                {
                    "internalType": "uint256",
                    "name": "",
                    "type": "uint256"
                }
            ],
            "stateMutability": "view",
            "type": "function"
        },
        {
            "inputs": [
                {
                    "internalType": "uint256",
                    "name": "",
                    "type": "uint256"
                }
            ],
            "name": "wallet",
            "outputs": [
                {
                    "internalType": "address",
                    "name": "",
                    "type": "address"
                }
            ],
            "stateMutability": "view",
            "type": "function"
        },
        {
            "inputs": [
                {
                    "internalType": "uint256",
                    "name": "",
                    "type": "uint256"
                }
            ],
            "name": "walletFee",
            "outputs": [
                {
                    "internalType": "address",
                    "name": "",
                    "type": "address"
                }
            ],
            "stateMutability": "view",
            "type": "function"
        },
        {
            "inputs": [],
            "name": "withdraw",
            "outputs": [],
            "stateMutability": "nonpayable",
            "type": "function"
        },
        {
            "inputs": [],
            "name": "withdraw2",
            "outputs": [],
            "stateMutability": "nonpayable",
            "type": "function"
        },
        {
            "inputs": [],
            "name": "withdrawTeam",
            "outputs": [],
            "stateMutability": "nonpayable",
            "type": "function"
        },
        {
            "inputs": [
                {
                    "internalType": "address",
                    "name": "any_user",
                    "type": "address"
                },
                {
                    "internalType": "bool",
                    "name": "_infinity",
                    "type": "bool"
                }
            ],
            "name": "withdrawable",
            "outputs": [
                {
                    "internalType": "uint256",
                    "name": "",
                    "type": "uint256"
                }
            ],
            "stateMutability": "view",
            "type": "function"
        },
        {
            "inputs": [
                {
                    "internalType": "address",
                    "name": "any_user",
                    "type": "address"
                }
            ],
            "name": "withdrawableRange",
            "outputs": [
                {
                    "internalType": "uint256",
                    "name": "amount",
                    "type": "uint256"
                }
            ],
            "stateMutability": "view",
            "type": "function"
        },
        {
            "stateMutability": "payable",
            "type": "receive"
        }
    ],
    "bytecode": "600280547355d398326f99059ff775485246999027b31979556001600160a01b03199182168117909255600380548216831790556801a055690d9db800006004556802b5e3af16b1880000600655600780549091169091179055600160085561012060405260326080908152601e60a052601460c052600a60e08190526101005262000090906009906005620004ab565b506040805160a08101825260328152601e6020820152601491810191909152600a6060820181905260808201819052620000cc916005620004ab565b506040805160a08101825260058082526003602083015260029282019290925260016060820181905260808201526200010991600b9190620004ab565b506040805160a0810182526828a857425466f800008152685150ae84a8cdf00000602082015268cb49b44ba602d80000918101919091526901969368974c05b00000606082015269032d26d12e980b60000060808201526200017090600c90600562000500565b506040805160a081018252685150ae84a8cdf00000815269010f0cf064dd59200000602082015269043c33c193756480000091810191909152690a968163f0a57b4000006060820152691969368974c05b0000006080820152620001d990600d90600562000500565b50600e805460ff1916600190811790915561016d600f556103846010556201518060115560f0601255605f60135560026014556015819055601e8190556040805160208101909152730556a260b9ef10756bc2df281168697f353d1e8e81526200024791601f919062000549565b50604080516020808201909252606481526200026691906001620004ab565b50600060215560016022556040805160e081018252734490566647735e8cbce0ce96efc8fb91c164859b815273e201933ca7b5af514a1b0119bbc1072a066c06df602082015273e2283cb00b9c32727941728bede372005c6ca3119181019190915273763eb0a2a2925c45927dbf6432f191fc66fbcfa8606082015273deff65e4bcf19a52b0db33e57b7ce262fd5db53f6080820152738a6ac002b64bbba26e746d97d4050e71240b30b060a0820152730bddc342f66f46968a15bd1c16dbefa5b63a158860c08201526200034090602390600762000549565b506040805160e08101825260068152600560208201526002918101829052606081018290526080810182905260a0810191909152602f60c08201526200038b906024906007620004ab565b503480156200039957600080fd5b50600080546001600160a01b0319163390811782558152600160208181526040808420805460ff19908116851790915584546001600160a01b0316855260199092529092208054909216178155601154600f54620003f8919062000670565b6200040c90670de0b6b3a764000062000670565b62000418904262000692565b60018201556040805160a081018252600080825260208083018290528284018290526060830182905260808301829052338252601d90529190912062000460916005620005a1565b50507f584f46c60af19681376031579adb04a2416e54ee5505351c2a8435e3766026ea80546001600160a01b031916339081179091556000908152601c6020526040812055620006ad565b828054828255906000526020600020908101928215620004ee579160200282015b82811115620004ee578251829060ff16905591602001919060010190620004cc565b50620004fc92915062000643565b5090565b828054828255906000526020600020908101928215620004ee579160200282015b82811115620004ee57825182906001600160501b031690559160200191906001019062000521565b828054828255906000526020600020908101928215620004ee579160200282015b82811115620004ee57825182546001600160a01b0319166001600160a01b039091161782556020909201916001909101906200056a565b82805482825590600052602060002090601f01602090048101928215620004ee5791602002820160005b838211156200060a57835183826101000a81548160ff0219169083151502179055509260200192600101602081600001049283019260010302620005cb565b8015620006395782816101000a81549060ff02191690556001016020816000010492830192600103026200060a565b5050620004fc9291505b5b80821115620004fc576000815560010162000644565b634e487b7160e01b600052601160045260246000fd5b60008160001904831182151516156200068d576200068d6200065a565b500290565b60008219821115620006a857620006a86200065a565b500190565b613fd080620006bd6000396000f3fe6080604052600436106103fa5760003560e01c80637367b08011610211578063b139042611610122578063c40d5dbc116100b0578063ea98847b11610077578063ea98847b14610c8a578063edf5eb1d14610c9f578063f2fde38b14610cbf578063f90b3f5a14610cdf578063fd14d59814610cff57005b8063c40d5dbc14610bf7578063cb0e0d7d14610c0d578063cc759ba214610c3a578063db3be1a214610c50578063e7348e8c14610c7057005b8063b85ea335116100f4578063b85ea33514610b76578063bb51f32d14610b96578063bd9bee1914610bab578063bfe0e02014610bc1578063c17dbdf914610bd757005b8063b139042614610ae0578063b17b6e4414610b00578063b35f0a8f14610b20578063b3d9fa0914610b5657005b80638f9ef8c11161019f578063a365528b11610171578063a365528b14610a44578063a77d211914610a74578063a8beb71714610a8a578063aaa749c514610aaa578063ab6db19914610aca57005b80638f9ef8c1146109ce57806398c07d0a146109ee5780639b8ff50314610a0e578063a278133514610a2457005b80637fcc1e36116101e35780637fcc1e3614610910578063810328921461093d57806385338e201461095d57806389b2521c1461098e5780638da5cb5b146109ae57005b80637367b080146108a45780637b0412ed146108c45780637db9e9c6146108da5780637faee047146108f057005b80634de1be621161030b57806367f74aab116102995780636c5292791161026b5780636c529279146107f75780636f7bc9be1461080d57806370a0966b146108445780637251b9ac14610864578063725fc2701461088457005b806367f74aab1461078257806368446ead146107a257806369ed1e0a146107c257806369f4a84b146107e257005b806354822522116102dd57806354822522146106d25780635d216c60146106f2578063625509161461071257806363a846f8146107325780636589fa8a1461076257005b80634de1be621461066757806350188c081461068757806350da983f1461069c5780635216aeec146106bc57005b806329e1a24311610388578063348d44871161035a578063348d4487146105fa5780633ccfd60b146106105780634728f718146106255780634b9b82031461063b5780634bdcd4291461065157005b806329e1a2431461053c5780632a2d0c471461055c5780632acc8210146105aa5780632e8a03cf146105da57005b806321309f21116103cc57806321309f21146104b057806324de19f2146104d05780632748d29b146104e657806328cca7191461050657806329b8caff1461052657005b80631140e85b1461040357806315e8392b146104365780631ce7f99b146104635780631e403c351461048357005b3661040157005b005b34801561040f57600080fd5b5061042361041e366004613752565b610d14565b6040519081526020015b60405180910390f35b34801561044257600080fd5b50610456610451366004613783565b610e2c565b60405161042d91906137af565b34801561046f57600080fd5b5061045661047e3660046138d9565b610ec3565b34801561048f57600080fd5b506104a361049e36600461390d565b610f81565b60405161042d919061396a565b3480156104bc57600080fd5b506104236104cb366004613752565b61101f565b3480156104dc57600080fd5b5061042360065481565b3480156104f257600080fd5b50610423610501366004613752565b611040565b34801561051257600080fd5b50610423610521366004613752565b61106a565b34801561053257600080fd5b5061042360155481565b34801561054857600080fd5b50610423610557366004613752565b61107a565b34801561056857600080fd5b50610592610577366004613752565b601b602052600090815260409020546001600160a01b031681565b6040516001600160a01b03909116815260200161042d565b3480156105b657600080fd5b506105ca6105c5366004613783565b61108a565b604051901515815260200161042d565b3480156105e657600080fd5b506105ca6105f5366004613752565b6110cd565b34801561060657600080fd5b50610423601e5481565b34801561061c57600080fd5b506104016110f7565b34801561063157600080fd5b5061042360125481565b34801561064757600080fd5b5061042360115481565b34801561065d57600080fd5b5061042360055481565b34801561067357600080fd5b50610423610682366004613752565b611417565b34801561069357600080fd5b50610423611441565b3480156106a857600080fd5b506105ca6106b736600461397d565b61145f565b3480156106c857600080fd5b5061042360165481565b3480156106de57600080fd5b506104a36106ed36600461390d565b6114b3565b3480156106fe57600080fd5b506104a361070d36600461390d565b61154f565b34801561071e57600080fd5b5061042361072d366004613752565b6115eb565b34801561073e57600080fd5b506105ca61074d36600461397d565b60016020526000908152604090205460ff1681565b34801561076e57600080fd5b5061042361077d366004613752565b6115fb565b34801561078e57600080fd5b506105ca61079d3660046139a8565b611620565b3480156107ae57600080fd5b506104016107bd366004613a59565b611793565b3480156107ce57600080fd5b506104016107dd36600461397d565b6117bf565b3480156107ee57600080fd5b5061040161184d565b34801561080357600080fd5b5061042360045481565b34801561081957600080fd5b5061082d61082836600461397d565b6119dc565b60405161042d9b9a99989796959493929190613a8d565b34801561085057600080fd5b5061040161085f36600461397d565b611ac3565b34801561087057600080fd5b5061059261087f366004613752565b611b4b565b34801561089057600080fd5b5061042361089f366004613752565b611b75565b3480156108b057600080fd5b506104a36108bf366004613b92565b611b85565b3480156108d057600080fd5b5061042360135481565b3480156108e657600080fd5b5061042360215481565b3480156108fc57600080fd5b5061045661090b3660046138d9565b611c2f565b34801561091c57600080fd5b5061093061092b366004613bc6565b611d4c565b60405161042d9190613c91565b34801561094957600080fd5b50610423610958366004613752565b611dfb565b34801561096957600080fd5b506015546016546017546040805193845260208401929092529082015260600161042d565b34801561099a57600080fd5b506104236109a9366004613ca4565b611e0b565b3480156109ba57600080fd5b50600054610592906001600160a01b031681565b3480156109da57600080fd5b506104016109e9366004613cdd565b611e2c565b3480156109fa57600080fd5b50610423610a0936600461397d565b6121e5565b348015610a1a57600080fd5b5061042360185481565b348015610a3057600080fd5b50610592610a3f366004613752565b6123be565b348015610a5057600080fd5b50610a64610a5f366004613ca4565b6123ce565b60405161042d9493929190613d2c565b348015610a8057600080fd5b5061042360085481565b348015610a9657600080fd5b506105ca610aa5366004613d77565b61258f565b348015610ab657600080fd5b506105ca610ac5366004613752565b6125e1565b348015610ad657600080fd5b5061042360105481565b348015610aec57600080fd5b50600754610592906001600160a01b031681565b348015610b0c57600080fd5b506105ca610b1b366004613dd0565b61260b565b348015610b2c57600080fd5b50610592610b3b36600461397d565b601a602052600090815260409020546001600160a01b031681565b348015610b6257600080fd5b506105ca610b71366004613752565b61263e565b348015610b8257600080fd5b50610423610b91366004613752565b612668565b348015610ba257600080fd5b50610401612692565b348015610bb757600080fd5b5061042360225481565b348015610bcd57600080fd5b5061042360175481565b348015610be357600080fd5b50610401610bf2366004613752565b612936565b348015610c0357600080fd5b50610423600f5481565b348015610c1957600080fd5b50610423610c2836600461397d565b601c6020526000908152604090205481565b348015610c4657600080fd5b5061042360145481565b348015610c5c57600080fd5b506105ca610c6b366004613ded565b612e94565b348015610c7c57600080fd5b50600e546105ca9060ff1681565b348015610c9657600080fd5b50610401612ee8565b348015610cab57600080fd5b50610423610cba366004613752565b6131df565b348015610ccb57600080fd5b50610401610cda36600461397d565b6131ef565b348015610ceb57600080fd5b50610423610cfa366004613752565b61327d565b348015610d0b57600080fd5b506104236132a2565b600080546001600160a01b0316336001600160a01b031614610d3557600080fd5b6003546040516370a0823160e01b815230600482015283916001600160a01b0316906370a0823190602401602060405180830381865afa158015610d7d573d6000803e3d6000fd5b505050506040513d601f19601f82011682018060405250810190610da19190613e59565b1015610dac57600080fd5b60035460005460405163a9059cbb60e01b81526001600160a01b039283169263a9059cbb92610de2929116908690600401613e72565b6020604051808303816000875af1158015610e01573d6000803e3d6000fd5b505050506040513d601f19601f82011682018060405250810190610e259190613e8b565b5090919050565b60608060005b83811015610eb957610e4382610ec3565b6001600160a01b038087166000908152601a602052604090205482519294501690839083908110610e7657610e76613ea8565b6001600160a01b039283166020918202929092018101919091529581166000908152601a9096526040909520549094169380610eb181613ed4565b915050610e32565b5090505b92915050565b6060600082516001610ed59190613eef565b6001600160401b03811115610eec57610eec6137fc565b604051908082528060200260200182016040528015610f15578160200160208202803683370190505b50905060005b8351811015610f7a57838181518110610f3657610f36613ea8565b6020026020010151828281518110610f5057610f50613ea8565b6001600160a01b039092166020928302919091019091015280610f7281613ed4565b915050610f1b565b5092915050565b6000546060906001600160a01b0316336001600160a01b031614610fa457600080fd5b81600a8481548110610fb857610fb8613ea8565b9060005260206000200181905550600a80548060200260200160405190810160405280929190818152602001828054801561101257602002820191906000526020600020905b815481526020019060010190808311610ffe575b5050505050905092915050565b600d818154811061102f57600080fd5b600091825260209091200154905081565b600080546001600160a01b0316336001600160a01b03161461106157600080fd5b50601181905590565b600a818154811061102f57600080fd5b6020818154811061102f57600080fd5b601d60205281600052604060002081815481106110a657600080fd5b9060005260206000209060209182820401919006915091509054906101000a900460ff1681565b600080546001600160a01b0316336001600160a01b0316146110ee57600080fd5b50600655600190565b600e5460ff1661110657600080fd5b33600081815260196020526040812091611121906000611e0b565b6003546040516370a0823160e01b815230600482015291925082916001600160a01b03909116906370a0823190602401602060405180830381865afa15801561116e573d6000803e3d6000fd5b505050506040513d601f19601f820116820180604052508101906111929190613e59565b101561119d57600080fd5b6004548110156111ac57600080fd5b60016022541061134c5760005b601f548110156112b957600354601f80546001600160a01b039092169163a9059cbb9190849081106111ed576111ed613ea8565b9060005260206000200160009054906101000a90046001600160a01b031661124660646112406020878154811061122657611226613ea8565b90600052602060002001548861330490919063ffffffff16565b90613336565b6040518363ffffffff1660e01b8152600401611263929190613e72565b6020604051808303816000875af1158015611282573d6000803e3d6000fd5b505050506040513d601f19601f820116820180604052508101906112a69190613e8b565b50806112b181613ed4565b9150506111b9565b506003546001600160a01b031663a9059cbb336112e660646112406013548761330490919063ffffffff16565b6040518363ffffffff1660e01b8152600401611303929190613e72565b6020604051808303816000875af1158015611322573d6000803e3d6000fd5b505050506040513d601f19601f820116820180604052508101906113469190613e8b565b506113da565b6003546001600160a01b031663a9059cbb3361137860646112406013548761330490919063ffffffff16565b6040518363ffffffff1660e01b8152600401611395929190613e72565b6020604051808303816000875af11580156113b4573d6000803e3d6000fd5b505050506040513d601f19601f820116820180604052508101906113d89190613e8b565b505b808260070160008282546113ee9190613eef565b90915550504260058301556018805482919060009061140e908490613eef565b90915550505050565b600080546001600160a01b0316336001600160a01b03161461143857600080fd5b50600481905590565b600061145a60115460105461330490919063ffffffff16565b905090565b600080546001600160a01b0316336001600160a01b03161461148057600080fd5b50600380546001600160a01b0383166001600160a01b031991821681179092556007805490911690911790556001919050565b6000546060906001600160a01b0316336001600160a01b0316146114d657600080fd5b81600984815481106114ea576114ea613ea8565b906000526020600020018190555060098054806020026020016040519081016040528092919081815260200182805480156110125760200282019190600052602060002090815481526020019060010190808311610ffe575050505050905092915050565b6000546060906001600160a01b0316336001600160a01b03161461157257600080fd5b81600b848154811061158657611586613ea8565b9060005260206000200181905550600b8054806020026020016040519081016040528092919081815260200182805480156110125760200282019190600052602060002090815481526020019060010190808311610ffe575050505050905092915050565b6024818154811061102f57600080fd5b3360009081526001602052604081205460ff1661161757600080fd5b50601281905590565b3360009081526001602052604081205460ff1661163c57600080fd5b600083116116915760405162461bcd60e51b815260206004820152601e60248201527f63616e7469646164206d696e696d6120646520626c6f6b65732065732031000060448201526064015b60405180910390fd5b6001600160a01b0384166000908152601960205260409020805460ff166116b757600080fd5b6000846006546116c79190613f07565b905081600a016040518060a001604052804281526020016116f860646112406012548761330490919063ffffffff16565b815260200161171760646112406012548761330490919063ffffffff16565b8152600060208083018290528815156040938401528454600181810187559583529181902084516004909302019182558301518185015590820151600282015560608201516003909101805460809093015115156101000261ff00199215159290921661ffff1990931692909217179055925050509392505050565b336000908152601960209081526040909120825190916117ba91600984019185019061358a565b505050565b6000546001600160a01b0316336001600160a01b0316146117df57600080fd5b6001600160a01b0381166117f257600080fd5b6040516001600160a01b038216907f71614071b88dee5e0b2ae578a9dd7b2ebbe9ae832ba419dc0242cd065a290b6c90600090a26001600160a01b03166000908152600160208190526040909120805460ff19169091179055565b600e5460ff1661185c57600080fd5b6000611867336121e5565b905060005b600c548110156119d857600d818154811061188957611889613ea8565b906000526020600020015482101580156118e15750336000908152601d602052604090208054829081106118bf576118bf613ea8565b90600052602060002090602091828204019190069054906101000a900460ff16155b156119c6576003546001600160a01b031663a9059cbb33600c848154811061190b5761190b613ea8565b90600052602060002001546040518363ffffffff1660e01b8152600401611933929190613e72565b6020604051808303816000875af1158015611952573d6000803e3d6000fd5b505050506040513d601f19601f820116820180604052508101906119769190613e8b565b50336000908152601d602052604090208054600191908390811061199c5761199c613ea8565b90600052602060002090602091828204019190066101000a81548160ff0219169083151502179055505b806119d081613ed4565b91505061186c565b5050565b601960205260009081526040902080546001820154600283015460038401546004850154600586015460068701546007880154600889015460098a01805460ff909a169a9899979896979596949593949293919291611a3a90613f26565b80601f0160208091040260200160405190810160405280929190818152602001828054611a6690613f26565b8015611ab35780601f10611a8857610100808354040283529160200191611ab3565b820191906000526020600020905b815481529060010190602001808311611a9657829003601f168201915b50505050509080600b015490508b565b6000546001600160a01b0316336001600160a01b031614611ae357600080fd5b6001600160a01b038116611af657600080fd5b6040516001600160a01b038216907fa3b62bc36326052d97ea62d63c3d60308ed4c3ea8ac079dd8499f1e9c4f80c0f90600090a26001600160a01b03166000908152600160205260409020805460ff19169055565b601f8181548110611b5b57600080fd5b6000918252602090912001546001600160a01b0316905081565b6009818154811061102f57600080fd5b6060600082516001611b979190613eef565b6001600160401b03811115611bae57611bae6137fc565b604051908082528060200260200182016040528015611bd7578160200160208202803683370190505b50905060005b8351811015610f7a57838181518110611bf857611bf8613ea8565b6020026020010151828281518110611c1257611c12613ea8565b602090810291909101015280611c2781613ed4565b915050611bdd565b60606000805b8351811015611d445760196000858381518110611c5457611c54613ea8565b60200260200101516001600160a01b03166001600160a01b0316815260200190815260200160002091506000805b8551811015611cd557858181518110611c9d57611c9d613ea8565b60200260200101516001600160a01b0316826001600160a01b03161415611cc357600091505b80611ccd81613ed4565b915050611c82565b506001600160a01b03811615611d3157611cee85610ec3565b9450808560018751611d009190613f61565b81518110611d1057611d10613ea8565b60200260200101906001600160a01b031690816001600160a01b0316815250505b5080611d3c81613ed4565b915050611c35565b509192915050565b6060600082516001611d5e9190613eef565b6001600160401b03811115611d7557611d756137fc565b604051908082528060200260200182016040528015611d9e578160200160208202803683370190505b50905060005b8351811015610f7a57838181518110611dbf57611dbf613ea8565b6020026020010151828281518110611dd957611dd9613ea8565b9115156020928302919091019091015280611df381613ed4565b915050611da4565b600c818154811061102f57600080fd5b600060608060606000611e1e87876123ce565b9a9950505050505050505050565b33600090815260196020526040902060215415611f64576021546003546001600160a01b031663dd62ed3e336040516001600160e01b031960e084901b1681526001600160a01b039091166004820152306024820152604401602060405180830381865afa158015611ea2573d6000803e3d6000fd5b505050506040513d601f19601f82011682018060405250810190611ec69190613e59565b1015611ed157600080fd5b6003546001600160a01b03166323b872dd336021546040516001600160e01b031960e085901b1681526001600160a01b03909216600483015230602483015260448201526064016020604051808303816000875af1158015611f37573d6000803e3d6000fd5b505050506040513d601f19601f82011682018060405250810190611f5b9190613e8b565b611f6457600080fd5b60026022541061206f5760005b60235481101561206d57600354601f80546001600160a01b039092169163a9059cbb919084908110611fa557611fa5613ea8565b9060005260206000200160009054906101000a90046001600160a01b0316611ffa606461124060208781548110611fde57611fde613ea8565b906000526020600020015460215461330490919063ffffffff16565b6040518363ffffffff1660e01b8152600401612017929190613e72565b6020604051808303816000875af1158015612036573d6000803e3d6000fd5b505050506040513d601f19601f8201168201806040525081019061205a9190613e8b565b508061206581613ed4565b915050611f71565b505b805460ff166121a557805460ff19166001178155601154600f546120939190613f07565b61209d9042613eef565b6001820155336000908152601a6020526040902080546001600160a01b0319166001600160a01b03851690811790915515612102576001600160a01b038316600090815260196020526040812060088101805491926120fb83613ed4565b9190505550505b6015805490600061211283613ed4565b90915550506040805160a081018252600080825260208083018290528284018290526060830182905260808301829052338252601d90529190912061215891600561360e565b50601e80546000908152601b6020908152604080832080546001600160a01b031916339081179091558454908452601c9092528220819055919061219b83613ed4565b91905055506121ca565b601154600f546121b59190613f07565b81600101546121c49190613eef565b60018201555b81516121df906009830190602085019061358a565b50505050565b6001600160a01b0381166000908152601960209081526040808320815161018081018352815460ff16151581526001820154938101939093526002810154918301919091526003810154606083015260048101546080830152600581015460a0830152600681015460c0830152600781015460e083015260088101546101008301526009810180548493929161012084019161228090613f26565b80601f01602080910402602001604051908101604052809291908181526020018280546122ac90613f26565b80156122f95780601f106122ce576101008083540402835291602001916122f9565b820191906000526020600020905b8154815290600101906020018083116122dc57829003601f168201915b50505050508152602001600a8201805480602002602001604051908101604052809291908181526020016000905b828210156123905760008481526020908190206040805160a0810182526004860290920180548352600180820154848601526002820154928401929092526003015460ff8082161515606085015261010090910416151560808301529083529092019101612327565b505050508152602001600b8201548152505090506006548161016001516123b79190613f07565b9392505050565b60238181548110611b5b57600080fd5b6001600160a01b0382166000908152601960205260408120606091829182919082808084805b600a86015481101561257d5761240985611b85565b945061241484611b85565b935061241f83611d4c565b9250600086600a01828154811061243857612438613ea8565b90600052602060002090600402019050806000015485838151811061245f5761245f613ea8565b6020026020010181815250506000612475611441565b82546124819190613eef565b90506000826000015489600501541161249b5782546124a1565b88600501545b905060008242116124b257426124b4565b825b905081158015906124c457508082105b15612543578360030160019054906101000a900460ff1615158f1515141561251e576124ee611441565b6124f88383613f61565b85600201546125079190613f07565b6125119190613f78565b61251b9087613eef565b95505b600187868151811061253257612532613ea8565b911515602092830291909101909101525b836002015489868151811061255a5761255a613ea8565b60200260200101818152505050505050808061257590613ed4565b9150506123f4565b50929a91995097509095509350505050565b600080546001600160a01b0316336001600160a01b0316146125b057600080fd5b82516125c39060239060208601906136ae565b5081516125d7906024906020850190613703565b5060019392505050565b600080546001600160a01b0316336001600160a01b03161461260257600080fd5b50602155600190565b600080546001600160a01b0316336001600160a01b03161461262c57600080fd5b50600e805460ff191682151517905590565b600080546001600160a01b0316336001600160a01b03161461265f57600080fd5b50601355600190565b600080546001600160a01b0316336001600160a01b03161461268957600080fd5b50600881905590565b600e5460ff166126a157600080fd5b6000601981336001600160a01b03908116825260208201929092526040908101600020600281015460035492516370a0823160e01b815230600482015291945092839216906370a0823190602401602060405180830381865afa15801561270c573d6000803e3d6000fd5b505050506040513d601f19601f820116820180604052508101906127309190613e59565b10156127955760405162461bcd60e51b815260206004820152602e60248201527f6e6f206861792073616c646f20656e20656c20636f6e747261746f207061726160448201526d20686163657220656c207061676f60901b6064820152608401611688565b6004548110156127a457600080fd5b60016022541061291f5760005b601f5481101561289157600354601f80546001600160a01b039092169163a9059cbb9190849081106127e5576127e5613ea8565b9060005260206000200160009054906101000a90046001600160a01b031661281e60646112406020878154811061122657611226613ea8565b6040518363ffffffff1660e01b815260040161283b929190613e72565b6020604051808303816000875af115801561285a573d6000803e3d6000fd5b505050506040513d601f19601f8201168201806040525081019061287e9190613e8b565b508061288981613ed4565b9150506127b1565b506003546001600160a01b031663a9059cbb335b6128bf60646112406013548761330490919063ffffffff16565b6040518363ffffffff1660e01b81526004016128dc929190613e72565b6020604051808303816000875af11580156128fb573d6000803e3d6000fd5b505050506040513d601f19601f820116820180604052508101906117ba9190613e8b565b6003546001600160a01b031663a9059cbb336128a5565b600081116129865760405162461bcd60e51b815260206004820152601e60248201527f63616e7469646164206d696e696d6120646520626c6f6b6573206573203100006044820152606401611688565b336000908152601960205260409020805460ff166129db5760405162461bcd60e51b81526020600482015260126024820152716e6f2065737461207265676973747261646f60701b6044820152606401611688565b80600101544210612a245760405162461bcd60e51b815260206004820152601360248201527206e6f207469656e65206d656d6265727368697606c1b6044820152606401611688565b600082600654612a349190613f07565b60035490915081906001600160a01b031663dd62ed3e336040516001600160e01b031960e084901b1681526001600160a01b039091166004820152306024820152604401602060405180830381865afa158015612a95573d6000803e3d6000fd5b505050506040513d601f19601f82011682018060405250810190612ab99190613e59565b1015612b075760405162461bcd60e51b815260206004820152601b60248201527f73616c646f206170726f7661646f20696e737566696369656e746500000000006044820152606401611688565b6003546001600160a01b03166323b872dd336040516001600160e01b031960e084901b1681526001600160a01b039091166004820152306024820152604481018490526064016020604051808303816000875af1158015612b6c573d6000803e3d6000fd5b505050506040513d601f19601f82011682018060405250810190612b909190613e8b565b612bd35760405162461bcd60e51b81526020600482015260146024820152737472616e666572656e6369612066616c6c69646160601b6044820152606401611688565b336000908152601a60205260409020546001600160a01b031615612cb857600854600a8301541015612c5f57612c5a33826009805480602002602001604051908101604052809291908181526020018280548015612c5057602002820191906000526020600020905b815481526020019060010190808311612c3c575b5050505050613358565b612cb8565b612cb83382600a805480602002602001604051908101604052809291908181526020018280548015612c505760200282019190600052602060002090815481526020019060010190808311612c3c575050505050613358565b81600a016040518060a00160405280428152602001612ce760646112406012548761330490919063ffffffff16565b8152602001612d0660646112406012548761330490919063ffffffff16565b815260016020808301829052600060409384018190528554808401875595815281812085516004978802909101908155918501519282019290925591830151600283015560608301516003909201805460809094015115156101000261ff00199315159390931661ffff1990941693909317919091179091559083018054839290612d92908490613eef565b925050819055508060166000828254612dab9190613eef565b90915550600090505b6023548110156121df57600354602380546001600160a01b039092169163a9059cbb919084908110612de857612de8613ea8565b9060005260206000200160009054906101000a90046001600160a01b0316612e2160646112406024878154811061122657611226613ea8565b6040518363ffffffff1660e01b8152600401612e3e929190613e72565b6020604051808303816000875af1158015612e5d573d6000803e3d6000fd5b505050506040513d601f19601f82011682018060405250810190612e819190613e8b565b5080612e8c81613ed4565b915050612db4565b600080546001600160a01b0316336001600160a01b031614612eb557600080fd5b8351612ec890601f9060208701906136ae565b508251612edb9060209081860190613703565b5050602255506001919050565b600e5460ff16612ef757600080fd5b33600081815260196020526040812091612f12906001611e0b565b6003546040516370a0823160e01b815230600482015291925082916001600160a01b03909116906370a0823190602401602060405180830381865afa158015612f5f573d6000803e3d6000fd5b505050506040513d601f19601f82011682018060405250810190612f839190613e59565b1015612f8e57600080fd5b600454811015612f9d57600080fd5b60016022541061311d5760005b601f5481101561308a57600354601f80546001600160a01b039092169163a9059cbb919084908110612fde57612fde613ea8565b9060005260206000200160009054906101000a90046001600160a01b031661301760646112406020878154811061122657611226613ea8565b6040518363ffffffff1660e01b8152600401613034929190613e72565b6020604051808303816000875af1158015613053573d6000803e3d6000fd5b505050506040513d601f19601f820116820180604052508101906130779190613e8b565b508061308281613ed4565b915050612faa565b506003546001600160a01b031663a9059cbb336130b760646112406013548761330490919063ffffffff16565b6040518363ffffffff1660e01b81526004016130d4929190613e72565b6020604051808303816000875af11580156130f3573d6000803e3d6000fd5b505050506040513d601f19601f820116820180604052508101906131179190613e8b565b506131ab565b6003546001600160a01b031663a9059cbb3361314960646112406013548761330490919063ffffffff16565b6040518363ffffffff1660e01b8152600401613166929190613e72565b6020604051808303816000875af1158015613185573d6000803e3d6000fd5b505050506040513d601f19601f820116820180604052508101906131a99190613e8b565b505b808260070160008282546131bf9190613eef565b90915550504260068301556018805482919060009061140e908490613eef565b600b818154811061102f57600080fd5b6000546001600160a01b0316336001600160a01b03161461320f57600080fd5b6001600160a01b03811661322257600080fd5b600080546040516001600160a01b03808516939216917f8be0079c531659141344cd1fd0a4f28419497f9722a3daafe3b4186f6b6457e091a3600080546001600160a01b0319166001600160a01b0392909216919091179055565b3360009081526001602052604081205460ff1661329957600080fd5b50601081905590565b600080546001600160a01b0316336001600160a01b0316146132c357600080fd5b600080546040516001600160a01b03909116914780156108fc02929091818181858888f193505050501580156132fd573d6000803e3d6000fd5b5047905090565b60008261331357506000610ebd565b600061331f8385613f07565b90508261332c8583613f78565b146123b757600080fd5b600080821161334457600080fd5b60006133508385613f78565b949350505050565b6060613365848351610e2c565b905060008060005b84518110156135815784818151811061338857613388613ea8565b602002602001015160001461356a57601960008583815181106133ad576133ad613ea8565b6020908102919091018101516001600160a01b03168252810191909152604001600020805490925060ff1680156133e8575042826001015410155b1561356f5760006001600160a01b031684828151811061340a5761340a613ea8565b60200260200101516001600160a01b03161461356a576134526103e861124087848151811061343b5761343b613ea8565b60200260200101518961330490919063ffffffff16565b9250828260020160008282546134689190613eef565b92505081905550828260030160008282546134839190613eef565b9250508190555081600a016040518060a001604052804281526020016134ba6103e86112406012548961330490919063ffffffff16565b81526020016134da6103e86112406012548961330490919063ffffffff16565b81526001602080830182905260409283018290528454808301865560009586528186208551600490920201908155908401519181019190915590820151600282015560608201516003909101805460809093015115156101000261ff00199215159290921661ffff19909316929092171790556017805485929061355f908490613eef565b9091555061356f9050565b613581565b8061357981613ed4565b91505061336d565b50505050505050565b82805461359690613f26565b90600052602060002090601f0160209004810192826135b857600085556135fe565b82601f106135d157805160ff19168380011785556135fe565b828001600101855582156135fe579182015b828111156135fe5782518255916020019190600101906135e3565b5061360a92915061373d565b5090565b82805482825590600052602060002090601f016020900481019282156135fe5791602002820160005b8382111561367457835183826101000a81548160ff0219169083151502179055509260200192600101602081600001049283019260010302613637565b80156136a15782816101000a81549060ff0219169055600101602081600001049283019260010302613674565b505061360a92915061373d565b8280548282559060005260206000209081019282156135fe579160200282015b828111156135fe57825182546001600160a01b0319166001600160a01b039091161782556020909201916001909101906136ce565b8280548282559060005260206000209081019282156135fe57916020028201828111156135fe5782518255916020019190600101906135e3565b5b8082111561360a576000815560010161373e565b60006020828403121561376457600080fd5b5035919050565b6001600160a01b038116811461378057600080fd5b50565b6000806040838503121561379657600080fd5b82356137a18161376b565b946020939093013593505050565b6020808252825182820181905260009190848201906040850190845b818110156137f05783516001600160a01b0316835292840192918401916001016137cb565b50909695505050505050565b634e487b7160e01b600052604160045260246000fd5b604051601f8201601f191681016001600160401b038111828210171561383a5761383a6137fc565b604052919050565b60006001600160401b0382111561385b5761385b6137fc565b5060051b60200190565b600082601f83011261387657600080fd5b8135602061388b61388683613842565b613812565b82815260059290921b840181019181810190868411156138aa57600080fd5b8286015b848110156138ce5780356138c18161376b565b83529183019183016138ae565b509695505050505050565b6000602082840312156138eb57600080fd5b81356001600160401b0381111561390157600080fd5b61335084828501613865565b6000806040838503121561392057600080fd5b50508035926020909101359150565b600081518084526020808501945080840160005b8381101561395f57815187529582019590820190600101613943565b509495945050505050565b6020815260006123b7602083018461392f565b60006020828403121561398f57600080fd5b81356123b78161376b565b801515811461378057600080fd5b6000806000606084860312156139bd57600080fd5b83356139c88161376b565b92506020840135915060408401356139df8161399a565b809150509250925092565b600082601f8301126139fb57600080fd5b81356001600160401b03811115613a1457613a146137fc565b613a27601f8201601f1916602001613812565b818152846020838601011115613a3c57600080fd5b816020850160208301376000918101602001919091529392505050565b600060208284031215613a6b57600080fd5b81356001600160401b03811115613a8157600080fd5b613350848285016139ea565b60006101608d1515835260208d818501528c60408501528b60608501528a60808501528960a08501528860c08501528760e0850152866101008501528161012085015285518083860152600092505b80831015613afb57868301820151858401610180015291810191613adc565b80831115613b0e57600061018082870101525b610140850195909552505050601f91909101601f191601610180019a9950505050505050505050565b600082601f830112613b4857600080fd5b81356020613b5861388683613842565b82815260059290921b84018101918181019086841115613b7757600080fd5b8286015b848110156138ce5780358352918301918301613b7b565b600060208284031215613ba457600080fd5b81356001600160401b03811115613bba57600080fd5b61335084828501613b37565b60006020808385031215613bd957600080fd5b82356001600160401b03811115613bef57600080fd5b8301601f81018513613c0057600080fd5b8035613c0e61388682613842565b81815260059190911b82018301908381019087831115613c2d57600080fd5b928401925b82841015613c54578335613c458161399a565b82529284019290840190613c32565b979650505050505050565b600081518084526020808501945080840160005b8381101561395f578151151587529582019590820190600101613c73565b6020815260006123b76020830184613c5f565b60008060408385031215613cb757600080fd5b8235613cc28161376b565b91506020830135613cd28161399a565b809150509250929050565b60008060408385031215613cf057600080fd5b8235613cfb8161376b565b915060208301356001600160401b03811115613d1657600080fd5b613d22858286016139ea565b9150509250929050565b608081526000613d3f608083018761392f565b8281036020840152613d51818761392f565b90508281036040840152613d658186613c5f565b91505082606083015295945050505050565b60008060408385031215613d8a57600080fd5b82356001600160401b0380821115613da157600080fd5b613dad86838701613865565b93506020850135915080821115613dc357600080fd5b50613d2285828601613b37565b600060208284031215613de257600080fd5b81356123b78161399a565b600080600060608486031215613e0257600080fd5b83356001600160401b0380821115613e1957600080fd5b613e2587838801613865565b94506020860135915080821115613e3b57600080fd5b50613e4886828701613b37565b925050604084013590509250925092565b600060208284031215613e6b57600080fd5b5051919050565b6001600160a01b03929092168252602082015260400190565b600060208284031215613e9d57600080fd5b81516123b78161399a565b634e487b7160e01b600052603260045260246000fd5b634e487b7160e01b600052601160045260246000fd5b6000600019821415613ee857613ee8613ebe565b5060010190565b60008219821115613f0257613f02613ebe565b500190565b6000816000190483118215151615613f2157613f21613ebe565b500290565b600181811c90821680613f3a57607f821691505b60208210811415613f5b57634e487b7160e01b600052602260045260246000fd5b50919050565b600082821015613f7357613f73613ebe565b500390565b600082613f9557634e487b7160e01b600052601260045260246000fd5b50049056fea2646970667358221220bbf12a5e513135357d4f47b280ea56bae5227dcb458ebd4f8702bf53ab20bce064736f6c634300080a0033",
    "sourcePath": "c:/Users/STC/Documents/GitHub/0-INFINITY-BLOCKS-TEST-UNILEVEL/contracts/UnilevelSystem.sol",
    "compiler": {
        "name": "solc",
        "version": "0.8.10+commit.fc410830"
    },
    "functionHashes": {
        "ChangeTokenPrincipal(address)": "50da983f",
        "MIN_RETIRO()": "6c529279",
        "MIN_RETIRO_interno()": "4bdcd429",
        "PRECIO_BLOCK()": "24de19f2",
        "activerFee()": "bd9bee19",
        "actualizarArrayBool(bool[])": "7fcc1e36",
        "actualizarArrayUint256(uint256[])": "7367b080",
        "actualizarNetwork(address[])": "1ce7f99b",
        "addressToId(address)": "cb0e0d7d",
        "admin(address)": "63a846f8",
        "allnetwork(address[])": "7faee047",
        "asignarBloke(address,uint256,bool)": "67f74aab",
        "buyBlocks(uint256)": "c17dbdf9",
        "column(address,uint256)": "15e8392b",
        "controlWitdrawl(bool)": "b17b6e44",
        "depositos(address,bool)": "a365528b",
        "descuento()": "7b0412ed",
        "dias()": "ab6db199",
        "duracionMembership()": "c40d5dbc",
        "gananciasRango(uint256)": "81032892",
        "idToAddress(uint256)": "2a2d0c47",
        "infinity(uint256)": "edf5eb1d",
        "inversiones()": "a77d2119",
        "investors(address)": "6f7bc9be",
        "lastUserId()": "348d4487",
        "makeNewAdmin(address)": "69ed1e0a",
        "makeRemoveAdmin(address)": "70a0966b",
        "newRecompensa()": "69f4a84b",
        "onOffWitdrawl()": "e7348e8c",
        "owner()": "8da5cb5b",
        "padre(address)": "b35f0a8f",
        "personas()": "cc759ba2",
        "porcent()": "4728f718",
        "porcientos(uint256)": "28cca719",
        "precioRegistro()": "7db9e9c6",
        "primervez(uint256)": "725fc270",
        "puntosRango(uint256)": "21309f21",
        "rangoReclamado(address,uint256)": "2acc8210",
        "redimBNB()": "fd14d598",
        "redimTokenPrincipal02(uint256)": "1140e85b",
        "registro(address,string)": "8f9ef8c1",
        "setDescuento(uint256)": "b3d9fa09",
        "setInversiones(uint256)": "b85ea335",
        "setMIN_RETIRO(uint256)": "4de1be62",
        "setPorcientos(uint256,uint256)": "1e403c35",
        "setPorcientosSalida(uint256,uint256)": "5d216c60",
        "setPrecioRegistro(uint256)": "aaa749c5",
        "setPriceBlock(uint256)": "2e8a03cf",
        "setPrimeravezPorcientos(uint256,uint256)": "54822522",
        "setRetorno(uint256)": "6589fa8a",
        "setTiempo(uint256)": "f90b3f5a",
        "setTiempoUnidades(uint256)": "2748d29b",
        "setWalletFee(address[],uint256[],uint256)": "db3be1a2",
        "setWalletstransfers(address[],uint256[])": "a8beb717",
        "setstate()": "85338e20",
        "tiempo()": "50188c08",
        "tokenPricipal()": "b1390426",
        "totalInvested()": "5216aeec",
        "totalInvestors()": "29b8caff",
        "totalRefRewards()": "bfe0e020",
        "totalRefWitdrawl()": "9b8ff503",
        "transferOwnership(address)": "f2fde38b",
        "unidades()": "4b9b8203",
        "updateData(string)": "68446ead",
        "valor(uint256)": "62550916",
        "valorFee(uint256)": "29e1a243",
        "wallet(uint256)": "a2781335",
        "walletFee(uint256)": "7251b9ac",
        "withdraw()": "3ccfd60b",
        "withdraw2()": "ea98847b",
        "withdrawTeam()": "bb51f32d",
        "withdrawable(address,bool)": "89b2521c",
        "withdrawableRange(address)": "98c07d0a"
    },
    "gasEstimates": {
        "creation": {
            "codeDepositCost": "3267200",
            "executionCost": "infinite",
            "totalCost": "infinite"
        },
        "external": {
            "": "231",
            "ChangeTokenPrincipal(address)": "51139",
            "MIN_RETIRO()": "2351",
            "MIN_RETIRO_interno()": "2440",
            "PRECIO_BLOCK()": "2375",
            "activerFee()": "2395",
            "actualizarArrayBool(bool[])": "infinite",
            "actualizarArrayUint256(uint256[])": "infinite",
            "actualizarNetwork(address[])": "infinite",
            "addressToId(address)": "2591",
            "admin(address)": "2659",
            "allnetwork(address[])": "infinite",
            "asignarBloke(address,uint256,bool)": "infinite",
            "buyBlocks(uint256)": "infinite",
            "column(address,uint256)": "infinite",
            "controlWitdrawl(bool)": "26833",
            "depositos(address,bool)": "infinite",
            "descuento()": "2375",
            "dias()": "2439",
            "duracionMembership()": "2351",
            "gananciasRango(uint256)": "4654",
            "idToAddress(uint256)": "2568",
            "infinity(uint256)": "4652",
            "inversiones()": "2373",
            "investors(address)": "infinite",
            "lastUserId()": "2352",
            "makeNewAdmin(address)": "28088",
            "makeRemoveAdmin(address)": "28069",
            "newRecompensa()": "infinite",
            "onOffWitdrawl()": "2465",
            "owner()": "2493",
            "padre(address)": "2664",
            "personas()": "2395",
            "porcent()": "2396",
            "porcientos(uint256)": "4699",
            "precioRegistro()": "2397",
            "primervez(uint256)": "4719",
            "puntosRango(uint256)": "4633",
            "rangoReclamado(address,uint256)": "6516",
            "redimBNB()": "infinite",
            "redimTokenPrincipal02(uint256)": "infinite",
            "registro(address,string)": "infinite",
            "setDescuento(uint256)": "24690",
            "setInversiones(uint256)": "24609",
            "setMIN_RETIRO(uint256)": "24611",
            "setPorcientos(uint256,uint256)": "infinite",
            "setPorcientosSalida(uint256,uint256)": "infinite",
            "setPrecioRegistro(uint256)": "24689",
            "setPriceBlock(uint256)": "24691",
            "setPrimeravezPorcientos(uint256,uint256)": "infinite",
            "setRetorno(uint256)": "24728",
            "setTiempo(uint256)": "24704",
            "setTiempoUnidades(uint256)": "24655",
            "setWalletFee(address[],uint256[],uint256)": "infinite",
            "setWalletstransfers(address[],uint256[])": "infinite",
            "setstate()": "6640",
            "tiempo()": "infinite",
            "tokenPricipal()": "2405",
            "totalInvested()": "2419",
            "totalInvestors()": "2441",
            "totalRefRewards()": "2417",
            "totalRefWitdrawl()": "2396",
            "transferOwnership(address)": "30522",
            "unidades()": "2418",
            "updateData(string)": "infinite",
            "valor(uint256)": "4676",
            "valorFee(uint256)": "4633",
            "wallet(uint256)": "4748",
            "walletFee(uint256)": "4747",
            "withdraw()": "infinite",
            "withdraw2()": "infinite",
            "withdrawTeam()": "infinite",
            "withdrawable(address,bool)": "infinite",
            "withdrawableRange(address)": "infinite"
        },
        "internal": {
            "rewardReferers(address,uint256,uint256[] memory)": "infinite"
        }
    }
}