{
    "contractName": "UnilevelSystem",
    "abi": [
        {
            "inputs": [],
            "stateMutability": "nonpayable",
            "type": "constructor"
        },
        {
            "anonymous": false,
            "inputs": [
                {
                    "indexed": true,
                    "internalType": "address",
                    "name": "admin",
                    "type": "address"
                }
            ],
            "name": "AdminRemoved",
            "type": "event"
        },
        {
            "anonymous": false,
            "inputs": [
                {
                    "indexed": true,
                    "internalType": "address",
                    "name": "admin",
                    "type": "address"
                }
            ],
            "name": "NewAdmin",
            "type": "event"
        },
        {
            "anonymous": false,
            "inputs": [
                {
                    "indexed": true,
                    "internalType": "address",
                    "name": "previousOwner",
                    "type": "address"
                },
                {
                    "indexed": true,
                    "internalType": "address",
                    "name": "newOwner",
                    "type": "address"
                }
            ],
            "name": "OwnershipTransferred",
            "type": "event"
        },
        {
            "stateMutability": "payable",
            "type": "fallback"
        },
        {
            "inputs": [
                {
                    "internalType": "address",
                    "name": "_tokenTRC20",
                    "type": "address"
                }
            ],
            "name": "ChangeTokenPrincipal",
            "outputs": [
                {
                    "internalType": "bool",
                    "name": "",
                    "type": "bool"
                }
            ],
            "stateMutability": "nonpayable",
            "type": "function"
        },
        {
            "inputs": [],
            "name": "MIN_RETIRO",
            "outputs": [
                {
                    "internalType": "uint256",
                    "name": "",
                    "type": "uint256"
                }
            ],
            "stateMutability": "view",
            "type": "function"
        },
        {
            "inputs": [],
            "name": "MIN_RETIRO_interno",
            "outputs": [
                {
                    "internalType": "uint256",
                    "name": "",
                    "type": "uint256"
                }
            ],
            "stateMutability": "view",
            "type": "function"
        },
        {
            "inputs": [],
            "name": "PRECIO_BLOCK",
            "outputs": [
                {
                    "internalType": "uint256",
                    "name": "",
                    "type": "uint256"
                }
            ],
            "stateMutability": "view",
            "type": "function"
        },
        {
            "inputs": [],
            "name": "activerFee",
            "outputs": [
                {
                    "internalType": "uint256",
                    "name": "",
                    "type": "uint256"
                }
            ],
            "stateMutability": "view",
            "type": "function"
        },
        {
            "inputs": [
                {
                    "internalType": "bool[]",
                    "name": "old",
                    "type": "bool[]"
                }
            ],
            "name": "actualizarArrayBool",
            "outputs": [
                {
                    "internalType": "bool[]",
                    "name": "",
                    "type": "bool[]"
                }
            ],
            "stateMutability": "pure",
            "type": "function"
        },
        {
            "inputs": [
                {
                    "internalType": "uint256[]",
                    "name": "old",
                    "type": "uint256[]"
                }
            ],
            "name": "actualizarArrayUint256",
            "outputs": [
                {
                    "internalType": "uint256[]",
                    "name": "",
                    "type": "uint256[]"
                }
            ],
            "stateMutability": "pure",
            "type": "function"
        },
        {
            "inputs": [
                {
                    "internalType": "address[]",
                    "name": "oldNetwork",
                    "type": "address[]"
                }
            ],
            "name": "actualizarNetwork",
            "outputs": [
                {
                    "internalType": "address[]",
                    "name": "",
                    "type": "address[]"
                }
            ],
            "stateMutability": "pure",
            "type": "function"
        },
        {
            "inputs": [
                {
                    "internalType": "address",
                    "name": "",
                    "type": "address"
                }
            ],
            "name": "addressToId",
            "outputs": [
                {
                    "internalType": "uint256",
                    "name": "",
                    "type": "uint256"
                }
            ],
            "stateMutability": "view",
            "type": "function"
        },
        {
            "inputs": [
                {
                    "internalType": "address",
                    "name": "",
                    "type": "address"
                }
            ],
            "name": "admin",
            "outputs": [
                {
                    "internalType": "bool",
                    "name": "",
                    "type": "bool"
                }
            ],
            "stateMutability": "view",
            "type": "function"
        },
        {
            "inputs": [
                {
                    "internalType": "address[]",
                    "name": "network",
                    "type": "address[]"
                }
            ],
            "name": "allnetwork",
            "outputs": [
                {
                    "internalType": "address[]",
                    "name": "",
                    "type": "address[]"
                }
            ],
            "stateMutability": "view",
            "type": "function"
        },
        {
            "inputs": [
                {
                    "internalType": "address",
                    "name": "_user",
                    "type": "address"
                },
                {
                    "internalType": "uint256",
                    "name": "_bloks",
                    "type": "uint256"
                },
                {
                    "internalType": "bool",
                    "name": "_infinity",
                    "type": "bool"
                }
            ],
            "name": "asignarBloke",
            "outputs": [
                {
                    "internalType": "bool",
                    "name": "",
                    "type": "bool"
                }
            ],
            "stateMutability": "nonpayable",
            "type": "function"
        },
        {
            "inputs": [
                {
                    "internalType": "address",
                    "name": "_user",
                    "type": "address"
                }
            ],
            "name": "asignarMembership",
            "outputs": [
                {
                    "internalType": "bool",
                    "name": "",
                    "type": "bool"
                }
            ],
            "stateMutability": "nonpayable",
            "type": "function"
        },
        {
            "inputs": [
                {
                    "internalType": "uint256",
                    "name": "_bloks",
                    "type": "uint256"
                }
            ],
            "name": "buyBlocks",
            "outputs": [],
            "stateMutability": "nonpayable",
            "type": "function"
        },
        {
            "inputs": [
                {
                    "internalType": "address",
                    "name": "yo",
                    "type": "address"
                },
                {
                    "internalType": "uint256",
                    "name": "_largo",
                    "type": "uint256"
                }
            ],
            "name": "column",
            "outputs": [
                {
                    "internalType": "address[]",
                    "name": "",
                    "type": "address[]"
                }
            ],
            "stateMutability": "view",
            "type": "function"
        },
        {
            "inputs": [
                {
                    "internalType": "address",
                    "name": "yo",
                    "type": "address"
                },
                {
                    "internalType": "uint256",
                    "name": "_largo",
                    "type": "uint256"
                }
            ],
            "name": "columnHijos",
            "outputs": [
                {
                    "internalType": "address[]",
                    "name": "",
                    "type": "address[]"
                }
            ],
            "stateMutability": "view",
            "type": "function"
        },
        {
            "inputs": [
                {
                    "internalType": "bool",
                    "name": "_true_false",
                    "type": "bool"
                }
            ],
            "name": "controlWitdrawl",
            "outputs": [
                {
                    "internalType": "bool",
                    "name": "",
                    "type": "bool"
                }
            ],
            "stateMutability": "nonpayable",
            "type": "function"
        },
        {
            "inputs": [
                {
                    "internalType": "address",
                    "name": "_user",
                    "type": "address"
                },
                {
                    "internalType": "bool",
                    "name": "_infinity",
                    "type": "bool"
                }
            ],
            "name": "depositos",
            "outputs": [
                {
                    "internalType": "uint256[]",
                    "name": "",
                    "type": "uint256[]"
                },
                {
                    "internalType": "uint256[]",
                    "name": "",
                    "type": "uint256[]"
                },
                {
                    "internalType": "bool[]",
                    "name": "",
                    "type": "bool[]"
                },
                {
                    "internalType": "uint256",
                    "name": "",
                    "type": "uint256"
                }
            ],
            "stateMutability": "view",
            "type": "function"
        },
        {
            "inputs": [],
            "name": "descuento",
            "outputs": [
                {
                    "internalType": "uint256",
                    "name": "",
                    "type": "uint256"
                }
            ],
            "stateMutability": "view",
            "type": "function"
        },
        {
            "inputs": [],
            "name": "dias",
            "outputs": [
                {
                    "internalType": "uint256",
                    "name": "",
                    "type": "uint256"
                }
            ],
            "stateMutability": "view",
            "type": "function"
        },
        {
            "inputs": [],
            "name": "duracionMembership",
            "outputs": [
                {
                    "internalType": "uint256",
                    "name": "",
                    "type": "uint256"
                }
            ],
            "stateMutability": "view",
            "type": "function"
        },
        {
            "inputs": [
                {
                    "internalType": "uint256",
                    "name": "",
                    "type": "uint256"
                }
            ],
            "name": "gananciasRango",
            "outputs": [
                {
                    "internalType": "uint256",
                    "name": "",
                    "type": "uint256"
                }
            ],
            "stateMutability": "view",
            "type": "function"
        },
        {
            "inputs": [
                {
                    "internalType": "address",
                    "name": "",
                    "type": "address"
                },
                {
                    "internalType": "uint256",
                    "name": "",
                    "type": "uint256"
                }
            ],
            "name": "hijos",
            "outputs": [
                {
                    "internalType": "address",
                    "name": "",
                    "type": "address"
                }
            ],
            "stateMutability": "view",
            "type": "function"
        },
        {
            "inputs": [
                {
                    "internalType": "uint256",
                    "name": "",
                    "type": "uint256"
                }
            ],
            "name": "idToAddress",
            "outputs": [
                {
                    "internalType": "address",
                    "name": "",
                    "type": "address"
                }
            ],
            "stateMutability": "view",
            "type": "function"
        },
        {
            "inputs": [
                {
                    "internalType": "uint256",
                    "name": "",
                    "type": "uint256"
                }
            ],
            "name": "infinity",
            "outputs": [
                {
                    "internalType": "uint256",
                    "name": "",
                    "type": "uint256"
                }
            ],
            "stateMutability": "view",
            "type": "function"
        },
        {
            "inputs": [],
            "name": "inversiones",
            "outputs": [
                {
                    "internalType": "uint256",
                    "name": "",
                    "type": "uint256"
                }
            ],
            "stateMutability": "view",
            "type": "function"
        },
        {
            "inputs": [
                {
                    "internalType": "address",
                    "name": "",
                    "type": "address"
                }
            ],
            "name": "investors",
            "outputs": [
                {
                    "internalType": "bool",
                    "name": "registered",
                    "type": "bool"
                },
                {
                    "internalType": "uint256",
                    "name": "membership",
                    "type": "uint256"
                },
                {
                    "internalType": "uint256",
                    "name": "balanceRef",
                    "type": "uint256"
                },
                {
                    "internalType": "uint256",
                    "name": "totalRef",
                    "type": "uint256"
                },
                {
                    "internalType": "uint256",
                    "name": "invested",
                    "type": "uint256"
                },
                {
                    "internalType": "uint256",
                    "name": "paidAt",
                    "type": "uint256"
                },
                {
                    "internalType": "uint256",
                    "name": "paidAt2",
                    "type": "uint256"
                },
                {
                    "internalType": "uint256",
                    "name": "withdrawn",
                    "type": "uint256"
                },
                {
                    "internalType": "uint256",
                    "name": "directos",
                    "type": "uint256"
                },
                {
                    "internalType": "string",
                    "name": "data",
                    "type": "string"
                },
                {
                    "internalType": "uint256",
                    "name": "blokesDirectos",
                    "type": "uint256"
                }
            ],
            "stateMutability": "view",
            "type": "function"
        },
        {
            "inputs": [],
            "name": "lastUserId",
            "outputs": [
                {
                    "internalType": "uint256",
                    "name": "",
                    "type": "uint256"
                }
            ],
            "stateMutability": "view",
            "type": "function"
        },
        {
            "inputs": [
                {
                    "internalType": "address payable",
                    "name": "_newadmin",
                    "type": "address"
                }
            ],
            "name": "makeNewAdmin",
            "outputs": [],
            "stateMutability": "nonpayable",
            "type": "function"
        },
        {
            "inputs": [
                {
                    "internalType": "address payable",
                    "name": "_oldadmin",
                    "type": "address"
                }
            ],
            "name": "makeRemoveAdmin",
            "outputs": [],
            "stateMutability": "nonpayable",
            "type": "function"
        },
        {
            "inputs": [],
            "name": "newRecompensa",
            "outputs": [],
            "stateMutability": "nonpayable",
            "type": "function"
        },
        {
            "inputs": [],
            "name": "onOffWitdrawl",
            "outputs": [
                {
                    "internalType": "bool",
                    "name": "",
                    "type": "bool"
                }
            ],
            "stateMutability": "view",
            "type": "function"
        },
        {
            "inputs": [],
            "name": "owner",
            "outputs": [
                {
                    "internalType": "address payable",
                    "name": "",
                    "type": "address"
                }
            ],
            "stateMutability": "view",
            "type": "function"
        },
        {
            "inputs": [
                {
                    "internalType": "address",
                    "name": "",
                    "type": "address"
                }
            ],
            "name": "padre",
            "outputs": [
                {
                    "internalType": "address",
                    "name": "",
                    "type": "address"
                }
            ],
            "stateMutability": "view",
            "type": "function"
        },
        {
            "inputs": [],
            "name": "personas",
            "outputs": [
                {
                    "internalType": "uint256",
                    "name": "",
                    "type": "uint256"
                }
            ],
            "stateMutability": "view",
            "type": "function"
        },
        {
            "inputs": [],
            "name": "porcent",
            "outputs": [
                {
                    "internalType": "uint256",
                    "name": "",
                    "type": "uint256"
                }
            ],
            "stateMutability": "view",
            "type": "function"
        },
        {
            "inputs": [
                {
                    "internalType": "uint256",
                    "name": "",
                    "type": "uint256"
                }
            ],
            "name": "porcientos",
            "outputs": [
                {
                    "internalType": "uint256",
                    "name": "",
                    "type": "uint256"
                }
            ],
            "stateMutability": "view",
            "type": "function"
        },
        {
            "inputs": [],
            "name": "precioRegistro",
            "outputs": [
                {
                    "internalType": "uint256",
                    "name": "",
                    "type": "uint256"
                }
            ],
            "stateMutability": "view",
            "type": "function"
        },
        {
            "inputs": [
                {
                    "internalType": "uint256",
                    "name": "",
                    "type": "uint256"
                }
            ],
            "name": "primervez",
            "outputs": [
                {
                    "internalType": "uint256",
                    "name": "",
                    "type": "uint256"
                }
            ],
            "stateMutability": "view",
            "type": "function"
        },
        {
            "inputs": [
                {
                    "internalType": "uint256",
                    "name": "",
                    "type": "uint256"
                }
            ],
            "name": "puntosRango",
            "outputs": [
                {
                    "internalType": "uint256",
                    "name": "",
                    "type": "uint256"
                }
            ],
            "stateMutability": "view",
            "type": "function"
        },
        {
            "inputs": [
                {
                    "internalType": "address",
                    "name": "",
                    "type": "address"
                },
                {
                    "internalType": "uint256",
                    "name": "",
                    "type": "uint256"
                }
            ],
            "name": "rangoReclamado",
            "outputs": [
                {
                    "internalType": "bool",
                    "name": "",
                    "type": "bool"
                }
            ],
            "stateMutability": "view",
            "type": "function"
        },
        {
            "inputs": [],
            "name": "redimBNB",
            "outputs": [
                {
                    "internalType": "uint256",
                    "name": "",
                    "type": "uint256"
                }
            ],
            "stateMutability": "nonpayable",
            "type": "function"
        },
        {
            "inputs": [
                {
                    "internalType": "uint256",
                    "name": "_value",
                    "type": "uint256"
                }
            ],
            "name": "redimTokenPrincipal02",
            "outputs": [
                {
                    "internalType": "uint256",
                    "name": "",
                    "type": "uint256"
                }
            ],
            "stateMutability": "nonpayable",
            "type": "function"
        },
        {
            "inputs": [
                {
                    "internalType": "address",
                    "name": "_sponsor",
                    "type": "address"
                },
                {
                    "internalType": "string",
                    "name": "_datos",
                    "type": "string"
                }
            ],
            "name": "registro",
            "outputs": [],
            "stateMutability": "nonpayable",
            "type": "function"
        },
        {
            "inputs": [
                {
                    "internalType": "uint256",
                    "name": "_descuento",
                    "type": "uint256"
                }
            ],
            "name": "setDescuento",
            "outputs": [
                {
                    "internalType": "bool",
                    "name": "",
                    "type": "bool"
                }
            ],
            "stateMutability": "nonpayable",
            "type": "function"
        },
        {
            "inputs": [
                {
                    "internalType": "uint256",
                    "name": "_numerodeinverionessinganancia",
                    "type": "uint256"
                }
            ],
            "name": "setInversiones",
            "outputs": [
                {
                    "internalType": "uint256",
                    "name": "",
                    "type": "uint256"
                }
            ],
            "stateMutability": "nonpayable",
            "type": "function"
        },
        {
            "inputs": [
                {
                    "internalType": "uint256",
                    "name": "_min",
                    "type": "uint256"
                }
            ],
            "name": "setMIN_RETIRO",
            "outputs": [
                {
                    "internalType": "uint256",
                    "name": "",
                    "type": "uint256"
                }
            ],
            "stateMutability": "nonpayable",
            "type": "function"
        },
        {
            "inputs": [
                {
                    "internalType": "uint256",
                    "name": "_nivel",
                    "type": "uint256"
                },
                {
                    "internalType": "uint256",
                    "name": "_value",
                    "type": "uint256"
                }
            ],
            "name": "setPorcientos",
            "outputs": [
                {
                    "internalType": "uint256[]",
                    "name": "",
                    "type": "uint256[]"
                }
            ],
            "stateMutability": "nonpayable",
            "type": "function"
        },
        {
            "inputs": [
                {
                    "internalType": "uint256",
                    "name": "_nivel",
                    "type": "uint256"
                },
                {
                    "internalType": "uint256",
                    "name": "_value",
                    "type": "uint256"
                }
            ],
            "name": "setPorcientosSalida",
            "outputs": [
                {
                    "internalType": "uint256[]",
                    "name": "",
                    "type": "uint256[]"
                }
            ],
            "stateMutability": "nonpayable",
            "type": "function"
        },
        {
            "inputs": [
                {
                    "internalType": "uint256",
                    "name": "_precio",
                    "type": "uint256"
                }
            ],
            "name": "setPrecioRegistro",
            "outputs": [
                {
                    "internalType": "bool",
                    "name": "",
                    "type": "bool"
                }
            ],
            "stateMutability": "nonpayable",
            "type": "function"
        },
        {
            "inputs": [
                {
                    "internalType": "uint256",
                    "name": "_value",
                    "type": "uint256"
                }
            ],
            "name": "setPriceBlock",
            "outputs": [
                {
                    "internalType": "bool",
                    "name": "",
                    "type": "bool"
                }
            ],
            "stateMutability": "nonpayable",
            "type": "function"
        },
        {
            "inputs": [
                {
                    "internalType": "uint256",
                    "name": "_nivel",
                    "type": "uint256"
                },
                {
                    "internalType": "uint256",
                    "name": "_value",
                    "type": "uint256"
                }
            ],
            "name": "setPrimeravezPorcientos",
            "outputs": [
                {
                    "internalType": "uint256[]",
                    "name": "",
                    "type": "uint256[]"
                }
            ],
            "stateMutability": "nonpayable",
            "type": "function"
        },
        {
            "inputs": [
                {
                    "internalType": "uint256",
                    "name": "_porcentaje",
                    "type": "uint256"
                }
            ],
            "name": "setRetorno",
            "outputs": [
                {
                    "internalType": "uint256",
                    "name": "",
                    "type": "uint256"
                }
            ],
            "stateMutability": "nonpayable",
            "type": "function"
        },
        {
            "inputs": [
                {
                    "internalType": "uint256",
                    "name": "_dias",
                    "type": "uint256"
                }
            ],
            "name": "setTiempo",
            "outputs": [
                {
                    "internalType": "uint256",
                    "name": "",
                    "type": "uint256"
                }
            ],
            "stateMutability": "nonpayable",
            "type": "function"
        },
        {
            "inputs": [
                {
                    "internalType": "uint256",
                    "name": "_unidades",
                    "type": "uint256"
                }
            ],
            "name": "setTiempoUnidades",
            "outputs": [
                {
                    "internalType": "uint256",
                    "name": "",
                    "type": "uint256"
                }
            ],
            "stateMutability": "nonpayable",
            "type": "function"
        },
        {
            "inputs": [
                {
                    "internalType": "address[]",
                    "name": "_wallet",
                    "type": "address[]"
                },
                {
                    "internalType": "uint256[]",
                    "name": "_fee",
                    "type": "uint256[]"
                },
                {
                    "internalType": "uint256",
                    "name": "_activerFee",
                    "type": "uint256"
                }
            ],
            "name": "setWalletFee",
            "outputs": [
                {
                    "internalType": "bool",
                    "name": "",
                    "type": "bool"
                }
            ],
            "stateMutability": "nonpayable",
            "type": "function"
        },
        {
            "inputs": [
                {
                    "internalType": "address[]",
                    "name": "_wallets",
                    "type": "address[]"
                },
                {
                    "internalType": "uint256[]",
                    "name": "_valores",
                    "type": "uint256[]"
                }
            ],
            "name": "setWalletstransfers",
            "outputs": [
                {
                    "internalType": "bool",
                    "name": "",
                    "type": "bool"
                }
            ],
            "stateMutability": "nonpayable",
            "type": "function"
        },
        {
            "inputs": [],
            "name": "setstate",
            "outputs": [
                {
                    "internalType": "uint256",
                    "name": "Investors",
                    "type": "uint256"
                },
                {
                    "internalType": "uint256",
                    "name": "Invested",
                    "type": "uint256"
                },
                {
                    "internalType": "uint256",
                    "name": "RefRewards",
                    "type": "uint256"
                }
            ],
            "stateMutability": "view",
            "type": "function"
        },
        {
            "inputs": [],
            "name": "tiempo",
            "outputs": [
                {
                    "internalType": "uint256",
                    "name": "",
                    "type": "uint256"
                }
            ],
            "stateMutability": "view",
            "type": "function"
        },
        {
            "inputs": [],
            "name": "tokenPricipal",
            "outputs": [
                {
                    "internalType": "address",
                    "name": "",
                    "type": "address"
                }
            ],
            "stateMutability": "view",
            "type": "function"
        },
        {
            "inputs": [],
            "name": "totalInvested",
            "outputs": [
                {
                    "internalType": "uint256",
                    "name": "",
                    "type": "uint256"
                }
            ],
            "stateMutability": "view",
            "type": "function"
        },
        {
            "inputs": [],
            "name": "totalInvestors",
            "outputs": [
                {
                    "internalType": "uint256",
                    "name": "",
                    "type": "uint256"
                }
            ],
            "stateMutability": "view",
            "type": "function"
        },
        {
            "inputs": [],
            "name": "totalRefRewards",
            "outputs": [
                {
                    "internalType": "uint256",
                    "name": "",
                    "type": "uint256"
                }
            ],
            "stateMutability": "view",
            "type": "function"
        },
        {
            "inputs": [],
            "name": "totalRefWitdrawl",
            "outputs": [
                {
                    "internalType": "uint256",
                    "name": "",
                    "type": "uint256"
                }
            ],
            "stateMutability": "view",
            "type": "function"
        },
        {
            "inputs": [
                {
                    "internalType": "address payable",
                    "name": "newOwner",
                    "type": "address"
                }
            ],
            "name": "transferOwnership",
            "outputs": [],
            "stateMutability": "nonpayable",
            "type": "function"
        },
        {
            "inputs": [],
            "name": "unidades",
            "outputs": [
                {
                    "internalType": "uint256",
                    "name": "",
                    "type": "uint256"
                }
            ],
            "stateMutability": "view",
            "type": "function"
        },
        {
            "inputs": [
                {
                    "internalType": "string",
                    "name": "_datos",
                    "type": "string"
                }
            ],
            "name": "updateData",
            "outputs": [],
            "stateMutability": "nonpayable",
            "type": "function"
        },
        {
            "inputs": [
                {
                    "internalType": "uint256",
                    "name": "",
                    "type": "uint256"
                }
            ],
            "name": "valor",
            "outputs": [
                {
                    "internalType": "uint256",
                    "name": "",
                    "type": "uint256"
                }
            ],
            "stateMutability": "view",
            "type": "function"
        },
        {
            "inputs": [
                {
                    "internalType": "uint256",
                    "name": "",
                    "type": "uint256"
                }
            ],
            "name": "valorFee",
            "outputs": [
                {
                    "internalType": "uint256",
                    "name": "",
                    "type": "uint256"
                }
            ],
            "stateMutability": "view",
            "type": "function"
        },
        {
            "inputs": [
                {
                    "internalType": "uint256",
                    "name": "",
                    "type": "uint256"
                }
            ],
            "name": "wallet",
            "outputs": [
                {
                    "internalType": "address",
                    "name": "",
                    "type": "address"
                }
            ],
            "stateMutability": "view",
            "type": "function"
        },
        {
            "inputs": [
                {
                    "internalType": "uint256",
                    "name": "",
                    "type": "uint256"
                }
            ],
            "name": "walletFee",
            "outputs": [
                {
                    "internalType": "address",
                    "name": "",
                    "type": "address"
                }
            ],
            "stateMutability": "view",
            "type": "function"
        },
        {
            "inputs": [],
            "name": "withdraw",
            "outputs": [],
            "stateMutability": "nonpayable",
            "type": "function"
        },
        {
            "inputs": [],
            "name": "withdraw2",
            "outputs": [],
            "stateMutability": "nonpayable",
            "type": "function"
        },
        {
            "inputs": [],
            "name": "withdrawTeam",
            "outputs": [],
            "stateMutability": "nonpayable",
            "type": "function"
        },
        {
            "inputs": [
                {
                    "internalType": "address",
                    "name": "any_user",
                    "type": "address"
                },
                {
                    "internalType": "bool",
                    "name": "_infinity",
                    "type": "bool"
                }
            ],
            "name": "withdrawable",
            "outputs": [
                {
                    "internalType": "uint256",
                    "name": "",
                    "type": "uint256"
                }
            ],
            "stateMutability": "view",
            "type": "function"
        },
        {
            "inputs": [
                {
                    "internalType": "address",
                    "name": "any_user",
                    "type": "address"
                }
            ],
            "name": "withdrawableRange",
            "outputs": [
                {
                    "internalType": "uint256",
                    "name": "amount",
                    "type": "uint256"
                }
            ],
            "stateMutability": "view",
            "type": "function"
        },
        {
            "stateMutability": "payable",
            "type": "receive"
        }
    ],
    "bytecode": "600280547355d398326f99059ff775485246999027b31979556001600160a01b031991821681179092556003805482168317905567d02ab486cedc00006004556802b5e3af16b1880000600655600780549091169091179055600160085561012060405260326080908152601e60a052601460c052600a60e0819052610100526200008f906009906005620004a8565b506040805160a08101825260328152601e6020820152601491810191909152600a6060820181905260808201819052620000cb916005620004a8565b506040805160a08101825260058082526003602083015260029282019290925260016060820181905260808201526200010891600b9190620004a8565b506040805160a0810182526828a857425466f800008152685150ae84a8cdf00000602082015268cb49b44ba602d80000918101919091526901969368974c05b00000606082015269032d26d12e980b60000060808201526200016f90600c906005620004fd565b506040805160a081018252685150ae84a8cdf00000815269010f0cf064dd59200000602082015269043c33c193756480000091810191909152690a968163f0a57b4000006060820152691969368974c05b0000006080820152620001d890600d906005620004fd565b50600e805460ff1916600190811790915561016d600f556103846010556201518060115560f0601255605f60135560026014556015819055601f819055604080516020808201909252730556a260b9ef10756bc2df281168697f353d1e8e8152620002439262000546565b5060408051602081019091526064815262000263906021906001620004a8565b50600060225560016023556040805160e081018252734490566647735e8cbce0ce96efc8fb91c164859b815273e201933ca7b5af514a1b0119bbc1072a066c06df602082015273e2283cb00b9c32727941728bede372005c6ca3119181019190915273763eb0a2a2925c45927dbf6432f191fc66fbcfa8606082015273deff65e4bcf19a52b0db33e57b7ce262fd5db53f6080820152738a6ac002b64bbba26e746d97d4050e71240b30b060a0820152730bddc342f66f46968a15bd1c16dbefa5b63a158860c08201526200033d90602490600762000546565b506040805160e08101825260068152600560208201526002918101829052606081018290526080810182905260a0810191909152602f60c082015262000388906025906007620004a8565b503480156200039657600080fd5b50600080546001600160a01b0319163390811782558152600160208181526040808420805460ff19908116851790915584546001600160a01b0316855260199092529092208054909216178155601154600f54620003f591906200066d565b6200040990670de0b6b3a76400006200066d565b6200041590426200068f565b60018201556040805160a081018252600080825260208083018290528284018290526060830182905260808301829052338252601e9052919091206200045d9160056200059e565b50507fb9c6de81004e18dedadca3e5eabaab449ca91dff6f58efc9461da635fe77f84980546001600160a01b031916339081179091556000908152601d6020526040812055620006aa565b828054828255906000526020600020908101928215620004eb579160200282015b82811115620004eb578251829060ff16905591602001919060010190620004c9565b50620004f992915062000640565b5090565b828054828255906000526020600020908101928215620004eb579160200282015b82811115620004eb57825182906001600160501b03169055916020019190600101906200051e565b828054828255906000526020600020908101928215620004eb579160200282015b82811115620004eb57825182546001600160a01b0319166001600160a01b0390911617825560209092019160019091019062000567565b82805482825590600052602060002090601f01602090048101928215620004eb5791602002820160005b838211156200060757835183826101000a81548160ff0219169083151502179055509260200192600101602081600001049283019260010302620005c8565b8015620006365782816101000a81549060ff021916905560010160208160000104928301926001030262000607565b5050620004f99291505b5b80821115620004f9576000815560010162000641565b634e487b7160e01b600052601160045260246000fd5b60008160001904831182151516156200068a576200068a62000657565b500290565b60008219821115620006a557620006a562000657565b500190565b61448180620006ba6000396000f3fe60806040526004361061041b5760003560e01c80637367b0801161021c578063b17b6e4411610122578063cb0e0d7d116100b0578063edf5eb1d11610077578063edf5eb1d14610d00578063f2fde38b14610d20578063f90b3f5a14610d40578063fd14d59814610d60578063fd68651914610d7557005b8063cb0e0d7d14610c6e578063cc759ba214610c9b578063db3be1a214610cb1578063e7348e8c14610cd1578063ea98847b14610ceb57005b8063bb51f32d116100f4578063bb51f32d14610bf7578063bd9bee1914610c0c578063bfe0e02014610c22578063c17dbdf914610c38578063c40d5dbc14610c5857005b8063b17b6e4414610b61578063b35f0a8f14610b81578063b3d9fa0914610bb7578063b85ea33514610bd757005b80638f9ef8c1116101aa578063a77d211911610171578063a77d211914610ad5578063a8beb71714610aeb578063aaa749c514610b0b578063ab6db19914610b2b578063b139042614610b4157005b80638f9ef8c114610a2f57806398c07d0a14610a4f5780639b8ff50314610a6f578063a278133514610a85578063a365528b14610aa557005b80637fcc1e36116101ee5780637fcc1e3614610971578063810328921461099e57806385338e20146109be57806389b2521c146109ef5780638da5cb5b14610a0f57005b80637367b080146109055780637b0412ed146109255780637db9e9c61461093b5780637faee0471461095157005b80634ea92189116103215780636589fa8a116102af5780636c529279116102765780636c529279146108585780636f7bc9be1461086e57806370a0966b146108a55780637251b9ac146108c5578063725fc270146108e557005b80636589fa8a146107c357806367f74aab146107e357806368446ead1461080357806369ed1e0a1461082357806369f4a84b1461084357005b806354822522116102f357806354822522146107135780635bc94cd2146107335780635d216c6014610753578063625509161461077357806363a846f81461079357005b80634ea92189146106a857806350188c08146106c857806350da983f146106dd5780635216aeec146106fd57005b806329e1a243116103a95780633ccfd60b116103705780633ccfd60b146106315780634728f718146106465780634b9b82031461065c5780634bdcd429146106725780634de1be621461068857005b806329e1a2431461055d5780632a2d0c471461057d5780632acc8210146105cb5780632e8a03cf146105fb578063348d44871461061b57005b806321309f21116103ed57806321309f21146104d157806324de19f2146104f15780632748d29b1461050757806328cca7191461052757806329b8caff1461054757005b80631140e85b1461042457806315e8392b146104575780631ce7f99b146104845780631e403c35146104a457005b3661042257005b005b34801561043057600080fd5b5061044461043f366004613c03565b610d95565b6040519081526020015b60405180910390f35b34801561046357600080fd5b50610477610472366004613c34565b610ead565b60405161044e9190613c60565b34801561049057600080fd5b5061047761049f366004613d8a565b610f44565b3480156104b057600080fd5b506104c46104bf366004613dbe565b611002565b60405161044e9190613e1b565b3480156104dd57600080fd5b506104446104ec366004613c03565b6110a0565b3480156104fd57600080fd5b5061044460065481565b34801561051357600080fd5b50610444610522366004613c03565b6110c1565b34801561053357600080fd5b50610444610542366004613c03565b6110eb565b34801561055357600080fd5b5061044460155481565b34801561056957600080fd5b50610444610578366004613c03565b6110fb565b34801561058957600080fd5b506105b3610598366004613c03565b601c602052600090815260409020546001600160a01b031681565b6040516001600160a01b03909116815260200161044e565b3480156105d757600080fd5b506105eb6105e6366004613c34565b61110b565b604051901515815260200161044e565b34801561060757600080fd5b506105eb610616366004613c03565b61114e565b34801561062757600080fd5b50610444601f5481565b34801561063d57600080fd5b50610422611178565b34801561065257600080fd5b5061044460125481565b34801561066857600080fd5b5061044460115481565b34801561067e57600080fd5b5061044460055481565b34801561069457600080fd5b506104446106a3366004613c03565b611498565b3480156106b457600080fd5b506105b36106c3366004613c34565b6114c2565b3480156106d457600080fd5b506104446114fa565b3480156106e957600080fd5b506105eb6106f8366004613e2e565b611518565b34801561070957600080fd5b5061044460165481565b34801561071f57600080fd5b506104c461072e366004613dbe565b61156c565b34801561073f57600080fd5b5061047761074e366004613c34565b611608565b34801561075f57600080fd5b506104c461076e366004613dbe565b6116d8565b34801561077f57600080fd5b5061044461078e366004613c03565b611774565b34801561079f57600080fd5b506105eb6107ae366004613e2e565b60016020526000908152604090205460ff1681565b3480156107cf57600080fd5b506104446107de366004613c03565b611784565b3480156107ef57600080fd5b506105eb6107fe366004613e59565b6117a9565b34801561080f57600080fd5b5061042261081e366004613f0a565b61191c565b34801561082f57600080fd5b5061042261083e366004613e2e565b611948565b34801561084f57600080fd5b506104226119d6565b34801561086457600080fd5b5061044460045481565b34801561087a57600080fd5b5061088e610889366004613e2e565b611b65565b60405161044e9b9a99989796959493929190613f3e565b3480156108b157600080fd5b506104226108c0366004613e2e565b611c4c565b3480156108d157600080fd5b506105b36108e0366004613c03565b611cd4565b3480156108f157600080fd5b50610444610900366004613c03565b611cfe565b34801561091157600080fd5b506104c4610920366004614043565b611d0e565b34801561093157600080fd5b5061044460135481565b34801561094757600080fd5b5061044460225481565b34801561095d57600080fd5b5061047761096c366004613d8a565b611db8565b34801561097d57600080fd5b5061099161098c366004614077565b611ed5565b60405161044e9190614142565b3480156109aa57600080fd5b506104446109b9366004613c03565b611f84565b3480156109ca57600080fd5b506015546016546017546040805193845260208401929092529082015260600161044e565b3480156109fb57600080fd5b50610444610a0a366004614155565b611f94565b348015610a1b57600080fd5b506000546105b3906001600160a01b031681565b348015610a3b57600080fd5b50610422610a4a36600461418e565b611fb5565b348015610a5b57600080fd5b50610444610a6a366004613e2e565b61236e565b348015610a7b57600080fd5b5061044460185481565b348015610a9157600080fd5b506105b3610aa0366004613c03565b612547565b348015610ab157600080fd5b50610ac5610ac0366004614155565b612557565b60405161044e94939291906141dd565b348015610ae157600080fd5b5061044460085481565b348015610af757600080fd5b506105eb610b06366004614228565b612836565b348015610b1757600080fd5b506105eb610b26366004613c03565b612888565b348015610b3757600080fd5b5061044460105481565b348015610b4d57600080fd5b506007546105b3906001600160a01b031681565b348015610b6d57600080fd5b506105eb610b7c366004614281565b6128b2565b348015610b8d57600080fd5b506105b3610b9c366004613e2e565b601a602052600090815260409020546001600160a01b031681565b348015610bc357600080fd5b506105eb610bd2366004613c03565b6128e5565b348015610be357600080fd5b50610444610bf2366004613c03565b61290f565b348015610c0357600080fd5b50610422612939565b348015610c1857600080fd5b5061044460235481565b348015610c2e57600080fd5b5061044460175481565b348015610c4457600080fd5b50610422610c53366004613c03565b612c64565b348015610c6457600080fd5b50610444600f5481565b348015610c7a57600080fd5b50610444610c89366004613e2e565b601d6020526000908152604090205481565b348015610ca757600080fd5b5061044460145481565b348015610cbd57600080fd5b506105eb610ccc36600461429e565b6131c2565b348015610cdd57600080fd5b50600e546105eb9060ff1681565b348015610cf757600080fd5b50610422613216565b348015610d0c57600080fd5b50610444610d1b366004613c03565b61350d565b348015610d2c57600080fd5b50610422610d3b366004613e2e565b61351d565b348015610d4c57600080fd5b50610444610d5b366004613c03565b6135ab565b348015610d6c57600080fd5b506104446135d0565b348015610d8157600080fd5b506105eb610d90366004613e2e565b613632565b600080546001600160a01b0316336001600160a01b031614610db657600080fd5b6003546040516370a0823160e01b815230600482015283916001600160a01b0316906370a0823190602401602060405180830381865afa158015610dfe573d6000803e3d6000fd5b505050506040513d601f19601f82011682018060405250810190610e22919061430a565b1015610e2d57600080fd5b60035460005460405163a9059cbb60e01b81526001600160a01b039283169263a9059cbb92610e63929116908690600401614323565b6020604051808303816000875af1158015610e82573d6000803e3d6000fd5b505050506040513d601f19601f82011682018060405250810190610ea6919061433c565b5090919050565b60608060005b83811015610f3a57610ec482610f44565b6001600160a01b038087166000908152601a602052604090205482519294501690839083908110610ef757610ef7614359565b6001600160a01b039283166020918202929092018101919091529581166000908152601a9096526040909520549094169380610f3281614385565b915050610eb3565b5090505b92915050565b6060600082516001610f5691906143a0565b6001600160401b03811115610f6d57610f6d613cad565b604051908082528060200260200182016040528015610f96578160200160208202803683370190505b50905060005b8351811015610ffb57838181518110610fb757610fb7614359565b6020026020010151828281518110610fd157610fd1614359565b6001600160a01b039092166020928302919091019091015280610ff381614385565b915050610f9c565b5092915050565b6000546060906001600160a01b0316336001600160a01b03161461102557600080fd5b81600a848154811061103957611039614359565b9060005260206000200181905550600a80548060200260200160405190810160405280929190818152602001828054801561109357602002820191906000526020600020905b81548152602001906001019080831161107f575b5050505050905092915050565b600d81815481106110b057600080fd5b600091825260209091200154905081565b600080546001600160a01b0316336001600160a01b0316146110e257600080fd5b50601181905590565b600a81815481106110b057600080fd5b602181815481106110b057600080fd5b601e602052816000526040600020818154811061112757600080fd5b9060005260206000209060209182820401919006915091509054906101000a900460ff1681565b600080546001600160a01b0316336001600160a01b03161461116f57600080fd5b50600655600190565b600e5460ff1661118757600080fd5b336000818152601960205260408120916111a2906000611f94565b6003546040516370a0823160e01b815230600482015291925082916001600160a01b03909116906370a0823190602401602060405180830381865afa1580156111ef573d6000803e3d6000fd5b505050506040513d601f19601f82011682018060405250810190611213919061430a565b101561121e57600080fd5b60045481101561122d57600080fd5b6001602354106113cd5760005b60205481101561133a57600354602080546001600160a01b039092169163a9059cbb91908490811061126e5761126e614359565b9060005260206000200160009054906101000a90046001600160a01b03166112c760646112c1602187815481106112a7576112a7614359565b9060005260206000200154886137b590919063ffffffff16565b906137e7565b6040518363ffffffff1660e01b81526004016112e4929190614323565b6020604051808303816000875af1158015611303573d6000803e3d6000fd5b505050506040513d601f19601f82011682018060405250810190611327919061433c565b508061133281614385565b91505061123a565b506003546001600160a01b031663a9059cbb3361136760646112c1601354876137b590919063ffffffff16565b6040518363ffffffff1660e01b8152600401611384929190614323565b6020604051808303816000875af11580156113a3573d6000803e3d6000fd5b505050506040513d601f19601f820116820180604052508101906113c7919061433c565b5061145b565b6003546001600160a01b031663a9059cbb336113f960646112c1601354876137b590919063ffffffff16565b6040518363ffffffff1660e01b8152600401611416929190614323565b6020604051808303816000875af1158015611435573d6000803e3d6000fd5b505050506040513d601f19601f82011682018060405250810190611459919061433c565b505b8082600701600082825461146f91906143a0565b90915550504260058301556018805482919060009061148f9084906143a0565b90915550505050565b600080546001600160a01b0316336001600160a01b0316146114b957600080fd5b50600481905590565b601b60205281600052604060002081815481106114de57600080fd5b6000918252602090912001546001600160a01b03169150829050565b60006115136011546010546137b590919063ffffffff16565b905090565b600080546001600160a01b0316336001600160a01b03161461153957600080fd5b50600380546001600160a01b0383166001600160a01b031991821681179092556007805490911690911790556001919050565b6000546060906001600160a01b0316336001600160a01b03161461158f57600080fd5b81600984815481106115a3576115a3614359565b90600052602060002001819055506009805480602002602001604051908101604052809291908181526020018280548015611093576020028201919060005260206000209081548152602001906001019080831161107f575050505050905092915050565b60608060005b83811015610f3a5761161f82610f44565b6001600160a01b0386166000908152601b6020908152604091829020805483518184028101840190945280845293955061169893909183018282801561168e57602002820191906000526020600020905b81546001600160a01b03168152600190910190602001808311611670575b5050505050610f44565b915060008282815181106116ae576116ae614359565b6001600160a01b0390921660209283029190910190910152806116d081614385565b91505061160e565b6000546060906001600160a01b0316336001600160a01b0316146116fb57600080fd5b81600b848154811061170f5761170f614359565b9060005260206000200181905550600b805480602002602001604051908101604052809291908181526020018280548015611093576020028201919060005260206000209081548152602001906001019080831161107f575050505050905092915050565b602581815481106110b057600080fd5b3360009081526001602052604081205460ff166117a057600080fd5b50601281905590565b3360009081526001602052604081205460ff166117c557600080fd5b6000831161181a5760405162461bcd60e51b815260206004820152601e60248201527f63616e7469646164206d696e696d6120646520626c6f6b65732065732031000060448201526064015b60405180910390fd5b6001600160a01b0384166000908152601960205260409020805460ff1661184057600080fd5b60008460065461185091906143b8565b905081600a016040518060a0016040528042815260200161188160646112c1601254876137b590919063ffffffff16565b81526020016118a060646112c1601254876137b590919063ffffffff16565b8152600060208083018290528815156040938401528454600181810187559583529181902084516004909302019182558301518185015590820151600282015560608201516003909101805460809093015115156101000261ff00199215159290921661ffff1990931692909217179055925050509392505050565b33600090815260196020908152604090912082519091611943916009840191850190613a3b565b505050565b6000546001600160a01b0316336001600160a01b03161461196857600080fd5b6001600160a01b03811661197b57600080fd5b6040516001600160a01b038216907f71614071b88dee5e0b2ae578a9dd7b2ebbe9ae832ba419dc0242cd065a290b6c90600090a26001600160a01b03166000908152600160208190526040909120805460ff19169091179055565b600e5460ff166119e557600080fd5b60006119f03361236e565b905060005b600c54811015611b6157600d8181548110611a1257611a12614359565b90600052602060002001548210158015611a6a5750336000908152601e60205260409020805482908110611a4857611a48614359565b90600052602060002090602091828204019190069054906101000a900460ff16155b15611b4f576003546001600160a01b031663a9059cbb33600c8481548110611a9457611a94614359565b90600052602060002001546040518363ffffffff1660e01b8152600401611abc929190614323565b6020604051808303816000875af1158015611adb573d6000803e3d6000fd5b505050506040513d601f19601f82011682018060405250810190611aff919061433c565b50336000908152601e6020526040902080546001919083908110611b2557611b25614359565b90600052602060002090602091828204019190066101000a81548160ff0219169083151502179055505b80611b5981614385565b9150506119f5565b5050565b601960205260009081526040902080546001820154600283015460038401546004850154600586015460068701546007880154600889015460098a01805460ff909a169a9899979896979596949593949293919291611bc3906143d7565b80601f0160208091040260200160405190810160405280929190818152602001828054611bef906143d7565b8015611c3c5780601f10611c1157610100808354040283529160200191611c3c565b820191906000526020600020905b815481529060010190602001808311611c1f57829003601f168201915b50505050509080600b015490508b565b6000546001600160a01b0316336001600160a01b031614611c6c57600080fd5b6001600160a01b038116611c7f57600080fd5b6040516001600160a01b038216907fa3b62bc36326052d97ea62d63c3d60308ed4c3ea8ac079dd8499f1e9c4f80c0f90600090a26001600160a01b03166000908152600160205260409020805460ff19169055565b60208181548110611ce457600080fd5b6000918252602090912001546001600160a01b0316905081565b600981815481106110b057600080fd5b6060600082516001611d2091906143a0565b6001600160401b03811115611d3757611d37613cad565b604051908082528060200260200182016040528015611d60578160200160208202803683370190505b50905060005b8351811015610ffb57838181518110611d8157611d81614359565b6020026020010151828281518110611d9b57611d9b614359565b602090810291909101015280611db081614385565b915050611d66565b60606000805b8351811015611ecd5760196000858381518110611ddd57611ddd614359565b60200260200101516001600160a01b03166001600160a01b0316815260200190815260200160002091506000805b8551811015611e5e57858181518110611e2657611e26614359565b60200260200101516001600160a01b0316826001600160a01b03161415611e4c57600091505b80611e5681614385565b915050611e0b565b506001600160a01b03811615611eba57611e7785610f44565b9450808560018751611e899190614412565b81518110611e9957611e99614359565b60200260200101906001600160a01b031690816001600160a01b0316815250505b5080611ec581614385565b915050611dbe565b509192915050565b6060600082516001611ee791906143a0565b6001600160401b03811115611efe57611efe613cad565b604051908082528060200260200182016040528015611f27578160200160208202803683370190505b50905060005b8351811015610ffb57838181518110611f4857611f48614359565b6020026020010151828281518110611f6257611f62614359565b9115156020928302919091019091015280611f7c81614385565b915050611f2d565b600c81815481106110b057600080fd5b600060608060606000611fa78787612557565b9a9950505050505050505050565b336000908152601960205260409020602254156120ed576022546003546001600160a01b031663dd62ed3e336040516001600160e01b031960e084901b1681526001600160a01b039091166004820152306024820152604401602060405180830381865afa15801561202b573d6000803e3d6000fd5b505050506040513d601f19601f8201168201806040525081019061204f919061430a565b101561205a57600080fd5b6003546001600160a01b03166323b872dd336022546040516001600160e01b031960e085901b1681526001600160a01b03909216600483015230602483015260448201526064016020604051808303816000875af11580156120c0573d6000803e3d6000fd5b505050506040513d601f19601f820116820180604052508101906120e4919061433c565b6120ed57600080fd5b6002602354106121f85760005b6024548110156121f657600354602080546001600160a01b039092169163a9059cbb91908490811061212e5761212e614359565b9060005260206000200160009054906101000a90046001600160a01b031661218360646112c16021878154811061216757612167614359565b90600052602060002001546022546137b590919063ffffffff16565b6040518363ffffffff1660e01b81526004016121a0929190614323565b6020604051808303816000875af11580156121bf573d6000803e3d6000fd5b505050506040513d601f19601f820116820180604052508101906121e3919061433c565b50806121ee81614385565b9150506120fa565b505b805460ff1661232e57805460ff19166001178155601154600f5461221c91906143b8565b61222690426143a0565b6001820155336000908152601a6020526040902080546001600160a01b0319166001600160a01b0385169081179091551561228b576001600160a01b0383166000908152601960205260408120600881018054919261228483614385565b9190505550505b6015805490600061229b83614385565b90915550506040805160a081018252600080825260208083018290528284018290526060830182905260808301829052338252601e9052919091206122e1916005613abf565b50601f80546000908152601c6020908152604080832080546001600160a01b031916339081179091558454908452601d9092528220819055919061232483614385565b9190505550612353565b601154600f5461233e91906143b8565b816001015461234d91906143a0565b60018201555b81516123689060098301906020850190613a3b565b50505050565b6001600160a01b0381166000908152601960209081526040808320815161018081018352815460ff16151581526001820154938101939093526002810154918301919091526003810154606083015260048101546080830152600581015460a0830152600681015460c0830152600781015460e0830152600881015461010083015260098101805484939291610120840191612409906143d7565b80601f0160208091040260200160405190810160405280929190818152602001828054612435906143d7565b80156124825780601f1061245757610100808354040283529160200191612482565b820191906000526020600020905b81548152906001019060200180831161246557829003601f168201915b50505050508152602001600a8201805480602002602001604051908101604052809291908181526020016000905b828210156125195760008481526020908190206040805160a0810182526004860290920180548352600180820154848601526002820154928401929092526003015460ff80821615156060850152610100909104161515608083015290835290920191016124b0565b505050508152602001600b82015481525050905060065481610160015161254091906143b8565b9392505050565b60248181548110611ce457600080fd5b6001600160a01b0382166000908152601960205260408120606091829182919082808084808080805b600a89015481101561281f57600089600a0182815481106125a3576125a3614359565b906000526020600020906004020190508060030160019054906101000a900460ff1615158f151514156126f0576125d989611d0e565b98506125e488611d0e565b97506125ef87611ed5565b9650806000015488838151811061260857612608614359565b60200260200101818152505061261c6114fa565b815461262891906143a0565b945080600001548a6006015411612640578054612646565b89600601545b93508442116126555742612657565b845b9250831580159061266757508284105b156126c8576126746114fa565b61267e8585614412565b826002015461268d91906143b8565b6126979190614429565b6126a190876143a0565b955060018783815181106126b7576126b7614359565b911515602092830291909101909101525b80600201548983815181106126df576126df614359565b60200260200101818152505061280c565b6126f989611d0e565b985061270488611d0e565b975061270f87611ed5565b9650806000015488838151811061272857612728614359565b60200260200101818152505061273c6114fa565b815461274891906143a0565b945080600001548a6005015411612760578054612766565b89600501545b93508442116127755742612777565b845b9250831580159061278757508284105b156127e8576127946114fa565b61279e8585614412565b82600201546127ad91906143b8565b6127b79190614429565b6127c190876143a0565b955060018783815181106127d7576127d7614359565b911515602092830291909101909101525b80600201548983815181106127ff576127ff614359565b6020026020010181815250505b508061281781614385565b915050612580565b50959d949c50929a50909850919650505050505050565b600080546001600160a01b0316336001600160a01b03161461285757600080fd5b825161286a906024906020860190613b5f565b50815161287e906025906020850190613bb4565b5060019392505050565b600080546001600160a01b0316336001600160a01b0316146128a957600080fd5b50602255600190565b600080546001600160a01b0316336001600160a01b0316146128d357600080fd5b50600e805460ff191682151517905590565b600080546001600160a01b0316336001600160a01b03161461290657600080fd5b50601355600190565b600080546001600160a01b0316336001600160a01b03161461293057600080fd5b50600881905590565b600e5460ff1661294857600080fd5b6000601981336001600160a01b03908116825260208201929092526040908101600020600281015460035492516370a0823160e01b815230600482015291945092839216906370a0823190602401602060405180830381865afa1580156129b3573d6000803e3d6000fd5b505050506040513d601f19601f820116820180604052508101906129d7919061430a565b1015612a3c5760405162461bcd60e51b815260206004820152602e60248201527f6e6f206861792073616c646f20656e20656c20636f6e747261746f207061726160448201526d20686163657220656c207061676f60901b6064820152608401611811565b600454811015612a4b57600080fd5b600160235410612bcb5760005b602054811015612b3857600354602080546001600160a01b039092169163a9059cbb919084908110612a8c57612a8c614359565b9060005260206000200160009054906101000a90046001600160a01b0316612ac560646112c1602187815481106112a7576112a7614359565b6040518363ffffffff1660e01b8152600401612ae2929190614323565b6020604051808303816000875af1158015612b01573d6000803e3d6000fd5b505050506040513d601f19601f82011682018060405250810190612b25919061433c565b5080612b3081614385565b915050612a58565b506003546001600160a01b031663a9059cbb33612b6560646112c1601354876137b590919063ffffffff16565b6040518363ffffffff1660e01b8152600401612b82929190614323565b6020604051808303816000875af1158015612ba1573d6000803e3d6000fd5b505050506040513d601f19601f82011682018060405250810190612bc5919061433c565b50612c59565b6003546001600160a01b031663a9059cbb33612bf760646112c1601354876137b590919063ffffffff16565b6040518363ffffffff1660e01b8152600401612c14929190614323565b6020604051808303816000875af1158015612c33573d6000803e3d6000fd5b505050506040513d601f19601f82011682018060405250810190612c57919061433c565b505b506000600290910155565b60008111612cb45760405162461bcd60e51b815260206004820152601e60248201527f63616e7469646164206d696e696d6120646520626c6f6b6573206573203100006044820152606401611811565b336000908152601960205260409020805460ff16612d095760405162461bcd60e51b81526020600482015260126024820152716e6f2065737461207265676973747261646f60701b6044820152606401611811565b80600101544210612d525760405162461bcd60e51b815260206004820152601360248201527206e6f207469656e65206d656d6265727368697606c1b6044820152606401611811565b600082600654612d6291906143b8565b60035490915081906001600160a01b031663dd62ed3e336040516001600160e01b031960e084901b1681526001600160a01b039091166004820152306024820152604401602060405180830381865afa158015612dc3573d6000803e3d6000fd5b505050506040513d601f19601f82011682018060405250810190612de7919061430a565b1015612e355760405162461bcd60e51b815260206004820152601b60248201527f73616c646f206170726f7661646f20696e737566696369656e746500000000006044820152606401611811565b6003546001600160a01b03166323b872dd336040516001600160e01b031960e084901b1681526001600160a01b039091166004820152306024820152604481018490526064016020604051808303816000875af1158015612e9a573d6000803e3d6000fd5b505050506040513d601f19601f82011682018060405250810190612ebe919061433c565b612f015760405162461bcd60e51b81526020600482015260146024820152737472616e666572656e6369612066616c6c69646160601b6044820152606401611811565b336000908152601a60205260409020546001600160a01b031615612fe657600854600a8301541015612f8d57612f8833826009805480602002602001604051908101604052809291908181526020018280548015612f7e57602002820191906000526020600020905b815481526020019060010190808311612f6a575b5050505050613809565b612fe6565b612fe63382600a805480602002602001604051908101604052809291908181526020018280548015612f7e5760200282019190600052602060002090815481526020019060010190808311612f6a575050505050613809565b81600a016040518060a0016040528042815260200161301560646112c1601254876137b590919063ffffffff16565b815260200161303460646112c1601254876137b590919063ffffffff16565b815260016020808301829052600060409384018190528554808401875595815281812085516004978802909101908155918501519282019290925591830151600283015560608301516003909201805460809094015115156101000261ff00199315159390931661ffff19909416939093179190911790915590830180548392906130c09084906143a0565b9250508190555080601660008282546130d991906143a0565b90915550600090505b60245481101561236857600354602480546001600160a01b039092169163a9059cbb91908490811061311657613116614359565b9060005260206000200160009054906101000a90046001600160a01b031661314f60646112c1602587815481106112a7576112a7614359565b6040518363ffffffff1660e01b815260040161316c929190614323565b6020604051808303816000875af115801561318b573d6000803e3d6000fd5b505050506040513d601f19601f820116820180604052508101906131af919061433c565b50806131ba81614385565b9150506130e2565b600080546001600160a01b0316336001600160a01b0316146131e357600080fd5b83516131f59060209081870190613b5f565b508251613209906021906020860190613bb4565b5050602355506001919050565b600e5460ff1661322557600080fd5b33600081815260196020526040812091613240906001611f94565b6003546040516370a0823160e01b815230600482015291925082916001600160a01b03909116906370a0823190602401602060405180830381865afa15801561328d573d6000803e3d6000fd5b505050506040513d601f19601f820116820180604052508101906132b1919061430a565b10156132bc57600080fd5b6004548110156132cb57600080fd5b60016023541061344b5760005b6020548110156133b857600354602080546001600160a01b039092169163a9059cbb91908490811061330c5761330c614359565b9060005260206000200160009054906101000a90046001600160a01b031661334560646112c1602187815481106112a7576112a7614359565b6040518363ffffffff1660e01b8152600401613362929190614323565b6020604051808303816000875af1158015613381573d6000803e3d6000fd5b505050506040513d601f19601f820116820180604052508101906133a5919061433c565b50806133b081614385565b9150506132d8565b506003546001600160a01b031663a9059cbb336133e560646112c1601354876137b590919063ffffffff16565b6040518363ffffffff1660e01b8152600401613402929190614323565b6020604051808303816000875af1158015613421573d6000803e3d6000fd5b505050506040513d601f19601f82011682018060405250810190613445919061433c565b506134d9565b6003546001600160a01b031663a9059cbb3361347760646112c1601354876137b590919063ffffffff16565b6040518363ffffffff1660e01b8152600401613494929190614323565b6020604051808303816000875af11580156134b3573d6000803e3d6000fd5b505050506040513d601f19601f820116820180604052508101906134d7919061433c565b505b808260070160008282546134ed91906143a0565b90915550504260068301556018805482919060009061148f9084906143a0565b600b81815481106110b057600080fd5b6000546001600160a01b0316336001600160a01b03161461353d57600080fd5b6001600160a01b03811661355057600080fd5b600080546040516001600160a01b03808516939216917f8be0079c531659141344cd1fd0a4f28419497f9722a3daafe3b4186f6b6457e091a3600080546001600160a01b0319166001600160a01b0392909216919091179055565b3360009081526001602052604081205460ff166135c757600080fd5b50601081905590565b600080546001600160a01b0316336001600160a01b0316146135f157600080fd5b600080546040516001600160a01b03909116914780156108fc02929091818181858888f1935050505015801561362b573d6000803e3d6000fd5b5047905090565b3360009081526001602052604081205460ff1661364e57600080fd5b6001600160a01b0382166000908152601960205260409020805460ff1661378757805460ff19166001178155601154600f5461368a91906143b8565b61369490426143a0565b6001820155336000818152601a6020526040902080546001600160a01b03191682179055156136e45733600090815260196020526040812060088101805491926136dd83614385565b9190505550505b601580549060006136f483614385565b90915550506040805160a081018252600080825260208083018290528284018290526060830182905260808301829052338252601e90529190912061373a916005613abf565b50601f80546000908152601c6020908152604080832080546001600160a01b031916339081179091558454908452601d9092528220819055919061377d83614385565b91905055506137ac565b601154600f5461379791906143b8565b81600101546137a691906143a0565b60018201555b50600192915050565b6000826137c457506000610f3e565b60006137d083856143b8565b9050826137dd8583614429565b1461254057600080fd5b60008082116137f557600080fd5b60006138018385614429565b949350505050565b6060613816848351610ead565b905060008060005b8451811015613a325784818151811061383957613839614359565b6020026020010151600014613a1b576019600085838151811061385e5761385e614359565b6020908102919091018101516001600160a01b03168252810191909152604001600020805490925060ff168015613899575042826001015410155b15613a205760006001600160a01b03168482815181106138bb576138bb614359565b60200260200101516001600160a01b031614613a1b576139036103e86112c18784815181106138ec576138ec614359565b6020026020010151896137b590919063ffffffff16565b92508282600201600082825461391991906143a0565b925050819055508282600301600082825461393491906143a0565b9250508190555081600a016040518060a0016040528042815260200161396b6103e86112c1601254896137b590919063ffffffff16565b815260200161398b6103e86112c1601254896137b590919063ffffffff16565b81526001602080830182905260409283018290528454808301865560009586528186208551600490920201908155908401519181019190915590820151600282015560608201516003909101805460809093015115156101000261ff00199215159290921661ffff199093169290921717905560178054859290613a109084906143a0565b90915550613a209050565b613a32565b80613a2a81614385565b91505061381e565b50505050505050565b828054613a47906143d7565b90600052602060002090601f016020900481019282613a695760008555613aaf565b82601f10613a8257805160ff1916838001178555613aaf565b82800160010185558215613aaf579182015b82811115613aaf578251825591602001919060010190613a94565b50613abb929150613bee565b5090565b82805482825590600052602060002090601f01602090048101928215613aaf5791602002820160005b83821115613b2557835183826101000a81548160ff0219169083151502179055509260200192600101602081600001049283019260010302613ae8565b8015613b525782816101000a81549060ff0219169055600101602081600001049283019260010302613b25565b5050613abb929150613bee565b828054828255906000526020600020908101928215613aaf579160200282015b82811115613aaf57825182546001600160a01b0319166001600160a01b03909116178255602090920191600190910190613b7f565b828054828255906000526020600020908101928215613aaf5791602002820182811115613aaf578251825591602001919060010190613a94565b5b80821115613abb5760008155600101613bef565b600060208284031215613c1557600080fd5b5035919050565b6001600160a01b0381168114613c3157600080fd5b50565b60008060408385031215613c4757600080fd5b8235613c5281613c1c565b946020939093013593505050565b6020808252825182820181905260009190848201906040850190845b81811015613ca15783516001600160a01b031683529284019291840191600101613c7c565b50909695505050505050565b634e487b7160e01b600052604160045260246000fd5b604051601f8201601f191681016001600160401b0381118282101715613ceb57613ceb613cad565b604052919050565b60006001600160401b03821115613d0c57613d0c613cad565b5060051b60200190565b600082601f830112613d2757600080fd5b81356020613d3c613d3783613cf3565b613cc3565b82815260059290921b84018101918181019086841115613d5b57600080fd5b8286015b84811015613d7f578035613d7281613c1c565b8352918301918301613d5f565b509695505050505050565b600060208284031215613d9c57600080fd5b81356001600160401b03811115613db257600080fd5b61380184828501613d16565b60008060408385031215613dd157600080fd5b50508035926020909101359150565b600081518084526020808501945080840160005b83811015613e1057815187529582019590820190600101613df4565b509495945050505050565b6020815260006125406020830184613de0565b600060208284031215613e4057600080fd5b813561254081613c1c565b8015158114613c3157600080fd5b600080600060608486031215613e6e57600080fd5b8335613e7981613c1c565b9250602084013591506040840135613e9081613e4b565b809150509250925092565b600082601f830112613eac57600080fd5b81356001600160401b03811115613ec557613ec5613cad565b613ed8601f8201601f1916602001613cc3565b818152846020838601011115613eed57600080fd5b816020850160208301376000918101602001919091529392505050565b600060208284031215613f1c57600080fd5b81356001600160401b03811115613f3257600080fd5b61380184828501613e9b565b60006101608d1515835260208d818501528c60408501528b60608501528a60808501528960a08501528860c08501528760e0850152866101008501528161012085015285518083860152600092505b80831015613fac57868301820151858401610180015291810191613f8d565b80831115613fbf57600061018082870101525b610140850195909552505050601f91909101601f191601610180019a9950505050505050505050565b600082601f830112613ff957600080fd5b81356020614009613d3783613cf3565b82815260059290921b8401810191818101908684111561402857600080fd5b8286015b84811015613d7f578035835291830191830161402c565b60006020828403121561405557600080fd5b81356001600160401b0381111561406b57600080fd5b61380184828501613fe8565b6000602080838503121561408a57600080fd5b82356001600160401b038111156140a057600080fd5b8301601f810185136140b157600080fd5b80356140bf613d3782613cf3565b81815260059190911b820183019083810190878311156140de57600080fd5b928401925b828410156141055783356140f681613e4b565b825292840192908401906140e3565b979650505050505050565b600081518084526020808501945080840160005b83811015613e10578151151587529582019590820190600101614124565b6020815260006125406020830184614110565b6000806040838503121561416857600080fd5b823561417381613c1c565b9150602083013561418381613e4b565b809150509250929050565b600080604083850312156141a157600080fd5b82356141ac81613c1c565b915060208301356001600160401b038111156141c757600080fd5b6141d385828601613e9b565b9150509250929050565b6080815260006141f06080830187613de0565b82810360208401526142028187613de0565b905082810360408401526142168186614110565b91505082606083015295945050505050565b6000806040838503121561423b57600080fd5b82356001600160401b038082111561425257600080fd5b61425e86838701613d16565b9350602085013591508082111561427457600080fd5b506141d385828601613fe8565b60006020828403121561429357600080fd5b813561254081613e4b565b6000806000606084860312156142b357600080fd5b83356001600160401b03808211156142ca57600080fd5b6142d687838801613d16565b945060208601359150808211156142ec57600080fd5b506142f986828701613fe8565b925050604084013590509250925092565b60006020828403121561431c57600080fd5b5051919050565b6001600160a01b03929092168252602082015260400190565b60006020828403121561434e57600080fd5b815161254081613e4b565b634e487b7160e01b600052603260045260246000fd5b634e487b7160e01b600052601160045260246000fd5b60006000198214156143995761439961436f565b5060010190565b600082198211156143b3576143b361436f565b500190565b60008160001904831182151516156143d2576143d261436f565b500290565b600181811c908216806143eb57607f821691505b6020821081141561440c57634e487b7160e01b600052602260045260246000fd5b50919050565b6000828210156144245761442461436f565b500390565b60008261444657634e487b7160e01b600052601260045260246000fd5b50049056fea264697066735822122094abf7654dfb8e821b8a516928ef58a9cc7e20307c913778a57fddf7c1272d7c64736f6c634300080a0033",
    "sourcePath": "c:/Users/STC/Documents/GitHub/0-INFINITY-BLOCKS-TEST-UNILEVEL/contracts/UnilevelSystem.sol",
    "compiler": {
        "name": "solc",
        "version": "0.8.10+commit.fc410830"
    },
    "functionHashes": {
        "ChangeTokenPrincipal(address)": "50da983f",
        "MIN_RETIRO()": "6c529279",
        "MIN_RETIRO_interno()": "4bdcd429",
        "PRECIO_BLOCK()": "24de19f2",
        "activerFee()": "bd9bee19",
        "actualizarArrayBool(bool[])": "7fcc1e36",
        "actualizarArrayUint256(uint256[])": "7367b080",
        "actualizarNetwork(address[])": "1ce7f99b",
        "addressToId(address)": "cb0e0d7d",
        "admin(address)": "63a846f8",
        "allnetwork(address[])": "7faee047",
        "asignarBloke(address,uint256,bool)": "67f74aab",
        "asignarMembership(address)": "fd686519",
        "buyBlocks(uint256)": "c17dbdf9",
        "column(address,uint256)": "15e8392b",
        "columnHijos(address,uint256)": "5bc94cd2",
        "controlWitdrawl(bool)": "b17b6e44",
        "depositos(address,bool)": "a365528b",
        "descuento()": "7b0412ed",
        "dias()": "ab6db199",
        "duracionMembership()": "c40d5dbc",
        "gananciasRango(uint256)": "81032892",
        "hijos(address,uint256)": "4ea92189",
        "idToAddress(uint256)": "2a2d0c47",
        "infinity(uint256)": "edf5eb1d",
        "inversiones()": "a77d2119",
        "investors(address)": "6f7bc9be",
        "lastUserId()": "348d4487",
        "makeNewAdmin(address)": "69ed1e0a",
        "makeRemoveAdmin(address)": "70a0966b",
        "newRecompensa()": "69f4a84b",
        "onOffWitdrawl()": "e7348e8c",
        "owner()": "8da5cb5b",
        "padre(address)": "b35f0a8f",
        "personas()": "cc759ba2",
        "porcent()": "4728f718",
        "porcientos(uint256)": "28cca719",
        "precioRegistro()": "7db9e9c6",
        "primervez(uint256)": "725fc270",
        "puntosRango(uint256)": "21309f21",
        "rangoReclamado(address,uint256)": "2acc8210",
        "redimBNB()": "fd14d598",
        "redimTokenPrincipal02(uint256)": "1140e85b",
        "registro(address,string)": "8f9ef8c1",
        "setDescuento(uint256)": "b3d9fa09",
        "setInversiones(uint256)": "b85ea335",
        "setMIN_RETIRO(uint256)": "4de1be62",
        "setPorcientos(uint256,uint256)": "1e403c35",
        "setPorcientosSalida(uint256,uint256)": "5d216c60",
        "setPrecioRegistro(uint256)": "aaa749c5",
        "setPriceBlock(uint256)": "2e8a03cf",
        "setPrimeravezPorcientos(uint256,uint256)": "54822522",
        "setRetorno(uint256)": "6589fa8a",
        "setTiempo(uint256)": "f90b3f5a",
        "setTiempoUnidades(uint256)": "2748d29b",
        "setWalletFee(address[],uint256[],uint256)": "db3be1a2",
        "setWalletstransfers(address[],uint256[])": "a8beb717",
        "setstate()": "85338e20",
        "tiempo()": "50188c08",
        "tokenPricipal()": "b1390426",
        "totalInvested()": "5216aeec",
        "totalInvestors()": "29b8caff",
        "totalRefRewards()": "bfe0e020",
        "totalRefWitdrawl()": "9b8ff503",
        "transferOwnership(address)": "f2fde38b",
        "unidades()": "4b9b8203",
        "updateData(string)": "68446ead",
        "valor(uint256)": "62550916",
        "valorFee(uint256)": "29e1a243",
        "wallet(uint256)": "a2781335",
        "walletFee(uint256)": "7251b9ac",
        "withdraw()": "3ccfd60b",
        "withdraw2()": "ea98847b",
        "withdrawTeam()": "bb51f32d",
        "withdrawable(address,bool)": "89b2521c",
        "withdrawableRange(address)": "98c07d0a"
    },
    "gasEstimates": {
        "creation": {
            "codeDepositCost": "3507400",
            "executionCost": "infinite",
            "totalCost": "infinite"
        },
        "external": {
            "": "231",
            "ChangeTokenPrincipal(address)": "51139",
            "MIN_RETIRO()": "2351",
            "MIN_RETIRO_interno()": "2418",
            "PRECIO_BLOCK()": "2375",
            "activerFee()": "2373",
            "actualizarArrayBool(bool[])": "infinite",
            "actualizarArrayUint256(uint256[])": "infinite",
            "actualizarNetwork(address[])": "infinite",
            "addressToId(address)": "2569",
            "admin(address)": "2681",
            "allnetwork(address[])": "infinite",
            "asignarBloke(address,uint256,bool)": "infinite",
            "asignarMembership(address)": "infinite",
            "buyBlocks(uint256)": "infinite",
            "column(address,uint256)": "infinite",
            "columnHijos(address,uint256)": "infinite",
            "controlWitdrawl(bool)": "26811",
            "depositos(address,bool)": "infinite",
            "descuento()": "2375",
            "dias()": "2417",
            "duracionMembership()": "2439",
            "gananciasRango(uint256)": "4654",
            "hijos(address,uint256)": "4847",
            "idToAddress(uint256)": "2568",
            "infinity(uint256)": "4630",
            "inversiones()": "2351",
            "investors(address)": "infinite",
            "lastUserId()": "2441",
            "makeNewAdmin(address)": "28110",
            "makeRemoveAdmin(address)": "28069",
            "newRecompensa()": "infinite",
            "onOffWitdrawl()": "2443",
            "owner()": "2493",
            "padre(address)": "2642",
            "personas()": "2373",
            "porcent()": "2374",
            "porcientos(uint256)": "4699",
            "precioRegistro()": "2397",
            "primervez(uint256)": "4719",
            "puntosRango(uint256)": "4633",
            "rangoReclamado(address,uint256)": "6516",
            "redimBNB()": "infinite",
            "redimTokenPrincipal02(uint256)": "infinite",
            "registro(address,string)": "infinite",
            "setDescuento(uint256)": "24668",
            "setInversiones(uint256)": "24676",
            "setMIN_RETIRO(uint256)": "24698",
            "setPorcientos(uint256,uint256)": "infinite",
            "setPorcientosSalida(uint256,uint256)": "infinite",
            "setPrecioRegistro(uint256)": "24667",
            "setPriceBlock(uint256)": "24691",
            "setPrimeravezPorcientos(uint256,uint256)": "infinite",
            "setRetorno(uint256)": "24640",
            "setTiempo(uint256)": "24682",
            "setTiempoUnidades(uint256)": "24655",
            "setWalletFee(address[],uint256[],uint256)": "infinite",
            "setWalletstransfers(address[],uint256[])": "infinite",
            "setstate()": "6640",
            "tiempo()": "infinite",
            "tokenPricipal()": "2492",
            "totalInvested()": "2419",
            "totalInvestors()": "2441",
            "totalRefRewards()": "2395",
            "totalRefWitdrawl()": "2396",
            "transferOwnership(address)": "30500",
            "unidades()": "2396",
            "updateData(string)": "infinite",
            "valor(uint256)": "4698",
            "valorFee(uint256)": "4633",
            "wallet(uint256)": "4748",
            "walletFee(uint256)": "4747",
            "withdraw()": "infinite",
            "withdraw2()": "infinite",
            "withdrawTeam()": "infinite",
            "withdrawable(address,bool)": "infinite",
            "withdrawableRange(address)": "infinite"
        },
        "internal": {
            "rewardReferers(address,uint256,uint256[] memory)": "infinite"
        }
    }
}