{
    "contractName": "UnilevelSystem",
    "abi": [
        {
            "inputs": [],
            "stateMutability": "nonpayable",
            "type": "constructor"
        },
        {
            "anonymous": false,
            "inputs": [
                {
                    "indexed": true,
                    "internalType": "address",
                    "name": "admin",
                    "type": "address"
                }
            ],
            "name": "AdminRemoved",
            "type": "event"
        },
        {
            "anonymous": false,
            "inputs": [
                {
                    "indexed": true,
                    "internalType": "address",
                    "name": "admin",
                    "type": "address"
                }
            ],
            "name": "NewAdmin",
            "type": "event"
        },
        {
            "anonymous": false,
            "inputs": [
                {
                    "indexed": true,
                    "internalType": "address",
                    "name": "previousOwner",
                    "type": "address"
                },
                {
                    "indexed": true,
                    "internalType": "address",
                    "name": "newOwner",
                    "type": "address"
                }
            ],
            "name": "OwnershipTransferred",
            "type": "event"
        },
        {
            "stateMutability": "payable",
            "type": "fallback"
        },
        {
            "inputs": [
                {
                    "internalType": "address",
                    "name": "_tokenTRC20",
                    "type": "address"
                }
            ],
            "name": "ChangeTokenPrincipal",
            "outputs": [
                {
                    "internalType": "bool",
                    "name": "",
                    "type": "bool"
                }
            ],
            "stateMutability": "nonpayable",
            "type": "function"
        },
        {
            "inputs": [],
            "name": "MIN_RETIRO",
            "outputs": [
                {
                    "internalType": "uint256",
                    "name": "",
                    "type": "uint256"
                }
            ],
            "stateMutability": "view",
            "type": "function"
        },
        {
            "inputs": [],
            "name": "PRECIO_BLOCK",
            "outputs": [
                {
                    "internalType": "uint256",
                    "name": "",
                    "type": "uint256"
                }
            ],
            "stateMutability": "view",
            "type": "function"
        },
        {
            "inputs": [],
            "name": "activerFee",
            "outputs": [
                {
                    "internalType": "uint256",
                    "name": "",
                    "type": "uint256"
                }
            ],
            "stateMutability": "view",
            "type": "function"
        },
        {
            "inputs": [
                {
                    "internalType": "bool[]",
                    "name": "old",
                    "type": "bool[]"
                }
            ],
            "name": "actualizarArrayBool",
            "outputs": [
                {
                    "internalType": "bool[]",
                    "name": "",
                    "type": "bool[]"
                }
            ],
            "stateMutability": "pure",
            "type": "function"
        },
        {
            "inputs": [
                {
                    "internalType": "uint256[]",
                    "name": "old",
                    "type": "uint256[]"
                }
            ],
            "name": "actualizarArrayUint256",
            "outputs": [
                {
                    "internalType": "uint256[]",
                    "name": "",
                    "type": "uint256[]"
                }
            ],
            "stateMutability": "pure",
            "type": "function"
        },
        {
            "inputs": [
                {
                    "internalType": "address[]",
                    "name": "oldNetwork",
                    "type": "address[]"
                }
            ],
            "name": "actualizarNetwork",
            "outputs": [
                {
                    "internalType": "address[]",
                    "name": "",
                    "type": "address[]"
                }
            ],
            "stateMutability": "pure",
            "type": "function"
        },
        {
            "inputs": [
                {
                    "internalType": "address",
                    "name": "",
                    "type": "address"
                }
            ],
            "name": "addressToId",
            "outputs": [
                {
                    "internalType": "uint256",
                    "name": "",
                    "type": "uint256"
                }
            ],
            "stateMutability": "view",
            "type": "function"
        },
        {
            "inputs": [
                {
                    "internalType": "address",
                    "name": "",
                    "type": "address"
                }
            ],
            "name": "admin",
            "outputs": [
                {
                    "internalType": "bool",
                    "name": "",
                    "type": "bool"
                }
            ],
            "stateMutability": "view",
            "type": "function"
        },
        {
            "inputs": [
                {
                    "internalType": "address[]",
                    "name": "network",
                    "type": "address[]"
                }
            ],
            "name": "allnetwork",
            "outputs": [
                {
                    "internalType": "address[]",
                    "name": "",
                    "type": "address[]"
                }
            ],
            "stateMutability": "view",
            "type": "function"
        },
        {
            "inputs": [
                {
                    "internalType": "address",
                    "name": "_user",
                    "type": "address"
                },
                {
                    "internalType": "uint256",
                    "name": "_bloks",
                    "type": "uint256"
                },
                {
                    "internalType": "bool",
                    "name": "_infinity",
                    "type": "bool"
                }
            ],
            "name": "asignarBloke",
            "outputs": [
                {
                    "internalType": "bool",
                    "name": "",
                    "type": "bool"
                }
            ],
            "stateMutability": "nonpayable",
            "type": "function"
        },
        {
            "inputs": [
                {
                    "internalType": "address",
                    "name": "_user",
                    "type": "address"
                }
            ],
            "name": "asignarMembership",
            "outputs": [
                {
                    "internalType": "bool",
                    "name": "",
                    "type": "bool"
                }
            ],
            "stateMutability": "nonpayable",
            "type": "function"
        },
        {
            "inputs": [
                {
                    "internalType": "uint256",
                    "name": "_bloks",
                    "type": "uint256"
                }
            ],
            "name": "buyBlocks",
            "outputs": [],
            "stateMutability": "nonpayable",
            "type": "function"
        },
        {
            "inputs": [
                {
                    "internalType": "address",
                    "name": "yo",
                    "type": "address"
                },
                {
                    "internalType": "uint256",
                    "name": "_largo",
                    "type": "uint256"
                }
            ],
            "name": "column",
            "outputs": [
                {
                    "internalType": "address[]",
                    "name": "",
                    "type": "address[]"
                }
            ],
            "stateMutability": "view",
            "type": "function"
        },
        {
            "inputs": [
                {
                    "internalType": "address",
                    "name": "yo",
                    "type": "address"
                }
            ],
            "name": "columnHijos",
            "outputs": [
                {
                    "internalType": "address[]",
                    "name": "",
                    "type": "address[]"
                }
            ],
            "stateMutability": "view",
            "type": "function"
        },
        {
            "inputs": [
                {
                    "internalType": "bool",
                    "name": "_true_false",
                    "type": "bool"
                }
            ],
            "name": "controlWitdrawl",
            "outputs": [
                {
                    "internalType": "bool",
                    "name": "",
                    "type": "bool"
                }
            ],
            "stateMutability": "nonpayable",
            "type": "function"
        },
        {
            "inputs": [
                {
                    "internalType": "address",
                    "name": "_user",
                    "type": "address"
                },
                {
                    "internalType": "bool",
                    "name": "_infinity",
                    "type": "bool"
                }
            ],
            "name": "depositos",
            "outputs": [
                {
                    "internalType": "uint256[]",
                    "name": "",
                    "type": "uint256[]"
                },
                {
                    "internalType": "uint256[]",
                    "name": "",
                    "type": "uint256[]"
                },
                {
                    "internalType": "bool[]",
                    "name": "",
                    "type": "bool[]"
                },
                {
                    "internalType": "uint256",
                    "name": "",
                    "type": "uint256"
                }
            ],
            "stateMutability": "view",
            "type": "function"
        },
        {
            "inputs": [],
            "name": "descuento",
            "outputs": [
                {
                    "internalType": "uint256",
                    "name": "",
                    "type": "uint256"
                }
            ],
            "stateMutability": "view",
            "type": "function"
        },
        {
            "inputs": [],
            "name": "dias",
            "outputs": [
                {
                    "internalType": "uint256",
                    "name": "",
                    "type": "uint256"
                }
            ],
            "stateMutability": "view",
            "type": "function"
        },
        {
            "inputs": [],
            "name": "duracionMembership",
            "outputs": [
                {
                    "internalType": "uint256",
                    "name": "",
                    "type": "uint256"
                }
            ],
            "stateMutability": "view",
            "type": "function"
        },
        {
            "inputs": [
                {
                    "internalType": "uint256",
                    "name": "",
                    "type": "uint256"
                }
            ],
            "name": "gananciasRango",
            "outputs": [
                {
                    "internalType": "uint256",
                    "name": "",
                    "type": "uint256"
                }
            ],
            "stateMutability": "view",
            "type": "function"
        },
        {
            "inputs": [
                {
                    "internalType": "address",
                    "name": "",
                    "type": "address"
                },
                {
                    "internalType": "uint256",
                    "name": "",
                    "type": "uint256"
                }
            ],
            "name": "hijo",
            "outputs": [
                {
                    "internalType": "address",
                    "name": "",
                    "type": "address"
                }
            ],
            "stateMutability": "view",
            "type": "function"
        },
        {
            "inputs": [
                {
                    "internalType": "uint256",
                    "name": "",
                    "type": "uint256"
                }
            ],
            "name": "idToAddress",
            "outputs": [
                {
                    "internalType": "address",
                    "name": "",
                    "type": "address"
                }
            ],
            "stateMutability": "view",
            "type": "function"
        },
        {
            "inputs": [
                {
                    "internalType": "uint256",
                    "name": "",
                    "type": "uint256"
                }
            ],
            "name": "infinity",
            "outputs": [
                {
                    "internalType": "uint256",
                    "name": "",
                    "type": "uint256"
                }
            ],
            "stateMutability": "view",
            "type": "function"
        },
        {
            "inputs": [],
            "name": "inversiones",
            "outputs": [
                {
                    "internalType": "uint256",
                    "name": "",
                    "type": "uint256"
                }
            ],
            "stateMutability": "view",
            "type": "function"
        },
        {
            "inputs": [
                {
                    "internalType": "address",
                    "name": "",
                    "type": "address"
                }
            ],
            "name": "investors",
            "outputs": [
                {
                    "internalType": "bool",
                    "name": "registered",
                    "type": "bool"
                },
                {
                    "internalType": "uint256",
                    "name": "membership",
                    "type": "uint256"
                },
                {
                    "internalType": "uint256",
                    "name": "balanceRef",
                    "type": "uint256"
                },
                {
                    "internalType": "uint256",
                    "name": "totalRef",
                    "type": "uint256"
                },
                {
                    "internalType": "uint256",
                    "name": "totalInfinit",
                    "type": "uint256"
                },
                {
                    "internalType": "uint256",
                    "name": "invested",
                    "type": "uint256"
                },
                {
                    "internalType": "uint256",
                    "name": "paidAt",
                    "type": "uint256"
                },
                {
                    "internalType": "uint256",
                    "name": "paidAt2",
                    "type": "uint256"
                },
                {
                    "internalType": "uint256",
                    "name": "withdrawn",
                    "type": "uint256"
                },
                {
                    "internalType": "uint256",
                    "name": "directos",
                    "type": "uint256"
                },
                {
                    "internalType": "string",
                    "name": "data",
                    "type": "string"
                },
                {
                    "internalType": "uint256",
                    "name": "blokesDirectos",
                    "type": "uint256"
                }
            ],
            "stateMutability": "view",
            "type": "function"
        },
        {
            "inputs": [],
            "name": "lastUserId",
            "outputs": [
                {
                    "internalType": "uint256",
                    "name": "",
                    "type": "uint256"
                }
            ],
            "stateMutability": "view",
            "type": "function"
        },
        {
            "inputs": [
                {
                    "internalType": "address payable",
                    "name": "_newadmin",
                    "type": "address"
                }
            ],
            "name": "makeNewAdmin",
            "outputs": [],
            "stateMutability": "nonpayable",
            "type": "function"
        },
        {
            "inputs": [
                {
                    "internalType": "address payable",
                    "name": "_oldadmin",
                    "type": "address"
                }
            ],
            "name": "makeRemoveAdmin",
            "outputs": [],
            "stateMutability": "nonpayable",
            "type": "function"
        },
        {
            "inputs": [],
            "name": "newRecompensa",
            "outputs": [],
            "stateMutability": "nonpayable",
            "type": "function"
        },
        {
            "inputs": [],
            "name": "onOffWitdrawl",
            "outputs": [
                {
                    "internalType": "bool",
                    "name": "",
                    "type": "bool"
                }
            ],
            "stateMutability": "view",
            "type": "function"
        },
        {
            "inputs": [],
            "name": "owner",
            "outputs": [
                {
                    "internalType": "address payable",
                    "name": "",
                    "type": "address"
                }
            ],
            "stateMutability": "view",
            "type": "function"
        },
        {
            "inputs": [
                {
                    "internalType": "address",
                    "name": "",
                    "type": "address"
                }
            ],
            "name": "padre",
            "outputs": [
                {
                    "internalType": "address",
                    "name": "",
                    "type": "address"
                }
            ],
            "stateMutability": "view",
            "type": "function"
        },
        {
            "inputs": [],
            "name": "personas",
            "outputs": [
                {
                    "internalType": "uint256",
                    "name": "",
                    "type": "uint256"
                }
            ],
            "stateMutability": "view",
            "type": "function"
        },
        {
            "inputs": [],
            "name": "porcent",
            "outputs": [
                {
                    "internalType": "uint256",
                    "name": "",
                    "type": "uint256"
                }
            ],
            "stateMutability": "view",
            "type": "function"
        },
        {
            "inputs": [
                {
                    "internalType": "uint256",
                    "name": "",
                    "type": "uint256"
                }
            ],
            "name": "porcientos",
            "outputs": [
                {
                    "internalType": "uint256",
                    "name": "",
                    "type": "uint256"
                }
            ],
            "stateMutability": "view",
            "type": "function"
        },
        {
            "inputs": [],
            "name": "precioRegistro",
            "outputs": [
                {
                    "internalType": "uint256",
                    "name": "",
                    "type": "uint256"
                }
            ],
            "stateMutability": "view",
            "type": "function"
        },
        {
            "inputs": [
                {
                    "internalType": "uint256",
                    "name": "",
                    "type": "uint256"
                }
            ],
            "name": "primervez",
            "outputs": [
                {
                    "internalType": "uint256",
                    "name": "",
                    "type": "uint256"
                }
            ],
            "stateMutability": "view",
            "type": "function"
        },
        {
            "inputs": [
                {
                    "internalType": "uint256",
                    "name": "",
                    "type": "uint256"
                }
            ],
            "name": "puntosRango",
            "outputs": [
                {
                    "internalType": "uint256",
                    "name": "",
                    "type": "uint256"
                }
            ],
            "stateMutability": "view",
            "type": "function"
        },
        {
            "inputs": [
                {
                    "internalType": "address",
                    "name": "",
                    "type": "address"
                },
                {
                    "internalType": "uint256",
                    "name": "",
                    "type": "uint256"
                }
            ],
            "name": "rangoReclamado",
            "outputs": [
                {
                    "internalType": "bool",
                    "name": "",
                    "type": "bool"
                }
            ],
            "stateMutability": "view",
            "type": "function"
        },
        {
            "inputs": [],
            "name": "redimBNB",
            "outputs": [
                {
                    "internalType": "uint256",
                    "name": "",
                    "type": "uint256"
                }
            ],
            "stateMutability": "nonpayable",
            "type": "function"
        },
        {
            "inputs": [
                {
                    "internalType": "uint256",
                    "name": "_value",
                    "type": "uint256"
                }
            ],
            "name": "redimTokenPrincipal02",
            "outputs": [
                {
                    "internalType": "uint256",
                    "name": "",
                    "type": "uint256"
                }
            ],
            "stateMutability": "nonpayable",
            "type": "function"
        },
        {
            "inputs": [
                {
                    "internalType": "address",
                    "name": "_sponsor",
                    "type": "address"
                },
                {
                    "internalType": "string",
                    "name": "_datos",
                    "type": "string"
                }
            ],
            "name": "registro",
            "outputs": [],
            "stateMutability": "nonpayable",
            "type": "function"
        },
        {
            "inputs": [
                {
                    "internalType": "uint256",
                    "name": "_descuento",
                    "type": "uint256"
                }
            ],
            "name": "setDescuento",
            "outputs": [
                {
                    "internalType": "bool",
                    "name": "",
                    "type": "bool"
                }
            ],
            "stateMutability": "nonpayable",
            "type": "function"
        },
        {
            "inputs": [
                {
                    "internalType": "uint256",
                    "name": "_numerodeinverionessinganancia",
                    "type": "uint256"
                }
            ],
            "name": "setInversiones",
            "outputs": [
                {
                    "internalType": "uint256",
                    "name": "",
                    "type": "uint256"
                }
            ],
            "stateMutability": "nonpayable",
            "type": "function"
        },
        {
            "inputs": [
                {
                    "internalType": "uint256",
                    "name": "_min",
                    "type": "uint256"
                }
            ],
            "name": "setMIN_RETIRO",
            "outputs": [
                {
                    "internalType": "uint256",
                    "name": "",
                    "type": "uint256"
                }
            ],
            "stateMutability": "nonpayable",
            "type": "function"
        },
        {
            "inputs": [
                {
                    "internalType": "uint256",
                    "name": "_nivel",
                    "type": "uint256"
                },
                {
                    "internalType": "uint256",
                    "name": "_value",
                    "type": "uint256"
                }
            ],
            "name": "setPorcientos",
            "outputs": [
                {
                    "internalType": "uint256[]",
                    "name": "",
                    "type": "uint256[]"
                }
            ],
            "stateMutability": "nonpayable",
            "type": "function"
        },
        {
            "inputs": [
                {
                    "internalType": "uint256",
                    "name": "_nivel",
                    "type": "uint256"
                },
                {
                    "internalType": "uint256",
                    "name": "_value",
                    "type": "uint256"
                }
            ],
            "name": "setPorcientosSalida",
            "outputs": [
                {
                    "internalType": "uint256[]",
                    "name": "",
                    "type": "uint256[]"
                }
            ],
            "stateMutability": "nonpayable",
            "type": "function"
        },
        {
            "inputs": [
                {
                    "internalType": "uint256",
                    "name": "_precio",
                    "type": "uint256"
                }
            ],
            "name": "setPrecioRegistro",
            "outputs": [
                {
                    "internalType": "bool",
                    "name": "",
                    "type": "bool"
                }
            ],
            "stateMutability": "nonpayable",
            "type": "function"
        },
        {
            "inputs": [
                {
                    "internalType": "uint256",
                    "name": "_value",
                    "type": "uint256"
                }
            ],
            "name": "setPriceBlock",
            "outputs": [
                {
                    "internalType": "bool",
                    "name": "",
                    "type": "bool"
                }
            ],
            "stateMutability": "nonpayable",
            "type": "function"
        },
        {
            "inputs": [
                {
                    "internalType": "uint256",
                    "name": "_nivel",
                    "type": "uint256"
                },
                {
                    "internalType": "uint256",
                    "name": "_value",
                    "type": "uint256"
                }
            ],
            "name": "setPrimeravezPorcientos",
            "outputs": [
                {
                    "internalType": "uint256[]",
                    "name": "",
                    "type": "uint256[]"
                }
            ],
            "stateMutability": "nonpayable",
            "type": "function"
        },
        {
            "inputs": [
                {
                    "internalType": "uint256",
                    "name": "_porcentaje",
                    "type": "uint256"
                }
            ],
            "name": "setRetorno",
            "outputs": [
                {
                    "internalType": "uint256",
                    "name": "",
                    "type": "uint256"
                }
            ],
            "stateMutability": "nonpayable",
            "type": "function"
        },
        {
            "inputs": [
                {
                    "internalType": "uint256",
                    "name": "_dias",
                    "type": "uint256"
                }
            ],
            "name": "setTiempo",
            "outputs": [
                {
                    "internalType": "uint256",
                    "name": "",
                    "type": "uint256"
                }
            ],
            "stateMutability": "nonpayable",
            "type": "function"
        },
        {
            "inputs": [
                {
                    "internalType": "uint256",
                    "name": "_unidades",
                    "type": "uint256"
                }
            ],
            "name": "setTiempoUnidades",
            "outputs": [
                {
                    "internalType": "uint256",
                    "name": "",
                    "type": "uint256"
                }
            ],
            "stateMutability": "nonpayable",
            "type": "function"
        },
        {
            "inputs": [
                {
                    "internalType": "address[]",
                    "name": "_wallet",
                    "type": "address[]"
                },
                {
                    "internalType": "uint256[]",
                    "name": "_fee",
                    "type": "uint256[]"
                },
                {
                    "internalType": "uint256",
                    "name": "_activerFee",
                    "type": "uint256"
                }
            ],
            "name": "setWalletFee",
            "outputs": [
                {
                    "internalType": "bool",
                    "name": "",
                    "type": "bool"
                }
            ],
            "stateMutability": "nonpayable",
            "type": "function"
        },
        {
            "inputs": [
                {
                    "internalType": "address[]",
                    "name": "_wallets",
                    "type": "address[]"
                },
                {
                    "internalType": "uint256[]",
                    "name": "_valores",
                    "type": "uint256[]"
                }
            ],
            "name": "setWalletstransfers",
            "outputs": [
                {
                    "internalType": "bool",
                    "name": "",
                    "type": "bool"
                }
            ],
            "stateMutability": "nonpayable",
            "type": "function"
        },
        {
            "inputs": [],
            "name": "setstate",
            "outputs": [
                {
                    "internalType": "uint256",
                    "name": "Investors",
                    "type": "uint256"
                },
                {
                    "internalType": "uint256",
                    "name": "Invested",
                    "type": "uint256"
                },
                {
                    "internalType": "uint256",
                    "name": "RefRewards",
                    "type": "uint256"
                }
            ],
            "stateMutability": "view",
            "type": "function"
        },
        {
            "inputs": [],
            "name": "tiempo",
            "outputs": [
                {
                    "internalType": "uint256",
                    "name": "",
                    "type": "uint256"
                }
            ],
            "stateMutability": "view",
            "type": "function"
        },
        {
            "inputs": [],
            "name": "tokenPricipal",
            "outputs": [
                {
                    "internalType": "address",
                    "name": "",
                    "type": "address"
                }
            ],
            "stateMutability": "view",
            "type": "function"
        },
        {
            "inputs": [],
            "name": "totalInvested",
            "outputs": [
                {
                    "internalType": "uint256",
                    "name": "",
                    "type": "uint256"
                }
            ],
            "stateMutability": "view",
            "type": "function"
        },
        {
            "inputs": [],
            "name": "totalInvestors",
            "outputs": [
                {
                    "internalType": "uint256",
                    "name": "",
                    "type": "uint256"
                }
            ],
            "stateMutability": "view",
            "type": "function"
        },
        {
            "inputs": [],
            "name": "totalRefRewards",
            "outputs": [
                {
                    "internalType": "uint256",
                    "name": "",
                    "type": "uint256"
                }
            ],
            "stateMutability": "view",
            "type": "function"
        },
        {
            "inputs": [],
            "name": "totalRefWitdrawl",
            "outputs": [
                {
                    "internalType": "uint256",
                    "name": "",
                    "type": "uint256"
                }
            ],
            "stateMutability": "view",
            "type": "function"
        },
        {
            "inputs": [
                {
                    "internalType": "address payable",
                    "name": "newOwner",
                    "type": "address"
                }
            ],
            "name": "transferOwnership",
            "outputs": [],
            "stateMutability": "nonpayable",
            "type": "function"
        },
        {
            "inputs": [],
            "name": "unidades",
            "outputs": [
                {
                    "internalType": "uint256",
                    "name": "",
                    "type": "uint256"
                }
            ],
            "stateMutability": "view",
            "type": "function"
        },
        {
            "inputs": [
                {
                    "internalType": "string",
                    "name": "_datos",
                    "type": "string"
                }
            ],
            "name": "updateData",
            "outputs": [],
            "stateMutability": "nonpayable",
            "type": "function"
        },
        {
            "inputs": [
                {
                    "internalType": "uint256",
                    "name": "",
                    "type": "uint256"
                }
            ],
            "name": "valor",
            "outputs": [
                {
                    "internalType": "uint256",
                    "name": "",
                    "type": "uint256"
                }
            ],
            "stateMutability": "view",
            "type": "function"
        },
        {
            "inputs": [
                {
                    "internalType": "uint256",
                    "name": "",
                    "type": "uint256"
                }
            ],
            "name": "valorFee",
            "outputs": [
                {
                    "internalType": "uint256",
                    "name": "",
                    "type": "uint256"
                }
            ],
            "stateMutability": "view",
            "type": "function"
        },
        {
            "inputs": [
                {
                    "internalType": "uint256",
                    "name": "",
                    "type": "uint256"
                }
            ],
            "name": "wallet",
            "outputs": [
                {
                    "internalType": "address",
                    "name": "",
                    "type": "address"
                }
            ],
            "stateMutability": "view",
            "type": "function"
        },
        {
            "inputs": [
                {
                    "internalType": "uint256",
                    "name": "",
                    "type": "uint256"
                }
            ],
            "name": "walletFee",
            "outputs": [
                {
                    "internalType": "address",
                    "name": "",
                    "type": "address"
                }
            ],
            "stateMutability": "view",
            "type": "function"
        },
        {
            "inputs": [],
            "name": "withdraw",
            "outputs": [],
            "stateMutability": "nonpayable",
            "type": "function"
        },
        {
            "inputs": [],
            "name": "withdraw2",
            "outputs": [],
            "stateMutability": "nonpayable",
            "type": "function"
        },
        {
            "inputs": [],
            "name": "withdrawTeam",
            "outputs": [],
            "stateMutability": "nonpayable",
            "type": "function"
        },
        {
            "inputs": [
                {
                    "internalType": "address",
                    "name": "any_user",
                    "type": "address"
                },
                {
                    "internalType": "bool",
                    "name": "_infinity",
                    "type": "bool"
                }
            ],
            "name": "withdrawable",
            "outputs": [
                {
                    "internalType": "uint256",
                    "name": "",
                    "type": "uint256"
                }
            ],
            "stateMutability": "view",
            "type": "function"
        },
        {
            "inputs": [
                {
                    "internalType": "address",
                    "name": "any_user",
                    "type": "address"
                }
            ],
            "name": "withdrawableRange",
            "outputs": [
                {
                    "internalType": "uint256",
                    "name": "amount",
                    "type": "uint256"
                }
            ],
            "stateMutability": "view",
            "type": "function"
        },
        {
            "stateMutability": "payable",
            "type": "receive"
        }
    ],
    "bytecode": "600280547355d398326f99059ff775485246999027b31979556001600160a01b031991821681179092556003805482168317905567d02ab486cedc00006004556802b5e3af16b18800006005908155600680549092169092179055600160075561012060405260326080908152601e60a052601460c052600a60e081905261010052620000909160089190620004b5565b506040805160a08101825260328152601e6020820152601491810191909152600a606082018190526080820152620000cd906009906005620004b5565b506040805160a08101825260058082526003602083015260029282019290925260016060820181905260808201526200010a91600a9190620004b5565b5060408051610100810182526828a857425466f800008152685150ae84a8cdf00000602082015268cb49b44ba602d80000918101919091526901969368974c05b00000606082015269032d26d12e980b6000006080820152690a968163f0a57b40000060a0820152691fc3842bd1f071c0000060c08201526934f086f3b33b6840000060e0820152620001a290600b9060086200050a565b506040805161010081018252683635c9adc5dea000008152686c6b935b8bbd400000602082015269010f0cf064dd592000009181019190915269021e19e0c9bab2400000606082015269043c33c1937564800000608082015269152d02c7e14af680000060a0820152693f870857a3e0e380000060c08201526969e10de76676d080000060e08201526200023b90600c9060086200050a565b50600d805460ff1916600190811790915561016d600e55610384600f556201518060105560f06011556064601255600260138190556014829055601e9190915560408051808201909152734490566647735e8cbce0ce96efc8fb91c164859b815273981374de858078c0be8c0bb51c4cdce6393a74056020820152620002c591601f919062000553565b506040805180820190915260058152605f602080830191909152620002ec916002620004b5565b506801a055690d9db800006021556002602255604080516060810182527317a7e5b2d9b5d191f7307e990e630c9dc18e1396815273afe9d039ec7d4409b1b8c2f1556f20843079b7286020820152738dd59f5670e9809c8a800a49d1ff1cea471c53da918101919091526200036690602390600362000553565b5060408051606081018252604681526008602082015260059181019190915262000395906024906003620004b5565b50348015620003a357600080fd5b50600080546001600160a01b0319163390811782558152600160208181526040808420805460ff19908116851790915584546001600160a01b0316855260189092529092208054909216178155601054600e546200040291906200067a565b6200041690670de0b6b3a76400006200067a565b6200042290426200069c565b60018201556040805160a081018252600080825260208083018290528284018290526060830182905260808301829052338252601d9052919091206200046a916005620005ab565b50507f584f46c60af19681376031579adb04a2416e54ee5505351c2a8435e3766026ea80546001600160a01b031916339081179091556000908152601c6020526040812055620006b7565b828054828255906000526020600020908101928215620004f8579160200282015b82811115620004f8578251829060ff16905591602001919060010190620004d6565b50620005069291506200064d565b5090565b828054828255906000526020600020908101928215620004f8579160200282015b82811115620004f857825182906001600160501b03169055916020019190600101906200052b565b828054828255906000526020600020908101928215620004f8579160200282015b82811115620004f857825182546001600160a01b0319166001600160a01b0390911617825560209092019160019091019062000574565b82805482825590600052602060002090601f01602090048101928215620004f85791602002820160005b838211156200061457835183826101000a81548160ff0219169083151502179055509260200192600101602081600001049283019260010302620005d5565b8015620006435782816101000a81549060ff021916905560010160208160000104928301926001030262000614565b5050620005069291505b5b808211156200050657600081556001016200064e565b634e487b7160e01b600052601160045260246000fd5b600081600019048311821515161562000697576200069762000664565b500290565b60008219821115620006b257620006b262000664565b500190565b61425780620006c76000396000f3fe6080604052600436106104105760003560e01c80637b0412ed1161021c578063b17b6e4411610122578063cb0e0d7d116100b0578063edf5eb1d11610077578063edf5eb1d14610ce0578063f2fde38b14610d00578063f90b3f5a14610d20578063fd14d59814610d40578063fd68651914610d5557005b8063cb0e0d7d14610c4e578063cc759ba214610c7b578063db3be1a214610c91578063e7348e8c14610cb1578063ea98847b14610ccb57005b8063bb51f32d116100f4578063bb51f32d14610bd7578063bd9bee1914610bec578063bfe0e02014610c02578063c17dbdf914610c18578063c40d5dbc14610c3857005b8063b17b6e4414610b41578063b35f0a8f14610b61578063b3d9fa0914610b97578063b85ea33514610bb757005b80638f9ef8c1116101aa578063a77d211911610171578063a77d211914610ab5578063a8beb71714610acb578063aaa749c514610aeb578063ab6db19914610b0b578063b139042614610b2157005b80638f9ef8c114610a0f57806398c07d0a14610a2f5780639b8ff50314610a4f578063a278133514610a65578063a365528b14610a8557005b806381032892116101ee578063810328921461095e578063815374ca1461097e57806385338e201461099e57806389b2521c146109cf5780638da5cb5b146109ef57005b80637b0412ed146108e55780637db9e9c6146108fb5780637faee047146109115780637fcc1e361461093157005b80634de1be621161032157806367f74aab116102af5780636f7bc9be116102765780636f7bc9be1461082d57806370a0966b146108655780637251b9ac14610885578063725fc270146108a55780637367b080146108c557005b806367f74aab146107a257806368446ead146107c257806369ed1e0a146107e257806369f4a84b146108025780636c5292791461081757005b806354822522116102f357806354822522146106f25780635d216c6014610712578063625509161461073257806363a846f8146107525780636589fa8a1461078257005b80634de1be621461068757806350188c08146106a757806350da983f146106bc5780635216aeec146106dc57005b806329e1a2431161039e578063339640b511610370578063339640b514610610578063348d4487146106305780633ccfd60b146106465780634728f7181461065b5780634b9b82031461067157005b806329e1a243146105525780632a2d0c47146105725780632acc8210146105c05780632e8a03cf146105f057005b806321309f21116103e257806321309f21146104c657806324de19f2146104e65780632748d29b146104fc57806328cca7191461051c57806329b8caff1461053c57005b80631140e85b1461041957806315e8392b1461044c5780631ce7f99b146104795780631e403c351461049957005b3661041757005b005b34801561042557600080fd5b506104396104343660046139ea565b610d75565b6040519081526020015b60405180910390f35b34801561045857600080fd5b5061046c610467366004613a1b565b610e8d565b6040516104439190613a47565b34801561048557600080fd5b5061046c610494366004613b71565b610f24565b3480156104a557600080fd5b506104b96104b4366004613ba5565b610fe2565b6040516104439190613c02565b3480156104d257600080fd5b506104396104e13660046139ea565b611080565b3480156104f257600080fd5b5061043960055481565b34801561050857600080fd5b506104396105173660046139ea565b6110a1565b34801561052857600080fd5b506104396105373660046139ea565b6110cb565b34801561054857600080fd5b5061043960145481565b34801561055e57600080fd5b5061043961056d3660046139ea565b6110db565b34801561057e57600080fd5b506105a861058d3660046139ea565b601b602052600090815260409020546001600160a01b031681565b6040516001600160a01b039091168152602001610443565b3480156105cc57600080fd5b506105e06105db366004613a1b565b6110eb565b6040519015158152602001610443565b3480156105fc57600080fd5b506105e061060b3660046139ea565b61112e565b34801561061c57600080fd5b506105a861062b366004613a1b565b611158565b34801561063c57600080fd5b50610439601e5481565b34801561065257600080fd5b50610417611190565b34801561066757600080fd5b5061043960115481565b34801561067d57600080fd5b5061043960105481565b34801561069357600080fd5b506104396106a23660046139ea565b611324565b3480156106b357600080fd5b5061043961134e565b3480156106c857600080fd5b506105e06106d7366004613c15565b61136c565b3480156106e857600080fd5b5061043960155481565b3480156106fe57600080fd5b506104b961070d366004613ba5565b6113c0565b34801561071e57600080fd5b506104b961072d366004613ba5565b61145c565b34801561073e57600080fd5b5061043961074d3660046139ea565b6114f8565b34801561075e57600080fd5b506105e061076d366004613c15565b60016020526000908152604090205460ff1681565b34801561078e57600080fd5b5061043961079d3660046139ea565b611508565b3480156107ae57600080fd5b506105e06107bd366004613c40565b61152d565b3480156107ce57600080fd5b506104176107dd366004613cf1565b611681565b3480156107ee57600080fd5b506104176107fd366004613c15565b6116ad565b34801561080e57600080fd5b5061041761173b565b34801561082357600080fd5b5061043960045481565b34801561083957600080fd5b5061084d610848366004613c15565b611aa3565b6040516104439c9b9a99989796959493929190613d25565b34801561087157600080fd5b50610417610880366004613c15565b611b90565b34801561089157600080fd5b506105a86108a03660046139ea565b611c18565b3480156108b157600080fd5b506104396108c03660046139ea565b611c42565b3480156108d157600080fd5b506104b96108e0366004613e32565b611c52565b3480156108f157600080fd5b5061043960125481565b34801561090757600080fd5b5061043960215481565b34801561091d57600080fd5b5061046c61092c366004613b71565b611cfc565b34801561093d57600080fd5b5061095161094c366004613e66565b611e19565b6040516104439190613f31565b34801561096a57600080fd5b506104396109793660046139ea565b611ec8565b34801561098a57600080fd5b5061046c610999366004613c15565b611ed8565b3480156109aa57600080fd5b5060145460155460165460408051938452602084019290925290820152606001610443565b3480156109db57600080fd5b506104396109ea366004613f44565b611f8f565b3480156109fb57600080fd5b506000546105a8906001600160a01b031681565b348015610a1b57600080fd5b50610417610a2a366004613f7d565b611fb0565b348015610a3b57600080fd5b50610439610a4a366004613c15565b612401565b348015610a5b57600080fd5b5061043960175481565b348015610a7157600080fd5b506105a8610a803660046139ea565b61268a565b348015610a9157600080fd5b50610aa5610aa0366004613f44565b61269a565b6040516104439493929190613fcc565b348015610ac157600080fd5b5061043960075481565b348015610ad757600080fd5b506105e0610ae6366004614017565b6128a5565b348015610af757600080fd5b506105e0610b063660046139ea565b6128f7565b348015610b1757600080fd5b50610439600f5481565b348015610b2d57600080fd5b506006546105a8906001600160a01b031681565b348015610b4d57600080fd5b506105e0610b5c366004614070565b612921565b348015610b6d57600080fd5b506105a8610b7c366004613c15565b6019602052600090815260409020546001600160a01b031681565b348015610ba357600080fd5b506105e0610bb23660046139ea565b612954565b348015610bc357600080fd5b50610439610bd23660046139ea565b61297e565b348015610be357600080fd5b506104176129a8565b348015610bf857600080fd5b5061043960225481565b348015610c0e57600080fd5b5061043960165481565b348015610c2457600080fd5b50610417610c333660046139ea565b612b61565b348015610c4457600080fd5b50610439600e5481565b348015610c5a57600080fd5b50610439610c69366004613c15565b601c6020526000908152604090205481565b348015610c8757600080fd5b5061043960135481565b348015610c9d57600080fd5b506105e0610cac36600461408d565b613106565b348015610cbd57600080fd5b50600d546105e09060ff1681565b348015610cd757600080fd5b5061041761315a565b348015610cec57600080fd5b50610439610cfb3660046139ea565b6132df565b348015610d0c57600080fd5b50610417610d1b366004613c15565b6132ef565b348015610d2c57600080fd5b50610439610d3b3660046139ea565b61337d565b348015610d4c57600080fd5b506104396133a2565b348015610d6157600080fd5b506105e0610d70366004613c15565b613404565b600080546001600160a01b0316336001600160a01b031614610d9657600080fd5b6003546040516370a0823160e01b815230600482015283916001600160a01b0316906370a0823190602401602060405180830381865afa158015610dde573d6000803e3d6000fd5b505050506040513d601f19601f82011682018060405250810190610e0291906140f9565b1015610e0d57600080fd5b60035460005460405163a9059cbb60e01b81526001600160a01b0391821660048201526024810185905291169063a9059cbb906044016020604051808303816000875af1158015610e62573d6000803e3d6000fd5b505050506040513d601f19601f82011682018060405250810190610e869190614112565b5090919050565b60608060005b83811015610f1a57610ea482610f24565b6001600160a01b0380871660009081526019602052604090205482519294501690839083908110610ed757610ed761412f565b6001600160a01b03928316602091820292909201810191909152958116600090815260199096526040909520549094169380610f128161415b565b915050610e93565b5090505b92915050565b6060600082516001610f369190614176565b6001600160401b03811115610f4d57610f4d613a94565b604051908082528060200260200182016040528015610f76578160200160208202803683370190505b50905060005b8351811015610fdb57838181518110610f9757610f9761412f565b6020026020010151828281518110610fb157610fb161412f565b6001600160a01b039092166020928302919091019091015280610fd38161415b565b915050610f7c565b5092915050565b6000546060906001600160a01b0316336001600160a01b03161461100557600080fd5b81600984815481106110195761101961412f565b9060005260206000200181905550600980548060200260200160405190810160405280929190818152602001828054801561107357602002820191906000526020600020905b81548152602001906001019080831161105f575b5050505050905092915050565b600c818154811061109057600080fd5b600091825260209091200154905081565b600080546001600160a01b0316336001600160a01b0316146110c257600080fd5b50601081905590565b6009818154811061109057600080fd5b6020818154811061109057600080fd5b601d602052816000526040600020818154811061110757600080fd5b9060005260206000209060209182820401919006915091509054906101000a900460ff1681565b600080546001600160a01b0316336001600160a01b03161461114f57600080fd5b50600555600190565b601a602052816000526040600020818154811061117457600080fd5b6000918252602090912001546001600160a01b03169150829050565b600d5460ff1661119f57600080fd5b336000818152601860205260408120916111ba906000611f8f565b6003546040516370a0823160e01b815230600482015291925082916001600160a01b03909116906370a0823190602401602060405180830381865afa158015611207573d6000803e3d6000fd5b505050506040513d601f19601f8201168201806040525081019061122b91906140f9565b101561123657600080fd5b60045481101561124557600080fd5b6003546001600160a01b031663a9059cbb3361127760646112716012548761358790919063ffffffff16565b906135c0565b6040516001600160e01b031960e085901b1681526001600160a01b03909216600483015260248201526044016020604051808303816000875af11580156112c2573d6000803e3d6000fd5b505050506040513d601f19601f820116820180604052508101906112e69190614112565b50808260080160008282546112fb9190614176565b90915550504260068301556017805482919060009061131b908490614176565b90915550505050565b600080546001600160a01b0316336001600160a01b03161461134557600080fd5b50600481905590565b6000611367601054600f5461358790919063ffffffff16565b905090565b600080546001600160a01b0316336001600160a01b03161461138d57600080fd5b50600380546001600160a01b0383166001600160a01b031991821681179092556006805490911690911790556001919050565b6000546060906001600160a01b0316336001600160a01b0316146113e357600080fd5b81600884815481106113f7576113f761412f565b90600052602060002001819055506008805480602002602001604051908101604052809291908181526020018280548015611073576020028201919060005260206000209081548152602001906001019080831161105f575050505050905092915050565b6000546060906001600160a01b0316336001600160a01b03161461147f57600080fd5b81600a84815481106114935761149361412f565b9060005260206000200181905550600a805480602002602001604051908101604052809291908181526020018280548015611073576020028201919060005260206000209081548152602001906001019080831161105f575050505050905092915050565b6024818154811061109057600080fd5b3360009081526001602052604081205460ff1661152457600080fd5b50601181905590565b3360009081526001602052604081205460ff1661154957600080fd5b6000831161159e5760405162461bcd60e51b815260206004820152601e60248201527f63616e7469646164206d696e696d6120646520626c6f6b65732065732031000060448201526064015b60405180910390fd5b6001600160a01b0384166000908152601860205260409020805460ff166115c457600080fd5b6000846005546115d4919061418e565b905081600b01604051806080016040528042815260200161160560646112716011548761358790919063ffffffff16565b815260200161162460646112716011548761358790919063ffffffff16565b81529515156020968701528154600180820184556000938452928790208251600490920201908155958101518683015560408101516002870155606001516003909501805460ff1916951515959095179094555091949350505050565b336000908152601860209081526040909120825190916116a891600a840191850190613822565b505050565b6000546001600160a01b0316336001600160a01b0316146116cd57600080fd5b6001600160a01b0381166116e057600080fd5b6040516001600160a01b038216907f71614071b88dee5e0b2ae578a9dd7b2ebbe9ae832ba419dc0242cd065a290b6c90600090a26001600160a01b03166000908152600160208190526040909120805460ff19169091179055565b600d5460ff1661174a57600080fd5b600061175533612401565b90506000811161176457600080fd5b33600090815260186020908152604080832081516101a081018352815460ff16151581526001820154938101939093526002810154918301919091526003810154606083015260048101546080830152600581015460a0830152600681015460c0830152600781015460e083015260088101546101008301526009810154610120830152600a81018054610140840191906117fe906141ad565b80601f016020809104026020016040519081016040528092919081815260200182805461182a906141ad565b80156118775780601f1061184c57610100808354040283529160200191611877565b820191906000526020600020905b81548152906001019060200180831161185a57829003601f168201915b50505050508152602001600b8201805480602002602001604051908101604052809291908181526020016000905b828210156118fe576000848152602090819020604080516080810182526004860290920180548352600180820154848601526002820154928401929092526003015460ff161515606083015290835290920191016118a5565b505050508152602001600c82015481525050905060005b600b548110156116a857600c81815481106119325761193261412f565b9060005260206000200154600554836101800151611950919061418e565b1015801561199c5750336000908152601d6020526040902080548290811061197a5761197a61412f565b90600052602060002090602091828204019190069054906101000a900460ff16155b15611a91576003546001600160a01b031663a9059cbb33600b84815481106119c6576119c661412f565b6000918252602090912001546040516001600160e01b031960e085901b1681526001600160a01b03909216600483015260248201526044016020604051808303816000875af1158015611a1d573d6000803e3d6000fd5b505050506040513d601f19601f82011682018060405250810190611a419190614112565b50336000908152601d6020526040902080546001919083908110611a6757611a6761412f565b90600052602060002090602091828204019190066101000a81548160ff0219169083151502179055505b80611a9b8161415b565b915050611915565b601860205260009081526040902080546001820154600283015460038401546004850154600586015460068701546007880154600889015460098a0154600a8b01805460ff909b169b999a98999798969795969495939492939192611b07906141ad565b80601f0160208091040260200160405190810160405280929190818152602001828054611b33906141ad565b8015611b805780601f10611b5557610100808354040283529160200191611b80565b820191906000526020600020905b815481529060010190602001808311611b6357829003601f168201915b50505050509080600c015490508c565b6000546001600160a01b0316336001600160a01b031614611bb057600080fd5b6001600160a01b038116611bc357600080fd5b6040516001600160a01b038216907fa3b62bc36326052d97ea62d63c3d60308ed4c3ea8ac079dd8499f1e9c4f80c0f90600090a26001600160a01b03166000908152600160205260409020805460ff19169055565b601f8181548110611c2857600080fd5b6000918252602090912001546001600160a01b0316905081565b6008818154811061109057600080fd5b6060600082516001611c649190614176565b6001600160401b03811115611c7b57611c7b613a94565b604051908082528060200260200182016040528015611ca4578160200160208202803683370190505b50905060005b8351811015610fdb57838181518110611cc557611cc561412f565b6020026020010151828281518110611cdf57611cdf61412f565b602090810291909101015280611cf48161415b565b915050611caa565b60606000805b8351811015611e115760186000858381518110611d2157611d2161412f565b60200260200101516001600160a01b03166001600160a01b0316815260200190815260200160002091506000805b8551811015611da257858181518110611d6a57611d6a61412f565b60200260200101516001600160a01b0316826001600160a01b03161415611d9057600091505b80611d9a8161415b565b915050611d4f565b506001600160a01b03811615611dfe57611dbb85610f24565b9450808560018751611dcd91906141e8565b81518110611ddd57611ddd61412f565b60200260200101906001600160a01b031690816001600160a01b0316815250505b5080611e098161415b565b915050611d02565b509192915050565b6060600082516001611e2b9190614176565b6001600160401b03811115611e4257611e42613a94565b604051908082528060200260200182016040528015611e6b578160200160208202803683370190505b50905060005b8351811015610fdb57838181518110611e8c57611e8c61412f565b6020026020010151828281518110611ea657611ea661412f565b9115156020928302919091019091015280611ec08161415b565b915050611e71565b600b818154811061109057600080fd5b60608060005b6001600160a01b0384166000908152601a6020526040902054811015610fdb57611f0782610f24565b6001600160a01b0385166000908152601a6020526040902080549193509082908110611f3557611f3561412f565b9060005260206000200160009054906101000a90046001600160a01b0316828281518110611f6557611f6561412f565b6001600160a01b039092166020928302919091019091015280611f878161415b565b915050611ede565b600060608060606000611fa2878761269a565b9a9950505050505050505050565b3360009081526018602052604090206001600160a01b0383166120235760405162461bcd60e51b815260206004820152602560248201527f64656265732074656e657220726566657269646f207061726120726567697374604482015264726172746560d81b6064820152608401611595565b6021541561214c576021546003546001600160a01b031663dd62ed3e336040516001600160e01b031960e084901b1681526001600160a01b039091166004820152306024820152604401602060405180830381865afa15801561208a573d6000803e3d6000fd5b505050506040513d601f19601f820116820180604052508101906120ae91906140f9565b10156120b957600080fd5b6003546001600160a01b03166323b872dd336021546040516001600160e01b031960e085901b1681526001600160a01b03909216600483015230602483015260448201526064016020604051808303816000875af115801561211f573d6000803e3d6000fd5b505050506040513d601f19601f820116820180604052508101906121439190614112565b61214c57600080fd5b6002602254106122665760005b601f5481101561226457600354601f80546001600160a01b039092169163a9059cbb91908490811061218d5761218d61412f565b9060005260206000200160009054906101000a90046001600160a01b03166121e26064611271602087815481106121c6576121c661412f565b906000526020600020015460215461358790919063ffffffff16565b6040516001600160e01b031960e085901b1681526001600160a01b03909216600483015260248201526044016020604051808303816000875af115801561222d573d6000803e3d6000fd5b505050506040513d601f19601f820116820180604052508101906122519190614112565b508061225c8161415b565b915050612159565b505b805460ff166123c157805460ff19166001178155601054600e5461228a919061418e565b6122949042614176565b600182015533600090815260196020908152604080832080546001600160a01b0319166001600160a01b03881690811790915583526018909152812060098101805491926122e18361415b565b90915550506001600160a01b0384166000908152601a60209081526040822080546001810182559083529082200180546001600160a01b03191633179055601480549161232d8361415b565b90915550506040805160a081018252600080825260208083018290528284018290526060830182905260808301829052338252601d9052919091206123739160056138a6565b50601e80546000908152601b6020908152604080832080546001600160a01b031916339081179091558454908452601c909252822081905591906123b68361415b565b9190505550506123e6565b601054600e546123d1919061418e565b81600101546123e09190614176565b60018201555b81516123fb90600a8301906020850190613822565b50505050565b6001600160a01b038116600090815260186020908152604080832081516101a081018352815460ff16151581526001820154938101939093526002810154918301919091526003810154606083015260048101546080830152600581015460a0830152600681015460c0830152600781015460e083015260088101546101008301526009810154610120830152600a81018054849392916101408401916124a7906141ad565b80601f01602080910402602001604051908101604052809291908181526020018280546124d3906141ad565b80156125205780601f106124f557610100808354040283529160200191612520565b820191906000526020600020905b81548152906001019060200180831161250357829003601f168201915b50505050508152602001600b8201805480602002602001604051908101604052809291908181526020016000905b828210156125a7576000848152602090819020604080516080810182526004860290920180548352600180820154848601526002820154928401929092526003015460ff1615156060830152908352909201910161254e565b505050508152602001600c82015481525050905060006005548261018001516125d0919061418e565b905060005b600b5481101561268257600c81815481106125f2576125f261412f565b9060005260206000200154821015801561264a5750336000908152601d602052604090208054829081106126285761262861412f565b90600052602060002090602091828204019190069054906101000a900460ff16155b1561267057600b81815481106126625761266261412f565b906000526020600020015493505b8061267a8161415b565b9150506125d5565b505050919050565b60238181548110611c2857600080fd5b6001600160a01b038216600090815260186020526040812060609182918291908183808083808080805b600b8a015481101561288d5789600b0181815481106126e5576126e561412f565b6000918252602090912060036004909202019081015490995060ff1615158f1515141561287b5761271588611c52565b975061272087611c52565b965061272b86611e19565b95508860000154876001895161274191906141e8565b815181106127515761275161412f565b60200260200101818152505061276561134e565b89546127719190614176565b93508342116127805742612782565b835b60038a015490925060ff16156127b257885460078b0154116127a55788546127ab565b89600701545b92506127ce565b885460068b0154116127c55788546127cb565b89600601545b92505b82158015906127dc57508183105b1561284a576127e961134e565b6127f384846141e8565b8a60020154612802919061418e565b61280c91906141ff565b6128169086614176565b94506001866001885161282991906141e8565b815181106128395761283961412f565b911515602092830291909101909101525b88600201548860018a5161285e91906141e8565b8151811061286e5761286e61412f565b6020026020010181815250505b806128858161415b565b9150506126c4565b50959e949d50929b5090995091975050505050505050565b600080546001600160a01b0316336001600160a01b0316146128c657600080fd5b82516128d9906023906020860190613946565b5081516128ed90602490602085019061399b565b5060019392505050565b600080546001600160a01b0316336001600160a01b03161461291857600080fd5b50602155600190565b600080546001600160a01b0316336001600160a01b03161461294257600080fd5b50600d805460ff191682151517905590565b600080546001600160a01b0316336001600160a01b03161461297557600080fd5b50601255600190565b600080546001600160a01b0316336001600160a01b03161461299f57600080fd5b50600781905590565b600d5460ff166129b757600080fd5b6000601881336001600160a01b03908116825260208201929092526040908101600020600281015460035492516370a0823160e01b815230600482015291945092839216906370a0823190602401602060405180830381865afa158015612a22573d6000803e3d6000fd5b505050506040513d601f19601f82011682018060405250810190612a4691906140f9565b1015612aab5760405162461bcd60e51b815260206004820152602e60248201527f6e6f206861792073616c646f20656e20656c20636f6e747261746f207061726160448201526d20686163657220656c207061676f60901b6064820152608401611595565b600454811015612aba57600080fd5b6003546001600160a01b031663a9059cbb33612ae660646112716012548761358790919063ffffffff16565b6040516001600160e01b031960e085901b1681526001600160a01b03909216600483015260248201526044016020604051808303816000875af1158015612b31573d6000803e3d6000fd5b505050506040513d601f19601f82011682018060405250810190612b559190614112565b50506000600290910155565b60008111612bb15760405162461bcd60e51b815260206004820152601e60248201527f63616e7469646164206d696e696d6120646520626c6f6b6573206573203100006044820152606401611595565b336000908152601860205260409020805460ff16612c065760405162461bcd60e51b81526020600482015260126024820152716e6f2065737461207265676973747261646f60701b6044820152606401611595565b80600101544210612c4f5760405162461bcd60e51b815260206004820152601360248201527206e6f207469656e65206d656d6265727368697606c1b6044820152606401611595565b600082600554612c5f919061418e565b60035490915081906001600160a01b031663dd62ed3e336040516001600160e01b031960e084901b1681526001600160a01b039091166004820152306024820152604401602060405180830381865afa158015612cc0573d6000803e3d6000fd5b505050506040513d601f19601f82011682018060405250810190612ce491906140f9565b1015612d325760405162461bcd60e51b815260206004820152601b60248201527f73616c646f206170726f7661646f20696e737566696369656e746500000000006044820152606401611595565b6003546001600160a01b03166323b872dd336040516001600160e01b031960e084901b1681526001600160a01b039091166004820152306024820152604481018490526064016020604051808303816000875af1158015612d97573d6000803e3d6000fd5b505050506040513d601f19601f82011682018060405250810190612dbb9190614112565b612dfe5760405162461bcd60e51b81526020600482015260146024820152737472616e666572656e6369612066616c6c69646160601b6044820152606401611595565b336000908152601960205260409020546001600160a01b031615612f2457600754600b8301541015612e8a57612e8533826008805480602002602001604051908101604052809291908181526020018280548015612e7b57602002820191906000526020600020905b815481526020019060010190808311612e67575b50505050506135e2565b612ee3565b612ee333826009805480602002602001604051908101604052809291908181526020018280548015612e7b5760200282019190600052602060002090815481526020019060010190808311612e675750505050506135e2565b336000908152601960209081526040808320546001600160a01b0316835260189091528120600c8101805491928692612f1d908490614176565b9091555050505b81600b016040518060800160405280428152602001612f5360646112716011548761358790919063ffffffff16565b8152602001612f7260646112716011548761358790919063ffffffff16565b81526000602091820181905283546001808201865594825282822084516004909202019081559183015193820193909355604082015160028201556060909101516003909101805460ff1916911515919091179055600583018054839290612fdb908490614176565b925050819055508060156000828254612ff49190614176565b90915550600090505b6023548110156123fb57600354602380546001600160a01b039092169163a9059cbb9190849081106130315761303161412f565b9060005260206000200160009054906101000a90046001600160a01b031661308460646112716024878154811061306a5761306a61412f565b90600052602060002001548861358790919063ffffffff16565b6040516001600160e01b031960e085901b1681526001600160a01b03909216600483015260248201526044016020604051808303816000875af11580156130cf573d6000803e3d6000fd5b505050506040513d601f19601f820116820180604052508101906130f39190614112565b50806130fe8161415b565b915050612ffd565b600080546001600160a01b0316336001600160a01b03161461312757600080fd5b835161313a90601f906020870190613946565b50825161314d906020908186019061399b565b5050602255506001919050565b600d5460ff1661316957600080fd5b33600081815260186020526040812091613184906001611f8f565b6003546040516370a0823160e01b815230600482015291925082916001600160a01b03909116906370a0823190602401602060405180830381865afa1580156131d1573d6000803e3d6000fd5b505050506040513d601f19601f820116820180604052508101906131f591906140f9565b101561320057600080fd5b60045481101561320f57600080fd5b6003546001600160a01b031663a9059cbb3361323b60646112716012548761358790919063ffffffff16565b6040516001600160e01b031960e085901b1681526001600160a01b03909216600483015260248201526044016020604051808303816000875af1158015613286573d6000803e3d6000fd5b505050506040513d601f19601f820116820180604052508101906132aa9190614112565b50808260080160008282546132bf9190614176565b90915550504260078301556017805482919060009061131b908490614176565b600a818154811061109057600080fd5b6000546001600160a01b0316336001600160a01b03161461330f57600080fd5b6001600160a01b03811661332257600080fd5b600080546040516001600160a01b03808516939216917f8be0079c531659141344cd1fd0a4f28419497f9722a3daafe3b4186f6b6457e091a3600080546001600160a01b0319166001600160a01b0392909216919091179055565b3360009081526001602052604081205460ff1661339957600080fd5b50600f81905590565b600080546001600160a01b0316336001600160a01b0316146133c357600080fd5b600080546040516001600160a01b03909116914780156108fc02929091818181858888f193505050501580156133fd573d6000803e3d6000fd5b5047905090565b3360009081526001602052604081205460ff1661342057600080fd5b6001600160a01b0382166000908152601860205260409020805460ff1661355957805460ff19166001178155601054600e5461345c919061418e565b6134669042614176565b600182015533600081815260196020526040902080546001600160a01b03191682179055156134b65733600090815260186020526040812060098101805491926134af8361415b565b9190505550505b601480549060006134c68361415b565b90915550506040805160a081018252600080825260208083018290528284018290526060830182905260808301829052338252601d90529190912061350c9160056138a6565b50601e80546000908152601b6020908152604080832080546001600160a01b031916339081179091558454908452601c9092528220819055919061354f8361415b565b919050555061357e565b601054600e54613569919061418e565b81600101546135789190614176565b60018201555b50600192915050565b60008261359657506000610f1e565b60006135a2838561418e565b9050826135af85836141ff565b146135b957600080fd5b9392505050565b60008082116135ce57600080fd5b60006135da83856141ff565b949350505050565b60606135ef848351610e8d565b905060008060005b8451811015613819578481815181106136125761361261412f565b602002602001015160001461380257601860008583815181106136375761363761412f565b6020908102919091018101516001600160a01b03168252810191909152604001600020805490925060ff168015613672575042826001015410155b156138075760006001600160a01b03168482815181106136945761369461412f565b60200260200101516001600160a01b031614613802576136dc6103e86112718784815181106136c5576136c561412f565b60200260200101518961358790919063ffffffff16565b9250828260020160008282546136f29190614176565b925050819055508282600301600082825461370d9190614176565b9250508190555081600b0160405180608001604052804281526020016137446103e86112716011548961358790919063ffffffff16565b81526020016137646103e86112716011548961358790919063ffffffff16565b815260016020918201819052835480820185556000948552938290208351600490950201938455908201519083015560408101516002830155606001516003909101805460ff19169115159190911790556011546137cb906103e890611271908690613587565b8260040160008282546137de9190614176565b9250508190555082601660008282546137f79190614176565b909155506138079050565b613819565b806138118161415b565b9150506135f7565b50505050505050565b82805461382e906141ad565b90600052602060002090601f0160209004810192826138505760008555613896565b82601f1061386957805160ff1916838001178555613896565b82800160010185558215613896579182015b8281111561389657825182559160200191906001019061387b565b506138a29291506139d5565b5090565b82805482825590600052602060002090601f016020900481019282156138965791602002820160005b8382111561390c57835183826101000a81548160ff02191690831515021790555092602001926001016020816000010492830192600103026138cf565b80156139395782816101000a81549060ff021916905560010160208160000104928301926001030261390c565b50506138a29291506139d5565b828054828255906000526020600020908101928215613896579160200282015b8281111561389657825182546001600160a01b0319166001600160a01b03909116178255602090920191600190910190613966565b828054828255906000526020600020908101928215613896579160200282018281111561389657825182559160200191906001019061387b565b5b808211156138a257600081556001016139d6565b6000602082840312156139fc57600080fd5b5035919050565b6001600160a01b0381168114613a1857600080fd5b50565b60008060408385031215613a2e57600080fd5b8235613a3981613a03565b946020939093013593505050565b6020808252825182820181905260009190848201906040850190845b81811015613a885783516001600160a01b031683529284019291840191600101613a63565b50909695505050505050565b634e487b7160e01b600052604160045260246000fd5b604051601f8201601f191681016001600160401b0381118282101715613ad257613ad2613a94565b604052919050565b60006001600160401b03821115613af357613af3613a94565b5060051b60200190565b600082601f830112613b0e57600080fd5b81356020613b23613b1e83613ada565b613aaa565b82815260059290921b84018101918181019086841115613b4257600080fd5b8286015b84811015613b66578035613b5981613a03565b8352918301918301613b46565b509695505050505050565b600060208284031215613b8357600080fd5b81356001600160401b03811115613b9957600080fd5b6135da84828501613afd565b60008060408385031215613bb857600080fd5b50508035926020909101359150565b600081518084526020808501945080840160005b83811015613bf757815187529582019590820190600101613bdb565b509495945050505050565b6020815260006135b96020830184613bc7565b600060208284031215613c2757600080fd5b81356135b981613a03565b8015158114613a1857600080fd5b600080600060608486031215613c5557600080fd5b8335613c6081613a03565b9250602084013591506040840135613c7781613c32565b809150509250925092565b600082601f830112613c9357600080fd5b81356001600160401b03811115613cac57613cac613a94565b613cbf601f8201601f1916602001613aaa565b818152846020838601011115613cd457600080fd5b816020850160208301376000918101602001919091529392505050565b600060208284031215613d0357600080fd5b81356001600160401b03811115613d1957600080fd5b6135da84828501613c82565b60006101808e1515835260208e818501528d60408501528c60608501528b60808501528a60a08501528960c08501528860e085015287610100850152866101208501528161014085015285518083860152600092505b80831015613d9a578683018201518584016101a0015291810191613d7b565b80831115613dad5760006101a082870101525b610160850195909552505050601f91909101601f1916016101a0019b9a5050505050505050505050565b600082601f830112613de857600080fd5b81356020613df8613b1e83613ada565b82815260059290921b84018101918181019086841115613e1757600080fd5b8286015b84811015613b665780358352918301918301613e1b565b600060208284031215613e4457600080fd5b81356001600160401b03811115613e5a57600080fd5b6135da84828501613dd7565b60006020808385031215613e7957600080fd5b82356001600160401b03811115613e8f57600080fd5b8301601f81018513613ea057600080fd5b8035613eae613b1e82613ada565b81815260059190911b82018301908381019087831115613ecd57600080fd5b928401925b82841015613ef4578335613ee581613c32565b82529284019290840190613ed2565b979650505050505050565b600081518084526020808501945080840160005b83811015613bf7578151151587529582019590820190600101613f13565b6020815260006135b96020830184613eff565b60008060408385031215613f5757600080fd5b8235613f6281613a03565b91506020830135613f7281613c32565b809150509250929050565b60008060408385031215613f9057600080fd5b8235613f9b81613a03565b915060208301356001600160401b03811115613fb657600080fd5b613fc285828601613c82565b9150509250929050565b608081526000613fdf6080830187613bc7565b8281036020840152613ff18187613bc7565b905082810360408401526140058186613eff565b91505082606083015295945050505050565b6000806040838503121561402a57600080fd5b82356001600160401b038082111561404157600080fd5b61404d86838701613afd565b9350602085013591508082111561406357600080fd5b50613fc285828601613dd7565b60006020828403121561408257600080fd5b81356135b981613c32565b6000806000606084860312156140a257600080fd5b83356001600160401b03808211156140b957600080fd5b6140c587838801613afd565b945060208601359150808211156140db57600080fd5b506140e886828701613dd7565b925050604084013590509250925092565b60006020828403121561410b57600080fd5b5051919050565b60006020828403121561412457600080fd5b81516135b981613c32565b634e487b7160e01b600052603260045260246000fd5b634e487b7160e01b600052601160045260246000fd5b600060001982141561416f5761416f614145565b5060010190565b6000821982111561418957614189614145565b500190565b60008160001904831182151516156141a8576141a8614145565b500290565b600181811c908216806141c157607f821691505b602082108114156141e257634e487b7160e01b600052602260045260246000fd5b50919050565b6000828210156141fa576141fa614145565b500390565b60008261421c57634e487b7160e01b600052601260045260246000fd5b50049056fea26469706673582212204ebb21e6432d17a016c33a906c62d6cad92e54550ae6a5b5247bd842abae8daf64736f6c634300080a0033",
    "sourcePath": "c:/Users/STC/Documents/GitHub/0-INFINITY-BLOCKS-TEST-UNILEVEL/contracts/UnilevelSystem.sol",
    "compiler": {
        "name": "solc",
        "version": "0.8.10+commit.fc410830"
    },
    "functionHashes": {
        "ChangeTokenPrincipal(address)": "50da983f",
        "MIN_RETIRO()": "6c529279",
        "PRECIO_BLOCK()": "24de19f2",
        "activerFee()": "bd9bee19",
        "actualizarArrayBool(bool[])": "7fcc1e36",
        "actualizarArrayUint256(uint256[])": "7367b080",
        "actualizarNetwork(address[])": "1ce7f99b",
        "addressToId(address)": "cb0e0d7d",
        "admin(address)": "63a846f8",
        "allnetwork(address[])": "7faee047",
        "asignarBloke(address,uint256,bool)": "67f74aab",
        "asignarMembership(address)": "fd686519",
        "buyBlocks(uint256)": "c17dbdf9",
        "column(address,uint256)": "15e8392b",
        "columnHijos(address)": "815374ca",
        "controlWitdrawl(bool)": "b17b6e44",
        "depositos(address,bool)": "a365528b",
        "descuento()": "7b0412ed",
        "dias()": "ab6db199",
        "duracionMembership()": "c40d5dbc",
        "gananciasRango(uint256)": "81032892",
        "hijo(address,uint256)": "339640b5",
        "idToAddress(uint256)": "2a2d0c47",
        "infinity(uint256)": "edf5eb1d",
        "inversiones()": "a77d2119",
        "investors(address)": "6f7bc9be",
        "lastUserId()": "348d4487",
        "makeNewAdmin(address)": "69ed1e0a",
        "makeRemoveAdmin(address)": "70a0966b",
        "newRecompensa()": "69f4a84b",
        "onOffWitdrawl()": "e7348e8c",
        "owner()": "8da5cb5b",
        "padre(address)": "b35f0a8f",
        "personas()": "cc759ba2",
        "porcent()": "4728f718",
        "porcientos(uint256)": "28cca719",
        "precioRegistro()": "7db9e9c6",
        "primervez(uint256)": "725fc270",
        "puntosRango(uint256)": "21309f21",
        "rangoReclamado(address,uint256)": "2acc8210",
        "redimBNB()": "fd14d598",
        "redimTokenPrincipal02(uint256)": "1140e85b",
        "registro(address,string)": "8f9ef8c1",
        "setDescuento(uint256)": "b3d9fa09",
        "setInversiones(uint256)": "b85ea335",
        "setMIN_RETIRO(uint256)": "4de1be62",
        "setPorcientos(uint256,uint256)": "1e403c35",
        "setPorcientosSalida(uint256,uint256)": "5d216c60",
        "setPrecioRegistro(uint256)": "aaa749c5",
        "setPriceBlock(uint256)": "2e8a03cf",
        "setPrimeravezPorcientos(uint256,uint256)": "54822522",
        "setRetorno(uint256)": "6589fa8a",
        "setTiempo(uint256)": "f90b3f5a",
        "setTiempoUnidades(uint256)": "2748d29b",
        "setWalletFee(address[],uint256[],uint256)": "db3be1a2",
        "setWalletstransfers(address[],uint256[])": "a8beb717",
        "setstate()": "85338e20",
        "tiempo()": "50188c08",
        "tokenPricipal()": "b1390426",
        "totalInvested()": "5216aeec",
        "totalInvestors()": "29b8caff",
        "totalRefRewards()": "bfe0e020",
        "totalRefWitdrawl()": "9b8ff503",
        "transferOwnership(address)": "f2fde38b",
        "unidades()": "4b9b8203",
        "updateData(string)": "68446ead",
        "valor(uint256)": "62550916",
        "valorFee(uint256)": "29e1a243",
        "wallet(uint256)": "a2781335",
        "walletFee(uint256)": "7251b9ac",
        "withdraw()": "3ccfd60b",
        "withdraw2()": "ea98847b",
        "withdrawTeam()": "bb51f32d",
        "withdrawable(address,bool)": "89b2521c",
        "withdrawableRange(address)": "98c07d0a"
    },
    "gasEstimates": {
        "creation": {
            "codeDepositCost": "3396600",
            "executionCost": "infinite",
            "totalCost": "infinite"
        },
        "external": {
            "": "231",
            "ChangeTokenPrincipal(address)": "51139",
            "MIN_RETIRO()": "2440",
            "PRECIO_BLOCK()": "2375",
            "activerFee()": "2373",
            "actualizarArrayBool(bool[])": "infinite",
            "actualizarArrayUint256(uint256[])": "infinite",
            "actualizarNetwork(address[])": "infinite",
            "addressToId(address)": "2569",
            "admin(address)": "2659",
            "allnetwork(address[])": "infinite",
            "asignarBloke(address,uint256,bool)": "infinite",
            "asignarMembership(address)": "infinite",
            "buyBlocks(uint256)": "infinite",
            "column(address,uint256)": "infinite",
            "columnHijos(address)": "infinite",
            "controlWitdrawl(bool)": "26811",
            "depositos(address,bool)": "infinite",
            "descuento()": "2353",
            "dias()": "2417",
            "duracionMembership()": "2439",
            "gananciasRango(uint256)": "4632",
            "hijo(address,uint256)": "4846",
            "idToAddress(uint256)": "2568",
            "infinity(uint256)": "4630",
            "inversiones()": "2351",
            "investors(address)": "infinite",
            "lastUserId()": "2374",
            "makeNewAdmin(address)": "28088",
            "makeRemoveAdmin(address)": "28047",
            "newRecompensa()": "infinite",
            "onOffWitdrawl()": "2443",
            "owner()": "2493",
            "padre(address)": "2642",
            "personas()": "2373",
            "porcent()": "2418",
            "porcientos(uint256)": "4699",
            "precioRegistro()": "2375",
            "primervez(uint256)": "4697",
            "puntosRango(uint256)": "4633",
            "rangoReclamado(address,uint256)": "6516",
            "redimBNB()": "infinite",
            "redimTokenPrincipal02(uint256)": "infinite",
            "registro(address,string)": "infinite",
            "setDescuento(uint256)": "24668",
            "setInversiones(uint256)": "24676",
            "setMIN_RETIRO(uint256)": "24611",
            "setPorcientos(uint256,uint256)": "infinite",
            "setPorcientosSalida(uint256,uint256)": "infinite",
            "setPrecioRegistro(uint256)": "24667",
            "setPriceBlock(uint256)": "24691",
            "setPrimeravezPorcientos(uint256,uint256)": "infinite",
            "setRetorno(uint256)": "24728",
            "setTiempo(uint256)": "24682",
            "setTiempoUnidades(uint256)": "24655",
            "setWalletFee(address[],uint256[],uint256)": "infinite",
            "setWalletstransfers(address[],uint256[])": "infinite",
            "setstate()": "6640",
            "tiempo()": "infinite",
            "tokenPricipal()": "2492",
            "totalInvested()": "2419",
            "totalInvestors()": "2441",
            "totalRefRewards()": "2395",
            "totalRefWitdrawl()": "2396",
            "transferOwnership(address)": "30500",
            "unidades()": "2440",
            "updateData(string)": "infinite",
            "valor(uint256)": "4676",
            "valorFee(uint256)": "4633",
            "wallet(uint256)": "4748",
            "walletFee(uint256)": "4725",
            "withdraw()": "infinite",
            "withdraw2()": "infinite",
            "withdrawTeam()": "infinite",
            "withdrawable(address,bool)": "infinite",
            "withdrawableRange(address)": "infinite"
        },
        "internal": {
            "rewardReferers(address,uint256,uint256[] memory)": "infinite"
        }
    }
}