{
    "contractName": "UnilevelSystem",
    "abi": [
        {
            "inputs": [],
            "stateMutability": "nonpayable",
            "type": "constructor"
        },
        {
            "anonymous": false,
            "inputs": [
                {
                    "indexed": true,
                    "internalType": "address",
                    "name": "admin",
                    "type": "address"
                }
            ],
            "name": "AdminRemoved",
            "type": "event"
        },
        {
            "anonymous": false,
            "inputs": [
                {
                    "indexed": true,
                    "internalType": "address",
                    "name": "admin",
                    "type": "address"
                }
            ],
            "name": "NewAdmin",
            "type": "event"
        },
        {
            "anonymous": false,
            "inputs": [
                {
                    "indexed": true,
                    "internalType": "address",
                    "name": "previousOwner",
                    "type": "address"
                },
                {
                    "indexed": true,
                    "internalType": "address",
                    "name": "newOwner",
                    "type": "address"
                }
            ],
            "name": "OwnershipTransferred",
            "type": "event"
        },
        {
            "stateMutability": "payable",
            "type": "fallback"
        },
        {
            "inputs": [
                {
                    "internalType": "address",
                    "name": "_tokenTRC20",
                    "type": "address"
                }
            ],
            "name": "ChangeTokenPrincipal",
            "outputs": [
                {
                    "internalType": "bool",
                    "name": "",
                    "type": "bool"
                }
            ],
            "stateMutability": "nonpayable",
            "type": "function"
        },
        {
            "inputs": [],
            "name": "MIN_RETIRO",
            "outputs": [
                {
                    "internalType": "uint256",
                    "name": "",
                    "type": "uint256"
                }
            ],
            "stateMutability": "view",
            "type": "function"
        },
        {
            "inputs": [],
            "name": "MIN_RETIRO_interno",
            "outputs": [
                {
                    "internalType": "uint256",
                    "name": "",
                    "type": "uint256"
                }
            ],
            "stateMutability": "view",
            "type": "function"
        },
        {
            "inputs": [],
            "name": "PRECIO_BLOCK",
            "outputs": [
                {
                    "internalType": "uint256",
                    "name": "",
                    "type": "uint256"
                }
            ],
            "stateMutability": "view",
            "type": "function"
        },
        {
            "inputs": [
                {
                    "internalType": "uint256",
                    "name": "",
                    "type": "uint256"
                }
            ],
            "name": "active",
            "outputs": [
                {
                    "internalType": "bool",
                    "name": "",
                    "type": "bool"
                }
            ],
            "stateMutability": "view",
            "type": "function"
        },
        {
            "inputs": [],
            "name": "activerFee",
            "outputs": [
                {
                    "internalType": "uint256",
                    "name": "",
                    "type": "uint256"
                }
            ],
            "stateMutability": "view",
            "type": "function"
        },
        {
            "inputs": [
                {
                    "internalType": "bool[]",
                    "name": "old",
                    "type": "bool[]"
                }
            ],
            "name": "actualizarArrayBool",
            "outputs": [
                {
                    "internalType": "bool[]",
                    "name": "",
                    "type": "bool[]"
                }
            ],
            "stateMutability": "pure",
            "type": "function"
        },
        {
            "inputs": [
                {
                    "internalType": "uint256[]",
                    "name": "old",
                    "type": "uint256[]"
                }
            ],
            "name": "actualizarArrayUint256",
            "outputs": [
                {
                    "internalType": "uint256[]",
                    "name": "",
                    "type": "uint256[]"
                }
            ],
            "stateMutability": "pure",
            "type": "function"
        },
        {
            "inputs": [
                {
                    "internalType": "address[]",
                    "name": "oldNetwork",
                    "type": "address[]"
                }
            ],
            "name": "actualizarNetwork",
            "outputs": [
                {
                    "internalType": "address[]",
                    "name": "",
                    "type": "address[]"
                }
            ],
            "stateMutability": "pure",
            "type": "function"
        },
        {
            "inputs": [
                {
                    "internalType": "address",
                    "name": "",
                    "type": "address"
                }
            ],
            "name": "addressToId",
            "outputs": [
                {
                    "internalType": "uint256",
                    "name": "",
                    "type": "uint256"
                }
            ],
            "stateMutability": "view",
            "type": "function"
        },
        {
            "inputs": [
                {
                    "internalType": "address",
                    "name": "",
                    "type": "address"
                }
            ],
            "name": "admin",
            "outputs": [
                {
                    "internalType": "bool",
                    "name": "",
                    "type": "bool"
                }
            ],
            "stateMutability": "view",
            "type": "function"
        },
        {
            "inputs": [
                {
                    "internalType": "address[]",
                    "name": "network",
                    "type": "address[]"
                }
            ],
            "name": "allnetwork",
            "outputs": [
                {
                    "internalType": "address[]",
                    "name": "",
                    "type": "address[]"
                }
            ],
            "stateMutability": "view",
            "type": "function"
        },
        {
            "inputs": [
                {
                    "internalType": "address",
                    "name": "_user",
                    "type": "address"
                },
                {
                    "internalType": "uint256",
                    "name": "_plan",
                    "type": "uint256"
                }
            ],
            "name": "asignarBloke",
            "outputs": [
                {
                    "internalType": "bool",
                    "name": "",
                    "type": "bool"
                }
            ],
            "stateMutability": "nonpayable",
            "type": "function"
        },
        {
            "inputs": [
                {
                    "internalType": "uint256",
                    "name": "_bloks",
                    "type": "uint256"
                }
            ],
            "name": "buyBlocks",
            "outputs": [],
            "stateMutability": "nonpayable",
            "type": "function"
        },
        {
            "inputs": [
                {
                    "internalType": "address",
                    "name": "yo",
                    "type": "address"
                },
                {
                    "internalType": "uint256",
                    "name": "_largo",
                    "type": "uint256"
                }
            ],
            "name": "column",
            "outputs": [
                {
                    "internalType": "address[]",
                    "name": "",
                    "type": "address[]"
                }
            ],
            "stateMutability": "view",
            "type": "function"
        },
        {
            "inputs": [
                {
                    "internalType": "bool",
                    "name": "_true_false",
                    "type": "bool"
                }
            ],
            "name": "controlWitdrawl",
            "outputs": [
                {
                    "internalType": "bool",
                    "name": "",
                    "type": "bool"
                }
            ],
            "stateMutability": "nonpayable",
            "type": "function"
        },
        {
            "inputs": [
                {
                    "internalType": "address",
                    "name": "_user",
                    "type": "address"
                }
            ],
            "name": "depositos",
            "outputs": [
                {
                    "internalType": "uint256[]",
                    "name": "",
                    "type": "uint256[]"
                },
                {
                    "internalType": "uint256[]",
                    "name": "",
                    "type": "uint256[]"
                },
                {
                    "internalType": "bool[]",
                    "name": "",
                    "type": "bool[]"
                },
                {
                    "internalType": "bool[]",
                    "name": "",
                    "type": "bool[]"
                },
                {
                    "internalType": "uint256",
                    "name": "",
                    "type": "uint256"
                }
            ],
            "stateMutability": "view",
            "type": "function"
        },
        {
            "inputs": [],
            "name": "descuento",
            "outputs": [
                {
                    "internalType": "uint256",
                    "name": "",
                    "type": "uint256"
                }
            ],
            "stateMutability": "view",
            "type": "function"
        },
        {
            "inputs": [],
            "name": "dias",
            "outputs": [
                {
                    "internalType": "uint256",
                    "name": "",
                    "type": "uint256"
                }
            ],
            "stateMutability": "view",
            "type": "function"
        },
        {
            "inputs": [
                {
                    "internalType": "address",
                    "name": "_user",
                    "type": "address"
                },
                {
                    "internalType": "uint256",
                    "name": "_valor",
                    "type": "uint256"
                }
            ],
            "name": "discountDeposits",
            "outputs": [],
            "stateMutability": "nonpayable",
            "type": "function"
        },
        {
            "inputs": [
                {
                    "internalType": "uint256",
                    "name": "",
                    "type": "uint256"
                }
            ],
            "name": "gananciasRango",
            "outputs": [
                {
                    "internalType": "uint256",
                    "name": "",
                    "type": "uint256"
                }
            ],
            "stateMutability": "view",
            "type": "function"
        },
        {
            "inputs": [
                {
                    "internalType": "uint256",
                    "name": "",
                    "type": "uint256"
                }
            ],
            "name": "idToAddress",
            "outputs": [
                {
                    "internalType": "address",
                    "name": "",
                    "type": "address"
                }
            ],
            "stateMutability": "view",
            "type": "function"
        },
        {
            "inputs": [],
            "name": "inversiones",
            "outputs": [
                {
                    "internalType": "uint256",
                    "name": "",
                    "type": "uint256"
                }
            ],
            "stateMutability": "view",
            "type": "function"
        },
        {
            "inputs": [
                {
                    "internalType": "address",
                    "name": "",
                    "type": "address"
                }
            ],
            "name": "investors",
            "outputs": [
                {
                    "internalType": "bool",
                    "name": "registered",
                    "type": "bool"
                },
                {
                    "internalType": "bool",
                    "name": "recompensa",
                    "type": "bool"
                },
                {
                    "internalType": "uint256",
                    "name": "balanceRef",
                    "type": "uint256"
                },
                {
                    "internalType": "uint256",
                    "name": "balanceSal",
                    "type": "uint256"
                },
                {
                    "internalType": "uint256",
                    "name": "totalRef",
                    "type": "uint256"
                },
                {
                    "internalType": "uint256",
                    "name": "invested",
                    "type": "uint256"
                },
                {
                    "internalType": "uint256",
                    "name": "paidAt",
                    "type": "uint256"
                },
                {
                    "internalType": "uint256",
                    "name": "amount",
                    "type": "uint256"
                },
                {
                    "internalType": "uint256",
                    "name": "withdrawn",
                    "type": "uint256"
                },
                {
                    "internalType": "uint256",
                    "name": "directos",
                    "type": "uint256"
                },
                {
                    "internalType": "string",
                    "name": "data",
                    "type": "string"
                },
                {
                    "internalType": "uint256",
                    "name": "blokesDirectos",
                    "type": "uint256"
                }
            ],
            "stateMutability": "view",
            "type": "function"
        },
        {
            "inputs": [],
            "name": "lastUserId",
            "outputs": [
                {
                    "internalType": "uint256",
                    "name": "",
                    "type": "uint256"
                }
            ],
            "stateMutability": "view",
            "type": "function"
        },
        {
            "inputs": [
                {
                    "internalType": "address payable",
                    "name": "_newadmin",
                    "type": "address"
                }
            ],
            "name": "makeNewAdmin",
            "outputs": [],
            "stateMutability": "nonpayable",
            "type": "function"
        },
        {
            "inputs": [
                {
                    "internalType": "address payable",
                    "name": "_oldadmin",
                    "type": "address"
                }
            ],
            "name": "makeRemoveAdmin",
            "outputs": [],
            "stateMutability": "nonpayable",
            "type": "function"
        },
        {
            "inputs": [],
            "name": "newRecompensa",
            "outputs": [],
            "stateMutability": "nonpayable",
            "type": "function"
        },
        {
            "inputs": [],
            "name": "onOffWitdrawl",
            "outputs": [
                {
                    "internalType": "bool",
                    "name": "",
                    "type": "bool"
                }
            ],
            "stateMutability": "view",
            "type": "function"
        },
        {
            "inputs": [],
            "name": "owner",
            "outputs": [
                {
                    "internalType": "address payable",
                    "name": "",
                    "type": "address"
                }
            ],
            "stateMutability": "view",
            "type": "function"
        },
        {
            "inputs": [
                {
                    "internalType": "address",
                    "name": "",
                    "type": "address"
                }
            ],
            "name": "padre",
            "outputs": [
                {
                    "internalType": "address",
                    "name": "",
                    "type": "address"
                }
            ],
            "stateMutability": "view",
            "type": "function"
        },
        {
            "inputs": [],
            "name": "personas",
            "outputs": [
                {
                    "internalType": "uint256",
                    "name": "",
                    "type": "uint256"
                }
            ],
            "stateMutability": "view",
            "type": "function"
        },
        {
            "inputs": [
                {
                    "internalType": "uint256",
                    "name": "",
                    "type": "uint256"
                }
            ],
            "name": "plans",
            "outputs": [
                {
                    "internalType": "uint256",
                    "name": "",
                    "type": "uint256"
                }
            ],
            "stateMutability": "view",
            "type": "function"
        },
        {
            "inputs": [],
            "name": "plansLength",
            "outputs": [
                {
                    "internalType": "uint8",
                    "name": "",
                    "type": "uint8"
                }
            ],
            "stateMutability": "view",
            "type": "function"
        },
        {
            "inputs": [],
            "name": "porcent",
            "outputs": [
                {
                    "internalType": "uint256",
                    "name": "",
                    "type": "uint256"
                }
            ],
            "stateMutability": "view",
            "type": "function"
        },
        {
            "inputs": [],
            "name": "porcentPuntosBinario",
            "outputs": [
                {
                    "internalType": "uint256",
                    "name": "",
                    "type": "uint256"
                }
            ],
            "stateMutability": "view",
            "type": "function"
        },
        {
            "inputs": [
                {
                    "internalType": "uint256",
                    "name": "",
                    "type": "uint256"
                }
            ],
            "name": "porcientos",
            "outputs": [
                {
                    "internalType": "uint256",
                    "name": "",
                    "type": "uint256"
                }
            ],
            "stateMutability": "view",
            "type": "function"
        },
        {
            "inputs": [
                {
                    "internalType": "uint256",
                    "name": "",
                    "type": "uint256"
                }
            ],
            "name": "porcientosSalida",
            "outputs": [
                {
                    "internalType": "uint256",
                    "name": "",
                    "type": "uint256"
                }
            ],
            "stateMutability": "view",
            "type": "function"
        },
        {
            "inputs": [],
            "name": "precioRegistro",
            "outputs": [
                {
                    "internalType": "uint256",
                    "name": "",
                    "type": "uint256"
                }
            ],
            "stateMutability": "view",
            "type": "function"
        },
        {
            "inputs": [
                {
                    "internalType": "uint256",
                    "name": "",
                    "type": "uint256"
                }
            ],
            "name": "primervez",
            "outputs": [
                {
                    "internalType": "uint256",
                    "name": "",
                    "type": "uint256"
                }
            ],
            "stateMutability": "view",
            "type": "function"
        },
        {
            "inputs": [
                {
                    "internalType": "uint256",
                    "name": "",
                    "type": "uint256"
                }
            ],
            "name": "puntosRango",
            "outputs": [
                {
                    "internalType": "uint256",
                    "name": "",
                    "type": "uint256"
                }
            ],
            "stateMutability": "view",
            "type": "function"
        },
        {
            "inputs": [
                {
                    "internalType": "address",
                    "name": "",
                    "type": "address"
                },
                {
                    "internalType": "uint256",
                    "name": "",
                    "type": "uint256"
                }
            ],
            "name": "rangoReclamado",
            "outputs": [
                {
                    "internalType": "bool",
                    "name": "",
                    "type": "bool"
                }
            ],
            "stateMutability": "view",
            "type": "function"
        },
        {
            "inputs": [],
            "name": "redimTRX",
            "outputs": [
                {
                    "internalType": "uint256",
                    "name": "",
                    "type": "uint256"
                }
            ],
            "stateMutability": "nonpayable",
            "type": "function"
        },
        {
            "inputs": [
                {
                    "internalType": "uint256",
                    "name": "_value",
                    "type": "uint256"
                }
            ],
            "name": "redimTokenPrincipal02",
            "outputs": [
                {
                    "internalType": "uint256",
                    "name": "",
                    "type": "uint256"
                }
            ],
            "stateMutability": "nonpayable",
            "type": "function"
        },
        {
            "inputs": [
                {
                    "internalType": "address",
                    "name": "_sponsor",
                    "type": "address"
                },
                {
                    "internalType": "string",
                    "name": "_datos",
                    "type": "string"
                }
            ],
            "name": "registro",
            "outputs": [],
            "stateMutability": "nonpayable",
            "type": "function"
        },
        {
            "inputs": [
                {
                    "internalType": "uint256",
                    "name": "_descuento",
                    "type": "uint256"
                }
            ],
            "name": "setDescuento",
            "outputs": [
                {
                    "internalType": "bool",
                    "name": "",
                    "type": "bool"
                }
            ],
            "stateMutability": "nonpayable",
            "type": "function"
        },
        {
            "inputs": [
                {
                    "internalType": "uint256",
                    "name": "_numerodeinverionessinganancia",
                    "type": "uint256"
                }
            ],
            "name": "setInversiones",
            "outputs": [
                {
                    "internalType": "uint256",
                    "name": "",
                    "type": "uint256"
                }
            ],
            "stateMutability": "nonpayable",
            "type": "function"
        },
        {
            "inputs": [
                {
                    "internalType": "uint256",
                    "name": "_min",
                    "type": "uint256"
                }
            ],
            "name": "setMIN_RETIRO",
            "outputs": [
                {
                    "internalType": "uint256",
                    "name": "",
                    "type": "uint256"
                }
            ],
            "stateMutability": "nonpayable",
            "type": "function"
        },
        {
            "inputs": [
                {
                    "internalType": "uint256[]",
                    "name": "_values",
                    "type": "uint256[]"
                },
                {
                    "internalType": "bool[]",
                    "name": "_true",
                    "type": "bool[]"
                }
            ],
            "name": "setPlansAll",
            "outputs": [
                {
                    "internalType": "bool",
                    "name": "",
                    "type": "bool"
                }
            ],
            "stateMutability": "nonpayable",
            "type": "function"
        },
        {
            "inputs": [
                {
                    "internalType": "uint256",
                    "name": "_nivel",
                    "type": "uint256"
                },
                {
                    "internalType": "uint256",
                    "name": "_value",
                    "type": "uint256"
                }
            ],
            "name": "setPorcientos",
            "outputs": [
                {
                    "internalType": "uint256[]",
                    "name": "",
                    "type": "uint256[]"
                }
            ],
            "stateMutability": "nonpayable",
            "type": "function"
        },
        {
            "inputs": [
                {
                    "internalType": "uint256",
                    "name": "_nivel",
                    "type": "uint256"
                },
                {
                    "internalType": "uint256",
                    "name": "_value",
                    "type": "uint256"
                }
            ],
            "name": "setPorcientosSalida",
            "outputs": [
                {
                    "internalType": "uint256[]",
                    "name": "",
                    "type": "uint256[]"
                }
            ],
            "stateMutability": "nonpayable",
            "type": "function"
        },
        {
            "inputs": [
                {
                    "internalType": "uint256",
                    "name": "_precio",
                    "type": "uint256"
                }
            ],
            "name": "setPrecioRegistro",
            "outputs": [
                {
                    "internalType": "bool",
                    "name": "",
                    "type": "bool"
                }
            ],
            "stateMutability": "nonpayable",
            "type": "function"
        },
        {
            "inputs": [
                {
                    "internalType": "uint256",
                    "name": "_nivel",
                    "type": "uint256"
                },
                {
                    "internalType": "uint256",
                    "name": "_value",
                    "type": "uint256"
                }
            ],
            "name": "setPrimeravezPorcientos",
            "outputs": [
                {
                    "internalType": "uint256[]",
                    "name": "",
                    "type": "uint256[]"
                }
            ],
            "stateMutability": "nonpayable",
            "type": "function"
        },
        {
            "inputs": [
                {
                    "internalType": "uint256",
                    "name": "_porcentaje",
                    "type": "uint256"
                }
            ],
            "name": "setPuntosPorcentajeBinario",
            "outputs": [
                {
                    "internalType": "uint256",
                    "name": "",
                    "type": "uint256"
                }
            ],
            "stateMutability": "nonpayable",
            "type": "function"
        },
        {
            "inputs": [
                {
                    "internalType": "uint256",
                    "name": "_porcentaje",
                    "type": "uint256"
                }
            ],
            "name": "setRetorno",
            "outputs": [
                {
                    "internalType": "uint256",
                    "name": "",
                    "type": "uint256"
                }
            ],
            "stateMutability": "nonpayable",
            "type": "function"
        },
        {
            "inputs": [
                {
                    "internalType": "uint256",
                    "name": "_dias",
                    "type": "uint256"
                }
            ],
            "name": "setTiempo",
            "outputs": [
                {
                    "internalType": "uint256",
                    "name": "",
                    "type": "uint256"
                }
            ],
            "stateMutability": "nonpayable",
            "type": "function"
        },
        {
            "inputs": [
                {
                    "internalType": "uint256",
                    "name": "_unidades",
                    "type": "uint256"
                }
            ],
            "name": "setTiempoUnidades",
            "outputs": [
                {
                    "internalType": "uint256",
                    "name": "",
                    "type": "uint256"
                }
            ],
            "stateMutability": "nonpayable",
            "type": "function"
        },
        {
            "inputs": [
                {
                    "internalType": "address[]",
                    "name": "_wallet",
                    "type": "address[]"
                },
                {
                    "internalType": "uint256[]",
                    "name": "_fee",
                    "type": "uint256[]"
                },
                {
                    "internalType": "uint256",
                    "name": "_activerFee",
                    "type": "uint256"
                }
            ],
            "name": "setWalletFee",
            "outputs": [
                {
                    "internalType": "bool",
                    "name": "",
                    "type": "bool"
                }
            ],
            "stateMutability": "nonpayable",
            "type": "function"
        },
        {
            "inputs": [
                {
                    "internalType": "address[]",
                    "name": "_wallets",
                    "type": "address[]"
                },
                {
                    "internalType": "uint256[]",
                    "name": "_valores",
                    "type": "uint256[]"
                }
            ],
            "name": "setWalletstransfers",
            "outputs": [
                {
                    "internalType": "bool",
                    "name": "",
                    "type": "bool"
                }
            ],
            "stateMutability": "nonpayable",
            "type": "function"
        },
        {
            "inputs": [],
            "name": "setstate",
            "outputs": [
                {
                    "internalType": "uint256",
                    "name": "Investors",
                    "type": "uint256"
                },
                {
                    "internalType": "uint256",
                    "name": "Invested",
                    "type": "uint256"
                },
                {
                    "internalType": "uint256",
                    "name": "RefRewards",
                    "type": "uint256"
                }
            ],
            "stateMutability": "view",
            "type": "function"
        },
        {
            "inputs": [],
            "name": "tiempo",
            "outputs": [
                {
                    "internalType": "uint256",
                    "name": "",
                    "type": "uint256"
                }
            ],
            "stateMutability": "view",
            "type": "function"
        },
        {
            "inputs": [],
            "name": "tokenPricipal",
            "outputs": [
                {
                    "internalType": "address",
                    "name": "",
                    "type": "address"
                }
            ],
            "stateMutability": "view",
            "type": "function"
        },
        {
            "inputs": [],
            "name": "totalInvested",
            "outputs": [
                {
                    "internalType": "uint256",
                    "name": "",
                    "type": "uint256"
                }
            ],
            "stateMutability": "view",
            "type": "function"
        },
        {
            "inputs": [],
            "name": "totalInvestors",
            "outputs": [
                {
                    "internalType": "uint256",
                    "name": "",
                    "type": "uint256"
                }
            ],
            "stateMutability": "view",
            "type": "function"
        },
        {
            "inputs": [],
            "name": "totalRefRewards",
            "outputs": [
                {
                    "internalType": "uint256",
                    "name": "",
                    "type": "uint256"
                }
            ],
            "stateMutability": "view",
            "type": "function"
        },
        {
            "inputs": [],
            "name": "totalRefWitdrawl",
            "outputs": [
                {
                    "internalType": "uint256",
                    "name": "",
                    "type": "uint256"
                }
            ],
            "stateMutability": "view",
            "type": "function"
        },
        {
            "inputs": [
                {
                    "internalType": "address payable",
                    "name": "newOwner",
                    "type": "address"
                }
            ],
            "name": "transferOwnership",
            "outputs": [],
            "stateMutability": "nonpayable",
            "type": "function"
        },
        {
            "inputs": [],
            "name": "unidades",
            "outputs": [
                {
                    "internalType": "uint256",
                    "name": "",
                    "type": "uint256"
                }
            ],
            "stateMutability": "view",
            "type": "function"
        },
        {
            "inputs": [
                {
                    "internalType": "uint256",
                    "name": "",
                    "type": "uint256"
                }
            ],
            "name": "valor",
            "outputs": [
                {
                    "internalType": "uint256",
                    "name": "",
                    "type": "uint256"
                }
            ],
            "stateMutability": "view",
            "type": "function"
        },
        {
            "inputs": [
                {
                    "internalType": "uint256",
                    "name": "",
                    "type": "uint256"
                }
            ],
            "name": "valorFee",
            "outputs": [
                {
                    "internalType": "uint256",
                    "name": "",
                    "type": "uint256"
                }
            ],
            "stateMutability": "view",
            "type": "function"
        },
        {
            "inputs": [
                {
                    "internalType": "uint256",
                    "name": "",
                    "type": "uint256"
                }
            ],
            "name": "wallet",
            "outputs": [
                {
                    "internalType": "address",
                    "name": "",
                    "type": "address"
                }
            ],
            "stateMutability": "view",
            "type": "function"
        },
        {
            "inputs": [
                {
                    "internalType": "uint256",
                    "name": "",
                    "type": "uint256"
                }
            ],
            "name": "walletFee",
            "outputs": [
                {
                    "internalType": "address",
                    "name": "",
                    "type": "address"
                }
            ],
            "stateMutability": "view",
            "type": "function"
        },
        {
            "inputs": [],
            "name": "withdraw",
            "outputs": [],
            "stateMutability": "nonpayable",
            "type": "function"
        },
        {
            "inputs": [
                {
                    "internalType": "address",
                    "name": "any_user",
                    "type": "address"
                }
            ],
            "name": "withdrawable",
            "outputs": [
                {
                    "internalType": "uint256",
                    "name": "",
                    "type": "uint256"
                }
            ],
            "stateMutability": "view",
            "type": "function"
        },
        {
            "inputs": [
                {
                    "internalType": "address",
                    "name": "any_user",
                    "type": "address"
                }
            ],
            "name": "withdrawableRange",
            "outputs": [
                {
                    "internalType": "uint256",
                    "name": "amount",
                    "type": "uint256"
                }
            ],
            "stateMutability": "view",
            "type": "function"
        },
        {
            "stateMutability": "payable",
            "type": "receive"
        }
    ],
    "bytecode": "600280547355d398326f99059ff775485246999027b31979556001600160a01b03199182168117909255600380548216831790556801a055690d9db800006004556802b5e3af16b1880000600655600780549091169091179055600160085561012060405260466080908152600060a081905260c081905260e08190526101005262000090906009906005620005d6565b506040805160a081018252600080825260208201819052918101829052606081018290526080810191909152620000cc90600a906005620005d6565b506040805160a081018252600a81526004602082015260039181019190915260026060820152600160808201526200010990600b906005620005d6565b506040805161012081018252600081526802b5e3af16b1880000602082015268056bc75e2d6310000091810191909152680d8d726b7177a800006060820152681b1ae4d6e2ef5000006080820152683635c9adc5dea0000060a082015268878678326eac90000060c082015269010f0cf064dd5920000060e082015269021e19e0c9bab2400000610100820152620001a690600c9060096200062b565b50604080516101208101825260008152600160208201819052918101829052606081018290526080810182905260a0810182905260c0810182905260e081018290526101008101919091526200020190600d90600962000674565b5060408051610100810182526801158e460913d0000081526802b5e3af16b18800006020820152680ad78ebc5ac620000091810191909152681b1ae4d6e2ef500000606082015268410d586a20a4c00000608082015269014542ba12a337c0000060a082015269032d26d12e980b60000060c0820152690a968163f0a57b40000060e08201526200029790600e9060086200062b565b506040805161010081018252685150ae84a8cdf00000815269010f0cf064dd59200000602082015269043c33c193756480000091810191909152690a968163f0a57b4000006060820152691969368974c05b0000006080820152697f0e10af47c1c700000060a08201526a013da329b633647180000060c08201526a0422ca8b0a00a42500000060e08201526200033390600f9060086200071b565b506010805460ff1916600190811790915560c86011556201518060125560f06013556005601455605f601555600260165560178190556020818155604080519182019052730556a260b9ef10756bc2df281168697f353d1e8e81526200039d916021919062000764565b50604080516020810190915260648152620003bd906022906001620005d6565b50600060235560016024556040805160e081018252734490566647735e8cbce0ce96efc8fb91c164859b815273e201933ca7b5af514a1b0119bbc1072a066c06df602082015273e2283cb00b9c32727941728bede372005c6ca3119181019190915273763eb0a2a2925c45927dbf6432f191fc66fbcfa8606082015273deff65e4bcf19a52b0db33e57b7ce262fd5db53f6080820152738a6ac002b64bbba26e746d97d4050e71240b30b060a0820152730bddc342f66f46968a15bd1c16dbefa5b63a158860c08201526200049790602590600762000764565b506040805160e08101825260068152600560208201526002918101829052606081018290526080810182905260a0810191909152602f60c0820152620004e2906026906007620005d6565b50348015620004f057600080fd5b50600080546001600160a01b031916339081178255808252600160208181526040808520805460ff191690931790925583546001600160a01b03168452601b8152818420805461ffff1916610101178155825160e081018452858152808301869052808401869052606081018690526080810186905260a0810186905260c08101869052938552601f90915292206200058b91600762000674565b50507f0a51588b1664495f089dd83d2d26f247920f94a57a4a09f20cf068efc8f82bd480546001600160a01b031916339081179091556000908152601e6020526040812055620007d3565b82805482825590600052602060002090810192821562000619579160200282015b8281111562000619578251829060ff16905591602001919060010190620005f7565b5062000627929150620007bc565b5090565b82805482825590600052602060002090810192821562000619579160200282015b828111156200061957825182906001600160501b03169055916020019190600101906200064c565b82805482825590600052602060002090601f01602090048101928215620006195791602002820160005b83821115620006dd57835183826101000a81548160ff02191690831515021790555092602001926001016020816000010492830192600103026200069e565b80156200070c5782816101000a81549060ff0219169055600101602081600001049283019260010302620006dd565b505062000627929150620007bc565b82805482825590600052602060002090810192821562000619579160200282015b828111156200061957825182906001600160581b03169055916020019190600101906200073c565b82805482825590600052602060002090810192821562000619579160200282015b828111156200061957825182546001600160a01b0319166001600160a01b0390911617825560209092019160019091019062000785565b5b80821115620006275760008155600101620007bd565b613e7d80620007e36000396000f3fe6080604052600436106104105760003560e01c8063725fc2701161021c578063b139042611610122578063c17dbdf9116100b0578063ce513b6f11610077578063ce513b6f14610cea578063db3be1a214610d0a578063e7348e8c14610d2a578063f2fde38b14610d44578063f90b3f5a14610d6457005b8063c17dbdf914610c5c578063c2307ee614610c7c578063cb0e0d7d14610c92578063cc759ba214610cbf578063cdb8bb2a14610cd557005b8063b3d9fa09116100f4578063b3d9fa0914610bd0578063b85ea33514610bf0578063bd9bee1914610c10578063bfe0e02014610c26578063c073d90914610c3c57005b8063b139042614610b3a578063b162061614610b5a578063b17b6e4414610b7a578063b35f0a8f14610b9a57005b80638da5cb5b116101aa578063a77d211911610171578063a77d211914610aae578063a8beb71714610ac4578063aaa749c514610ae4578063ab6db19914610b04578063af604ad014610b1a57005b80638da5cb5b14610a185780638f9ef8c114610a3857806398c07d0a14610a585780639b8ff50314610a78578063a278133514610a8e57005b80637faee047116101ee5780637faee0471461095a5780637fcc1e361461097a5780638033d581146109a757806381032892146109c757806385338e20146109e757005b8063725fc270146108ee5780637367b0801461090e5780637b0412ed1461092e5780637db9e9c61461094457005b80634b9b82031161032157806363a846f8116102af57806369f4a84b1161027657806369f4a84b1461084b5780636c529279146108605780636f7bc9be1461087657806370a0966b146108ae5780637251b9ac146108ce57005b806363a846f81461078a57806364417c89146107ba5780636589fa8a146107da578063664e62b9146107fa57806369ed1e0a1461082b57005b806350da983f116102f357806350da983f146106f45780635216aeec14610714578063548225221461072a5780635d216c601461074a578063625509161461076a57005b80634b9b8203146106935780634bdcd429146106a95780634de1be62146106bf57806350188c08146106df57005b80632748d29b1161039e5780632a2d0c47116103705780632a2d0c47146105e45780632acc821014610632578063348d4487146106525780633ccfd60b146106685780634728f7181461067d57005b80632748d29b1461056e57806328cca7191461058e57806329b8caff146105ae57806329e1a243146105c457005b806321309f21116103e257806321309f21146104c657806322c0a574146104e657806323f376bc1461050657806324de19f21461053657806326837aa81461054c57005b80631140e85b1461041957806315e8392b1461044c5780631ce7f99b146104795780631e403c351461049957005b3661041757005b005b34801561042557600080fd5b50610439610434366004613654565b610d84565b6040519081526020015b60405180910390f35b34801561045857600080fd5b5061046c610467366004613685565b610e9c565b60405161044391906136b1565b34801561048557600080fd5b5061046c6104943660046137dd565b610f33565b3480156104a557600080fd5b506104b96104b4366004613812565b610ff2565b604051610443919061386f565b3480156104d257600080fd5b506104396104e1366004613654565b611090565b3480156104f257600080fd5b50610439610501366004613654565b6110b1565b34801561051257600080fd5b5061052661052136600461394f565b6110c1565b6040519015158152602001610443565b34801561054257600080fd5b5061043960065481565b34801561055857600080fd5b50600c5460405160ff9091168152602001610443565b34801561057a57600080fd5b50610439610589366004613654565b611113565b34801561059a57600080fd5b506104396105a9366004613654565b61113d565b3480156105ba57600080fd5b5061043960175481565b3480156105d057600080fd5b506104396105df366004613654565b61114d565b3480156105f057600080fd5b5061061a6105ff366004613654565b601d602052600090815260409020546001600160a01b031681565b6040516001600160a01b039091168152602001610443565b34801561063e57600080fd5b5061052661064d366004613685565b61115d565b34801561065e57600080fd5b5061043960205481565b34801561067457600080fd5b506104176111a0565b34801561068957600080fd5b5061043960135481565b34801561069f57600080fd5b5061043960125481565b3480156106b557600080fd5b5061043960055481565b3480156106cb57600080fd5b506104396106da366004613654565b61158e565b3480156106eb57600080fd5b506104396115b8565b34801561070057600080fd5b5061052661070f3660046139b3565b6115d6565b34801561072057600080fd5b5061043960185481565b34801561073657600080fd5b506104b9610745366004613812565b61162a565b34801561075657600080fd5b506104b9610765366004613812565b6116c6565b34801561077657600080fd5b50610439610785366004613654565b611762565b34801561079657600080fd5b506105266107a53660046139b3565b60016020526000908152604090205460ff1681565b3480156107c657600080fd5b506104396107d5366004613654565b611772565b3480156107e657600080fd5b506104396107f5366004613654565b61179c565b34801561080657600080fd5b5061081a6108153660046139b3565b6117c1565b604051610443959493929190613a02565b34801561083757600080fd5b506104176108463660046139b3565b6119b1565b34801561085757600080fd5b50610417611a3f565b34801561086c57600080fd5b5061043960045481565b34801561088257600080fd5b506108966108913660046139b3565b611bde565b6040516104439c9b9a99989796959493929190613a62565b3480156108ba57600080fd5b506104176108c93660046139b3565b611cbe565b3480156108da57600080fd5b5061061a6108e9366004613654565b611d46565b3480156108fa57600080fd5b50610439610909366004613654565b611d70565b34801561091a57600080fd5b506104b9610929366004613b16565b611d80565b34801561093a57600080fd5b5061043960155481565b34801561095057600080fd5b5061043960235481565b34801561096657600080fd5b5061046c6109753660046137dd565b611e2b565b34801561098657600080fd5b5061099a610995366004613b4b565b611f48565b6040516104439190613b80565b3480156109b357600080fd5b506105266109c2366004613654565b611ff8565b3480156109d357600080fd5b506104396109e2366004613654565b61202c565b3480156109f357600080fd5b5060175460185460195460408051938452602084019290925290820152606001610443565b348015610a2457600080fd5b5060005461061a906001600160a01b031681565b348015610a4457600080fd5b50610417610a53366004613b93565b61203c565b348015610a6457600080fd5b50610439610a733660046139b3565b61240c565b348015610a8457600080fd5b50610439601a5481565b348015610a9a57600080fd5b5061061a610aa9366004613654565b6125df565b348015610aba57600080fd5b5061043960085481565b348015610ad057600080fd5b50610526610adf366004613c3b565b6125ef565b348015610af057600080fd5b50610526610aff366004613654565b612637565b348015610b1057600080fd5b5061043960115481565b348015610b2657600080fd5b50610526610b35366004613685565b612661565b348015610b4657600080fd5b5060075461061a906001600160a01b031681565b348015610b6657600080fd5b50610439610b75366004613654565b6127ca565b348015610b8657600080fd5b50610526610b95366004613c95565b6127da565b348015610ba657600080fd5b5061061a610bb53660046139b3565b601c602052600090815260409020546001600160a01b031681565b348015610bdc57600080fd5b50610526610beb366004613654565b61280d565b348015610bfc57600080fd5b50610439610c0b366004613654565b612837565b348015610c1c57600080fd5b5061043960245481565b348015610c3257600080fd5b5061043960195481565b348015610c4857600080fd5b50610417610c57366004613685565b612861565b348015610c6857600080fd5b50610417610c77366004613654565b612909565b348015610c8857600080fd5b5061043960145481565b348015610c9e57600080fd5b50610439610cad3660046139b3565b601e6020526000908152604090205481565b348015610ccb57600080fd5b5061043960165481565b348015610ce157600080fd5b50610439612e0c565b348015610cf657600080fd5b50610439610d053660046139b3565b612e6e565b348015610d1657600080fd5b50610526610d25366004613cb2565b6130ac565b348015610d3657600080fd5b506010546105269060ff1681565b348015610d5057600080fd5b50610417610d5f3660046139b3565b613101565b348015610d7057600080fd5b50610439610d7f366004613654565b61318f565b600080546001600160a01b0316336001600160a01b031614610da557600080fd5b6003546040516370a0823160e01b815230600482015283916001600160a01b0316906370a0823190602401602060405180830381865afa158015610ded573d6000803e3d6000fd5b505050506040513d601f19601f82011682018060405250810190610e119190613d1f565b1015610e1c57600080fd5b60035460005460405163a9059cbb60e01b81526001600160a01b0391821660048201526024810185905291169063a9059cbb906044016020604051808303816000875af1158015610e71573d6000803e3d6000fd5b505050506040513d601f19601f82011682018060405250810190610e959190613d38565b5090919050565b60608060005b83811015610f2957610eb382610f33565b6001600160a01b038087166000908152601c602052604090205482519294501690839083908110610ee657610ee6613d55565b6001600160a01b039283166020918202929092018101919091529581166000908152601c9096526040909520549094169380610f2181613d81565b915050610ea2565b5090505b92915050565b6060600082516001610f459190613d9c565b67ffffffffffffffff811115610f5d57610f5d6136fe565b604051908082528060200260200182016040528015610f86578160200160208202803683370190505b50905060005b8351811015610feb57838181518110610fa757610fa7613d55565b6020026020010151828281518110610fc157610fc1613d55565b6001600160a01b039092166020928302919091019091015280610fe381613d81565b915050610f8c565b5092915050565b6000546060906001600160a01b0316336001600160a01b03161461101557600080fd5b81600a848154811061102957611029613d55565b9060005260206000200181905550600a80548060200260200160405190810160405280929190818152602001828054801561108357602002820191906000526020600020905b81548152602001906001019080831161106f575b5050505050905092915050565b600f81815481106110a057600080fd5b600091825260209091200154905081565b600b81815481106110a057600080fd5b600080546001600160a01b0316336001600160a01b0316146110e257600080fd5b82516110f590600c90602086019061348c565b50815161110990600d9060208501906134d7565b5060019392505050565b600080546001600160a01b0316336001600160a01b03161461113457600080fd5b50601281905590565b600a81815481106110a057600080fd5b602281815481106110a057600080fd5b601f602052816000526040600020818154811061117957600080fd5b9060005260206000209060209182820401919006915091509054906101000a900460ff1681565b60105460ff166111af57600080fd5b60006111ba33612e6e565b6003546040516370a0823160e01b815230600482015291925082916001600160a01b03909116906370a0823190602401602060405180830381865afa158015611207573d6000803e3d6000fd5b505050506040513d601f19601f8201168201806040525081019061122b9190613d1f565b101561123657600080fd5b60045481101561124557600080fd5b6001602454106114035760005b60215481101561136157600354602180546001600160a01b039092169163a9059cbb91908490811061128657611286613d55565b9060005260206000200160009054906101000a90046001600160a01b03166112df60646112d9602287815481106112bf576112bf613d55565b9060005260206000200154886131b490919063ffffffff16565b906131e6565b6040516001600160e01b031960e085901b1681526001600160a01b03909216600483015260248201526044016020604051808303816000875af115801561132a573d6000803e3d6000fd5b505050506040513d601f19601f8201168201806040525081019061134e9190613d38565b508061135981613d81565b915050611252565b506003546001600160a01b031663a9059cbb3361138e60646112d9601554876131b490919063ffffffff16565b6040516001600160e01b031960e085901b1681526001600160a01b03909216600483015260248201526044016020604051808303816000875af11580156113d9573d6000803e3d6000fd5b505050506040513d601f19601f820116820180604052508101906113fd9190613d38565b506114a0565b6003546001600160a01b031663a9059cbb3361142f60646112d9601554876131b490919063ffffffff16565b6040516001600160e01b031960e085901b1681526001600160a01b03909216600483015260248201526044016020604051808303816000875af115801561147a573d6000803e3d6000fd5b505050506040513d601f19601f8201168201806040525081019061149e9190613d38565b505b6114fd3382600b8054806020026020016040519081016040528092919081815260200182805480156114f157602002820191906000526020600020905b8154815260200190600101908083116114dd575b50505050506001613208565b336000908152601b602052604090206002810154600182015461152a9161152391613d9c565b8390613471565b81600601600082825461153d9190613db4565b92505081905550818160070160008282546115589190613d9c565b909155505042600582015560006001820181905560028201819055601a8054849290611585908490613d9c565b90915550505050565b600080546001600160a01b0316336001600160a01b0316146115af57600080fd5b50600481905590565b60006115d16012546011546131b490919063ffffffff16565b905090565b600080546001600160a01b0316336001600160a01b0316146115f757600080fd5b50600380546001600160a01b0383166001600160a01b031991821681179092556007805490911690911790556001919050565b6000546060906001600160a01b0316336001600160a01b03161461164d57600080fd5b816009848154811061166157611661613d55565b90600052602060002001819055506009805480602002602001604051908101604052809291908181526020018280548015611083576020028201919060005260206000209081548152602001906001019080831161106f575050505050905092915050565b6000546060906001600160a01b0316336001600160a01b0316146116e957600080fd5b81600b84815481106116fd576116fd613d55565b9060005260206000200181905550600b805480602002602001604051908101604052809291908181526020018280548015611083576020028201919060005260206000209081548152602001906001019080831161106f575050505050905092915050565b602681815481106110a057600080fd5b600080546001600160a01b0316336001600160a01b03161461179357600080fd5b50601481905590565b3360009081526001602052604081205460ff166117b857600080fd5b50601381905590565b6001600160a01b0381166000908152601b602052604081206060918291829182918280808085805b600a87015481101561199d576117fe86611d80565b955061180985611d80565b945061181484611f48565b935061181f83611f48565b9250600087600a01828154811061183857611838613d55565b90600052602060002090600302019050806000015486838151811061185f5761185f613d55565b60200260200101818152505060006118756115b8565b82546118819190613d9c565b9050600082600001548a600501541161189b5782546118a1565b89600501545b905060008242116118b257426118b4565b825b905081158015906118c457508082105b1561193357600284015460ff161561190e576118de6115b8565b6118e88383613db4565b85600101546118f79190613dcb565b6119019190613dea565b61190b9087613d9c565b95505b600187868151811061192257611922613d55565b911515602092830291909101909101525b83600101548a868151811061194a5761194a613d55565b60209081029190910101526002840154885160ff9091169089908790811061197457611974613d55565b60200260200101901515908115158152505050505050808061199590613d81565b9150506117e9565b50939b929a50909850965090945092505050565b6000546001600160a01b0316336001600160a01b0316146119d157600080fd5b6001600160a01b0381166119e457600080fd5b6040516001600160a01b038216907f71614071b88dee5e0b2ae578a9dd7b2ebbe9ae832ba419dc0242cd065a290b6c90600090a26001600160a01b03166000908152600160208190526040909120805460ff19169091179055565b60105460ff16611a4e57600080fd5b6000611a593361240c565b905060005b600e54811015611bda57600f8181548110611a7b57611a7b613d55565b90600052602060002001548210158015611ad35750336000908152601f60205260409020805482908110611ab157611ab1613d55565b90600052602060002090602091828204019190069054906101000a900460ff16155b15611bc8576003546001600160a01b031663a9059cbb33600e8481548110611afd57611afd613d55565b6000918252602090912001546040516001600160e01b031960e085901b1681526001600160a01b03909216600483015260248201526044016020604051808303816000875af1158015611b54573d6000803e3d6000fd5b505050506040513d601f19601f82011682018060405250810190611b789190613d38565b50336000908152601f6020526040902080546001919083908110611b9e57611b9e613d55565b90600052602060002090602091828204019190066101000a81548160ff0219169083151502179055505b80611bd281613d81565b915050611a5e565b5050565b601b60205260009081526040902080546001820154600283015460038401546004850154600586015460068701546007880154600889015460098a01805460ff808c169c610100909c04169a9190611c3590613e0c565b80601f0160208091040260200160405190810160405280929190818152602001828054611c6190613e0c565b8015611cae5780601f10611c8357610100808354040283529160200191611cae565b820191906000526020600020905b815481529060010190602001808311611c9157829003601f168201915b50505050509080600b015490508c565b6000546001600160a01b0316336001600160a01b031614611cde57600080fd5b6001600160a01b038116611cf157600080fd5b6040516001600160a01b038216907fa3b62bc36326052d97ea62d63c3d60308ed4c3ea8ac079dd8499f1e9c4f80c0f90600090a26001600160a01b03166000908152600160205260409020805460ff19169055565b60218181548110611d5657600080fd5b6000918252602090912001546001600160a01b0316905081565b600981815481106110a057600080fd5b6060600082516001611d929190613d9c565b67ffffffffffffffff811115611daa57611daa6136fe565b604051908082528060200260200182016040528015611dd3578160200160208202803683370190505b50905060005b8351811015610feb57838181518110611df457611df4613d55565b6020026020010151828281518110611e0e57611e0e613d55565b602090810291909101015280611e2381613d81565b915050611dd9565b60606000805b8351811015611f4057601b6000858381518110611e5057611e50613d55565b60200260200101516001600160a01b03166001600160a01b0316815260200190815260200160002091506000805b8551811015611ed157858181518110611e9957611e99613d55565b60200260200101516001600160a01b0316826001600160a01b03161415611ebf57600091505b80611ec981613d81565b915050611e7e565b506001600160a01b03811615611f2d57611eea85610f33565b9450808560018751611efc9190613db4565b81518110611f0c57611f0c613d55565b60200260200101906001600160a01b031690816001600160a01b0316815250505b5080611f3881613d81565b915050611e31565b509192915050565b6060600082516001611f5a9190613d9c565b67ffffffffffffffff811115611f7257611f726136fe565b604051908082528060200260200182016040528015611f9b578160200160208202803683370190505b50905060005b8351811015610feb57838181518110611fbc57611fbc613d55565b6020026020010151828281518110611fd657611fd6613d55565b9115156020928302919091019091015280611ff081613d81565b915050611fa1565b600d818154811061200857600080fd5b9060005260206000209060209182820401919006915054906101000a900460ff1681565b600e81815481106110a057600080fd5b336000908152601b60205260409020805460ff16156120985760405162461bcd60e51b81526020600482015260136024820152727961206573746173207265676973747261646f60681b60448201526064015b60405180910390fd5b602354156121c1576023546003546001600160a01b031663dd62ed3e336040516001600160e01b031960e084901b1681526001600160a01b039091166004820152306024820152604401602060405180830381865afa1580156120ff573d6000803e3d6000fd5b505050506040513d601f19601f820116820180604052508101906121239190613d1f565b101561212e57600080fd5b6003546001600160a01b03166323b872dd336023546040516001600160e01b031960e085901b1681526001600160a01b03909216600483015230602483015260448201526064016020604051808303816000875af1158015612194573d6000803e3d6000fd5b505050506040513d601f19601f820116820180604052508101906121b89190613d38565b6121c157600080fd5b6002602454106122db5760005b6025548110156122d957600354602180546001600160a01b039092169163a9059cbb91908490811061220257612202613d55565b9060005260206000200160009054906101000a90046001600160a01b031661225760646112d96022878154811061223b5761223b613d55565b90600052602060002001546023546131b490919063ffffffff16565b6040516001600160e01b031960e085901b1681526001600160a01b03909216600483015260248201526044016020604051808303816000875af11580156122a2573d6000803e3d6000fd5b505050506040513d601f19601f820116820180604052508101906122c69190613d38565b50806122d181613d81565b9150506121ce565b505b805461ffff191661010117815581516122fd9060098301906020850190613577565b50336000908152601c6020526040902080546001600160a01b0319166001600160a01b0385169081179091551561235e576001600160a01b0383166000908152601b60205260408120600881018054919261235783613d81565b9190505550505b6017805490600061236e83613d81565b90915550506040805160e08101825260008082526020808301829052828401829052606083018290526080830182905260a0830182905260c08301829052338252601f9052919091206123c29160076134d7565b50602080546000908152601d8252604080822080546001600160a01b031916339081179091558354908352601e8452908220819055919061240283613d81565b9190505550505050565b6001600160a01b0381166000908152601b6020908152604080832081516101a081018352815460ff8082161515835261010091829004161515948201949094526001820154928101929092526002810154606083015260038101546080830152600481015460a0830152600581015460c0830152600681015460e083015260078101549282019290925260088201546101208201526009820180548493916101408401916124b990613e0c565b80601f01602080910402602001604051908101604052809291908181526020018280546124e590613e0c565b80156125325780601f1061250757610100808354040283529160200191612532565b820191906000526020600020905b81548152906001019060200180831161251557829003601f168201915b50505050508152602001600a8201805480602002602001604051908101604052809291908181526020016000905b828210156125b15760008481526020908190206040805160608101825260038602909201805483526001808201548486015260029091015460ff161515918301919091529083529092019101612560565b505050508152602001600b8201548152505090506006548161018001516125d89190613dcb565b9392505050565b60258181548110611d5657600080fd5b600080546001600160a01b0316336001600160a01b03161461261057600080fd5b82516126239060259060208601906135ea565b50815161110990602690602085019061348c565b600080546001600160a01b0316336001600160a01b03161461265857600080fd5b50602355600190565b3360009081526001602052604081205460ff1661267d57600080fd5b600c54821061268b57600080fd5b600d828154811061269e5761269e613d55565b90600052602060002090602091828204019190069054906101000a900460ff166126c757600080fd5b6001600160a01b0383166000908152601b60205260409020805460ff166126ed57600080fd5b6000600c848154811061270257612702613d55565b9060005260206000200154905081600a01604051806060016040528042815260200161274461273d60646013546131e690919063ffffffff16565b85906131b4565b8152600060209182018190528354600180820186559482529082902083516003909202019081559082015192810192909255604001516002909101805460ff19169115159190911790556013546127a7906127a09060646131e6565b82906131b4565b8260060160008282546127ba9190613d9c565b9091555060019695505050505050565b600c81815481106110a057600080fd5b600080546001600160a01b0316336001600160a01b0316146127fb57600080fd5b506010805460ff191682151517905590565b600080546001600160a01b0316336001600160a01b03161461282e57600080fd5b50601555600190565b600080546001600160a01b0316336001600160a01b03161461285857600080fd5b50600881905590565b6001600160a01b0382166000908152601b60205260408120905b600a82015481101561290357600082600a01828154811061289e5761289e613d55565b90600052602060002090600302019050838160010154106128d7578381600101546128c99190613db4565b6001820155600093506128f0565b60018101546128e69085613db4565b6000600183015593505b50806128fb81613d81565b91505061287b565b50505050565b600081116129595760405162461bcd60e51b815260206004820152601e60248201527f63616e7469646164206d696e696d6120646520626c6f6b657320657320310000604482015260640161208f565b336000908152601b60205260409020805460ff1615612dcf576000826006546129829190613dcb565b60035490915081906001600160a01b031663dd62ed3e336040516001600160e01b031960e084901b1681526001600160a01b039091166004820152306024820152604401602060405180830381865afa1580156129e3573d6000803e3d6000fd5b505050506040513d601f19601f82011682018060405250810190612a079190613d1f565b1015612a555760405162461bcd60e51b815260206004820152601b60248201527f73616c646f206170726f7661646f20696e737566696369656e74650000000000604482015260640161208f565b6003546001600160a01b03166323b872dd336040516001600160e01b031960e084901b1681526001600160a01b039091166004820152306024820152604481018490526064016020604051808303816000875af1158015612aba573d6000803e3d6000fd5b505050506040513d601f19601f82011682018060405250810190612ade9190613d38565b612b215760405162461bcd60e51b81526020600482015260146024820152737472616e666572656e6369612066616c6c69646160601b604482015260640161208f565b336000908152601c60205260409020546001600160a01b031615612c0a57600854600a8301541015612baf57612baa33826009805480602002602001604051908101604052809291908181526020018280548015612b9e57602002820191906000526020600020905b815481526020019060010190808311612b8a575b50505050506000613208565b612c0a565b612c0a3382600a805480602002602001604051908101604052809291908181526020018280548015612b9e5760200282019190600052602060002090815481526020019060010190808311612b8a5750505050506000613208565b81600a016040518060600160405280428152602001612c3861273d60646013546131e690919063ffffffff16565b815260016020918201819052835480820185556000948552828520845160039092020190815591830151908201556040909101516002909101805460ff1916911515919091179055600483018054839290612c94908490613d9c565b9091555050601354612cab906127a09060646131e6565b826006016000828254612cbe9190613d9c565b925050819055508060186000828254612cd79190613d9c565b90915550600090505b60255481101561290357600354602580546001600160a01b039092169163a9059cbb919084908110612d1457612d14613d55565b9060005260206000200160009054906101000a90046001600160a01b0316612d4d60646112d9602687815481106112bf576112bf613d55565b6040516001600160e01b031960e085901b1681526001600160a01b03909216600483015260248201526044016020604051808303816000875af1158015612d98573d6000803e3d6000fd5b505050506040513d601f19601f82011682018060405250810190612dbc9190613d38565b5080612dc781613d81565b915050612ce0565b60405162461bcd60e51b81526020600482015260126024820152716e6f2065737461207265676973747261646f60701b604482015260640161208f565b600080546001600160a01b0316336001600160a01b031614612e2d57600080fd5b600080546040516001600160a01b03909116914780156108fc02929091818181858888f19350505050158015612e67573d6000803e3d6000fd5b5047905090565b6001600160a01b0381166000908152601b6020908152604080832081516101a081018352815460ff8082161515835261010091829004161515948201949094526001820154928101929092526002810154606083015260038101546080830152600481015460a0830152600581015460c0830152600681015460e08301526007810154928201929092526008820154610120820152600982018054849391610140840191612f1b90613e0c565b80601f0160208091040260200160405190810160405280929190818152602001828054612f4790613e0c565b8015612f945780601f10612f6957610100808354040283529160200191612f94565b820191906000526020600020905b815481529060010190602001808311612f7757829003601f168201915b50505050508152602001600a8201805480602002602001604051908101604052809291908181526020016000905b828210156130135760008481526020908190206040805160608101825260038602909201805483526001808201548486015260029091015460ff161515918301919091529083529092019101612fc2565b505050508152602001600b820154815250509050600080826060015183604001518460e001516130439190613d9c565b61304d9190613d9c565b905060608060608060006130608a6117c1565b9398509196509450925090506130768782613d9c565b90508760400151816130889190613d9c565b905080861061309e579998505050505050505050565b509398975050505050505050565b600080546001600160a01b0316336001600160a01b0316146130cd57600080fd5b83516130e09060219060208701906135ea565b5082516130f490602290602086019061348c565b5050602455506001919050565b6000546001600160a01b0316336001600160a01b03161461312157600080fd5b6001600160a01b03811661313457600080fd5b600080546040516001600160a01b03808516939216917f8be0079c531659141344cd1fd0a4f28419497f9722a3daafe3b4186f6b6457e091a3600080546001600160a01b0319166001600160a01b0392909216919091179055565b3360009081526001602052604081205460ff166131ab57600080fd5b50601181905590565b6000826131c357506000610f2d565b60006131cf8385613dcb565b9050826131dc8583613dea565b146125d857600080fd5b60008082116131f457600080fd5b60006132008385613dea565b949350505050565b6060613215858451610e9c565b905060008060005b85518110156134675785818151811061323857613238613d55565b602002602001015160001461345057601b600085838151811061325d5761325d613d55565b6020908102919091018101516001600160a01b03168252810191909152604001600020805490925060ff16801561329a57508154610100900460ff165b80156132aa575060008260060154115b156134555760006001600160a01b03168482815181106132cc576132cc613d55565b60200260200101516001600160a01b031614613450576133146103e86112d98884815181106132fd576132fd613d55565b60200260200101518a6131b490919063ffffffff16565b925061331f33612e6e565b6133299084613d9c565b826006015411156133c457828260060160008282546133489190613db4565b9091555050841561337257828260020160008282546133679190613d9c565b909155506133a79050565b828260010160008282546133869190613d9c565b92505081905550828260030160008282546133a19190613d9c565b90915550505b82601960008282546133b99190613d9c565b909155506134559050565b84156133ed5781600601548260020160008282546133e29190613d9c565b909155506134299050565b81600601548260010160008282546134059190613d9c565b90915550506006820154600383018054600090613423908490613d9c565b90915550505b81600601546019600082825461343f9190613d9c565b909155505060006006830155613455565b613467565b8061345f81613d81565b91505061321d565b5050505050505050565b60008282111561348057600080fd5b60006132008385613db4565b8280548282559060005260206000209081019282156134c7579160200282015b828111156134c75782518255916020019190600101906134ac565b506134d392915061363f565b5090565b82805482825590600052602060002090601f016020900481019282156134c75791602002820160005b8382111561353d57835183826101000a81548160ff0219169083151502179055509260200192600101602081600001049283019260010302613500565b801561356a5782816101000a81549060ff021916905560010160208160000104928301926001030261353d565b50506134d392915061363f565b82805461358390613e0c565b90600052602060002090601f0160209004810192826135a557600085556134c7565b82601f106135be57805160ff19168380011785556134c7565b828001600101855582156134c757918201828111156134c75782518255916020019190600101906134ac565b8280548282559060005260206000209081019282156134c7579160200282015b828111156134c757825182546001600160a01b0319166001600160a01b0390911617825560209092019160019091019061360a565b5b808211156134d35760008155600101613640565b60006020828403121561366657600080fd5b5035919050565b6001600160a01b038116811461368257600080fd5b50565b6000806040838503121561369857600080fd5b82356136a38161366d565b946020939093013593505050565b6020808252825182820181905260009190848201906040850190845b818110156136f25783516001600160a01b0316835292840192918401916001016136cd565b50909695505050505050565b634e487b7160e01b600052604160045260246000fd5b604051601f8201601f1916810167ffffffffffffffff8111828210171561373d5761373d6136fe565b604052919050565b600067ffffffffffffffff82111561375f5761375f6136fe565b5060051b60200190565b600082601f83011261377a57600080fd5b8135602061378f61378a83613745565b613714565b82815260059290921b840181019181810190868411156137ae57600080fd5b8286015b848110156137d25780356137c58161366d565b83529183019183016137b2565b509695505050505050565b6000602082840312156137ef57600080fd5b813567ffffffffffffffff81111561380657600080fd5b61320084828501613769565b6000806040838503121561382557600080fd5b50508035926020909101359150565b600081518084526020808501945080840160005b8381101561386457815187529582019590820190600101613848565b509495945050505050565b6020815260006125d86020830184613834565b600082601f83011261389357600080fd5b813560206138a361378a83613745565b82815260059290921b840181019181810190868411156138c257600080fd5b8286015b848110156137d257803583529183019183016138c6565b801515811461368257600080fd5b600082601f8301126138fc57600080fd5b8135602061390c61378a83613745565b82815260059290921b8401810191818101908684111561392b57600080fd5b8286015b848110156137d2578035613942816138dd565b835291830191830161392f565b6000806040838503121561396257600080fd5b823567ffffffffffffffff8082111561397a57600080fd5b61398686838701613882565b9350602085013591508082111561399c57600080fd5b506139a9858286016138eb565b9150509250929050565b6000602082840312156139c557600080fd5b81356125d88161366d565b600081518084526020808501945080840160005b838110156138645781511515875295820195908201906001016139e4565b60a081526000613a1560a0830188613834565b8281036020840152613a278188613834565b90508281036040840152613a3b81876139d0565b90508281036060840152613a4f81866139d0565b9150508260808301529695505050505050565b60006101808e1515835260208e1515818501528d60408501528c60608501528b60808501528a60a08501528960c08501528860e085015287610100850152866101208501528161014085015285518083860152600092505b80831015613ad9578683018201518584016101a0015291810191613aba565b80831115613aec5760006101a082870101525b610160850195909552505050601f91909101601f1916016101a0019b9a5050505050505050505050565b600060208284031215613b2857600080fd5b813567ffffffffffffffff811115613b3f57600080fd5b61320084828501613882565b600060208284031215613b5d57600080fd5b813567ffffffffffffffff811115613b7457600080fd5b613200848285016138eb565b6020815260006125d860208301846139d0565b60008060408385031215613ba657600080fd5b8235613bb18161366d565b915060208381013567ffffffffffffffff80821115613bcf57600080fd5b818601915086601f830112613be357600080fd5b813581811115613bf557613bf56136fe565b613c07601f8201601f19168501613714565b91508082528784828501011115613c1d57600080fd5b80848401858401376000848284010152508093505050509250929050565b60008060408385031215613c4e57600080fd5b823567ffffffffffffffff80821115613c6657600080fd5b613c7286838701613769565b93506020850135915080821115613c8857600080fd5b506139a985828601613882565b600060208284031215613ca757600080fd5b81356125d8816138dd565b600080600060608486031215613cc757600080fd5b833567ffffffffffffffff80821115613cdf57600080fd5b613ceb87838801613769565b94506020860135915080821115613d0157600080fd5b50613d0e86828701613882565b925050604084013590509250925092565b600060208284031215613d3157600080fd5b5051919050565b600060208284031215613d4a57600080fd5b81516125d8816138dd565b634e487b7160e01b600052603260045260246000fd5b634e487b7160e01b600052601160045260246000fd5b6000600019821415613d9557613d95613d6b565b5060010190565b60008219821115613daf57613daf613d6b565b500190565b600082821015613dc657613dc6613d6b565b500390565b6000816000190483118215151615613de557613de5613d6b565b500290565b600082613e0757634e487b7160e01b600052601260045260246000fd5b500490565b600181811c90821680613e2057607f821691505b60208210811415613e4157634e487b7160e01b600052602260045260246000fd5b5091905056fea2646970667358221220d9d13667de1a1b90c21c7f2fa304d8acbc3706a90ccd98c948ec8a0cb57991aa64736f6c634300080a0033",
    "sourcePath": "c:/Users/STC/Documents/GitHub/0-INFINITY-BLOCKS-TEST-UNILEVEL/contracts/UnilevelSystem.sol",
    "compiler": {
        "name": "solc",
        "version": "0.8.10+commit.fc410830"
    },
    "functionHashes": {
        "ChangeTokenPrincipal(address)": "50da983f",
        "MIN_RETIRO()": "6c529279",
        "MIN_RETIRO_interno()": "4bdcd429",
        "PRECIO_BLOCK()": "24de19f2",
        "active(uint256)": "8033d581",
        "activerFee()": "bd9bee19",
        "actualizarArrayBool(bool[])": "7fcc1e36",
        "actualizarArrayUint256(uint256[])": "7367b080",
        "actualizarNetwork(address[])": "1ce7f99b",
        "addressToId(address)": "cb0e0d7d",
        "admin(address)": "63a846f8",
        "allnetwork(address[])": "7faee047",
        "asignarBloke(address,uint256)": "af604ad0",
        "buyBlocks(uint256)": "c17dbdf9",
        "column(address,uint256)": "15e8392b",
        "controlWitdrawl(bool)": "b17b6e44",
        "depositos(address)": "664e62b9",
        "descuento()": "7b0412ed",
        "dias()": "ab6db199",
        "discountDeposits(address,uint256)": "c073d909",
        "gananciasRango(uint256)": "81032892",
        "idToAddress(uint256)": "2a2d0c47",
        "inversiones()": "a77d2119",
        "investors(address)": "6f7bc9be",
        "lastUserId()": "348d4487",
        "makeNewAdmin(address)": "69ed1e0a",
        "makeRemoveAdmin(address)": "70a0966b",
        "newRecompensa()": "69f4a84b",
        "onOffWitdrawl()": "e7348e8c",
        "owner()": "8da5cb5b",
        "padre(address)": "b35f0a8f",
        "personas()": "cc759ba2",
        "plans(uint256)": "b1620616",
        "plansLength()": "26837aa8",
        "porcent()": "4728f718",
        "porcentPuntosBinario()": "c2307ee6",
        "porcientos(uint256)": "28cca719",
        "porcientosSalida(uint256)": "22c0a574",
        "precioRegistro()": "7db9e9c6",
        "primervez(uint256)": "725fc270",
        "puntosRango(uint256)": "21309f21",
        "rangoReclamado(address,uint256)": "2acc8210",
        "redimTRX()": "cdb8bb2a",
        "redimTokenPrincipal02(uint256)": "1140e85b",
        "registro(address,string)": "8f9ef8c1",
        "setDescuento(uint256)": "b3d9fa09",
        "setInversiones(uint256)": "b85ea335",
        "setMIN_RETIRO(uint256)": "4de1be62",
        "setPlansAll(uint256[],bool[])": "23f376bc",
        "setPorcientos(uint256,uint256)": "1e403c35",
        "setPorcientosSalida(uint256,uint256)": "5d216c60",
        "setPrecioRegistro(uint256)": "aaa749c5",
        "setPrimeravezPorcientos(uint256,uint256)": "54822522",
        "setPuntosPorcentajeBinario(uint256)": "64417c89",
        "setRetorno(uint256)": "6589fa8a",
        "setTiempo(uint256)": "f90b3f5a",
        "setTiempoUnidades(uint256)": "2748d29b",
        "setWalletFee(address[],uint256[],uint256)": "db3be1a2",
        "setWalletstransfers(address[],uint256[])": "a8beb717",
        "setstate()": "85338e20",
        "tiempo()": "50188c08",
        "tokenPricipal()": "b1390426",
        "totalInvested()": "5216aeec",
        "totalInvestors()": "29b8caff",
        "totalRefRewards()": "bfe0e020",
        "totalRefWitdrawl()": "9b8ff503",
        "transferOwnership(address)": "f2fde38b",
        "unidades()": "4b9b8203",
        "valor(uint256)": "62550916",
        "valorFee(uint256)": "29e1a243",
        "wallet(uint256)": "a2781335",
        "walletFee(uint256)": "7251b9ac",
        "withdraw()": "3ccfd60b",
        "withdrawable(address)": "ce513b6f",
        "withdrawableRange(address)": "98c07d0a"
    },
    "gasEstimates": {
        "creation": {
            "codeDepositCost": "3199400",
            "executionCost": "infinite",
            "totalCost": "infinite"
        },
        "external": {
            "": "231",
            "ChangeTokenPrincipal(address)": "51094",
            "MIN_RETIRO()": "2373",
            "MIN_RETIRO_interno()": "2375",
            "PRECIO_BLOCK()": "2419",
            "active(uint256)": "6348",
            "activerFee()": "2395",
            "actualizarArrayBool(bool[])": "infinite",
            "actualizarArrayUint256(uint256[])": "infinite",
            "actualizarNetwork(address[])": "infinite",
            "addressToId(address)": "2613",
            "admin(address)": "2593",
            "allnetwork(address[])": "infinite",
            "asignarBloke(address,uint256)": "infinite",
            "buyBlocks(uint256)": "infinite",
            "column(address,uint256)": "infinite",
            "controlWitdrawl(bool)": "26855",
            "depositos(address)": "infinite",
            "descuento()": "2397",
            "dias()": "2417",
            "discountDeposits(address,uint256)": "infinite",
            "gananciasRango(uint256)": "4698",
            "idToAddress(uint256)": "2545",
            "inversiones()": "2351",
            "investors(address)": "infinite",
            "lastUserId()": "2396",
            "makeNewAdmin(address)": "28132",
            "makeRemoveAdmin(address)": "28091",
            "newRecompensa()": "infinite",
            "onOffWitdrawl()": "2420",
            "owner()": "2405",
            "padre(address)": "2686",
            "personas()": "2417",
            "plans(uint256)": "4654",
            "plansLength()": "2446",
            "porcent()": "2440",
            "porcentPuntosBinario()": "2373",
            "porcientos(uint256)": "4655",
            "porcientosSalida(uint256)": "4655",
            "precioRegistro()": "2419",
            "primervez(uint256)": "4633",
            "puntosRango(uint256)": "4633",
            "rangoReclamado(address,uint256)": "6493",
            "redimTRX()": "infinite",
            "redimTokenPrincipal02(uint256)": "infinite",
            "registro(address,string)": "infinite",
            "setDescuento(uint256)": "24623",
            "setInversiones(uint256)": "24631",
            "setMIN_RETIRO(uint256)": "24655",
            "setPlansAll(uint256[],bool[])": "infinite",
            "setPorcientos(uint256,uint256)": "infinite",
            "setPorcientosSalida(uint256,uint256)": "infinite",
            "setPrecioRegistro(uint256)": "24667",
            "setPrimeravezPorcientos(uint256,uint256)": "infinite",
            "setPuntosPorcentajeBinario(uint256)": "24632",
            "setRetorno(uint256)": "24684",
            "setTiempo(uint256)": "24726",
            "setTiempoUnidades(uint256)": "24611",
            "setWalletFee(address[],uint256[],uint256)": "infinite",
            "setWalletstransfers(address[],uint256[])": "infinite",
            "setstate()": "6684",
            "tiempo()": "infinite",
            "tokenPricipal()": "2405",
            "totalInvested()": "2374",
            "totalInvestors()": "2397",
            "totalRefRewards()": "2417",
            "totalRefWitdrawl()": "2418",
            "transferOwnership(address)": "30544",
            "unidades()": "2353",
            "valor(uint256)": "4720",
            "valorFee(uint256)": "4699",
            "wallet(uint256)": "4770",
            "walletFee(uint256)": "4769",
            "withdraw()": "infinite",
            "withdrawable(address)": "infinite",
            "withdrawableRange(address)": "infinite"
        },
        "internal": {
            "rewardReferers(address,uint256,uint256[] memory,bool)": "infinite"
        }
    }
}